{
  "_format": "hh-sol-artifact-1",
  "contractName": "ShippingNFT",
  "sourceName": "contracts/ShippingNFT.sol",
  "abi": [
    {
      "inputs": [],
      "stateMutability": "nonpayable",
      "type": "constructor"
    },
    {
      "inputs": [],
      "name": "ApprovalCallerNotOwnerNorApproved",
      "type": "error"
    },
    {
      "inputs": [],
      "name": "ApprovalQueryForNonexistentToken",
      "type": "error"
    },
    {
      "inputs": [],
      "name": "ApprovalToCurrentOwner",
      "type": "error"
    },
    {
      "inputs": [],
      "name": "ApproveToCaller",
      "type": "error"
    },
    {
      "inputs": [],
      "name": "BalanceQueryForZeroAddress",
      "type": "error"
    },
    {
      "inputs": [
        {
          "internalType": "uint256",
          "name": "index",
          "type": "uint256"
        }
      ],
      "name": "BatchMintInvalidBatchId",
      "type": "error"
    },
    {
      "inputs": [
        {
          "internalType": "uint256",
          "name": "tokenId",
          "type": "uint256"
        }
      ],
      "name": "BatchMintInvalidTokenId",
      "type": "error"
    },
    {
      "inputs": [
        {
          "internalType": "uint256",
          "name": "batchId",
          "type": "uint256"
        }
      ],
      "name": "BatchMintMetadataFrozen",
      "type": "error"
    },
    {
      "inputs": [],
      "name": "ContractMetadataUnauthorized",
      "type": "error"
    },
    {
      "inputs": [],
      "name": "InvalidQueryRange",
      "type": "error"
    },
    {
      "inputs": [],
      "name": "MintToZeroAddress",
      "type": "error"
    },
    {
      "inputs": [],
      "name": "MintZeroQuantity",
      "type": "error"
    },
    {
      "inputs": [],
      "name": "OwnableUnauthorized",
      "type": "error"
    },
    {
      "inputs": [],
      "name": "OwnerQueryForNonexistentToken",
      "type": "error"
    },
    {
      "inputs": [
        {
          "internalType": "uint256",
          "name": "max",
          "type": "uint256"
        },
        {
          "internalType": "uint256",
          "name": "actual",
          "type": "uint256"
        }
      ],
      "name": "RoyaltyExceededMaxFeeBps",
      "type": "error"
    },
    {
      "inputs": [
        {
          "internalType": "address",
          "name": "recipient",
          "type": "address"
        }
      ],
      "name": "RoyaltyInvalidRecipient",
      "type": "error"
    },
    {
      "inputs": [],
      "name": "RoyaltyUnauthorized",
      "type": "error"
    },
    {
      "inputs": [],
      "name": "TransferCallerNotOwnerNorApproved",
      "type": "error"
    },
    {
      "inputs": [],
      "name": "TransferFromIncorrectOwner",
      "type": "error"
    },
    {
      "inputs": [],
      "name": "TransferToNonERC721ReceiverImplementer",
      "type": "error"
    },
    {
      "inputs": [],
      "name": "TransferToZeroAddress",
      "type": "error"
    },
    {
      "inputs": [],
      "name": "URIQueryForNonexistentToken",
      "type": "error"
    },
    {
      "anonymous": false,
      "inputs": [
        {
          "indexed": true,
          "internalType": "address",
          "name": "owner",
          "type": "address"
        },
        {
          "indexed": true,
          "internalType": "address",
          "name": "approved",
          "type": "address"
        },
        {
          "indexed": true,
          "internalType": "uint256",
          "name": "tokenId",
          "type": "uint256"
        }
      ],
      "name": "Approval",
      "type": "event"
    },
    {
      "anonymous": false,
      "inputs": [
        {
          "indexed": true,
          "internalType": "address",
          "name": "owner",
          "type": "address"
        },
        {
          "indexed": true,
          "internalType": "address",
          "name": "operator",
          "type": "address"
        },
        {
          "indexed": false,
          "internalType": "bool",
          "name": "approved",
          "type": "bool"
        }
      ],
      "name": "ApprovalForAll",
      "type": "event"
    },
    {
      "anonymous": false,
      "inputs": [
        {
          "indexed": false,
          "internalType": "uint256",
          "name": "_fromTokenId",
          "type": "uint256"
        },
        {
          "indexed": false,
          "internalType": "uint256",
          "name": "_toTokenId",
          "type": "uint256"
        }
      ],
      "name": "BatchMetadataUpdate",
      "type": "event"
    },
    {
      "anonymous": false,
      "inputs": [
        {
          "indexed": false,
          "internalType": "string",
          "name": "prevURI",
          "type": "string"
        },
        {
          "indexed": false,
          "internalType": "string",
          "name": "newURI",
          "type": "string"
        }
      ],
      "name": "ContractURIUpdated",
      "type": "event"
    },
    {
      "anonymous": false,
      "inputs": [
        {
          "indexed": true,
          "internalType": "address",
          "name": "newRoyaltyRecipient",
          "type": "address"
        },
        {
          "indexed": false,
          "internalType": "uint256",
          "name": "newRoyaltyBps",
          "type": "uint256"
        }
      ],
      "name": "DefaultRoyalty",
      "type": "event"
    },
    {
      "anonymous": false,
      "inputs": [
        {
          "indexed": true,
          "internalType": "uint256",
          "name": "id",
          "type": "uint256"
        },
        {
          "indexed": false,
          "internalType": "string",
          "name": "cid",
          "type": "string"
        }
      ],
      "name": "DocumentUploaded",
      "type": "event"
    },
    {
      "anonymous": false,
      "inputs": [],
      "name": "MetadataFrozen",
      "type": "event"
    },
    {
      "anonymous": false,
      "inputs": [
        {
          "indexed": true,
          "internalType": "address",
          "name": "prevOwner",
          "type": "address"
        },
        {
          "indexed": true,
          "internalType": "address",
          "name": "newOwner",
          "type": "address"
        }
      ],
      "name": "OwnerUpdated",
      "type": "event"
    },
    {
      "anonymous": false,
      "inputs": [
        {
          "indexed": true,
          "internalType": "uint256",
          "name": "tokenId",
          "type": "uint256"
        },
        {
          "indexed": true,
          "internalType": "address",
          "name": "royaltyRecipient",
          "type": "address"
        },
        {
          "indexed": false,
          "internalType": "uint256",
          "name": "royaltyBps",
          "type": "uint256"
        }
      ],
      "name": "RoyaltyForToken",
      "type": "event"
    },
    {
      "anonymous": false,
      "inputs": [
        {
          "indexed": true,
          "internalType": "uint256",
          "name": "id",
          "type": "uint256"
        },
        {
          "indexed": true,
          "internalType": "address",
          "name": "sender",
          "type": "address"
        },
        {
          "indexed": true,
          "internalType": "address",
          "name": "receiver",
          "type": "address"
        },
        {
          "indexed": false,
          "internalType": "string",
          "name": "description",
          "type": "string"
        },
        {
          "indexed": false,
          "internalType": "string",
          "name": "documentCID",
          "type": "string"
        }
      ],
      "name": "ShipmentCreated",
      "type": "event"
    },
    {
      "anonymous": false,
      "inputs": [
        {
          "indexed": true,
          "internalType": "uint256",
          "name": "id",
          "type": "uint256"
        },
        {
          "indexed": true,
          "internalType": "address",
          "name": "from",
          "type": "address"
        },
        {
          "indexed": true,
          "internalType": "address",
          "name": "to",
          "type": "address"
        }
      ],
      "name": "ShipmentTransferred",
      "type": "event"
    },
    {
      "anonymous": false,
      "inputs": [
        {
          "indexed": true,
          "internalType": "address",
          "name": "from",
          "type": "address"
        },
        {
          "indexed": true,
          "internalType": "address",
          "name": "to",
          "type": "address"
        },
        {
          "indexed": true,
          "internalType": "uint256",
          "name": "tokenId",
          "type": "uint256"
        }
      ],
      "name": "Transfer",
      "type": "event"
    },
    {
      "inputs": [
        {
          "internalType": "address",
          "name": "to",
          "type": "address"
        },
        {
          "internalType": "uint256",
          "name": "tokenId",
          "type": "uint256"
        }
      ],
      "name": "approve",
      "outputs": [],
      "stateMutability": "nonpayable",
      "type": "function"
    },
    {
      "inputs": [
        {
          "internalType": "address",
          "name": "owner",
          "type": "address"
        }
      ],
      "name": "balanceOf",
      "outputs": [
        {
          "internalType": "uint256",
          "name": "",
          "type": "uint256"
        }
      ],
      "stateMutability": "view",
      "type": "function"
    },
    {
      "inputs": [
        {
          "internalType": "uint256",
          "name": "",
          "type": "uint256"
        }
      ],
      "name": "batchFrozen",
      "outputs": [
        {
          "internalType": "bool",
          "name": "",
          "type": "bool"
        }
      ],
      "stateMutability": "view",
      "type": "function"
    },
    {
      "inputs": [
        {
          "internalType": "address",
          "name": "_to",
          "type": "address"
        },
        {
          "internalType": "uint256",
          "name": "_quantity",
          "type": "uint256"
        },
        {
          "internalType": "string",
          "name": "_baseURI",
          "type": "string"
        },
        {
          "internalType": "bytes",
          "name": "_data",
          "type": "bytes"
        }
      ],
      "name": "batchMintTo",
      "outputs": [],
      "stateMutability": "nonpayable",
      "type": "function"
    },
    {
      "inputs": [
        {
          "internalType": "uint256",
          "name": "_tokenId",
          "type": "uint256"
        }
      ],
      "name": "burn",
      "outputs": [],
      "stateMutability": "nonpayable",
      "type": "function"
    },
    {
      "inputs": [],
      "name": "contractURI",
      "outputs": [
        {
          "internalType": "string",
          "name": "",
          "type": "string"
        }
      ],
      "stateMutability": "view",
      "type": "function"
    },
    {
      "inputs": [
        {
          "internalType": "uint256",
          "name": "id",
          "type": "uint256"
        },
        {
          "internalType": "string",
          "name": "desc",
          "type": "string"
        },
        {
          "internalType": "address",
          "name": "receiver",
          "type": "address"
        },
        {
          "internalType": "string",
          "name": "cid",
          "type": "string"
        }
      ],
      "name": "createShipment",
      "outputs": [],
      "stateMutability": "nonpayable",
      "type": "function"
    },
    {
      "inputs": [
        {
          "internalType": "uint256",
          "name": "tokenId",
          "type": "uint256"
        }
      ],
      "name": "explicitOwnershipOf",
      "outputs": [
        {
          "components": [
            {
              "internalType": "address",
              "name": "addr",
              "type": "address"
            },
            {
              "internalType": "uint64",
              "name": "startTimestamp",
              "type": "uint64"
            },
            {
              "internalType": "bool",
              "name": "burned",
              "type": "bool"
            }
          ],
          "internalType": "struct IERC721A.TokenOwnership",
          "name": "",
          "type": "tuple"
        }
      ],
      "stateMutability": "view",
      "type": "function"
    },
    {
      "inputs": [
        {
          "internalType": "uint256[]",
          "name": "tokenIds",
          "type": "uint256[]"
        }
      ],
      "name": "explicitOwnershipsOf",
      "outputs": [
        {
          "components": [
            {
              "internalType": "address",
              "name": "addr",
              "type": "address"
            },
            {
              "internalType": "uint64",
              "name": "startTimestamp",
              "type": "uint64"
            },
            {
              "internalType": "bool",
              "name": "burned",
              "type": "bool"
            }
          ],
          "internalType": "struct IERC721A.TokenOwnership[]",
          "name": "",
          "type": "tuple[]"
        }
      ],
      "stateMutability": "view",
      "type": "function"
    },
    {
      "inputs": [
        {
          "internalType": "uint256",
          "name": "tokenId",
          "type": "uint256"
        }
      ],
      "name": "getApproved",
      "outputs": [
        {
          "internalType": "address",
          "name": "",
          "type": "address"
        }
      ],
      "stateMutability": "view",
      "type": "function"
    },
    {
      "inputs": [],
      "name": "getBaseURICount",
      "outputs": [
        {
          "internalType": "uint256",
          "name": "",
          "type": "uint256"
        }
      ],
      "stateMutability": "view",
      "type": "function"
    },
    {
      "inputs": [
        {
          "internalType": "uint256",
          "name": "_index",
          "type": "uint256"
        }
      ],
      "name": "getBatchIdAtIndex",
      "outputs": [
        {
          "internalType": "uint256",
          "name": "",
          "type": "uint256"
        }
      ],
      "stateMutability": "view",
      "type": "function"
    },
    {
      "inputs": [],
      "name": "getDefaultRoyaltyInfo",
      "outputs": [
        {
          "internalType": "address",
          "name": "",
          "type": "address"
        },
        {
          "internalType": "uint16",
          "name": "",
          "type": "uint16"
        }
      ],
      "stateMutability": "view",
      "type": "function"
    },
    {
      "inputs": [
        {
          "internalType": "uint256",
          "name": "_tokenId",
          "type": "uint256"
        }
      ],
      "name": "getRoyaltyInfoForToken",
      "outputs": [
        {
          "internalType": "address",
          "name": "",
          "type": "address"
        },
        {
          "internalType": "uint16",
          "name": "",
          "type": "uint16"
        }
      ],
      "stateMutability": "view",
      "type": "function"
    },
    {
      "inputs": [
        {
          "internalType": "uint256",
          "name": "id",
          "type": "uint256"
        }
      ],
      "name": "getShipmentDetails",
      "outputs": [
        {
          "internalType": "string",
          "name": "desc",
          "type": "string"
        },
        {
          "internalType": "address",
          "name": "sender",
          "type": "address"
        },
        {
          "internalType": "address",
          "name": "receiver",
          "type": "address"
        },
        {
          "internalType": "string",
          "name": "cid",
          "type": "string"
        }
      ],
      "stateMutability": "view",
      "type": "function"
    },
    {
      "inputs": [
        {
          "internalType": "address",
          "name": "owner",
          "type": "address"
        },
        {
          "internalType": "address",
          "name": "operator",
          "type": "address"
        }
      ],
      "name": "isApprovedForAll",
      "outputs": [
        {
          "internalType": "bool",
          "name": "",
          "type": "bool"
        }
      ],
      "stateMutability": "view",
      "type": "function"
    },
    {
      "inputs": [
        {
          "internalType": "address",
          "name": "_operator",
          "type": "address"
        },
        {
          "internalType": "uint256",
          "name": "_tokenId",
          "type": "uint256"
        }
      ],
      "name": "isApprovedOrOwner",
      "outputs": [
        {
          "internalType": "bool",
          "name": "isApprovedOrOwnerOf",
          "type": "bool"
        }
      ],
      "stateMutability": "view",
      "type": "function"
    },
    {
      "inputs": [
        {
          "internalType": "address",
          "name": "_to",
          "type": "address"
        },
        {
          "internalType": "string",
          "name": "_tokenURI",
          "type": "string"
        }
      ],
      "name": "mintTo",
      "outputs": [],
      "stateMutability": "nonpayable",
      "type": "function"
    },
    {
      "inputs": [
        {
          "internalType": "bytes[]",
          "name": "data",
          "type": "bytes[]"
        }
      ],
      "name": "multicall",
      "outputs": [
        {
          "internalType": "bytes[]",
          "name": "results",
          "type": "bytes[]"
        }
      ],
      "stateMutability": "nonpayable",
      "type": "function"
    },
    {
      "inputs": [],
      "name": "name",
      "outputs": [
        {
          "internalType": "string",
          "name": "",
          "type": "string"
        }
      ],
      "stateMutability": "view",
      "type": "function"
    },
    {
      "inputs": [],
      "name": "nextTokenIdToMint",
      "outputs": [
        {
          "internalType": "uint256",
          "name": "",
          "type": "uint256"
        }
      ],
      "stateMutability": "view",
      "type": "function"
    },
    {
      "inputs": [],
      "name": "owner",
      "outputs": [
        {
          "internalType": "address",
          "name": "",
          "type": "address"
        }
      ],
      "stateMutability": "view",
      "type": "function"
    },
    {
      "inputs": [
        {
          "internalType": "uint256",
          "name": "tokenId",
          "type": "uint256"
        }
      ],
      "name": "ownerOf",
      "outputs": [
        {
          "internalType": "address",
          "name": "",
          "type": "address"
        }
      ],
      "stateMutability": "view",
      "type": "function"
    },
    {
      "inputs": [
        {
          "internalType": "uint256",
          "name": "tokenId",
          "type": "uint256"
        },
        {
          "internalType": "uint256",
          "name": "salePrice",
          "type": "uint256"
        }
      ],
      "name": "royaltyInfo",
      "outputs": [
        {
          "internalType": "address",
          "name": "receiver",
          "type": "address"
        },
        {
          "internalType": "uint256",
          "name": "royaltyAmount",
          "type": "uint256"
        }
      ],
      "stateMutability": "view",
      "type": "function"
    },
    {
      "inputs": [
        {
          "internalType": "address",
          "name": "from",
          "type": "address"
        },
        {
          "internalType": "address",
          "name": "to",
          "type": "address"
        },
        {
          "internalType": "uint256",
          "name": "tokenId",
          "type": "uint256"
        }
      ],
      "name": "safeTransferFrom",
      "outputs": [],
      "stateMutability": "nonpayable",
      "type": "function"
    },
    {
      "inputs": [
        {
          "internalType": "address",
          "name": "from",
          "type": "address"
        },
        {
          "internalType": "address",
          "name": "to",
          "type": "address"
        },
        {
          "internalType": "uint256",
          "name": "tokenId",
          "type": "uint256"
        },
        {
          "internalType": "bytes",
          "name": "_data",
          "type": "bytes"
        }
      ],
      "name": "safeTransferFrom",
      "outputs": [],
      "stateMutability": "nonpayable",
      "type": "function"
    },
    {
      "inputs": [
        {
          "internalType": "address",
          "name": "operator",
          "type": "address"
        },
        {
          "internalType": "bool",
          "name": "approved",
          "type": "bool"
        }
      ],
      "name": "setApprovalForAll",
      "outputs": [],
      "stateMutability": "nonpayable",
      "type": "function"
    },
    {
      "inputs": [
        {
          "internalType": "string",
          "name": "_uri",
          "type": "string"
        }
      ],
      "name": "setContractURI",
      "outputs": [],
      "stateMutability": "nonpayable",
      "type": "function"
    },
    {
      "inputs": [
        {
          "internalType": "address",
          "name": "_royaltyRecipient",
          "type": "address"
        },
        {
          "internalType": "uint256",
          "name": "_royaltyBps",
          "type": "uint256"
        }
      ],
      "name": "setDefaultRoyaltyInfo",
      "outputs": [],
      "stateMutability": "nonpayable",
      "type": "function"
    },
    {
      "inputs": [
        {
          "internalType": "address",
          "name": "_newOwner",
          "type": "address"
        }
      ],
      "name": "setOwner",
      "outputs": [],
      "stateMutability": "nonpayable",
      "type": "function"
    },
    {
      "inputs": [
        {
          "internalType": "uint256",
          "name": "_tokenId",
          "type": "uint256"
        },
        {
          "internalType": "address",
          "name": "_recipient",
          "type": "address"
        },
        {
          "internalType": "uint256",
          "name": "_bps",
          "type": "uint256"
        }
      ],
      "name": "setRoyaltyInfoForToken",
      "outputs": [],
      "stateMutability": "nonpayable",
      "type": "function"
    },
    {
      "inputs": [],
      "name": "shipmentCount",
      "outputs": [
        {
          "internalType": "uint256",
          "name": "",
          "type": "uint256"
        }
      ],
      "stateMutability": "view",
      "type": "function"
    },
    {
      "inputs": [
        {
          "internalType": "uint256",
          "name": "",
          "type": "uint256"
        }
      ],
      "name": "shipments",
      "outputs": [
        {
          "internalType": "string",
          "name": "description",
          "type": "string"
        },
        {
          "internalType": "address",
          "name": "sender",
          "type": "address"
        },
        {
          "internalType": "address",
          "name": "receiver",
          "type": "address"
        },
        {
          "internalType": "string",
          "name": "documentCID",
          "type": "string"
        }
      ],
      "stateMutability": "view",
      "type": "function"
    },
    {
      "inputs": [
        {
          "internalType": "bytes4",
          "name": "interfaceId",
          "type": "bytes4"
        }
      ],
      "name": "supportsInterface",
      "outputs": [
        {
          "internalType": "bool",
          "name": "",
          "type": "bool"
        }
      ],
      "stateMutability": "view",
      "type": "function"
    },
    {
      "inputs": [],
      "name": "symbol",
      "outputs": [
        {
          "internalType": "string",
          "name": "",
          "type": "string"
        }
      ],
      "stateMutability": "view",
      "type": "function"
    },
    {
      "inputs": [
        {
          "internalType": "uint256",
          "name": "_tokenId",
          "type": "uint256"
        }
      ],
      "name": "tokenURI",
      "outputs": [
        {
          "internalType": "string",
          "name": "",
          "type": "string"
        }
      ],
      "stateMutability": "view",
      "type": "function"
    },
    {
      "inputs": [
        {
          "internalType": "address",
          "name": "owner",
          "type": "address"
        }
      ],
      "name": "tokensOfOwner",
      "outputs": [
        {
          "internalType": "uint256[]",
          "name": "",
          "type": "uint256[]"
        }
      ],
      "stateMutability": "view",
      "type": "function"
    },
    {
      "inputs": [
        {
          "internalType": "address",
          "name": "owner",
          "type": "address"
        },
        {
          "internalType": "uint256",
          "name": "start",
          "type": "uint256"
        },
        {
          "internalType": "uint256",
          "name": "stop",
          "type": "uint256"
        }
      ],
      "name": "tokensOfOwnerIn",
      "outputs": [
        {
          "internalType": "uint256[]",
          "name": "",
          "type": "uint256[]"
        }
      ],
      "stateMutability": "view",
      "type": "function"
    },
    {
      "inputs": [],
      "name": "totalSupply",
      "outputs": [
        {
          "internalType": "uint256",
          "name": "",
          "type": "uint256"
        }
      ],
      "stateMutability": "view",
      "type": "function"
    },
    {
      "inputs": [
        {
          "internalType": "address",
          "name": "from",
          "type": "address"
        },
        {
          "internalType": "address",
          "name": "to",
          "type": "address"
        },
        {
          "internalType": "uint256",
          "name": "tokenId",
          "type": "uint256"
        }
      ],
      "name": "transferFrom",
      "outputs": [],
      "stateMutability": "nonpayable",
      "type": "function"
    },
    {
      "inputs": [
        {
          "internalType": "uint256",
          "name": "id",
          "type": "uint256"
        }
      ],
      "name": "transferShipment",
      "outputs": [],
      "stateMutability": "nonpayable",
      "type": "function"
    },
    {
      "inputs": [
        {
          "internalType": "uint256",
          "name": "id",
          "type": "uint256"
        },
        {
          "internalType": "string",
          "name": "cid",
          "type": "string"
        }
      ],
      "name": "uploadDocument",
      "outputs": [],
      "stateMutability": "nonpayable",
      "type": "function"
    }
  ],
  "bytecode": "0x60803462000392576040906001600160401b0381830181811183821017620002a4578352600c82526020916b109b1bd8dad4da1a5c13919560a21b8382015283519184830183811082821117620002a45785526005835264042534849560dc1b848401528151818111620002a457600254906001938483811c9316801562000387575b8784101462000283578190601f9384811162000330575b508790848311600114620002c657600092620002ba575b5050600019600383901b1c191690841b176002555b8351918211620002a45760039384548481811c9116801562000299575b87821014620002835782811162000238575b5085918311600114620001d157928293918392600094620001c5575b50501b9160001990841b1c19161790555b600080805560098054336001600160a01b03198216811790925590916001600160a01b03909116907f8292fce18fa69edf4db7b94ea2e58241df0ae57f97e0a6c9b29067028bf92d769080a3600a80546001600160b01b0319163361ffff60a01b1981169190911790915582516000815290917f90d7ec04bcb8978719414f82e52e4cb651db41d0e6f8cea6118c2191e6183adb91a25161338b9081620003988239f35b01519250388062000110565b90601f198316918560005283876000209360005b898883831062000220575050501062000207575b505050811b01905562000121565b015160001983861b60f8161c19169055388080620001f9565b868601518855909601959485019487935001620001e5565b85600052866000208380860160051c82019289871062000279575b0160051c019085905b8281106200026c575050620000f4565b600081550185906200025c565b9250819262000253565b634e487b7160e01b600052602260045260246000fd5b90607f1690620000e2565b634e487b7160e01b600052604160045260246000fd5b015190503880620000b0565b90869350601f198316916002600052896000209260005b8b828210620003195750508411620002ff575b505050811b01600255620000c5565b015160001960f88460031b161c19169055388080620002f0565b8385015186558a97909501949384019301620002dd565b9091506002600052876000208480850160051c8201928a86106200037d575b918891869594930160051c01915b8281106200036d57505062000099565b600081558594508891016200035d565b925081926200034f565b92607f169262000082565b600080fdfe6080604052600436101561001257600080fd5b60003560e01c806275a317146102b657806301ffc9a7146102b157806306fdde03146102ac578063081812fc146102a7578063095ea7b3146102a257806313af40351461029d57806318160ddd1461029857806323b872dd146102935780632419f51b1461028e5780632a55205a146102895780632ac08a93146102845780633b1475a71461027f57806342842e0e1461027a57806342966c6814610275578063430c2081146102705780634cc157df1461026b5780635bbb2177146102665780635fbd4e9014610261578063600dd5ea1461025c5780636352211e1461025757806363b45e2d14610252578063693d70aa1461024d57806370a0823114610248578063754a81d91461024357806379cda7721461023e57806383040532146102395780638462151c146102345780638da5cb5b1461022f578063938e3d7b1461022a57806395d89b411461022557806399a2557a146102205780639bcf7a151461021b578063a22cb46514610216578063aace20b714610211578063ac9650d81461020c578063b24f2d3914610207578063b88d4fde14610202578063c23dc68f146101fd578063c87b56dd146101f8578063d2d78cdc146101f3578063e8a3d485146101ee5763e985e9c5146101e957600080fd5b611eaf565b611e93565b611d89565b611d56565b611d08565b611cba565b611c84565b611c1f565b611b9f565b611af7565b611a0e565b6119d6565b61192f565b61179c565b611773565b6116a6565b61163a565b6114db565b611345565b61131a565b611278565b61125a565b61122a565b611166565b6110e1565b61104c565b610f89565b610eea565b610c7f565b610c57565b610c39565b610bdd565b6109aa565b610941565b61092a565b6108d2565b610850565b6107ae565b61077e565b610699565b6105ba565b61041a565b600435906001600160a01b03821682036102d157565b600080fd5b602435906001600160a01b03821682036102d157565b604435906001600160a01b03821682036102d157565b634e487b7160e01b600052604160045260246000fd5b608081019081106001600160401b0382111761033357604052565b610302565b604081019081106001600160401b0382111761033357604052565b606081019081106001600160401b0382111761033357604052565b602081019081106001600160401b0382111761033357604052565b90601f801991011681019081106001600160401b0382111761033357604052565b6001600160401b03811161033357601f01601f191660200190565b9291926103d1826103aa565b916103df6040519384610389565b8294818452818301116102d1578281602093846000960137010152565b9080601f830112156102d157816020610417933591016103c5565b90565b346102d15760403660031901126102d1576104336102bb565b6001600160401b036024358181116102d1576104539036906004016103fc565b9161046960018060a01b03600954163314611f7f565b600091825490818452602091600f83526104866040862054610a04565b610571578452600f825260408420918551918211610333576104b2826104ac8554610a04565b8561204f565b80601f83116001146104fe5750819085966104f096926104f3575b50508160011b916000199060031b1c19161790555b6104ea611fcb565b90612371565b80f35b0151905038806104cd565b90601f1983169661051485600052602060002090565b9287905b898210610559575050908392916001946104f0989910610540575b505050811b0190556104e2565b015160001960f88460031b161c19169055388080610533565b80600185968294968601518155019501930190610518565b60405162461bcd60e51b815260048101849052600f60248201526e15549248185b1c9958591e481cd95d608a1b6044820152606490fd5b6001600160e01b03198116036102d157565b346102d15760203660031901126102d15760206004356105d9816105a8565b63ffffffff60e01b166301ffc9a760e01b811490811561062f575b811561061e575b811561060d575b506040519015158152f35b63152a902d60e11b14905038610602565b635b5e139f60e01b811491506105fb565b6380ac58cd60e01b811491506105f4565b60005b8381106106535750506000910152565b8181015183820152602001610643565b9060209161067c81518092818552858086019101610640565b601f01601f1916010190565b906020610417928181520190610663565b346102d15760008060031936011261077b5760405190806002546106bc81610a04565b8085529160019180831690811561075157506001146106f6575b6106f2856106e681870382610389565b60405191829182610688565b0390f35b9250600283527f405787fa12a823e0f2b7631cc41b3ba8828b3321ca811111fa75cd3aa3bb5ace5b8284106107395750505081016020016106e6826106f26106d6565b8054602085870181019190915290930192810161071e565b8695506106f2969350602092506106e694915060ff191682840152151560051b82010192936106d6565b80fd5b346102d15760203660031901126102d157602061079c6004356122a9565b6040516001600160a01b039091168152f35b346102d15760403660031901126102d1576107c76102bb565b6001600160a01b03602435816107dc82612208565b5116809284161461083e578133036107fa575b6107f892612914565b005b6000828152600760209081526040808320338452909152902061082790610823905b5460ff1690565b1590565b156107ef576040516367d9dca160e11b8152600490fd5b60405163250fdee360e21b8152600490fd5b346102d15760203660031901126102d1576108696102bb565b600954906001600160a01b0380831691338390036108c0571680926bffffffffffffffffffffffff60a01b16176009557f8292fce18fa69edf4db7b94ea2e58241df0ae57f97e0a6c9b29067028bf92d76600080a3005b6040516316ccb9cb60e11b8152600490fd5b346102d15760003660031901126102d15760206000546001549003604051908152f35b60609060031901126102d1576001600160a01b039060043582811681036102d1579160243590811681036102d1579060443590565b346102d1576107f861093b366108f5565b916126ee565b346102d15760203660031901126102d157600435600c5481101561099257602090600c6000527fdf6966c971051c3d54ec59162606531493a51404a002842f56009d7e5cf4a8c70154604051908152f35b60249060405190630793127760e11b82526004820152fd5b346102d15760403660031901126102d15760243561ffff6109cc600435612fc2565b91909116918281029281840414901517156109ff57604080516001600160a01b0390921682526127109092046020820152f35b612dc5565b90600182811c92168015610a34575b6020831014610a1e57565b634e487b7160e01b600052602260045260246000fd5b91607f1691610a13565b6040519060008260085491610a5283610a04565b80835292600190818116908115610ada5750600114610a7b575b50610a7992500383610389565b565b6008600090815291507ff3f7a9fe364faab93b216da50a3214154f22a0a2b415b23a84c8169e8b636ee35b848310610abf5750610a79935050810160200138610a6c565b81935090816020925483858a01015201910190918592610aa6565b905060209250610a7994915060ff191682840152151560051b82010138610a6c565b9060405191826000825492610b1084610a04565b908184526001948581169081600014610b7d5750600114610b3a575b5050610a7992500383610389565b9093915060005260209081600020936000915b818310610b65575050610a7993508201013880610b2c565b85548884018501529485019487945091830191610b4d565b915050610a7994506020925060ff191682840152151560051b8201013880610b2c565b9091610bb86104179593608084526080840190610663565b6001600160a01b03918216602084015293166040820152808303606090910152610663565b346102d15760203660031901126102d15760043560005260106020526040600020610c0781610afc565b6106f260018060a01b0392610c2c600385600184015416956002840154169201610afc565b9060405194859485610ba0565b346102d15760003660031901126102d1576020600054604051908152f35b346102d1576107f8610c68366108f5565b9060405192610c768461036e565b60008452612302565b346102d15760203660031901126102d157600435610c9c81612208565b80516001600160a01b039081169081903382148015610eaa575b8015610e8a575b15610e7857600093610ccf83876128c7565b6001600160a01b0383166000908152600560205260409020610d7990610d2f610d12610d0283546001600160401b031690565b600019016001600160401b031690565b825467ffffffffffffffff19166001600160401b03909116178255565b8054610d519060801c6001600160401b03165b6001016001600160401b031690565b815467ffffffffffffffff60801b191660809190911b67ffffffffffffffff60801b16179055565b610dcf610d90876000526004602052604060002090565b80546001600160a01b0319166001600160a01b038616178155610dbc6001600160401b03421682612346565b805460ff60e01b1916600160e01b179055565b60018601610de7816000526004602052604060002090565b80549093166001600160a01b031615610e25575b505050506000805160206133368339815191528280a46107f8610e2060015460010190565b600155565b855403610e33575b80610dfb565b81546001600160a01b0319166001600160a01b03909316929092178155610e7091610e6a906020905b01516001600160401b031690565b90612346565b388080610e2d565b604051632ce44b5f60e11b8152600490fd5b5033610ea4610e98876122a9565b6001600160a01b031690565b14610cbd565b50610ee561081c33610ece8560018060a01b03166000526007602052604060002090565b9060018060a01b0316600052602052604060002090565b610cb6565b346102d15760403660031901126102d1576020610f056102bb565b602435906001600160a01b0380610f1b84612208565b51169281831692848414948515610f59575b50508315610f43575b5050506040519015158152f35b610f4f919293506122a9565b1614388080610f36565b60009081526007875260408082206001600160a01b03939093168252602092909252205460ff1693503880610f2d565b346102d15760203660031901126102d157610fa5600435612fc2565b604080516001600160a01b0393909316835261ffff91909116602083015290f35b6001600160401b0381116103335760051b60200190565b6020908160408183019282815285518094520193019160005b828110611004575050505090565b909192938260608261104060019489516040809160018060a01b0381511684526001600160401b03602082015116602085015201511515910152565b01950193929101610ff6565b346102d1576020806003193601126102d1576004356001600160401b0381116102d157366023820112156102d15780600401359061108982610fc6565b916110976040519384610389565b80835260248484019160051b830101913683116102d157602401905b8282106110d2576106f26110c685612b8d565b60405191829182610fdd565b813581529084019084016110b3565b346102d15760203660031901126102d157600435600090808252601060205260018060a01b0361112b8160026040862001541683604051916111228361036e565b86835233612302565b81835260106020526002604084200154169033907ff93018b8b4bccae90eff1a45a9da1a2e27a277e2e578a67de10b89d4af5279d28480a480f35b346102d15760403660031901126102d15761117f6102bb565b600954602435916001600160a01b039182163303611218576127108084116111fa5750600a80546001600160b01b0319169190921690811760a084901b61ffff60a01b1617909155604051918252907f90d7ec04bcb8978719414f82e52e4cb651db41d0e6f8cea6118c2191e6183adb9080602081010390a2005b6044908460405191630a4930ad60e31b835260048301526024820152fd5b604051636fae358160e11b8152600490fd5b346102d15760203660031901126102d15760206001600160a01b03611250600435612208565b5116604051908152f35b346102d15760003660031901126102d1576020600c54604051908152f35b346102d15760203660031901126102d157600435600052601060205260406000206040516112a581610318565b6112ae82610afc565b81526106f260018060a01b039161130e6113006112e96003866001890154169660208601978852600289015416976040860198895201610afc565b60608401819052925194516001600160a01b031690565b94516001600160a01b031690565b60405194859485610ba0565b346102d15760203660031901126102d157602061133d6113386102bb565b612171565b604051908152f35b346102d15760803660031901126102d15761135e6102bb565b602435604435916001600160401b03928381116102d1576113839036906004016103fc565b916064358481116102d15761139c9036906004016103fc565b916113b260018060a01b03600954163314611f7f565b60009384548381018091116109ff57600c54906801000000000000000082101561033357611404816113eb600194858101600c55612d8e565b90919082549060031b91821b91600019901b1916179055565b86526020600d8152604087209280519889116103335761142e896114288654610a04565b8661204f565b81601f8a1160011461146d57509780928192899a6104f09a94611462575b50501b916000199060031b1c1916179055612555565b01519250388061144c565b909891601f1983169961148586600052602060002090565b928a905b8c82106114c4575050836104f09a9b106114ab575b505050811b019055612555565b015160001960f88460031b161c1916905538808061149e565b808785968294968601518155019501930190611489565b346102d15760403660031901126102d1576001600160401b036004356024358281116102d15761150f9036906004016103fc565b60009282845260209060108252600360408620019183519182116103335761153b826104ac8554610a04565b80601f83116001146115a8575091817f7e70084d84488f1d46902bb7fa3b765328c23f5713ec1e5d426bc7c9b2e9e104949261159794889161159d575b508160011b916000199060031b1c191617905560405191829182610688565b0390a280f35b905083015138611578565b90601f1983166115bd85600052602060002090565b9288905b828210611622575050926115979492600192827f7e70084d84488f1d46902bb7fa3b765328c23f5713ec1e5d426bc7c9b2e9e104989610611609575b5050811b0190556106e6565b85015160001960f88460031b161c1916905538806115fd565b80600185968294968b015181550195019301906115c1565b346102d15760203660031901126102d157600435600052600e602052602060ff604060002054166040519015158152f35b6020908160408183019282815285518094520193019160005b828110611692575050505090565b835185529381019392810192600101611684565b346102d15760203660031901126102d1576116bf6102bb565b6000806116cb83612171565b916116d583612c1b565b936116de6121ac565b506001600160a01b0390811691835b85850361170257604051806106f2898261166b565b61171e611719826000526004602052604060002090565b6121cb565b604081015161176a57516001600160a01b0316838116611761575b50600190848484161461174d575b016116ed565b8061175b838801978a612b74565b52611747565b91506001611739565b50600190611747565b346102d15760003660031901126102d1576009546040516001600160a01b039091168152602090f35b346102d1576020806003193601126102d1576001600160401b03906004358281116102d1576117cf9036906004016103fc565b6009549091906001600160a01b0316330361191d576117ec610a3e565b9082519384116103335761180a84611805600854610a04565b611fde565b80601f8511600114611877575092807fc9c7c3fe08b88b4df9d4d47ef47d2c43d55c025a0ba88ca442580ed9e7348a169460009161186c575b508160011b916000199060031b1c1916176008555b61186760405192839283612ecc565b0390a1005b905083015138611843565b600860005290601f1985167ff3f7a9fe364faab93b216da50a3214154f22a0a2b415b23a84c8169e8b636ee3926000905b8282106119055750509185917fc9c7c3fe08b88b4df9d4d47ef47d2c43d55c025a0ba88ca442580ed9e7348a1696600194106118ec575b5050811b01600855611858565b85015160001960f88460031b161c1916905538806118df565b80600185968294968a015181550195019301906118a8565b604051639f7f092560e01b8152600490fd5b346102d15760008060031936011261077b57604051908060035461195281610a04565b80855291600191808316908115610751575060011461197b576106f2856106e681870382610389565b9250600383527fc2575a0e9e593c00f959f8c92f12db2869c3395a3b0502d05e2516446f71f85b5b8284106119be5750505081016020016106e6826106f26106d6565b805460208587018101919091529093019281016119a3565b346102d15760603660031901126102d1576106f2611a026119f56102bb565b6044359060243590612c4d565b6040519182918261166b565b346102d15760603660031901126102d157600435611a2a6102d6565b9060443560018060a01b038060095416330361121857612710808311611ad957507f7365cf4122f072a3365c20d54eff9b38d73c096c28e1892ec8f5b0e403a0f12d91611ac4611ad49260405196611a8188610338565b169586815282602082015285600052600b6020526040600020815181546001600160a01b0319166001600160a01b03919091161781559060019060200151910155565b6040519081529081906020820190565b0390a3005b6044908360405191630a4930ad60e31b835260048301526024820152fd5b346102d15760403660031901126102d157611b106102bb565b6024358015158091036102d1576001600160a01b03821691338314611b8d573360009081526007602090815260408083206001600160a01b0390941683529290522060ff1981541660ff83161790556040519081527f17307eab39ab6107e8899845ad3d59bd9653f200f220920489ca2b5937696c3160203392a3005b60405163b06307db60e01b8152600490fd5b346102d15760003660031901126102d1576020601154604051908152f35b602080820190808352835180925260408301928160408460051b8301019501936000915b848310611bf15750505050505090565b9091929394958480611c0f600193603f198682030187528a51610663565b9801930193019194939290611be1565b346102d15760203660031901126102d1576001600160401b036004358181116102d157366023820112156102d15780600401359182116102d1573660248360051b830101116102d1576106f2916024611c789201612f00565b60405191829182611bbd565b346102d15760003660031901126102d157600a54604080516001600160a01b038316815260a09290921c61ffff16602083015290f35b346102d15760803660031901126102d157611cd36102bb565b611cdb6102d6565b606435916001600160401b0383116102d157611cfe6107f89336906004016103fc565b9160443591612302565b346102d15760203660031901126102d1576060611d26600435612ae5565b6040805182516001600160a01b031681526020808401516001600160401b03169082015291810151151590820152f35b346102d15760203660031901126102d1576106f2611d75600435611f0c565b604051918291602083526020830190610663565b346102d15760803660031901126102d1576001600160401b036004356024358281116102d157611dbd9036906004016103fc565b90611dc66102ec565b926064359081116102d157611e85611e037fa7cfdd00229a0d68229c8182f3e3970f755e7622cb61ccced1f2fdba497616339236906004016103fc565b946011548411611e8a575b611e28604051611e1d8161036e565b600081528533612555565b611e6e604051611e3781610318565b8681523360208201526001600160a01b0383166040820152876060820152611e69866000526010602052604060002090565b6131e9565b60405191829160018060a01b031696339683612ecc565b0390a4005b83601155611e0e565b346102d15760003660031901126102d1576106f2611d75610a3e565b346102d15760403660031901126102d157602060ff611f00611ecf6102bb565b611ed76102d6565b6001600160a01b0391821660009081526007865260408082209290931681526020919091522090565b54166040519015158152f35b806000526020600f8152611f236040600020610afc565b8051611f79575061041790611f40611f3a84612df7565b9361311e565b926040519381611f598693518092868087019101610640565b8201611f6d82518093868085019101610640565b01038084520182610389565b91505090565b15611f8657565b60405162461bcd60e51b815260206004820152601760248201527f4e6f7420617574686f72697a656420746f206d696e742e0000000000000000006044820152606490fd5b60405190611fd88261036e565b60008252565b601f8111611fea575050565b600090600882527ff3f7a9fe364faab93b216da50a3214154f22a0a2b415b23a84c8169e8b636ee3906020601f850160051c83019410612045575b601f0160051c01915b82811061203a57505050565b81815560010161202e565b9092508290612025565b90601f811161205d57505050565b600091825260208220906020601f850160051c83019410612099575b601f0160051c01915b82811061208e57505050565b818155600101612082565b9092508290612079565b91909182516001600160401b038111610333576120ca816120c48454610a04565b8461204f565b602080601f83116001146121065750819293946000926120fb575b50508160011b916000199060031b1c1916179055565b0151905038806120e5565b90601f1983169561211c85600052602060002090565b926000905b88821061215957505083600195969710612140575b505050811b019055565b015160001960f88460031b161c19169055388080612136565b80600185968294968601518155019501930190612121565b6001600160a01b0316801561219a5760005260056020526001600160401b036040600020541690565b6040516323d3ad8160e21b8152600490fd5b604051906121b982610353565b60006040838281528260208201520152565b906040516121d881610353565b91546001600160a01b038116835260a081901c6001600160401b0316602084015260e01c60ff1615156040830152565b6122106121ac565b5080600054811061222e575b604051636f96cda160e11b8152600490fd5b611719612245916000526004602052604060002090565b6122556108236040830151151590565b1561221c5780516001600160a01b03166122a457505b60001901612286611719826000526004602052604060002090565b805161229a906001600160a01b0316610e98565b6122a4575061226b565b905090565b6000548110806122e6575b156122d4576000908152600660205260409020546001600160a01b031690565b6040516333d1c03960e21b8152600490fd5b5080600052600460205260ff60406000205460e01c16156122b4565b9291906123108282866126ee565b803b61231d575b50505050565b61232693612abc565b156123345738808080612317565b6040516368d2bf6b60e11b8152600490fd5b805467ffffffffffffffff60a01b191660a09290921b67ffffffffffffffff60a01b16919091179055565b600080546001600160a01b0383169391929091908415612544576001600160a01b03811660009081526005602052604090206123d6905b6123bc610d4282546001600160401b031690565b6001600160401b03166001600160401b0319825416179055565b6001600160a01b03811660009081526005602052604090206124309080546124099060401c6001600160401b0316610d42565b67ffffffffffffffff60401b82549160401b169067ffffffffffffffff60401b1916179055565b61246781612448856000526004602052604060002090565b80546001600160a01b0319166001600160a01b03909216919091179055565b61248d6001600160401b034216612488856000526004602052604060002090565b612346565b8294600190818501833b15156000146124fc5782805b6124b8575b50505050505081540361077b5755565b156124ef575b868883896000805160206133368339815191528180a46124e561082387868c019b88612a13565b61233457836124a3565b8088106124be57806124a8565b9250935080809350905b612512575b5050505055565b15612537575b83828087019685876000805160206133368339815191528180a4612506565b808510612518578061250b565b604051622e076360e81b8152600490fd5b6000805492939092916001600160a01b03811680156125445785156126dc576126266001600160401b036125f88189166125c66125a48760018060a01b03166000526005602052604060002090565b6123bc836125b983546001600160401b031690565b016001600160401b031690565b6001600160a01b038616600090815260056020526040902061240990916125b983546001600160401b039060401c1690565b61261084612448886000526004602052604060002090565b4216612488866000526004602052604060002090565b8395840190823b15156000146126945760019182805b6126505750505050505081540361077b5755565b15612687575b868883896000805160206133368339815191528180a461267d61082387868c019b88612a13565b612334578361263c565b80881061265657806124a8565b935091505060019081805b6126aa575050505055565b156126cf575b83828087019685876000805160206133368339815191528180a461269f565b8085106126b0578061250b565b60405163b562e8dd60e01b8152600490fd5b6126f783612208565b80516001600160a01b0380841693929181168490036128b657833314801561288d575b8015612879575b15610e78578416938415612867576127d49061273d84886128c7565b6001600160a01b038416600090815260056020526040902061276d906123bc610d0282546001600160401b031690565b6001600160a01b038116600090815260056020526040902061278e906123a8565b6127c46127a5886000526004602052604060002090565b80546001600160a01b0319166001600160a01b03909316929092178255565b6001600160401b03421690612346565b60018501906127ed826000526004602052604060002090565b8054909290612804906001600160a01b0316610e98565b15612823575b50505050600080516020613336833981519152600080a4565b60005403612832575b8061280a565b81546001600160a01b0319166001600160a01b0390931692909217815561285f91610e6a90602090610e5c565b38808061282c565b604051633a954ecd60e21b8152600490fd5b5033612887610e98886122a9565b14612721565b506128b161081c33610ece8660018060a01b03166000526007602052604060002090565b61271a565b60405162a1148160e81b8152600490fd5b600081815260066020526040812080546001600160a01b031916905590916001600160a01b03167f8c5be1e5ebec7d5bd14f71427d1e84f3dd0314c0f7b2291e5b200ac8c7c3b9258280a4565b600082815260066020526040902080546001600160a01b0319166001600160a01b0383161790559091906001600160a01b0390811691167f8c5be1e5ebec7d5bd14f71427d1e84f3dd0314c0f7b2291e5b200ac8c7c3b925600080a4565b908160209103126102d15751610417816105a8565b610417939260809260018060a01b031682526000602083015260408201528160608201520190610663565b6001600160a01b03918216815291166020820152604081019190915260806060820181905261041792910190610663565b3d15612a0e573d906129f4826103aa565b91612a026040519384610389565b82523d6000602084013e565b606090565b612a3c60209160009394604051948580948193630a85bd0160e11b998a84523360048501612987565b03926001600160a01b03165af160009181612a8c575b50612a7e57612a5f6129e3565b80519081612a79576040516368d2bf6b60e11b8152600490fd5b602001fd5b6001600160e01b0319161490565b612aae91925060203d8111612ab5575b612aa68183610389565b810190612972565b9038612a52565b503d612a9c565b92602091612a3c936000604051809681958294630a85bd0160e11b9a8b855233600486016129b2565b612aed6121ac565b50612af66121ac565b6000548210156122a4575080600052600460205260406000209060ff60405192612b1f84610353565b546001600160a01b038116845260a081901c6001600160401b0316602085015260e01c16151560408301819052612b5a576104179150612208565b5090565b634e487b7160e01b600052603260045260246000fd5b8051821015612b885760209160051b010190565b612b5e565b8051612b9881610fc6565b91612ba66040519384610389565b818352601f19612bb583610fc6565b0160005b818110612c0457505060005b828103612bd25750505090565b80612be8612be260019385612b74565b51612ae5565b612bf28287612b74565b52612bfd8186612b74565b5001612bc5565b602090612c0f6121ac565b82828801015201612bb9565b90612c2582610fc6565b612c326040519182610389565b8281528092612c43601f1991610fc6565b0190602036910137565b9082811015612d7c576000918254808511612d74575b50612c6d81612171565b84831015612d6d57828503818110612d65575b505b612c8b81612c1b565b958115612d5d57612c9b84612ae5565b918594604093612cb061082386830151151590565b612d4b575b505b8781141580612d41575b15612d3457612cdd611719826000526004602052604060002090565b80850151612d2b57516001600160a01b0390811680612d22575b509081600192871690881614612d0e575b01612cb7565b80612d1c838a01998c612b74565b52612d08565b96506001612cf7565b50600190612d08565b5050959450505050815290565b5081871415612cc1565b516001600160a01b0316955038612cb5565b945050505050565b905038612c80565b5082612c82565b935038612c63565b604051631960ccad60e11b8152600490fd5b600c54811015612b8857600c6000527fdf6966c971051c3d54ec59162606531493a51404a002842f56009d7e5cf4a8c70190600090565b634e487b7160e01b600052601160045260246000fd5b90600182018092116109ff57565b60300190816030116109ff57565b600c5460405180828152816020809201600c6000527fdf6966c971051c3d54ec59162606531493a51404a002842f56009d7e5cf4a8c79260005b868110612eb5575050612e4692500382610389565b60005b828110612e6d576040516309797f6960e21b815260048101859052602490fd5b0390fd5b612e778183612b74565b518410612e8c57612e8790612ddb565b612e49565b6104179350612eb09250612e9f91612b74565b51600052600d602052604060002090565b610afc565b845483526001948501948694509282019201612e31565b9091612ee361041793604084526040840190610663565b916020818403910152610663565b60001981146109ff5760010190565b90612f0a81610fc6565b91612f186040519384610389565b818352601f19612f2783610fc6565b0160005b818110612fb157505060005b828110612f445750505090565b8060051b820135601e19833603018112156102d1578201908135916001600160401b0383116102d15760200182360381136102d157612f8b612f9191612fac9436916103c5565b3061301d565b612f9b8287612b74565b52612fa68186612b74565b50612ef1565b612f37565b806060602080938801015201612f2b565b600052600b602052604060002090602060405192612fdf84610338565b80546001600160a01b03908116808652600190920154929094018290528061301457505061ffff600a549283169260a01c1690565b925061ffff1690565b90610417916000806040519361303285610353565b602785527f416464726573733a206c6f772d6c6576656c2064656c65676174652063616c6c6020860152660819985a5b195960ca1b6040860152602081519101845af461307d6129e3565b9290156130de5750815115613090575090565b3b156130995790565b60405162461bcd60e51b815260206004820152601d60248201527f416464726573733a2063616c6c20746f206e6f6e2d636f6e74726163740000006044820152606490fd5b8251909150156130f15750805190602001fd5b60405162461bcd60e51b8152908190612e699060048301610688565b908151811015612b88570160200190565b80156131cb57806000908282935b6131b7575061313a836103aa565b926131486040519485610389565b80845281601f19613158836103aa565b013660208701375b61316a5750505090565b60001981019081116109ff578091600a916131ae6131a561319561318f868606612de9565b60ff1690565b60f81b6001600160f81b03191690565b861a918761310d565b53049081613160565b926131c3600a91612ef1565b93048061312c565b506040516131d881610338565b60018152600360fc1b602082015290565b91909182519283516001600160401b0381116103335761320d816104ac8554610a04565b6020948590601f83116001146132b95761325c610a799697846060956003979561327f956000926132ae575b50508160011b9160001990891b1c19161787555b8301516001600160a01b031690565b6001860180546001600160a01b0319166001600160a01b03909216919091179055565b60408101516002850180546001600160a01b0319166001600160a01b03909216919091179055015191016120a3565b015190503880613239565b90601f198316916132cf86600052602060002090565b9260005b81811061331e5750976001856003979561327f9561325c95606099610a799d9e10613306575b505050811b01875561324d565b0151600019838b1b60f8161c191690553880806132f9565b9293896001819287860151815501950193016132d356feddf252ad1be2c89b69c2b068fc378daa952ba7f163c4a11628f55a4df523b3efa26469706673582212202c94f4afaa26c8f29652ff9fb423add0f2c521ceb0fbb6928c27f87e14fc460d64736f6c63430008140033",
  "linkReferences": {},
  "deployedLinkReferences": {}
}