{
  "_format": "hh-sol-artifact-1",
  "contractName": "ShippingNFT",
  "sourceName": "contracts/ShippingNFT.sol",
  "abi": [
    {
      "inputs": [],
      "stateMutability": "nonpayable",
      "type": "constructor"
    },
    {
      "inputs": [],
      "name": "ApprovalCallerNotOwnerNorApproved",
      "type": "error"
    },
    {
      "inputs": [],
      "name": "ApprovalQueryForNonexistentToken",
      "type": "error"
    },
    {
      "inputs": [],
      "name": "ApprovalToCurrentOwner",
      "type": "error"
    },
    {
      "inputs": [],
      "name": "ApproveToCaller",
      "type": "error"
    },
    {
      "inputs": [],
      "name": "BalanceQueryForZeroAddress",
      "type": "error"
    },
    {
      "inputs": [
        {
          "internalType": "uint256",
          "name": "index",
          "type": "uint256"
        }
      ],
      "name": "BatchMintInvalidBatchId",
      "type": "error"
    },
    {
      "inputs": [
        {
          "internalType": "uint256",
          "name": "tokenId",
          "type": "uint256"
        }
      ],
      "name": "BatchMintInvalidTokenId",
      "type": "error"
    },
    {
      "inputs": [
        {
          "internalType": "uint256",
          "name": "batchId",
          "type": "uint256"
        }
      ],
      "name": "BatchMintMetadataFrozen",
      "type": "error"
    },
    {
      "inputs": [],
      "name": "ContractMetadataUnauthorized",
      "type": "error"
    },
    {
      "inputs": [],
      "name": "InvalidQueryRange",
      "type": "error"
    },
    {
      "inputs": [],
      "name": "MintToZeroAddress",
      "type": "error"
    },
    {
      "inputs": [],
      "name": "MintZeroQuantity",
      "type": "error"
    },
    {
      "inputs": [],
      "name": "OwnableUnauthorized",
      "type": "error"
    },
    {
      "inputs": [],
      "name": "OwnerQueryForNonexistentToken",
      "type": "error"
    },
    {
      "inputs": [
        {
          "internalType": "uint256",
          "name": "max",
          "type": "uint256"
        },
        {
          "internalType": "uint256",
          "name": "actual",
          "type": "uint256"
        }
      ],
      "name": "RoyaltyExceededMaxFeeBps",
      "type": "error"
    },
    {
      "inputs": [
        {
          "internalType": "address",
          "name": "recipient",
          "type": "address"
        }
      ],
      "name": "RoyaltyInvalidRecipient",
      "type": "error"
    },
    {
      "inputs": [],
      "name": "RoyaltyUnauthorized",
      "type": "error"
    },
    {
      "inputs": [],
      "name": "TransferCallerNotOwnerNorApproved",
      "type": "error"
    },
    {
      "inputs": [],
      "name": "TransferFromIncorrectOwner",
      "type": "error"
    },
    {
      "inputs": [],
      "name": "TransferToNonERC721ReceiverImplementer",
      "type": "error"
    },
    {
      "inputs": [],
      "name": "TransferToZeroAddress",
      "type": "error"
    },
    {
      "inputs": [],
      "name": "URIQueryForNonexistentToken",
      "type": "error"
    },
    {
      "anonymous": false,
      "inputs": [
        {
          "indexed": true,
          "internalType": "address",
          "name": "owner",
          "type": "address"
        },
        {
          "indexed": true,
          "internalType": "address",
          "name": "approved",
          "type": "address"
        },
        {
          "indexed": true,
          "internalType": "uint256",
          "name": "tokenId",
          "type": "uint256"
        }
      ],
      "name": "Approval",
      "type": "event"
    },
    {
      "anonymous": false,
      "inputs": [
        {
          "indexed": true,
          "internalType": "address",
          "name": "owner",
          "type": "address"
        },
        {
          "indexed": true,
          "internalType": "address",
          "name": "operator",
          "type": "address"
        },
        {
          "indexed": false,
          "internalType": "bool",
          "name": "approved",
          "type": "bool"
        }
      ],
      "name": "ApprovalForAll",
      "type": "event"
    },
    {
      "anonymous": false,
      "inputs": [
        {
          "indexed": false,
          "internalType": "uint256",
          "name": "_fromTokenId",
          "type": "uint256"
        },
        {
          "indexed": false,
          "internalType": "uint256",
          "name": "_toTokenId",
          "type": "uint256"
        }
      ],
      "name": "BatchMetadataUpdate",
      "type": "event"
    },
    {
      "anonymous": false,
      "inputs": [
        {
          "indexed": false,
          "internalType": "string",
          "name": "prevURI",
          "type": "string"
        },
        {
          "indexed": false,
          "internalType": "string",
          "name": "newURI",
          "type": "string"
        }
      ],
      "name": "ContractURIUpdated",
      "type": "event"
    },
    {
      "anonymous": false,
      "inputs": [
        {
          "indexed": true,
          "internalType": "address",
          "name": "newRoyaltyRecipient",
          "type": "address"
        },
        {
          "indexed": false,
          "internalType": "uint256",
          "name": "newRoyaltyBps",
          "type": "uint256"
        }
      ],
      "name": "DefaultRoyalty",
      "type": "event"
    },
    {
      "anonymous": false,
      "inputs": [
        {
          "indexed": false,
          "internalType": "uint256",
          "name": "shipmentId",
          "type": "uint256"
        },
        {
          "indexed": false,
          "internalType": "string",
          "name": "cid",
          "type": "string"
        }
      ],
      "name": "DocumentUploaded",
      "type": "event"
    },
    {
      "anonymous": false,
      "inputs": [],
      "name": "MetadataFrozen",
      "type": "event"
    },
    {
      "anonymous": false,
      "inputs": [
        {
          "indexed": true,
          "internalType": "address",
          "name": "prevOwner",
          "type": "address"
        },
        {
          "indexed": true,
          "internalType": "address",
          "name": "newOwner",
          "type": "address"
        }
      ],
      "name": "OwnerUpdated",
      "type": "event"
    },
    {
      "anonymous": false,
      "inputs": [
        {
          "indexed": true,
          "internalType": "uint256",
          "name": "tokenId",
          "type": "uint256"
        },
        {
          "indexed": true,
          "internalType": "address",
          "name": "royaltyRecipient",
          "type": "address"
        },
        {
          "indexed": false,
          "internalType": "uint256",
          "name": "royaltyBps",
          "type": "uint256"
        }
      ],
      "name": "RoyaltyForToken",
      "type": "event"
    },
    {
      "anonymous": false,
      "inputs": [
        {
          "indexed": false,
          "internalType": "uint256",
          "name": "shipmentId",
          "type": "uint256"
        },
        {
          "indexed": false,
          "internalType": "address",
          "name": "sender",
          "type": "address"
        },
        {
          "indexed": false,
          "internalType": "address",
          "name": "receiver",
          "type": "address"
        },
        {
          "indexed": false,
          "internalType": "uint256",
          "name": "expiryDate",
          "type": "uint256"
        }
      ],
      "name": "ShipmentCreated",
      "type": "event"
    },
    {
      "anonymous": false,
      "inputs": [
        {
          "indexed": false,
          "internalType": "uint256",
          "name": "shipmentId",
          "type": "uint256"
        },
        {
          "indexed": false,
          "internalType": "int256",
          "name": "temperature",
          "type": "int256"
        },
        {
          "indexed": false,
          "internalType": "uint256",
          "name": "newExpiryDate",
          "type": "uint256"
        }
      ],
      "name": "TemperatureUpdated",
      "type": "event"
    },
    {
      "anonymous": false,
      "inputs": [
        {
          "indexed": true,
          "internalType": "address",
          "name": "from",
          "type": "address"
        },
        {
          "indexed": true,
          "internalType": "address",
          "name": "to",
          "type": "address"
        },
        {
          "indexed": true,
          "internalType": "uint256",
          "name": "tokenId",
          "type": "uint256"
        }
      ],
      "name": "Transfer",
      "type": "event"
    },
    {
      "inputs": [
        {
          "internalType": "address",
          "name": "to",
          "type": "address"
        },
        {
          "internalType": "uint256",
          "name": "tokenId",
          "type": "uint256"
        }
      ],
      "name": "approve",
      "outputs": [],
      "stateMutability": "nonpayable",
      "type": "function"
    },
    {
      "inputs": [
        {
          "internalType": "address",
          "name": "owner",
          "type": "address"
        }
      ],
      "name": "balanceOf",
      "outputs": [
        {
          "internalType": "uint256",
          "name": "",
          "type": "uint256"
        }
      ],
      "stateMutability": "view",
      "type": "function"
    },
    {
      "inputs": [
        {
          "internalType": "uint256",
          "name": "",
          "type": "uint256"
        }
      ],
      "name": "batchFrozen",
      "outputs": [
        {
          "internalType": "bool",
          "name": "",
          "type": "bool"
        }
      ],
      "stateMutability": "view",
      "type": "function"
    },
    {
      "inputs": [
        {
          "internalType": "address",
          "name": "_to",
          "type": "address"
        },
        {
          "internalType": "uint256",
          "name": "_quantity",
          "type": "uint256"
        },
        {
          "internalType": "string",
          "name": "_baseURI",
          "type": "string"
        },
        {
          "internalType": "bytes",
          "name": "_data",
          "type": "bytes"
        }
      ],
      "name": "batchMintTo",
      "outputs": [],
      "stateMutability": "nonpayable",
      "type": "function"
    },
    {
      "inputs": [
        {
          "internalType": "uint256",
          "name": "_tokenId",
          "type": "uint256"
        }
      ],
      "name": "burn",
      "outputs": [],
      "stateMutability": "nonpayable",
      "type": "function"
    },
    {
      "inputs": [],
      "name": "contractURI",
      "outputs": [
        {
          "internalType": "string",
          "name": "",
          "type": "string"
        }
      ],
      "stateMutability": "view",
      "type": "function"
    },
    {
      "inputs": [
        {
          "internalType": "string",
          "name": "_description",
          "type": "string"
        },
        {
          "internalType": "address",
          "name": "_receiver",
          "type": "address"
        },
        {
          "internalType": "uint256",
          "name": "_expiryDate",
          "type": "uint256"
        }
      ],
      "name": "createShipment",
      "outputs": [],
      "stateMutability": "nonpayable",
      "type": "function"
    },
    {
      "inputs": [
        {
          "internalType": "uint256",
          "name": "tokenId",
          "type": "uint256"
        }
      ],
      "name": "explicitOwnershipOf",
      "outputs": [
        {
          "components": [
            {
              "internalType": "address",
              "name": "addr",
              "type": "address"
            },
            {
              "internalType": "uint64",
              "name": "startTimestamp",
              "type": "uint64"
            },
            {
              "internalType": "bool",
              "name": "burned",
              "type": "bool"
            }
          ],
          "internalType": "struct IERC721A.TokenOwnership",
          "name": "",
          "type": "tuple"
        }
      ],
      "stateMutability": "view",
      "type": "function"
    },
    {
      "inputs": [
        {
          "internalType": "uint256[]",
          "name": "tokenIds",
          "type": "uint256[]"
        }
      ],
      "name": "explicitOwnershipsOf",
      "outputs": [
        {
          "components": [
            {
              "internalType": "address",
              "name": "addr",
              "type": "address"
            },
            {
              "internalType": "uint64",
              "name": "startTimestamp",
              "type": "uint64"
            },
            {
              "internalType": "bool",
              "name": "burned",
              "type": "bool"
            }
          ],
          "internalType": "struct IERC721A.TokenOwnership[]",
          "name": "",
          "type": "tuple[]"
        }
      ],
      "stateMutability": "view",
      "type": "function"
    },
    {
      "inputs": [
        {
          "internalType": "uint256",
          "name": "tokenId",
          "type": "uint256"
        }
      ],
      "name": "getApproved",
      "outputs": [
        {
          "internalType": "address",
          "name": "",
          "type": "address"
        }
      ],
      "stateMutability": "view",
      "type": "function"
    },
    {
      "inputs": [],
      "name": "getBaseURICount",
      "outputs": [
        {
          "internalType": "uint256",
          "name": "",
          "type": "uint256"
        }
      ],
      "stateMutability": "view",
      "type": "function"
    },
    {
      "inputs": [
        {
          "internalType": "uint256",
          "name": "_index",
          "type": "uint256"
        }
      ],
      "name": "getBatchIdAtIndex",
      "outputs": [
        {
          "internalType": "uint256",
          "name": "",
          "type": "uint256"
        }
      ],
      "stateMutability": "view",
      "type": "function"
    },
    {
      "inputs": [
        {
          "internalType": "uint256",
          "name": "_shipmentId",
          "type": "uint256"
        }
      ],
      "name": "getCustomClearance",
      "outputs": [
        {
          "internalType": "string",
          "name": "",
          "type": "string"
        }
      ],
      "stateMutability": "view",
      "type": "function"
    },
    {
      "inputs": [],
      "name": "getDefaultRoyaltyInfo",
      "outputs": [
        {
          "internalType": "address",
          "name": "",
          "type": "address"
        },
        {
          "internalType": "uint16",
          "name": "",
          "type": "uint16"
        }
      ],
      "stateMutability": "view",
      "type": "function"
    },
    {
      "inputs": [
        {
          "internalType": "uint256",
          "name": "_tokenId",
          "type": "uint256"
        }
      ],
      "name": "getRoyaltyInfoForToken",
      "outputs": [
        {
          "internalType": "address",
          "name": "",
          "type": "address"
        },
        {
          "internalType": "uint16",
          "name": "",
          "type": "uint16"
        }
      ],
      "stateMutability": "view",
      "type": "function"
    },
    {
      "inputs": [
        {
          "internalType": "address",
          "name": "owner",
          "type": "address"
        },
        {
          "internalType": "address",
          "name": "operator",
          "type": "address"
        }
      ],
      "name": "isApprovedForAll",
      "outputs": [
        {
          "internalType": "bool",
          "name": "",
          "type": "bool"
        }
      ],
      "stateMutability": "view",
      "type": "function"
    },
    {
      "inputs": [
        {
          "internalType": "address",
          "name": "_operator",
          "type": "address"
        },
        {
          "internalType": "uint256",
          "name": "_tokenId",
          "type": "uint256"
        }
      ],
      "name": "isApprovedOrOwner",
      "outputs": [
        {
          "internalType": "bool",
          "name": "isApprovedOrOwnerOf",
          "type": "bool"
        }
      ],
      "stateMutability": "view",
      "type": "function"
    },
    {
      "inputs": [
        {
          "internalType": "address",
          "name": "_to",
          "type": "address"
        },
        {
          "internalType": "string",
          "name": "_tokenURI",
          "type": "string"
        }
      ],
      "name": "mintTo",
      "outputs": [],
      "stateMutability": "nonpayable",
      "type": "function"
    },
    {
      "inputs": [
        {
          "internalType": "bytes[]",
          "name": "data",
          "type": "bytes[]"
        }
      ],
      "name": "multicall",
      "outputs": [
        {
          "internalType": "bytes[]",
          "name": "results",
          "type": "bytes[]"
        }
      ],
      "stateMutability": "nonpayable",
      "type": "function"
    },
    {
      "inputs": [],
      "name": "name",
      "outputs": [
        {
          "internalType": "string",
          "name": "",
          "type": "string"
        }
      ],
      "stateMutability": "view",
      "type": "function"
    },
    {
      "inputs": [],
      "name": "nextTokenIdToMint",
      "outputs": [
        {
          "internalType": "uint256",
          "name": "",
          "type": "uint256"
        }
      ],
      "stateMutability": "view",
      "type": "function"
    },
    {
      "inputs": [],
      "name": "owner",
      "outputs": [
        {
          "internalType": "address",
          "name": "",
          "type": "address"
        }
      ],
      "stateMutability": "view",
      "type": "function"
    },
    {
      "inputs": [
        {
          "internalType": "uint256",
          "name": "tokenId",
          "type": "uint256"
        }
      ],
      "name": "ownerOf",
      "outputs": [
        {
          "internalType": "address",
          "name": "",
          "type": "address"
        }
      ],
      "stateMutability": "view",
      "type": "function"
    },
    {
      "inputs": [
        {
          "internalType": "uint256",
          "name": "tokenId",
          "type": "uint256"
        },
        {
          "internalType": "uint256",
          "name": "salePrice",
          "type": "uint256"
        }
      ],
      "name": "royaltyInfo",
      "outputs": [
        {
          "internalType": "address",
          "name": "receiver",
          "type": "address"
        },
        {
          "internalType": "uint256",
          "name": "royaltyAmount",
          "type": "uint256"
        }
      ],
      "stateMutability": "view",
      "type": "function"
    },
    {
      "inputs": [
        {
          "internalType": "address",
          "name": "from",
          "type": "address"
        },
        {
          "internalType": "address",
          "name": "to",
          "type": "address"
        },
        {
          "internalType": "uint256",
          "name": "tokenId",
          "type": "uint256"
        }
      ],
      "name": "safeTransferFrom",
      "outputs": [],
      "stateMutability": "nonpayable",
      "type": "function"
    },
    {
      "inputs": [
        {
          "internalType": "address",
          "name": "from",
          "type": "address"
        },
        {
          "internalType": "address",
          "name": "to",
          "type": "address"
        },
        {
          "internalType": "uint256",
          "name": "tokenId",
          "type": "uint256"
        },
        {
          "internalType": "bytes",
          "name": "_data",
          "type": "bytes"
        }
      ],
      "name": "safeTransferFrom",
      "outputs": [],
      "stateMutability": "nonpayable",
      "type": "function"
    },
    {
      "inputs": [
        {
          "internalType": "address",
          "name": "operator",
          "type": "address"
        },
        {
          "internalType": "bool",
          "name": "approved",
          "type": "bool"
        }
      ],
      "name": "setApprovalForAll",
      "outputs": [],
      "stateMutability": "nonpayable",
      "type": "function"
    },
    {
      "inputs": [
        {
          "internalType": "string",
          "name": "_uri",
          "type": "string"
        }
      ],
      "name": "setContractURI",
      "outputs": [],
      "stateMutability": "nonpayable",
      "type": "function"
    },
    {
      "inputs": [
        {
          "internalType": "address",
          "name": "_royaltyRecipient",
          "type": "address"
        },
        {
          "internalType": "uint256",
          "name": "_royaltyBps",
          "type": "uint256"
        }
      ],
      "name": "setDefaultRoyaltyInfo",
      "outputs": [],
      "stateMutability": "nonpayable",
      "type": "function"
    },
    {
      "inputs": [
        {
          "internalType": "address",
          "name": "_newOwner",
          "type": "address"
        }
      ],
      "name": "setOwner",
      "outputs": [],
      "stateMutability": "nonpayable",
      "type": "function"
    },
    {
      "inputs": [
        {
          "internalType": "uint256",
          "name": "_tokenId",
          "type": "uint256"
        },
        {
          "internalType": "address",
          "name": "_recipient",
          "type": "address"
        },
        {
          "internalType": "uint256",
          "name": "_bps",
          "type": "uint256"
        }
      ],
      "name": "setRoyaltyInfoForToken",
      "outputs": [],
      "stateMutability": "nonpayable",
      "type": "function"
    },
    {
      "inputs": [],
      "name": "shipmentCount",
      "outputs": [
        {
          "internalType": "uint256",
          "name": "",
          "type": "uint256"
        }
      ],
      "stateMutability": "view",
      "type": "function"
    },
    {
      "inputs": [
        {
          "internalType": "uint256",
          "name": "",
          "type": "uint256"
        }
      ],
      "name": "shipments",
      "outputs": [
        {
          "internalType": "uint256",
          "name": "id",
          "type": "uint256"
        },
        {
          "internalType": "string",
          "name": "description",
          "type": "string"
        },
        {
          "internalType": "address",
          "name": "sender",
          "type": "address"
        },
        {
          "internalType": "address",
          "name": "receiver",
          "type": "address"
        },
        {
          "internalType": "string",
          "name": "status",
          "type": "string"
        },
        {
          "internalType": "uint256",
          "name": "expiryDate",
          "type": "uint256"
        },
        {
          "internalType": "int256",
          "name": "recordedTemperature",
          "type": "int256"
        },
        {
          "internalType": "string",
          "name": "customClearanceCID",
          "type": "string"
        }
      ],
      "stateMutability": "view",
      "type": "function"
    },
    {
      "inputs": [
        {
          "internalType": "bytes4",
          "name": "interfaceId",
          "type": "bytes4"
        }
      ],
      "name": "supportsInterface",
      "outputs": [
        {
          "internalType": "bool",
          "name": "",
          "type": "bool"
        }
      ],
      "stateMutability": "view",
      "type": "function"
    },
    {
      "inputs": [],
      "name": "symbol",
      "outputs": [
        {
          "internalType": "string",
          "name": "",
          "type": "string"
        }
      ],
      "stateMutability": "view",
      "type": "function"
    },
    {
      "inputs": [
        {
          "internalType": "uint256",
          "name": "_tokenId",
          "type": "uint256"
        }
      ],
      "name": "tokenURI",
      "outputs": [
        {
          "internalType": "string",
          "name": "",
          "type": "string"
        }
      ],
      "stateMutability": "view",
      "type": "function"
    },
    {
      "inputs": [
        {
          "internalType": "address",
          "name": "owner",
          "type": "address"
        }
      ],
      "name": "tokensOfOwner",
      "outputs": [
        {
          "internalType": "uint256[]",
          "name": "",
          "type": "uint256[]"
        }
      ],
      "stateMutability": "view",
      "type": "function"
    },
    {
      "inputs": [
        {
          "internalType": "address",
          "name": "owner",
          "type": "address"
        },
        {
          "internalType": "uint256",
          "name": "start",
          "type": "uint256"
        },
        {
          "internalType": "uint256",
          "name": "stop",
          "type": "uint256"
        }
      ],
      "name": "tokensOfOwnerIn",
      "outputs": [
        {
          "internalType": "uint256[]",
          "name": "",
          "type": "uint256[]"
        }
      ],
      "stateMutability": "view",
      "type": "function"
    },
    {
      "inputs": [],
      "name": "totalSupply",
      "outputs": [
        {
          "internalType": "uint256",
          "name": "",
          "type": "uint256"
        }
      ],
      "stateMutability": "view",
      "type": "function"
    },
    {
      "inputs": [
        {
          "internalType": "address",
          "name": "from",
          "type": "address"
        },
        {
          "internalType": "address",
          "name": "to",
          "type": "address"
        },
        {
          "internalType": "uint256",
          "name": "tokenId",
          "type": "uint256"
        }
      ],
      "name": "transferFrom",
      "outputs": [],
      "stateMutability": "nonpayable",
      "type": "function"
    },
    {
      "inputs": [
        {
          "internalType": "uint256",
          "name": "_shipmentId",
          "type": "uint256"
        },
        {
          "internalType": "string",
          "name": "_cid",
          "type": "string"
        }
      ],
      "name": "uploadCustomClearance",
      "outputs": [],
      "stateMutability": "nonpayable",
      "type": "function"
    }
  ],
  "bytecode": "0x60806040523480156200001157600080fd5b50336040518060400160405280600b81526020017f4d65646963696e654e46540000000000000000000000000000000000000000008152506040518060400160405280600381526020017f4d454400000000000000000000000000000000000000000000000000000000008152503360008383816002908162000095919062000545565b508060039081620000a7919062000545565b50620000b86200010060201b60201c565b6000819055505050620000d1856200010560201b60201c565b620000f582826fffffffffffffffffffffffffffffffff16620001cb60201b60201c565b5050505050620006ca565b600090565b6000600960009054906101000a900473ffffffffffffffffffffffffffffffffffffffff16905081600960006101000a81548173ffffffffffffffffffffffffffffffffffffffff021916908373ffffffffffffffffffffffffffffffffffffffff1602179055508173ffffffffffffffffffffffffffffffffffffffff168173ffffffffffffffffffffffffffffffffffffffff167f8292fce18fa69edf4db7b94ea2e58241df0ae57f97e0a6c9b29067028bf92d7660405160405180910390a35050565b6127108111156200021957612710816040517f524985680000000000000000000000000000000000000000000000000000000081526004016200021092919062000680565b60405180910390fd5b81600a60006101000a81548173ffffffffffffffffffffffffffffffffffffffff021916908373ffffffffffffffffffffffffffffffffffffffff16021790555080600a60146101000a81548161ffff021916908361ffff1602179055508173ffffffffffffffffffffffffffffffffffffffff167f90d7ec04bcb8978719414f82e52e4cb651db41d0e6f8cea6118c2191e6183adb82604051620002bf9190620006ad565b60405180910390a25050565b600081519050919050565b7f4e487b7100000000000000000000000000000000000000000000000000000000600052604160045260246000fd5b7f4e487b7100000000000000000000000000000000000000000000000000000000600052602260045260246000fd5b600060028204905060018216806200034d57607f821691505b60208210810362000363576200036262000305565b5b50919050565b60008190508160005260206000209050919050565b60006020601f8301049050919050565b600082821b905092915050565b600060088302620003cd7fffffffffffffffffffffffffffffffffffffffffffffffffffffffffffffffff826200038e565b620003d986836200038e565b95508019841693508086168417925050509392505050565b6000819050919050565b6000819050919050565b600062000426620004206200041a84620003f1565b620003fb565b620003f1565b9050919050565b6000819050919050565b620004428362000405565b6200045a62000451826200042d565b8484546200039b565b825550505050565b600090565b6200047162000462565b6200047e81848462000437565b505050565b5b81811015620004a6576200049a60008262000467565b60018101905062000484565b5050565b601f821115620004f557620004bf8162000369565b620004ca846200037e565b81016020851015620004da578190505b620004f2620004e9856200037e565b83018262000483565b50505b505050565b600082821c905092915050565b60006200051a60001984600802620004fa565b1980831691505092915050565b600062000535838362000507565b9150826002028217905092915050565b6200055082620002cb565b67ffffffffffffffff8111156200056c576200056b620002d6565b5b62000578825462000334565b62000585828285620004aa565b600060209050601f831160018114620005bd5760008415620005a8578287015190505b620005b4858262000527565b86555062000624565b601f198416620005cd8662000369565b60005b82811015620005f757848901518255600182019150602085019450602081019050620005d0565b8683101562000617578489015162000613601f89168262000507565b8355505b6001600288020188555050505b505050505050565b6000819050919050565b600062000657620006516200064b846200062c565b620003fb565b620003f1565b9050919050565b620006698162000636565b82525050565b6200067a81620003f1565b82525050565b60006040820190506200069760008301856200065e565b620006a660208301846200066f565b9392505050565b6000602082019050620006c460008301846200066f565b92915050565b615d7a80620006da6000396000f3fe608060405234801561001057600080fd5b50600436106102525760003560e01c80636352211e116101465780639bcf7a15116100c3578063b88d4fde11610087578063b88d4fde1461075d578063c23dc68f14610779578063c87b56dd146107a9578063e8a3d485146107d9578063e985e9c5146107f7578063f8fc19e71461082757610252565b80639bcf7a15146106b8578063a22cb465146106d4578063aace20b7146106f0578063ac9650d81461070e578063b24f2d391461073e57610252565b80638462151c1161010a5780638462151c146106005780638da5cb5b14610630578063938e3d7b1461064e57806395d89b411461066a57806399a2557a1461068857610252565b80636352211e1461053657806363b45e2d1461056657806370a0823114610584578063754a81d9146105b457806383040532146105d057610252565b80632a55205a116101d4578063430c208111610198578063430c20811461046d5780634cc157df1461049d5780635bbb2177146104ce578063600dd5ea146104fe57806360108a981461051a57610252565b80632a55205a146103af5780632ac08a93146103e05780633b1475a71461041757806342842e0e1461043557806342966c681461045157610252565b806313af40351161021b57806313af40351461030d57806318160ddd146103295780631a1b58181461034757806323b872dd146103635780632419f51b1461037f57610252565b806275a3171461025757806301ffc9a71461027357806306fdde03146102a3578063081812fc146102c1578063095ea7b3146102f1575b600080fd5b610271600480360381019061026c91906144d4565b610857565b005b61028d60048036038101906102889190614588565b6108ce565b60405161029a91906145d0565b60405180910390f35b6102ab6109c8565b6040516102b8919061466a565b60405180910390f35b6102db60048036038101906102d691906146c2565b610a5a565b6040516102e891906146fe565b60405180910390f35b61030b60048036038101906103069190614719565b610ad6565b005b61032760048036038101906103229190614759565b610bda565b005b610331610c24565b60405161033e9190614795565b60405180910390f35b610361600480360381019061035c91906147b0565b610c3b565b005b61037d6004803603810190610378919061480c565b610d12565b005b610399600480360381019061039491906146c2565b610d22565b6040516103a69190614795565b60405180910390f35b6103c960048036038101906103c4919061485f565b610d95565b6040516103d792919061489f565b60405180910390f35b6103fa60048036038101906103f591906146c2565b610dd3565b60405161040e9897969594939291906148e1565b60405180910390f35b61041f610ff3565b60405161042c9190614795565b60405180910390f35b61044f600480360381019061044a919061480c565b610ffc565b005b61046b600480360381019061046691906146c2565b61101c565b005b61048760048036038101906104829190614719565b61102a565b60405161049491906145d0565b60405180910390f35b6104b760048036038101906104b291906146c2565b6110bf565b6040516104c5929190614991565b60405180910390f35b6104e860048036038101906104e39190614a82565b6111ca565b6040516104f59190614bfd565b60405180910390f35b61051860048036038101906105139190614719565b61128b565b005b610534600480360381019061052f9190614c1f565b6112d7565b005b610550600480360381019061054b91906146c2565b6114f2565b60405161055d91906146fe565b60405180910390f35b61056e611508565b60405161057b9190614795565b60405180910390f35b61059e60048036038101906105999190614759565b611515565b6040516105ab9190614795565b60405180910390f35b6105ce60048036038101906105c99190614d2f565b6115e4565b005b6105ea60048036038101906105e591906146c2565b611650565b6040516105f791906145d0565b60405180910390f35b61061a60048036038101906106159190614759565b611670565b6040516106279190614e8c565b60405180910390f35b61063861186b565b60405161064591906146fe565b60405180910390f35b61066860048036038101906106639190614eae565b611895565b005b6106726118df565b60405161067f919061466a565b60405180910390f35b6106a2600480360381019061069d9190614ef7565b611971565b6040516106af9190614e8c565b60405180910390f35b6106d260048036038101906106cd9190614f4a565b611c30565b005b6106ee60048036038101906106e99190614fc9565b611c7e565b005b6106f8611df5565b6040516107059190614795565b60405180910390f35b61072860048036038101906107239190615064565b611dfb565b60405161073591906151c8565b60405180910390f35b610746611fc3565b604051610754929190614991565b60405180910390f35b610777600480360381019061077291906151ea565b612002565b005b610793600480360381019061078e91906146c2565b61207a565b6040516107a091906152af565b60405180910390f35b6107c360048036038101906107be91906146c2565b612197565b6040516107d0919061466a565b60405180910390f35b6107e161228d565b6040516107ee919061466a565b60405180910390f35b610811600480360381019061080c91906152ca565b61231b565b60405161081e91906145d0565b60405180910390f35b610841600480360381019061083c91906146c2565b6123af565b60405161084e919061466a565b60405180910390f35b61085f612457565b61089e576040517f08c379a000000000000000000000000000000000000000000000000000000000815260040161089590615356565b60405180910390fd5b6108af6108a9610ff3565b82612494565b6108ca8260016040518060200160405280600081525061251b565b5050565b60006301ffc9a760e01b827bffffffffffffffffffffffffffffffffffffffffffffffffffffffff1916148061092957506380ac58cd60e01b827bffffffffffffffffffffffffffffffffffffffffffffffffffffffff1916145b806109595750635b5e139f60e01b827bffffffffffffffffffffffffffffffffffffffffffffffffffffffff1916145b806109c157507f2a55205a000000000000000000000000000000000000000000000000000000007bffffffffffffffffffffffffffffffffffffffffffffffffffffffff1916827bffffffffffffffffffffffffffffffffffffffffffffffffffffffff1916145b9050919050565b6060600280546109d7906153a5565b80601f0160208091040260200160405190810160405280929190818152602001828054610a03906153a5565b8015610a505780601f10610a2557610100808354040283529160200191610a50565b820191906000526020600020905b815481529060010190602001808311610a3357829003601f168201915b5050505050905090565b6000610a65826128db565b610a9b576040517fcf4700e400000000000000000000000000000000000000000000000000000000815260040160405180910390fd5b6006600083815260200190815260200160002060009054906101000a900473ffffffffffffffffffffffffffffffffffffffff169050919050565b6000610ae1826114f2565b90508073ffffffffffffffffffffffffffffffffffffffff168373ffffffffffffffffffffffffffffffffffffffff1603610b48576040517f943f7b8c00000000000000000000000000000000000000000000000000000000815260040160405180910390fd5b8073ffffffffffffffffffffffffffffffffffffffff16610b67612929565b73ffffffffffffffffffffffffffffffffffffffff1614610bca57610b9381610b8e612929565b61231b565b610bc9576040517fcfb3b94200000000000000000000000000000000000000000000000000000000815260040160405180910390fd5b5b610bd5838383612931565b505050565b610be26129e3565b610c18576040517f2d99739600000000000000000000000000000000000000000000000000000000815260040160405180910390fd5b610c2181612a20565b50565b6000610c2e612ae6565b6001546000540303905090565b3373ffffffffffffffffffffffffffffffffffffffff16610c5b836114f2565b73ffffffffffffffffffffffffffffffffffffffff1614610cb1576040517f08c379a0000000000000000000000000000000000000000000000000000000008152600401610ca890615422565b60405180910390fd5b80601060008481526020019081526020016000206007019081610cd491906155ee565b507f7e70084d84488f1d46902bb7fa3b765328c23f5713ec1e5d426bc7c9b2e9e1048282604051610d069291906156c0565b60405180910390a15050565b610d1d838383612aeb565b505050565b6000610d2c611508565b8210610d6f57816040517f0f2624ee000000000000000000000000000000000000000000000000000000008152600401610d669190614795565b60405180910390fd5b600c8281548110610d8357610d826156f0565b5b90600052602060002001549050919050565b600080600080610da4866110bf565b61ffff16915091508193506127108186610dbe919061574e565b610dc891906157bf565b925050509250929050565b6010602052806000526040600020600091509050806000015490806001018054610dfc906153a5565b80601f0160208091040260200160405190810160405280929190818152602001828054610e28906153a5565b8015610e755780601f10610e4a57610100808354040283529160200191610e75565b820191906000526020600020905b815481529060010190602001808311610e5857829003601f168201915b5050505050908060020160009054906101000a900473ffffffffffffffffffffffffffffffffffffffff16908060030160009054906101000a900473ffffffffffffffffffffffffffffffffffffffff1690806004018054610ed6906153a5565b80601f0160208091040260200160405190810160405280929190818152602001828054610f02906153a5565b8015610f4f5780601f10610f2457610100808354040283529160200191610f4f565b820191906000526020600020905b815481529060010190602001808311610f3257829003601f168201915b505050505090806005015490806006015490806007018054610f70906153a5565b80601f0160208091040260200160405190810160405280929190818152602001828054610f9c906153a5565b8015610fe95780601f10610fbe57610100808354040283529160200191610fe9565b820191906000526020600020905b815481529060010190602001808311610fcc57829003601f168201915b5050505050905088565b60008054905090565b61101783838360405180602001604052806000815250612002565b505050565b611027816001612f9f565b50565b600080611036836114f2565b90508073ffffffffffffffffffffffffffffffffffffffff168473ffffffffffffffffffffffffffffffffffffffff1614806110785750611077818561231b565b5b806110b657508373ffffffffffffffffffffffffffffffffffffffff1661109e84610a5a565b73ffffffffffffffffffffffffffffffffffffffff16145b91505092915050565b6000806000600b60008581526020019081526020016000206040518060400160405290816000820160009054906101000a900473ffffffffffffffffffffffffffffffffffffffff1673ffffffffffffffffffffffffffffffffffffffff1673ffffffffffffffffffffffffffffffffffffffff1681526020016001820154815250509050600073ffffffffffffffffffffffffffffffffffffffff16816000015173ffffffffffffffffffffffffffffffffffffffff161461118b57806000015181602001516111c0565b600a60009054906101000a900473ffffffffffffffffffffffffffffffffffffffff16600a60149054906101000a900461ffff165b9250925050915091565b606060008251905060008167ffffffffffffffff8111156111ee576111ed6143a9565b5b60405190808252806020026020018201604052801561122757816020015b6112146142d9565b81526020019060019003908161120c5790505b50905060005b8281146112805761125785828151811061124a576112496156f0565b5b602002602001015161207a565b82828151811061126a576112696156f0565b5b602002602001018190525080600101905061122d565b508092505050919050565b61129361338e565b6112c9576040517fdf5c6b0200000000000000000000000000000000000000000000000000000000815260040160405180910390fd5b6112d382826133cb565b5050565b601160008154809291906112ea906157f0565b919050555060405180610100016040528060115481526020018481526020013373ffffffffffffffffffffffffffffffffffffffff1681526020018373ffffffffffffffffffffffffffffffffffffffff1681526020016040518060400160405280600781526020017f50656e64696e6700000000000000000000000000000000000000000000000000815250815260200182815260200160008152602001604051806020016040528060008152508152506010600060115481526020019081526020016000206000820151816000015560208201518160010190816113d091906155ee565b5060408201518160020160006101000a81548173ffffffffffffffffffffffffffffffffffffffff021916908373ffffffffffffffffffffffffffffffffffffffff16021790555060608201518160030160006101000a81548173ffffffffffffffffffffffffffffffffffffffff021916908373ffffffffffffffffffffffffffffffffffffffff160217905550608082015181600401908161147491906155ee565b5060a0820151816005015560c0820151816006015560e082015181600701908161149e91906155ee565b509050506114ae336011546134c6565b7f7af99d65cb596cfdfc2aba99e0a28ed52bf550fd06066ef28d334007d9e8e2236011543384846040516114e59493929190615838565b60405180910390a1505050565b60006114fd826137a0565b600001519050919050565b6000600c80549050905090565b60008073ffffffffffffffffffffffffffffffffffffffff168273ffffffffffffffffffffffffffffffffffffffff160361157c576040517f8f4eb60400000000000000000000000000000000000000000000000000000000815260040160405180910390fd5b600560008373ffffffffffffffffffffffffffffffffffffffff1673ffffffffffffffffffffffffffffffffffffffff16815260200190815260200160002060000160009054906101000a900467ffffffffffffffff1667ffffffffffffffff169050919050565b6115ec612457565b61162b576040517f08c379a000000000000000000000000000000000000000000000000000000000815260040161162290615356565b60405180910390fd5b61163d611636610ff3565b8484613a2b565b505061164a84848361251b565b50505050565b600e6020528060005260406000206000915054906101000a900460ff1681565b6060600080600061168085611515565b905060008167ffffffffffffffff81111561169e5761169d6143a9565b5b6040519080825280602002602001820160405280156116cc5781602001602082028036833780820191505090505b5090506116d76142d9565b60006116e1612ae6565b90505b83861461185d57600460008281526020019081526020016000206040518060600160405290816000820160009054906101000a900473ffffffffffffffffffffffffffffffffffffffff1673ffffffffffffffffffffffffffffffffffffffff1673ffffffffffffffffffffffffffffffffffffffff1681526020016000820160149054906101000a900467ffffffffffffffff1667ffffffffffffffff1667ffffffffffffffff16815260200160008201601c9054906101000a900460ff1615151515815250509150816040015161185257600073ffffffffffffffffffffffffffffffffffffffff16826000015173ffffffffffffffffffffffffffffffffffffffff16146117f757816000015194505b8773ffffffffffffffffffffffffffffffffffffffff168573ffffffffffffffffffffffffffffffffffffffff16036118515780838780600101985081518110611844576118436156f0565b5b6020026020010181815250505b5b8060010190506116e4565b508195505050505050919050565b6000600960009054906101000a900473ffffffffffffffffffffffffffffffffffffffff16905090565b61189d613a91565b6118d3576040517f9f7f092500000000000000000000000000000000000000000000000000000000815260040160405180910390fd5b6118dc81613ace565b50565b6060600380546118ee906153a5565b80601f016020809104026020016040519081016040528092919081815260200182805461191a906153a5565b80156119675780601f1061193c57610100808354040283529160200191611967565b820191906000526020600020905b81548152906001019060200180831161194a57829003601f168201915b5050505050905090565b60608183106119ac576040517f32c1995a00000000000000000000000000000000000000000000000000000000815260040160405180910390fd5b60008060005490506119bc612ae6565b8510156119ce576119cb612ae6565b94505b808411156119da578093505b60006119e587611515565b905084861015611a08576000868603905081811015611a02578091505b50611a0d565b600090505b60008167ffffffffffffffff811115611a2957611a286143a9565b5b604051908082528060200260200182016040528015611a575781602001602082028036833780820191505090505b50905060008203611a6e5780945050505050611c29565b6000611a798861207a565b905060008160400151611a8e57816000015190505b60008990505b888114158015611aa45750848714155b15611c1b57600460008281526020019081526020016000206040518060600160405290816000820160009054906101000a900473ffffffffffffffffffffffffffffffffffffffff1673ffffffffffffffffffffffffffffffffffffffff1673ffffffffffffffffffffffffffffffffffffffff1681526020016000820160149054906101000a900467ffffffffffffffff1667ffffffffffffffff1667ffffffffffffffff16815260200160008201601c9054906101000a900460ff16151515158152505092508260400151611c1057600073ffffffffffffffffffffffffffffffffffffffff16836000015173ffffffffffffffffffffffffffffffffffffffff1614611bb557826000015191505b8a73ffffffffffffffffffffffffffffffffffffffff168273ffffffffffffffffffffffffffffffffffffffff1603611c0f5780848880600101995081518110611c0257611c016156f0565b5b6020026020010181815250505b5b806001019050611a94565b508583528296505050505050505b9392505050565b611c3861338e565b611c6e576040517fdf5c6b0200000000000000000000000000000000000000000000000000000000815260040160405180910390fd5b611c79838383613baa565b505050565b611c86612929565b73ffffffffffffffffffffffffffffffffffffffff168273ffffffffffffffffffffffffffffffffffffffff1603611cea576040517fb06307db00000000000000000000000000000000000000000000000000000000815260040160405180910390fd5b8060076000611cf7612929565b73ffffffffffffffffffffffffffffffffffffffff1673ffffffffffffffffffffffffffffffffffffffff16815260200190815260200160002060008473ffffffffffffffffffffffffffffffffffffffff1673ffffffffffffffffffffffffffffffffffffffff16815260200190815260200160002060006101000a81548160ff0219169083151502179055508173ffffffffffffffffffffffffffffffffffffffff16611da4612929565b73ffffffffffffffffffffffffffffffffffffffff167f17307eab39ab6107e8899845ad3d59bd9653f200f220920489ca2b5937696c3183604051611de991906145d0565b60405180910390a35050565b60115481565b60608282905067ffffffffffffffff811115611e1a57611e196143a9565b5b604051908082528060200260200182016040528015611e4d57816020015b6060815260200190600190039081611e385790505b5090506000611e5a612929565b905060008173ffffffffffffffffffffffffffffffffffffffff163373ffffffffffffffffffffffffffffffffffffffff161415905060005b85859050811015611fba578115611f1757611ef430878784818110611ebb57611eba6156f0565b5b9050602002810190611ecd919061588c565b86604051602001611ee093929190615967565b604051602081830303815290604052613cdb565b848281518110611f0757611f066156f0565b5b6020026020010181905250611fa7565b611f8830878784818110611f2e57611f2d6156f0565b5b9050602002810190611f40919061588c565b8080601f016020809104026020016040519081016040528093929190818152602001838380828437600081840152601f19601f82011690508083019250505050505050613cdb565b848281518110611f9b57611f9a6156f0565b5b60200260200101819052505b8080611fb2906157f0565b915050611e93565b50505092915050565b600080600a60009054906101000a900473ffffffffffffffffffffffffffffffffffffffff16600a60149054906101000a900461ffff16915091509091565b61200d848484612aeb565b61202c8373ffffffffffffffffffffffffffffffffffffffff16613d08565b156120745761203d84848484613d2b565b612073576040517fd1a57ed600000000000000000000000000000000000000000000000000000000815260040160405180910390fd5b5b50505050565b6120826142d9565b61208a6142d9565b612092612ae6565b8310806120a157506000548310155b156120af5780915050612192565b600460008481526020019081526020016000206040518060600160405290816000820160009054906101000a900473ffffffffffffffffffffffffffffffffffffffff1673ffffffffffffffffffffffffffffffffffffffff1673ffffffffffffffffffffffffffffffffffffffff1681526020016000820160149054906101000a900467ffffffffffffffff1667ffffffffffffffff1667ffffffffffffffff16815260200160008201601c9054906101000a900460ff16151515158152505090508060400151156121855780915050612192565b61218e836137a0565b9150505b919050565b60606000600f600084815260200190815260200160002080546121b9906153a5565b80601f01602080910402602001604051908101604052809291908181526020018280546121e5906153a5565b80156122325780601f1061220757610100808354040283529160200191612232565b820191906000526020600020905b81548152906001019060200180831161221557829003601f168201915b5050505050905060008151111561224c5780915050612288565b600061225784613e7b565b90508061226385614022565b6040516020016122749291906159cd565b604051602081830303815290604052925050505b919050565b6008805461229a906153a5565b80601f01602080910402602001604051908101604052809291908181526020018280546122c6906153a5565b80156123135780601f106122e857610100808354040283529160200191612313565b820191906000526020600020905b8154815290600101906020018083116122f657829003601f168201915b505050505081565b6000600760008473ffffffffffffffffffffffffffffffffffffffff1673ffffffffffffffffffffffffffffffffffffffff16815260200190815260200160002060008373ffffffffffffffffffffffffffffffffffffffff1673ffffffffffffffffffffffffffffffffffffffff16815260200190815260200160002060009054906101000a900460ff16905092915050565b60606010600083815260200190815260200160002060070180546123d2906153a5565b80601f01602080910402602001604051908101604052809291908181526020018280546123fe906153a5565b801561244b5780601f106124205761010080835404028352916020019161244b565b820191906000526020600020905b81548152906001019060200180831161242e57829003601f168201915b50505050509050919050565b600061246161186b565b73ffffffffffffffffffffffffffffffffffffffff163373ffffffffffffffffffffffffffffffffffffffff1614905090565b6000600f600084815260200190815260200160002080546124b4906153a5565b9050146124f6576040517f08c379a00000000000000000000000000000000000000000000000000000000081526004016124ed90615a3d565b60405180910390fd5b80600f6000848152602001908152602001600020908161251691906155ee565b505050565b600080549050600073ffffffffffffffffffffffffffffffffffffffff168473ffffffffffffffffffffffffffffffffffffffff1603612587576040517f2e07630000000000000000000000000000000000000000000000000000000000815260040160405180910390fd5b600083036125c1576040517fb562e8dd00000000000000000000000000000000000000000000000000000000815260040160405180910390fd5b6125ce6000858386614182565b82600560008673ffffffffffffffffffffffffffffffffffffffff1673ffffffffffffffffffffffffffffffffffffffff16815260200190815260200160002060000160008282829054906101000a900467ffffffffffffffff160192506101000a81548167ffffffffffffffff021916908367ffffffffffffffff16021790555082600560008673ffffffffffffffffffffffffffffffffffffffff1673ffffffffffffffffffffffffffffffffffffffff16815260200190815260200160002060000160088282829054906101000a900467ffffffffffffffff160192506101000a81548167ffffffffffffffff021916908367ffffffffffffffff160217905550836004600083815260200190815260200160002060000160006101000a81548173ffffffffffffffffffffffffffffffffffffffff021916908373ffffffffffffffffffffffffffffffffffffffff160217905550426004600083815260200190815260200160002060000160146101000a81548167ffffffffffffffff021916908367ffffffffffffffff16021790555060008190506000848201905061278f8673ffffffffffffffffffffffffffffffffffffffff16613d08565b15612854575b818673ffffffffffffffffffffffffffffffffffffffff16600073ffffffffffffffffffffffffffffffffffffffff167fddf252ad1be2c89b69c2b068fc378daa952ba7f163c4a11628f55a4df523b3ef60405160405180910390a46128046000878480600101955087613d2b565b61283a576040517fd1a57ed600000000000000000000000000000000000000000000000000000000815260040160405180910390fd5b80821061279557826000541461284f57600080fd5b6128bf565b5b818060010192508673ffffffffffffffffffffffffffffffffffffffff16600073ffffffffffffffffffffffffffffffffffffffff167fddf252ad1be2c89b69c2b068fc378daa952ba7f163c4a11628f55a4df523b3ef60405160405180910390a4808210612855575b8160008190555050506128d56000858386614188565b50505050565b6000816128e6612ae6565b111580156128f5575060005482105b8015612922575060046000838152602001908152602001600020600001601c9054906101000a900460ff16155b9050919050565b600033905090565b826006600084815260200190815260200160002060006101000a81548173ffffffffffffffffffffffffffffffffffffffff021916908373ffffffffffffffffffffffffffffffffffffffff160217905550818373ffffffffffffffffffffffffffffffffffffffff168273ffffffffffffffffffffffffffffffffffffffff167f8c5be1e5ebec7d5bd14f71427d1e84f3dd0314c0f7b2291e5b200ac8c7c3b92560405160405180910390a4505050565b60006129ed61186b565b73ffffffffffffffffffffffffffffffffffffffff163373ffffffffffffffffffffffffffffffffffffffff1614905090565b6000600960009054906101000a900473ffffffffffffffffffffffffffffffffffffffff16905081600960006101000a81548173ffffffffffffffffffffffffffffffffffffffff021916908373ffffffffffffffffffffffffffffffffffffffff1602179055508173ffffffffffffffffffffffffffffffffffffffff168173ffffffffffffffffffffffffffffffffffffffff167f8292fce18fa69edf4db7b94ea2e58241df0ae57f97e0a6c9b29067028bf92d7660405160405180910390a35050565b600090565b6000612af6826137a0565b90508373ffffffffffffffffffffffffffffffffffffffff16816000015173ffffffffffffffffffffffffffffffffffffffff1614612b61576040517fa114810000000000000000000000000000000000000000000000000000000000815260040160405180910390fd5b60008473ffffffffffffffffffffffffffffffffffffffff16612b82612929565b73ffffffffffffffffffffffffffffffffffffffff161480612bb15750612bb085612bab612929565b61231b565b5b80612bf65750612bbf612929565b73ffffffffffffffffffffffffffffffffffffffff16612bde84610a5a565b73ffffffffffffffffffffffffffffffffffffffff16145b905080612c2f576040517f59c896be00000000000000000000000000000000000000000000000000000000815260040160405180910390fd5b600073ffffffffffffffffffffffffffffffffffffffff168473ffffffffffffffffffffffffffffffffffffffff1603612c95576040517fea553b3400000000000000000000000000000000000000000000000000000000815260040160405180910390fd5b612ca28585856001614182565b612cae60008487612931565b6001600560008773ffffffffffffffffffffffffffffffffffffffff1673ffffffffffffffffffffffffffffffffffffffff16815260200190815260200160002060000160008282829054906101000a900467ffffffffffffffff160392506101000a81548167ffffffffffffffff021916908367ffffffffffffffff1602179055506001600560008673ffffffffffffffffffffffffffffffffffffffff1673ffffffffffffffffffffffffffffffffffffffff16815260200190815260200160002060000160008282829054906101000a900467ffffffffffffffff160192506101000a81548167ffffffffffffffff021916908367ffffffffffffffff1602179055506000600460008581526020019081526020016000209050848160000160006101000a81548173ffffffffffffffffffffffffffffffffffffffff021916908373ffffffffffffffffffffffffffffffffffffffff160217905550428160000160146101000a81548167ffffffffffffffff021916908367ffffffffffffffff16021790555060006001850190506000600460008381526020019081526020016000209050600073ffffffffffffffffffffffffffffffffffffffff168160000160009054906101000a900473ffffffffffffffffffffffffffffffffffffffff1673ffffffffffffffffffffffffffffffffffffffff1603612f2d576000548214612f2c57878160000160006101000a81548173ffffffffffffffffffffffffffffffffffffffff021916908373ffffffffffffffffffffffffffffffffffffffff16021790555084602001518160000160146101000a81548167ffffffffffffffff021916908367ffffffffffffffff1602179055505b5b505050828473ffffffffffffffffffffffffffffffffffffffff168673ffffffffffffffffffffffffffffffffffffffff167fddf252ad1be2c89b69c2b068fc378daa952ba7f163c4a11628f55a4df523b3ef60405160405180910390a4612f988585856001614188565b5050505050565b6000612faa836137a0565b9050600081600001519050821561308b5760008173ffffffffffffffffffffffffffffffffffffffff16612fdc612929565b73ffffffffffffffffffffffffffffffffffffffff16148061300b575061300a82613005612929565b61231b565b5b806130505750613019612929565b73ffffffffffffffffffffffffffffffffffffffff1661303886610a5a565b73ffffffffffffffffffffffffffffffffffffffff16145b905080613089576040517f59c896be00000000000000000000000000000000000000000000000000000000815260040160405180910390fd5b505b613099816000866001614182565b6130a560008583612931565b6000600560008373ffffffffffffffffffffffffffffffffffffffff1673ffffffffffffffffffffffffffffffffffffffff168152602001908152602001600020905060018160000160008282829054906101000a900467ffffffffffffffff160392506101000a81548167ffffffffffffffff021916908367ffffffffffffffff16021790555060018160000160108282829054906101000a900467ffffffffffffffff160192506101000a81548167ffffffffffffffff021916908367ffffffffffffffff1602179055506000600460008781526020019081526020016000209050828160000160006101000a81548173ffffffffffffffffffffffffffffffffffffffff021916908373ffffffffffffffffffffffffffffffffffffffff160217905550428160000160146101000a81548167ffffffffffffffff021916908367ffffffffffffffff160217905550600181600001601c6101000a81548160ff02191690831515021790555060006001870190506000600460008381526020019081526020016000209050600073ffffffffffffffffffffffffffffffffffffffff168160000160009054906101000a900473ffffffffffffffffffffffffffffffffffffffff1673ffffffffffffffffffffffffffffffffffffffff160361330857600054821461330757848160000160006101000a81548173ffffffffffffffffffffffffffffffffffffffff021916908373ffffffffffffffffffffffffffffffffffffffff16021790555085602001518160000160146101000a81548167ffffffffffffffff021916908367ffffffffffffffff1602179055505b5b5050505083600073ffffffffffffffffffffffffffffffffffffffff168273ffffffffffffffffffffffffffffffffffffffff167fddf252ad1be2c89b69c2b068fc378daa952ba7f163c4a11628f55a4df523b3ef60405160405180910390a4613376816000866001614188565b60016000815480929190600101919050555050505050565b600061339861186b565b73ffffffffffffffffffffffffffffffffffffffff163373ffffffffffffffffffffffffffffffffffffffff1614905090565b61271081111561341657612710816040517f5249856800000000000000000000000000000000000000000000000000000000815260040161340d929190615a98565b60405180910390fd5b81600a60006101000a81548173ffffffffffffffffffffffffffffffffffffffff021916908373ffffffffffffffffffffffffffffffffffffffff16021790555080600a60146101000a81548161ffff021916908361ffff1602179055508173ffffffffffffffffffffffffffffffffffffffff167f90d7ec04bcb8978719414f82e52e4cb651db41d0e6f8cea6118c2191e6183adb826040516134ba9190614795565b60405180910390a25050565b600080549050600073ffffffffffffffffffffffffffffffffffffffff168373ffffffffffffffffffffffffffffffffffffffff1603613532576040517f2e07630000000000000000000000000000000000000000000000000000000000815260040160405180910390fd5b6000820361356c576040517fb562e8dd00000000000000000000000000000000000000000000000000000000815260040160405180910390fd5b6135796000848385614182565b81600560008573ffffffffffffffffffffffffffffffffffffffff1673ffffffffffffffffffffffffffffffffffffffff16815260200190815260200160002060000160008282829054906101000a900467ffffffffffffffff160192506101000a81548167ffffffffffffffff021916908367ffffffffffffffff16021790555081600560008573ffffffffffffffffffffffffffffffffffffffff1673ffffffffffffffffffffffffffffffffffffffff16815260200190815260200160002060000160088282829054906101000a900467ffffffffffffffff160192506101000a81548167ffffffffffffffff021916908367ffffffffffffffff160217905550826004600083815260200190815260200160002060000160006101000a81548173ffffffffffffffffffffffffffffffffffffffff021916908373ffffffffffffffffffffffffffffffffffffffff160217905550426004600083815260200190815260200160002060000160146101000a81548167ffffffffffffffff021916908367ffffffffffffffff1602179055506000819050600083820190505b818060010192508573ffffffffffffffffffffffffffffffffffffffff16600073ffffffffffffffffffffffffffffffffffffffff167fddf252ad1be2c89b69c2b068fc378daa952ba7f163c4a11628f55a4df523b3ef60405160405180910390a480821061371c5781600081905550505061379b6000848385614188565b505050565b6137a86142d9565b6000829050806137b6612ae6565b116139f4576000548110156139f3576000600460008381526020019081526020016000206040518060600160405290816000820160009054906101000a900473ffffffffffffffffffffffffffffffffffffffff1673ffffffffffffffffffffffffffffffffffffffff1673ffffffffffffffffffffffffffffffffffffffff1681526020016000820160149054906101000a900467ffffffffffffffff1667ffffffffffffffff1667ffffffffffffffff16815260200160008201601c9054906101000a900460ff161515151581525050905080604001516139f157600073ffffffffffffffffffffffffffffffffffffffff16816000015173ffffffffffffffffffffffffffffffffffffffff16146138d5578092505050613a26565b5b6001156139f057818060019003925050600460008381526020019081526020016000206040518060600160405290816000820160009054906101000a900473ffffffffffffffffffffffffffffffffffffffff1673ffffffffffffffffffffffffffffffffffffffff1673ffffffffffffffffffffffffffffffffffffffff1681526020016000820160149054906101000a900467ffffffffffffffff1667ffffffffffffffff1667ffffffffffffffff16815260200160008201601c9054906101000a900460ff1615151515815250509050600073ffffffffffffffffffffffffffffffffffffffff16816000015173ffffffffffffffffffffffffffffffffffffffff16146139eb578092505050613a26565b6138d6565b5b505b5b6040517fdf2d9b4200000000000000000000000000000000000000000000000000000000815260040160405180910390fd5b919050565b6000808385613a3a9190615ac1565b9050809150600c81908060018154018082558091505060019003906000526020600020016000909190919091505582600d60008381526020019081526020016000209081613a8891906155ee565b50935093915050565b6000613a9b61186b565b73ffffffffffffffffffffffffffffffffffffffff163373ffffffffffffffffffffffffffffffffffffffff1614905090565b600060088054613add906153a5565b80601f0160208091040260200160405190810160405280929190818152602001828054613b09906153a5565b8015613b565780601f10613b2b57610100808354040283529160200191613b56565b820191906000526020600020905b815481529060010190602001808311613b3957829003601f168201915b505050505090508160089081613b6c91906155ee565b507fc9c7c3fe08b88b4df9d4d47ef47d2c43d55c025a0ba88ca442580ed9e7348a168183604051613b9e929190615af5565b60405180910390a15050565b612710811115613bf557612710816040517f52498568000000000000000000000000000000000000000000000000000000008152600401613bec929190615a98565b60405180910390fd5b60405180604001604052808373ffffffffffffffffffffffffffffffffffffffff16815260200182815250600b600085815260200190815260200160002060008201518160000160006101000a81548173ffffffffffffffffffffffffffffffffffffffff021916908373ffffffffffffffffffffffffffffffffffffffff160217905550602082015181600101559050508173ffffffffffffffffffffffffffffffffffffffff16837f7365cf4122f072a3365c20d54eff9b38d73c096c28e1892ec8f5b0e403a0f12d83604051613cce9190614795565b60405180910390a3505050565b6060613d008383604051806060016040528060278152602001615d1e6027913961418e565b905092915050565b6000808273ffffffffffffffffffffffffffffffffffffffff163b119050919050565b60008373ffffffffffffffffffffffffffffffffffffffff1663150b7a02613d51612929565b8786866040518563ffffffff1660e01b8152600401613d739493929190615b76565b6020604051808303816000875af1925050508015613daf57506040513d601f19601f82011682018060405250810190613dac9190615bd7565b60015b613e28573d8060008114613ddf576040519150601f19603f3d011682016040523d82523d6000602084013e613de4565b606091505b506000815103613e20576040517fd1a57ed600000000000000000000000000000000000000000000000000000000815260040160405180910390fd5b805181602001fd5b63150b7a0260e01b7bffffffffffffffffffffffffffffffffffffffffffffffffffffffff1916817bffffffffffffffffffffffffffffffffffffffffffffffffffffffff191614915050949350505050565b60606000613e87611508565b90506000600c805480602002602001604051908101604052809291908181526020018280548015613ed757602002820191906000526020600020905b815481526020019060010190808311613ec3575b5050505050905060005b82811015613fdf57818181518110613efc57613efb6156f0565b5b6020026020010151851015613fcb57600d6000838381518110613f2257613f216156f0565b5b602002602001015181526020019081526020016000208054613f43906153a5565b80601f0160208091040260200160405190810160405280929190818152602001828054613f6f906153a5565b8015613fbc5780601f10613f9157610100808354040283529160200191613fbc565b820191906000526020600020905b815481529060010190602001808311613f9f57829003601f168201915b5050505050935050505061401d565b600181613fd89190615ac1565b9050613ee1565b50836040517f25e5fda40000000000000000000000000000000000000000000000000000000081526004016140149190614795565b60405180910390fd5b919050565b606060008203614069576040518060400160405280600181526020017f3000000000000000000000000000000000000000000000000000000000000000815250905061417d565b600082905060005b6000821461409b578080614084906157f0565b915050600a8261409491906157bf565b9150614071565b60008167ffffffffffffffff8111156140b7576140b66143a9565b5b6040519080825280601f01601f1916602001820160405280156140e95781602001600182028036833780820191505090505b5090505b60008514614176576001826141029190615c04565b9150600a856141119190615c38565b603061411d9190615ac1565b60f81b818381518110614133576141326156f0565b5b60200101907effffffffffffffffffffffffffffffffffffffffffffffffffffffffffffff1916908160001a905350600a8561416f91906157bf565b94506140ed565b8093505050505b919050565b50505050565b50505050565b60606000808573ffffffffffffffffffffffffffffffffffffffff16856040516141b89190615c9a565b600060405180830381855af49150503d80600081146141f3576040519150601f19603f3d011682016040523d82523d6000602084013e6141f8565b606091505b509150915061420986838387614214565b925050509392505050565b6060831561427657600083510361426e5761422e85613d08565b61426d576040517f08c379a000000000000000000000000000000000000000000000000000000000815260040161426490615cfd565b60405180910390fd5b5b829050614281565b6142808383614289565b5b949350505050565b60008251111561429c5781518083602001fd5b806040517f08c379a00000000000000000000000000000000000000000000000000000000081526004016142d0919061466a565b60405180910390fd5b6040518060600160405280600073ffffffffffffffffffffffffffffffffffffffff168152602001600067ffffffffffffffff1681526020016000151581525090565b6000604051905090565b600080fd5b600080fd5b600073ffffffffffffffffffffffffffffffffffffffff82169050919050565b600061435b82614330565b9050919050565b61436b81614350565b811461437657600080fd5b50565b60008135905061438881614362565b92915050565b600080fd5b600080fd5b6000601f19601f8301169050919050565b7f4e487b7100000000000000000000000000000000000000000000000000000000600052604160045260246000fd5b6143e182614398565b810181811067ffffffffffffffff82111715614400576143ff6143a9565b5b80604052505050565b600061441361431c565b905061441f82826143d8565b919050565b600067ffffffffffffffff82111561443f5761443e6143a9565b5b61444882614398565b9050602081019050919050565b82818337600083830152505050565b600061447761447284614424565b614409565b90508281526020810184848401111561449357614492614393565b5b61449e848285614455565b509392505050565b600082601f8301126144bb576144ba61438e565b5b81356144cb848260208601614464565b91505092915050565b600080604083850312156144eb576144ea614326565b5b60006144f985828601614379565b925050602083013567ffffffffffffffff81111561451a5761451961432b565b5b614526858286016144a6565b9150509250929050565b60007fffffffff0000000000000000000000000000000000000000000000000000000082169050919050565b61456581614530565b811461457057600080fd5b50565b6000813590506145828161455c565b92915050565b60006020828403121561459e5761459d614326565b5b60006145ac84828501614573565b91505092915050565b60008115159050919050565b6145ca816145b5565b82525050565b60006020820190506145e560008301846145c1565b92915050565b600081519050919050565b600082825260208201905092915050565b60005b8381101561462557808201518184015260208101905061460a565b60008484015250505050565b600061463c826145eb565b61464681856145f6565b9350614656818560208601614607565b61465f81614398565b840191505092915050565b600060208201905081810360008301526146848184614631565b905092915050565b6000819050919050565b61469f8161468c565b81146146aa57600080fd5b50565b6000813590506146bc81614696565b92915050565b6000602082840312156146d8576146d7614326565b5b60006146e6848285016146ad565b91505092915050565b6146f881614350565b82525050565b600060208201905061471360008301846146ef565b92915050565b600080604083850312156147305761472f614326565b5b600061473e85828601614379565b925050602061474f858286016146ad565b9150509250929050565b60006020828403121561476f5761476e614326565b5b600061477d84828501614379565b91505092915050565b61478f8161468c565b82525050565b60006020820190506147aa6000830184614786565b92915050565b600080604083850312156147c7576147c6614326565b5b60006147d5858286016146ad565b925050602083013567ffffffffffffffff8111156147f6576147f561432b565b5b614802858286016144a6565b9150509250929050565b60008060006060848603121561482557614824614326565b5b600061483386828701614379565b935050602061484486828701614379565b9250506040614855868287016146ad565b9150509250925092565b6000806040838503121561487657614875614326565b5b6000614884858286016146ad565b9250506020614895858286016146ad565b9150509250929050565b60006040820190506148b460008301856146ef565b6148c16020830184614786565b9392505050565b6000819050919050565b6148db816148c8565b82525050565b6000610100820190506148f7600083018b614786565b8181036020830152614909818a614631565b905061491860408301896146ef565b61492560608301886146ef565b81810360808301526149378187614631565b905061494660a0830186614786565b61495360c08301856148d2565b81810360e08301526149658184614631565b90509998505050505050505050565b600061ffff82169050919050565b61498b81614974565b82525050565b60006040820190506149a660008301856146ef565b6149b36020830184614982565b9392505050565b600067ffffffffffffffff8211156149d5576149d46143a9565b5b602082029050602081019050919050565b600080fd5b60006149fe6149f9846149ba565b614409565b90508083825260208201905060208402830185811115614a2157614a206149e6565b5b835b81811015614a4a5780614a3688826146ad565b845260208401935050602081019050614a23565b5050509392505050565b600082601f830112614a6957614a6861438e565b5b8135614a798482602086016149eb565b91505092915050565b600060208284031215614a9857614a97614326565b5b600082013567ffffffffffffffff811115614ab657614ab561432b565b5b614ac284828501614a54565b91505092915050565b600081519050919050565b600082825260208201905092915050565b6000819050602082019050919050565b614b0081614350565b82525050565b600067ffffffffffffffff82169050919050565b614b2381614b06565b82525050565b614b32816145b5565b82525050565b606082016000820151614b4e6000850182614af7565b506020820151614b616020850182614b1a565b506040820151614b746040850182614b29565b50505050565b6000614b868383614b38565b60608301905092915050565b6000602082019050919050565b6000614baa82614acb565b614bb48185614ad6565b9350614bbf83614ae7565b8060005b83811015614bf0578151614bd78882614b7a565b9750614be283614b92565b925050600181019050614bc3565b5085935050505092915050565b60006020820190508181036000830152614c178184614b9f565b905092915050565b600080600060608486031215614c3857614c37614326565b5b600084013567ffffffffffffffff811115614c5657614c5561432b565b5b614c62868287016144a6565b9350506020614c7386828701614379565b9250506040614c84868287016146ad565b9150509250925092565b600067ffffffffffffffff821115614ca957614ca86143a9565b5b614cb282614398565b9050602081019050919050565b6000614cd2614ccd84614c8e565b614409565b905082815260208101848484011115614cee57614ced614393565b5b614cf9848285614455565b509392505050565b600082601f830112614d1657614d1561438e565b5b8135614d26848260208601614cbf565b91505092915050565b60008060008060808587031215614d4957614d48614326565b5b6000614d5787828801614379565b9450506020614d68878288016146ad565b935050604085013567ffffffffffffffff811115614d8957614d8861432b565b5b614d95878288016144a6565b925050606085013567ffffffffffffffff811115614db657614db561432b565b5b614dc287828801614d01565b91505092959194509250565b600081519050919050565b600082825260208201905092915050565b6000819050602082019050919050565b614e038161468c565b82525050565b6000614e158383614dfa565b60208301905092915050565b6000602082019050919050565b6000614e3982614dce565b614e438185614dd9565b9350614e4e83614dea565b8060005b83811015614e7f578151614e668882614e09565b9750614e7183614e21565b925050600181019050614e52565b5085935050505092915050565b60006020820190508181036000830152614ea68184614e2e565b905092915050565b600060208284031215614ec457614ec3614326565b5b600082013567ffffffffffffffff811115614ee257614ee161432b565b5b614eee848285016144a6565b91505092915050565b600080600060608486031215614f1057614f0f614326565b5b6000614f1e86828701614379565b9350506020614f2f868287016146ad565b9250506040614f40868287016146ad565b9150509250925092565b600080600060608486031215614f6357614f62614326565b5b6000614f71868287016146ad565b9350506020614f8286828701614379565b9250506040614f93868287016146ad565b9150509250925092565b614fa6816145b5565b8114614fb157600080fd5b50565b600081359050614fc381614f9d565b92915050565b60008060408385031215614fe057614fdf614326565b5b6000614fee85828601614379565b9250506020614fff85828601614fb4565b9150509250929050565b600080fd5b60008083601f8401126150245761502361438e565b5b8235905067ffffffffffffffff81111561504157615040615009565b5b60208301915083602082028301111561505d5761505c6149e6565b5b9250929050565b6000806020838503121561507b5761507a614326565b5b600083013567ffffffffffffffff8111156150995761509861432b565b5b6150a58582860161500e565b92509250509250929050565b600081519050919050565b600082825260208201905092915050565b6000819050602082019050919050565b600081519050919050565b600082825260208201905092915050565b6000615104826150dd565b61510e81856150e8565b935061511e818560208601614607565b61512781614398565b840191505092915050565b600061513e83836150f9565b905092915050565b6000602082019050919050565b600061515e826150b1565b61516881856150bc565b93508360208202850161517a856150cd565b8060005b858110156151b657848403895281516151978582615132565b94506151a283615146565b925060208a0199505060018101905061517e565b50829750879550505050505092915050565b600060208201905081810360008301526151e28184615153565b905092915050565b6000806000806080858703121561520457615203614326565b5b600061521287828801614379565b945050602061522387828801614379565b9350506040615234878288016146ad565b925050606085013567ffffffffffffffff8111156152555761525461432b565b5b61526187828801614d01565b91505092959194509250565b6060820160008201516152836000850182614af7565b5060208201516152966020850182614b1a565b5060408201516152a96040850182614b29565b50505050565b60006060820190506152c4600083018461526d565b92915050565b600080604083850312156152e1576152e0614326565b5b60006152ef85828601614379565b925050602061530085828601614379565b9150509250929050565b7f4e6f7420617574686f72697a656420746f206d696e742e000000000000000000600082015250565b60006153406017836145f6565b915061534b8261530a565b602082019050919050565b6000602082019050818103600083015261536f81615333565b9050919050565b7f4e487b7100000000000000000000000000000000000000000000000000000000600052602260045260246000fd5b600060028204905060018216806153bd57607f821691505b6020821081036153d0576153cf615376565b5b50919050565b7f4f6e6c79206f776e65722063616e2075706c6f616420646f63756d656e747300600082015250565b600061540c601f836145f6565b9150615417826153d6565b602082019050919050565b6000602082019050818103600083015261543b816153ff565b9050919050565b60008190508160005260206000209050919050565b60006020601f8301049050919050565b600082821b905092915050565b6000600883026154a47fffffffffffffffffffffffffffffffffffffffffffffffffffffffffffffffff82615467565b6154ae8683615467565b95508019841693508086168417925050509392505050565b6000819050919050565b60006154eb6154e66154e18461468c565b6154c6565b61468c565b9050919050565b6000819050919050565b615505836154d0565b615519615511826154f2565b848454615474565b825550505050565b600090565b61552e615521565b6155398184846154fc565b505050565b5b8181101561555d57615552600082615526565b60018101905061553f565b5050565b601f8211156155a25761557381615442565b61557c84615457565b8101602085101561558b578190505b61559f61559785615457565b83018261553e565b50505b505050565b600082821c905092915050565b60006155c5600019846008026155a7565b1980831691505092915050565b60006155de83836155b4565b9150826002028217905092915050565b6155f7826145eb565b67ffffffffffffffff8111156156105761560f6143a9565b5b61561a82546153a5565b615625828285615561565b600060209050601f8311600181146156585760008415615646578287015190505b61565085826155d2565b8655506156b8565b601f19841661566686615442565b60005b8281101561568e57848901518255600182019150602085019450602081019050615669565b868310156156ab57848901516156a7601f8916826155b4565b8355505b6001600288020188555050505b505050505050565b60006040820190506156d56000830185614786565b81810360208301526156e78184614631565b90509392505050565b7f4e487b7100000000000000000000000000000000000000000000000000000000600052603260045260246000fd5b7f4e487b7100000000000000000000000000000000000000000000000000000000600052601160045260246000fd5b60006157598261468c565b91506157648361468c565b92508282026157728161468c565b915082820484148315176157895761578861571f565b5b5092915050565b7f4e487b7100000000000000000000000000000000000000000000000000000000600052601260045260246000fd5b60006157ca8261468c565b91506157d58361468c565b9250826157e5576157e4615790565b5b828204905092915050565b60006157fb8261468c565b91507fffffffffffffffffffffffffffffffffffffffffffffffffffffffffffffffff820361582d5761582c61571f565b5b600182019050919050565b600060808201905061584d6000830187614786565b61585a60208301866146ef565b61586760408301856146ef565b6158746060830184614786565b95945050505050565b600080fd5b600080fd5b600080fd5b600080833560016020038436030381126158a9576158a861587d565b5b80840192508235915067ffffffffffffffff8211156158cb576158ca615882565b5b6020830192506001820236038313156158e7576158e6615887565b5b509250929050565b600081905092915050565b600061590683856158ef565b9350615913838584614455565b82840190509392505050565b60008160601b9050919050565b60006159378261591f565b9050919050565b60006159498261592c565b9050919050565b61596161595c82614350565b61593e565b82525050565b60006159748285876158fa565b91506159808284615950565b601482019150819050949350505050565b600081905092915050565b60006159a7826145eb565b6159b18185615991565b93506159c1818560208601614607565b80840191505092915050565b60006159d9828561599c565b91506159e5828461599c565b91508190509392505050565b7f55524920616c7265616479207365740000000000000000000000000000000000600082015250565b6000615a27600f836145f6565b9150615a32826159f1565b602082019050919050565b60006020820190508181036000830152615a5681615a1a565b9050919050565b6000819050919050565b6000615a82615a7d615a7884615a5d565b6154c6565b61468c565b9050919050565b615a9281615a67565b82525050565b6000604082019050615aad6000830185615a89565b615aba6020830184614786565b9392505050565b6000615acc8261468c565b9150615ad78361468c565b9250828201905080821115615aef57615aee61571f565b5b92915050565b60006040820190508181036000830152615b0f8185614631565b90508181036020830152615b238184614631565b90509392505050565b600082825260208201905092915050565b6000615b48826150dd565b615b528185615b2c565b9350615b62818560208601614607565b615b6b81614398565b840191505092915050565b6000608082019050615b8b60008301876146ef565b615b9860208301866146ef565b615ba56040830185614786565b8181036060830152615bb78184615b3d565b905095945050505050565b600081519050615bd18161455c565b92915050565b600060208284031215615bed57615bec614326565b5b6000615bfb84828501615bc2565b91505092915050565b6000615c0f8261468c565b9150615c1a8361468c565b9250828203905081811115615c3257615c3161571f565b5b92915050565b6000615c438261468c565b9150615c4e8361468c565b925082615c5e57615c5d615790565b5b828206905092915050565b6000615c74826150dd565b615c7e81856158ef565b9350615c8e818560208601614607565b80840191505092915050565b6000615ca68284615c69565b915081905092915050565b7f416464726573733a2063616c6c20746f206e6f6e2d636f6e7472616374000000600082015250565b6000615ce7601d836145f6565b9150615cf282615cb1565b602082019050919050565b60006020820190508181036000830152615d1681615cda565b905091905056fe416464726573733a206c6f772d6c6576656c2064656c65676174652063616c6c206661696c6564a264697066735822122041f68944849d37abdb466f882c6c4ea5526b46b19c7a995523fbd577acd33df364736f6c63430008130033",
  "linkReferences": {},
  "deployedLinkReferences": {}
}