{
  "_format": "hh-sol-artifact-1",
  "contractName": "BatchMintMetadata",
  "sourceName": "@thirdweb-dev/contracts/extension/BatchMintMetadata.sol",
  "abi": [
    {
      "inputs": [
        {
          "internalType": "uint256",
          "name": "index",
          "type": "uint256"
        }
      ],
      "name": "BatchMintInvalidBatchId",
      "type": "error"
    },
    {
      "inputs": [
        {
          "internalType": "uint256",
          "name": "tokenId",
          "type": "uint256"
        }
      ],
      "name": "BatchMintInvalidTokenId",
      "type": "error"
    },
    {
      "inputs": [
        {
          "internalType": "uint256",
          "name": "batchId",
          "type": "uint256"
        }
      ],
      "name": "BatchMintMetadataFrozen",
      "type": "error"
    },
    {
      "anonymous": false,
      "inputs": [
        {
          "indexed": false,
          "internalType": "uint256",
          "name": "_fromTokenId",
          "type": "uint256"
        },
        {
          "indexed": false,
          "internalType": "uint256",
          "name": "_toTokenId",
          "type": "uint256"
        }
      ],
      "name": "BatchMetadataUpdate",
      "type": "event"
    },
    {
      "anonymous": false,
      "inputs": [],
      "name": "MetadataFrozen",
      "type": "event"
    },
    {
      "inputs": [
        {
          "internalType": "uint256",
          "name": "",
          "type": "uint256"
        }
      ],
      "name": "batchFrozen",
      "outputs": [
        {
          "internalType": "bool",
          "name": "",
          "type": "bool"
        }
      ],
      "stateMutability": "view",
      "type": "function"
    },
    {
      "inputs": [],
      "name": "getBaseURICount",
      "outputs": [
        {
          "internalType": "uint256",
          "name": "",
          "type": "uint256"
        }
      ],
      "stateMutability": "view",
      "type": "function"
    },
    {
      "inputs": [
        {
          "internalType": "uint256",
          "name": "_index",
          "type": "uint256"
        }
      ],
      "name": "getBatchIdAtIndex",
      "outputs": [
        {
          "internalType": "uint256",
          "name": "",
          "type": "uint256"
        }
      ],
      "stateMutability": "view",
      "type": "function"
    }
  ],
  "bytecode": "0x6080806040523461001657610124908161001c8239f35b600080fdfe6080806040526004361015601257600080fd5b600090813560e01c9081632419f51b1460885750806363b45e2d14606d57638304053214603e57600080fd5b34606a576020366003190112606a5760ff60406020926004358152600284522054166040519015158152f35b80fd5b5034606a5780600319360112606a5760209054604051908152f35b90503460ea57602036600319011260ea5760043590825482101560d6575081602092527f290decd9548b62a8d60345a988386fc84ba6bc95484008f6362f93160ef3e5630154604051908152f35b602491630793127760e11b82526004820152fd5b5080fdfea26469706673582212203ae533f6f41cd52aca00449f1300fe22ade088a4611369abcda37a3f2b65b2c164736f6c63430008140033",
  "linkReferences": {},
  "deployedLinkReferences": {}
}