{
  "_format": "hh-sol-artifact-1",
  "contractName": "BatchMintMetadata",
  "sourceName": "@thirdweb-dev/contracts/extension/BatchMintMetadata.sol",
  "abi": [
    {
      "inputs": [
        {
          "internalType": "uint256",
          "name": "index",
          "type": "uint256"
        }
      ],
      "name": "BatchMintInvalidBatchId",
      "type": "error"
    },
    {
      "inputs": [
        {
          "internalType": "uint256",
          "name": "tokenId",
          "type": "uint256"
        }
      ],
      "name": "BatchMintInvalidTokenId",
      "type": "error"
    },
    {
      "inputs": [
        {
          "internalType": "uint256",
          "name": "batchId",
          "type": "uint256"
        }
      ],
      "name": "BatchMintMetadataFrozen",
      "type": "error"
    },
    {
      "anonymous": false,
      "inputs": [
        {
          "indexed": false,
          "internalType": "uint256",
          "name": "_fromTokenId",
          "type": "uint256"
        },
        {
          "indexed": false,
          "internalType": "uint256",
          "name": "_toTokenId",
          "type": "uint256"
        }
      ],
      "name": "BatchMetadataUpdate",
      "type": "event"
    },
    {
      "anonymous": false,
      "inputs": [],
      "name": "MetadataFrozen",
      "type": "event"
    },
    {
      "inputs": [
        {
          "internalType": "uint256",
          "name": "",
          "type": "uint256"
        }
      ],
      "name": "batchFrozen",
      "outputs": [
        {
          "internalType": "bool",
          "name": "",
          "type": "bool"
        }
      ],
      "stateMutability": "view",
      "type": "function"
    },
    {
      "inputs": [],
      "name": "getBaseURICount",
      "outputs": [
        {
          "internalType": "uint256",
          "name": "",
          "type": "uint256"
        }
      ],
      "stateMutability": "view",
      "type": "function"
    },
    {
      "inputs": [
        {
          "internalType": "uint256",
          "name": "_index",
          "type": "uint256"
        }
      ],
      "name": "getBatchIdAtIndex",
      "outputs": [
        {
          "internalType": "uint256",
          "name": "",
          "type": "uint256"
        }
      ],
      "stateMutability": "view",
      "type": "function"
    }
  ],
  "bytecode": "0x608060405234801561001057600080fd5b50610290806100206000396000f3fe608060405234801561001057600080fd5b50600436106100415760003560e01c80632419f51b1461004657806363b45e2d146100765780638304053214610094575b600080fd5b610060600480360381019061005b919061019e565b6100c4565b60405161006d91906101da565b60405180910390f35b61007e610137565b60405161008b91906101da565b60405180910390f35b6100ae60048036038101906100a9919061019e565b610143565b6040516100bb9190610210565b60405180910390f35b60006100ce610137565b821061011157816040517f0f2624ee00000000000000000000000000000000000000000000000000000000815260040161010891906101da565b60405180910390fd5b600082815481106101255761012461022b565b5b90600052602060002001549050919050565b60008080549050905090565b60026020528060005260406000206000915054906101000a900460ff1681565b600080fd5b6000819050919050565b61017b81610168565b811461018657600080fd5b50565b60008135905061019881610172565b92915050565b6000602082840312156101b4576101b3610163565b5b60006101c284828501610189565b91505092915050565b6101d481610168565b82525050565b60006020820190506101ef60008301846101cb565b92915050565b60008115159050919050565b61020a816101f5565b82525050565b60006020820190506102256000830184610201565b92915050565b7f4e487b7100000000000000000000000000000000000000000000000000000000600052603260045260246000fdfea2646970667358221220a7f95c6b89cdee730b1ad9b2efaff2ee18ca0b120417d59eb8132a319d4d8d7664736f6c63430008130033",
  "linkReferences": {},
  "deployedLinkReferences": {}
}