{
  "_format": "hh-sol-artifact-1",
  "contractName": "Multicall",
  "sourceName": "@thirdweb-dev/contracts/extension/Multicall.sol",
  "abi": [
    {
      "inputs": [
        {
          "internalType": "bytes[]",
          "name": "data",
          "type": "bytes[]"
        }
      ],
      "name": "multicall",
      "outputs": [
        {
          "internalType": "bytes[]",
          "name": "results",
          "type": "bytes[]"
        }
      ],
      "stateMutability": "nonpayable",
      "type": "function"
    }
  ],
  "bytecode": "0x6080806040523461001657610448908161001c8239f35b600080fdfe6040608081526004908136101561001557600080fd5b600090813560e01c63ac9650d81461002c57600080fd5b3461029b57602090816003193601126102975783359167ffffffffffffffff94858411610293573660238501121561029357838101359386851161028f576024916005973684888b1b8501011161028b5761008c87939798969598610317565b96610099865198896102df565b838852601f196100a885610317565b01875b81811061027c575050368190036042190190875b85811061012457505050505050508051938080860192818752855180945283818801981b870101940192955b8287106100f85785850386f35b909192938280610114600193603f198a8203018652885161029f565b96019201960195929190926100eb565b86818d9c999a9c1b830101358381121561027857820187810135858111610274576044918281019082360382136102705790829161016e6101658f9561032f565b945194856102df565b8284528c84019483369201011161027057818f928d928637830101528a51916060918284018481108982111761025d578f80938f938f857f416464726573733a206c6f772d6c6576656c2064656c65676174652063616c6c660819985a5b195960ca1b9286976102199c9b995260278b528a01528801525190305af4903d1561025657508c3d6102096102008261032f565b925192836102df565b815280928d3d92013e5b30610375565b610223828c61034b565b5261022e818b61034b565b50600019811461024457600101999796996100bf565b634e487b7160e01b8b5260118552868bfd5b9150610213565b50634e487b7160e01b8f52604189528a8ffd5b8e80fd5b8c80fd5b8b80fd5b60608a82018c01528a016100ab565b8780fd5b8580fd5b8480fd5b8280fd5b5080fd5b919082519283825260005b8481106102cb575050826000602080949584010152601f8019910116010190565b6020818301810151848301820152016102aa565b90601f8019910116810190811067ffffffffffffffff82111761030157604052565b634e487b7160e01b600052604160045260246000fd5b67ffffffffffffffff81116103015760051b60200190565b67ffffffffffffffff811161030157601f01601f191660200190565b805182101561035f5760209160051b010190565b634e487b7160e01b600052603260045260246000fd5b919290156103d75750815115610389575090565b3b156103925790565b60405162461bcd60e51b815260206004820152601d60248201527f416464726573733a2063616c6c20746f206e6f6e2d636f6e74726163740000006044820152606490fd5b8251909150156103ea5750805190602001fd5b60405162461bcd60e51b81526020600482015290819061040e90602483019061029f565b0390fdfea2646970667358221220587d0034c3d7822b781f4fe2ce481f0049b60c832daeff52c247968d69d712d764736f6c63430008140033",
  "linkReferences": {},
  "deployedLinkReferences": {}
}