{
  "_format": "hh-sol-artifact-1",
  "contractName": "Multicall",
  "sourceName": "@thirdweb-dev/contracts/extension/Multicall.sol",
  "abi": [
    {
      "inputs": [
        {
          "internalType": "bytes[]",
          "name": "data",
          "type": "bytes[]"
        }
      ],
      "name": "multicall",
      "outputs": [
        {
          "internalType": "bytes[]",
          "name": "results",
          "type": "bytes[]"
        }
      ],
      "stateMutability": "nonpayable",
      "type": "function"
    }
  ],
  "bytecode": "0x608060405234801561001057600080fd5b506109b7806100206000396000f3fe608060405234801561001057600080fd5b506004361061002b5760003560e01c8063ac9650d814610030575b600080fd5b61004a6004803603810190610045919061043a565b610060565b60405161005791906105d9565b60405180910390f35b60608282905067ffffffffffffffff81111561007f5761007e6105fb565b5b6040519080825280602002602001820160405280156100b257816020015b606081526020019060019003908161009d5790505b50905060006100bf610228565b905060008173ffffffffffffffffffffffffffffffffffffffff163373ffffffffffffffffffffffffffffffffffffffff161415905060005b8585905081101561021f57811561017c57610159308787848181106101205761011f61062a565b5b90506020028101906101329190610668565b8660405160200161014593929190610784565b604051602081830303815290604052610230565b84828151811061016c5761016b61062a565b5b602002602001018190525061020c565b6101ed308787848181106101935761019261062a565b5b90506020028101906101a59190610668565b8080601f016020809104026020016040519081016040528093929190818152602001838380828437600081840152601f19601f82011690508083019250505050505050610230565b848281518110610200576101ff61062a565b5b60200260200101819052505b8080610217906107e7565b9150506100f8565b50505092915050565b600033905090565b6060610255838360405180606001604052806027815260200161095b6027913961025d565b905092915050565b60606000808573ffffffffffffffffffffffffffffffffffffffff16856040516102879190610860565b600060405180830381855af49150503d80600081146102c2576040519150601f19603f3d011682016040523d82523d6000602084013e6102c7565b606091505b50915091506102d8868383876102e3565b925050509392505050565b6060831561034557600083510361033d576102fd85610358565b61033c576040517f08c379a0000000000000000000000000000000000000000000000000000000008152600401610333906108d4565b60405180910390fd5b5b829050610350565b61034f838361037b565b5b949350505050565b6000808273ffffffffffffffffffffffffffffffffffffffff163b119050919050565b60008251111561038e5781518083602001fd5b806040517f08c379a00000000000000000000000000000000000000000000000000000000081526004016103c29190610938565b60405180910390fd5b600080fd5b600080fd5b600080fd5b600080fd5b600080fd5b60008083601f8401126103fa576103f96103d5565b5b8235905067ffffffffffffffff811115610417576104166103da565b5b602083019150836020820283011115610433576104326103df565b5b9250929050565b60008060208385031215610451576104506103cb565b5b600083013567ffffffffffffffff81111561046f5761046e6103d0565b5b61047b858286016103e4565b92509250509250929050565b600081519050919050565b600082825260208201905092915050565b6000819050602082019050919050565b600081519050919050565b600082825260208201905092915050565b60005b838110156104ed5780820151818401526020810190506104d2565b60008484015250505050565b6000601f19601f8301169050919050565b6000610515826104b3565b61051f81856104be565b935061052f8185602086016104cf565b610538816104f9565b840191505092915050565b600061054f838361050a565b905092915050565b6000602082019050919050565b600061056f82610487565b6105798185610492565b93508360208202850161058b856104a3565b8060005b858110156105c757848403895281516105a88582610543565b94506105b383610557565b925060208a0199505060018101905061058f565b50829750879550505050505092915050565b600060208201905081810360008301526105f38184610564565b905092915050565b7f4e487b7100000000000000000000000000000000000000000000000000000000600052604160045260246000fd5b7f4e487b7100000000000000000000000000000000000000000000000000000000600052603260045260246000fd5b600080fd5b600080fd5b600080fd5b6000808335600160200384360303811261068557610684610659565b5b80840192508235915067ffffffffffffffff8211156106a7576106a661065e565b5b6020830192506001820236038313156106c3576106c2610663565b5b509250929050565b600081905092915050565b82818337600083830152505050565b60006106f183856106cb565b93506106fe8385846106d6565b82840190509392505050565b600073ffffffffffffffffffffffffffffffffffffffff82169050919050565b60006107358261070a565b9050919050565b60008160601b9050919050565b60006107548261073c565b9050919050565b600061076682610749565b9050919050565b61077e6107798261072a565b61075b565b82525050565b60006107918285876106e5565b915061079d828461076d565b601482019150819050949350505050565b7f4e487b7100000000000000000000000000000000000000000000000000000000600052601160045260246000fd5b6000819050919050565b60006107f2826107dd565b91507fffffffffffffffffffffffffffffffffffffffffffffffffffffffffffffffff8203610824576108236107ae565b5b600182019050919050565b600061083a826104b3565b61084481856106cb565b93506108548185602086016104cf565b80840191505092915050565b600061086c828461082f565b915081905092915050565b600082825260208201905092915050565b7f416464726573733a2063616c6c20746f206e6f6e2d636f6e7472616374000000600082015250565b60006108be601d83610877565b91506108c982610888565b602082019050919050565b600060208201905081810360008301526108ed816108b1565b9050919050565b600081519050919050565b600061090a826108f4565b6109148185610877565b93506109248185602086016104cf565b61092d816104f9565b840191505092915050565b6000602082019050818103600083015261095281846108ff565b90509291505056fe416464726573733a206c6f772d6c6576656c2064656c65676174652063616c6c206661696c6564a26469706673582212206bcf20ae3c87e46622fddcab05e6efbfdab02a6d5e92a08c31b02a52699f095464736f6c63430008130033",
  "linkReferences": {},
  "deployedLinkReferences": {}
}