{"contracts/ShippingNFT.sol":{"ShippingNFT":{"abi":[{"inputs":[],"stateMutability":"nonpayable","type":"constructor"},{"inputs":[],"name":"ApprovalCallerNotOwnerNorApproved","type":"error"},{"inputs":[],"name":"ApprovalQueryForNonexistentToken","type":"error"},{"inputs":[],"name":"ApprovalToCurrentOwner","type":"error"},{"inputs":[],"name":"ApproveToCaller","type":"error"},{"inputs":[],"name":"BalanceQueryForZeroAddress","type":"error"},{"inputs":[{"internalType":"uint256","name":"index","type":"uint256"}],"name":"BatchMintInvalidBatchId","type":"error"},{"inputs":[{"internalType":"uint256","name":"tokenId","type":"uint256"}],"name":"BatchMintInvalidTokenId","type":"error"},{"inputs":[{"internalType":"uint256","name":"batchId","type":"uint256"}],"name":"BatchMintMetadataFrozen","type":"error"},{"inputs":[],"name":"ContractMetadataUnauthorized","type":"error"},{"inputs":[],"name":"InvalidQueryRange","type":"error"},{"inputs":[],"name":"MintToZeroAddress","type":"error"},{"inputs":[],"name":"MintZeroQuantity","type":"error"},{"inputs":[],"name":"OwnableUnauthorized","type":"error"},{"inputs":[],"name":"OwnerQueryForNonexistentToken","type":"error"},{"inputs":[{"internalType":"uint256","name":"max","type":"uint256"},{"internalType":"uint256","name":"actual","type":"uint256"}],"name":"RoyaltyExceededMaxFeeBps","type":"error"},{"inputs":[{"internalType":"address","name":"recipient","type":"address"}],"name":"RoyaltyInvalidRecipient","type":"error"},{"inputs":[],"name":"RoyaltyUnauthorized","type":"error"},{"inputs":[],"name":"TransferCallerNotOwnerNorApproved","type":"error"},{"inputs":[],"name":"TransferFromIncorrectOwner","type":"error"},{"inputs":[],"name":"TransferToNonERC721ReceiverImplementer","type":"error"},{"inputs":[],"name":"TransferToZeroAddress","type":"error"},{"inputs":[],"name":"URIQueryForNonexistentToken","type":"error"},{"anonymous":false,"inputs":[{"indexed":true,"internalType":"address","name":"owner","type":"address"},{"indexed":true,"internalType":"address","name":"approved","type":"address"},{"indexed":true,"internalType":"uint256","name":"tokenId","type":"uint256"}],"name":"Approval","type":"event"},{"anonymous":false,"inputs":[{"indexed":true,"internalType":"address","name":"owner","type":"address"},{"indexed":true,"internalType":"address","name":"operator","type":"address"},{"indexed":false,"internalType":"bool","name":"approved","type":"bool"}],"name":"ApprovalForAll","type":"event"},{"anonymous":false,"inputs":[{"indexed":false,"internalType":"uint256","name":"_fromTokenId","type":"uint256"},{"indexed":false,"internalType":"uint256","name":"_toTokenId","type":"uint256"}],"name":"BatchMetadataUpdate","type":"event"},{"anonymous":false,"inputs":[{"indexed":false,"internalType":"string","name":"prevURI","type":"string"},{"indexed":false,"internalType":"string","name":"newURI","type":"string"}],"name":"ContractURIUpdated","type":"event"},{"anonymous":false,"inputs":[{"indexed":true,"internalType":"address","name":"newRoyaltyRecipient","type":"address"},{"indexed":false,"internalType":"uint256","name":"newRoyaltyBps","type":"uint256"}],"name":"DefaultRoyalty","type":"event"},{"anonymous":false,"inputs":[{"indexed":false,"internalType":"uint256","name":"shipmentId","type":"uint256"},{"indexed":false,"internalType":"string","name":"cid","type":"string"}],"name":"DocumentUploaded","type":"event"},{"anonymous":false,"inputs":[],"name":"MetadataFrozen","type":"event"},{"anonymous":false,"inputs":[{"indexed":true,"internalType":"address","name":"prevOwner","type":"address"},{"indexed":true,"internalType":"address","name":"newOwner","type":"address"}],"name":"OwnerUpdated","type":"event"},{"anonymous":false,"inputs":[{"indexed":true,"internalType":"uint256","name":"tokenId","type":"uint256"},{"indexed":true,"internalType":"address","name":"royaltyRecipient","type":"address"},{"indexed":false,"internalType":"uint256","name":"royaltyBps","type":"uint256"}],"name":"RoyaltyForToken","type":"event"},{"anonymous":false,"inputs":[{"indexed":false,"internalType":"uint256","name":"shipmentId","type":"uint256"},{"indexed":false,"internalType":"address","name":"sender","type":"address"},{"indexed":false,"internalType":"address","name":"receiver","type":"address"},{"indexed":false,"internalType":"uint256","name":"expiryDate","type":"uint256"}],"name":"ShipmentCreated","type":"event"},{"anonymous":false,"inputs":[{"indexed":false,"internalType":"uint256","name":"shipmentId","type":"uint256"},{"indexed":false,"internalType":"int256","name":"temperature","type":"int256"},{"indexed":false,"internalType":"uint256","name":"newExpiryDate","type":"uint256"}],"name":"TemperatureUpdated","type":"event"},{"anonymous":false,"inputs":[{"indexed":true,"internalType":"address","name":"from","type":"address"},{"indexed":true,"internalType":"address","name":"to","type":"address"},{"indexed":true,"internalType":"uint256","name":"tokenId","type":"uint256"}],"name":"Transfer","type":"event"},{"inputs":[{"internalType":"address","name":"to","type":"address"},{"internalType":"uint256","name":"tokenId","type":"uint256"}],"name":"approve","outputs":[],"stateMutability":"nonpayable","type":"function"},{"inputs":[{"internalType":"address","name":"owner","type":"address"}],"name":"balanceOf","outputs":[{"internalType":"uint256","name":"","type":"uint256"}],"stateMutability":"view","type":"function"},{"inputs":[{"internalType":"uint256","name":"","type":"uint256"}],"name":"batchFrozen","outputs":[{"internalType":"bool","name":"","type":"bool"}],"stateMutability":"view","type":"function"},{"inputs":[{"internalType":"address","name":"_to","type":"address"},{"internalType":"uint256","name":"_quantity","type":"uint256"},{"internalType":"string","name":"_baseURI","type":"string"},{"internalType":"bytes","name":"_data","type":"bytes"}],"name":"batchMintTo","outputs":[],"stateMutability":"nonpayable","type":"function"},{"inputs":[{"internalType":"uint256","name":"_tokenId","type":"uint256"}],"name":"burn","outputs":[],"stateMutability":"nonpayable","type":"function"},{"inputs":[],"name":"contractURI","outputs":[{"internalType":"string","name":"","type":"string"}],"stateMutability":"view","type":"function"},{"inputs":[{"internalType":"string","name":"_description","type":"string"},{"internalType":"address","name":"_receiver","type":"address"},{"internalType":"uint256","name":"_expiryDate","type":"uint256"}],"name":"createShipment","outputs":[],"stateMutability":"nonpayable","type":"function"},{"inputs":[{"internalType":"uint256","name":"tokenId","type":"uint256"}],"name":"explicitOwnershipOf","outputs":[{"components":[{"internalType":"address","name":"addr","type":"address"},{"internalType":"uint64","name":"startTimestamp","type":"uint64"},{"internalType":"bool","name":"burned","type":"bool"}],"internalType":"struct IERC721A.TokenOwnership","name":"","type":"tuple"}],"stateMutability":"view","type":"function"},{"inputs":[{"internalType":"uint256[]","name":"tokenIds","type":"uint256[]"}],"name":"explicitOwnershipsOf","outputs":[{"components":[{"internalType":"address","name":"addr","type":"address"},{"internalType":"uint64","name":"startTimestamp","type":"uint64"},{"internalType":"bool","name":"burned","type":"bool"}],"internalType":"struct IERC721A.TokenOwnership[]","name":"","type":"tuple[]"}],"stateMutability":"view","type":"function"},{"inputs":[{"internalType":"uint256","name":"tokenId","type":"uint256"}],"name":"getApproved","outputs":[{"internalType":"address","name":"","type":"address"}],"stateMutability":"view","type":"function"},{"inputs":[],"name":"getBaseURICount","outputs":[{"internalType":"uint256","name":"","type":"uint256"}],"stateMutability":"view","type":"function"},{"inputs":[{"internalType":"uint256","name":"_index","type":"uint256"}],"name":"getBatchIdAtIndex","outputs":[{"internalType":"uint256","name":"","type":"uint256"}],"stateMutability":"view","type":"function"},{"inputs":[{"internalType":"uint256","name":"_shipmentId","type":"uint256"}],"name":"getCustomClearance","outputs":[{"internalType":"string","name":"","type":"string"}],"stateMutability":"view","type":"function"},{"inputs":[],"name":"getDefaultRoyaltyInfo","outputs":[{"internalType":"address","name":"","type":"address"},{"internalType":"uint16","name":"","type":"uint16"}],"stateMutability":"view","type":"function"},{"inputs":[{"internalType":"uint256","name":"_tokenId","type":"uint256"}],"name":"getRoyaltyInfoForToken","outputs":[{"internalType":"address","name":"","type":"address"},{"internalType":"uint16","name":"","type":"uint16"}],"stateMutability":"view","type":"function"},{"inputs":[{"internalType":"address","name":"owner","type":"address"},{"internalType":"address","name":"operator","type":"address"}],"name":"isApprovedForAll","outputs":[{"internalType":"bool","name":"","type":"bool"}],"stateMutability":"view","type":"function"},{"inputs":[{"internalType":"address","name":"_operator","type":"address"},{"internalType":"uint256","name":"_tokenId","type":"uint256"}],"name":"isApprovedOrOwner","outputs":[{"internalType":"bool","name":"isApprovedOrOwnerOf","type":"bool"}],"stateMutability":"view","type":"function"},{"inputs":[{"internalType":"address","name":"_to","type":"address"},{"internalType":"string","name":"_tokenURI","type":"string"}],"name":"mintTo","outputs":[],"stateMutability":"nonpayable","type":"function"},{"inputs":[{"internalType":"bytes[]","name":"data","type":"bytes[]"}],"name":"multicall","outputs":[{"internalType":"bytes[]","name":"results","type":"bytes[]"}],"stateMutability":"nonpayable","type":"function"},{"inputs":[],"name":"name","outputs":[{"internalType":"string","name":"","type":"string"}],"stateMutability":"view","type":"function"},{"inputs":[],"name":"nextTokenIdToMint","outputs":[{"internalType":"uint256","name":"","type":"uint256"}],"stateMutability":"view","type":"function"},{"inputs":[],"name":"owner","outputs":[{"internalType":"address","name":"","type":"address"}],"stateMutability":"view","type":"function"},{"inputs":[{"internalType":"uint256","name":"tokenId","type":"uint256"}],"name":"ownerOf","outputs":[{"internalType":"address","name":"","type":"address"}],"stateMutability":"view","type":"function"},{"inputs":[{"internalType":"uint256","name":"tokenId","type":"uint256"},{"internalType":"uint256","name":"salePrice","type":"uint256"}],"name":"royaltyInfo","outputs":[{"internalType":"address","name":"receiver","type":"address"},{"internalType":"uint256","name":"royaltyAmount","type":"uint256"}],"stateMutability":"view","type":"function"},{"inputs":[{"internalType":"address","name":"from","type":"address"},{"internalType":"address","name":"to","type":"address"},{"internalType":"uint256","name":"tokenId","type":"uint256"}],"name":"safeTransferFrom","outputs":[],"stateMutability":"nonpayable","type":"function"},{"inputs":[{"internalType":"address","name":"from","type":"address"},{"internalType":"address","name":"to","type":"address"},{"internalType":"uint256","name":"tokenId","type":"uint256"},{"internalType":"bytes","name":"_data","type":"bytes"}],"name":"safeTransferFrom","outputs":[],"stateMutability":"nonpayable","type":"function"},{"inputs":[{"internalType":"address","name":"operator","type":"address"},{"internalType":"bool","name":"approved","type":"bool"}],"name":"setApprovalForAll","outputs":[],"stateMutability":"nonpayable","type":"function"},{"inputs":[{"internalType":"string","name":"_uri","type":"string"}],"name":"setContractURI","outputs":[],"stateMutability":"nonpayable","type":"function"},{"inputs":[{"internalType":"address","name":"_royaltyRecipient","type":"address"},{"internalType":"uint256","name":"_royaltyBps","type":"uint256"}],"name":"setDefaultRoyaltyInfo","outputs":[],"stateMutability":"nonpayable","type":"function"},{"inputs":[{"internalType":"address","name":"_newOwner","type":"address"}],"name":"setOwner","outputs":[],"stateMutability":"nonpayable","type":"function"},{"inputs":[{"internalType":"uint256","name":"_tokenId","type":"uint256"},{"internalType":"address","name":"_recipient","type":"address"},{"internalType":"uint256","name":"_bps","type":"uint256"}],"name":"setRoyaltyInfoForToken","outputs":[],"stateMutability":"nonpayable","type":"function"},{"inputs":[],"name":"shipmentCount","outputs":[{"internalType":"uint256","name":"","type":"uint256"}],"stateMutability":"view","type":"function"},{"inputs":[{"internalType":"uint256","name":"","type":"uint256"}],"name":"shipments","outputs":[{"internalType":"uint256","name":"id","type":"uint256"},{"internalType":"string","name":"description","type":"string"},{"internalType":"address","name":"sender","type":"address"},{"internalType":"address","name":"receiver","type":"address"},{"internalType":"string","name":"status","type":"string"},{"internalType":"uint256","name":"expiryDate","type":"uint256"},{"internalType":"int256","name":"recordedTemperature","type":"int256"},{"internalType":"string","name":"customClearanceCID","type":"string"}],"stateMutability":"view","type":"function"},{"inputs":[{"internalType":"bytes4","name":"interfaceId","type":"bytes4"}],"name":"supportsInterface","outputs":[{"internalType":"bool","name":"","type":"bool"}],"stateMutability":"view","type":"function"},{"inputs":[],"name":"symbol","outputs":[{"internalType":"string","name":"","type":"string"}],"stateMutability":"view","type":"function"},{"inputs":[{"internalType":"uint256","name":"_tokenId","type":"uint256"}],"name":"tokenURI","outputs":[{"internalType":"string","name":"","type":"string"}],"stateMutability":"view","type":"function"},{"inputs":[{"internalType":"address","name":"owner","type":"address"}],"name":"tokensOfOwner","outputs":[{"internalType":"uint256[]","name":"","type":"uint256[]"}],"stateMutability":"view","type":"function"},{"inputs":[{"internalType":"address","name":"owner","type":"address"},{"internalType":"uint256","name":"start","type":"uint256"},{"internalType":"uint256","name":"stop","type":"uint256"}],"name":"tokensOfOwnerIn","outputs":[{"internalType":"uint256[]","name":"","type":"uint256[]"}],"stateMutability":"view","type":"function"},{"inputs":[],"name":"totalSupply","outputs":[{"internalType":"uint256","name":"","type":"uint256"}],"stateMutability":"view","type":"function"},{"inputs":[{"internalType":"address","name":"from","type":"address"},{"internalType":"address","name":"to","type":"address"},{"internalType":"uint256","name":"tokenId","type":"uint256"}],"name":"transferFrom","outputs":[],"stateMutability":"nonpayable","type":"function"},{"inputs":[{"internalType":"uint256","name":"_shipmentId","type":"uint256"},{"internalType":"string","name":"_cid","type":"string"}],"name":"uploadCustomClearance","outputs":[],"stateMutability":"nonpayable","type":"function"}],"evm":{"bytecode":{"linkReferences":{},"object":"60806040523480156200001157600080fd5b50336040518060400160405280600b81526020017f4d65646963696e654e46540000000000000000000000000000000000000000008152506040518060400160405280600381526020017f4d454400000000000000000000000000000000000000000000000000000000008152503360008383816002908162000095919062000545565b508060039081620000a7919062000545565b50620000b86200010060201b60201c565b6000819055505050620000d1856200010560201b60201c565b620000f582826fffffffffffffffffffffffffffffffff16620001cb60201b60201c565b5050505050620006ca565b600090565b6000600960009054906101000a900473ffffffffffffffffffffffffffffffffffffffff16905081600960006101000a81548173ffffffffffffffffffffffffffffffffffffffff021916908373ffffffffffffffffffffffffffffffffffffffff1602179055508173ffffffffffffffffffffffffffffffffffffffff168173ffffffffffffffffffffffffffffffffffffffff167f8292fce18fa69edf4db7b94ea2e58241df0ae57f97e0a6c9b29067028bf92d7660405160405180910390a35050565b6127108111156200021957612710816040517f524985680000000000000000000000000000000000000000000000000000000081526004016200021092919062000680565b60405180910390fd5b81600a60006101000a81548173ffffffffffffffffffffffffffffffffffffffff021916908373ffffffffffffffffffffffffffffffffffffffff16021790555080600a60146101000a81548161ffff021916908361ffff1602179055508173ffffffffffffffffffffffffffffffffffffffff167f90d7ec04bcb8978719414f82e52e4cb651db41d0e6f8cea6118c2191e6183adb82604051620002bf9190620006ad565b60405180910390a25050565b600081519050919050565b7f4e487b7100000000000000000000000000000000000000000000000000000000600052604160045260246000fd5b7f4e487b7100000000000000000000000000000000000000000000000000000000600052602260045260246000fd5b600060028204905060018216806200034d57607f821691505b60208210810362000363576200036262000305565b5b50919050565b60008190508160005260206000209050919050565b60006020601f8301049050919050565b600082821b905092915050565b600060088302620003cd7fffffffffffffffffffffffffffffffffffffffffffffffffffffffffffffffff826200038e565b620003d986836200038e565b95508019841693508086168417925050509392505050565b6000819050919050565b6000819050919050565b600062000426620004206200041a84620003f1565b620003fb565b620003f1565b9050919050565b6000819050919050565b620004428362000405565b6200045a62000451826200042d565b8484546200039b565b825550505050565b600090565b6200047162000462565b6200047e81848462000437565b505050565b5b81811015620004a6576200049a60008262000467565b60018101905062000484565b5050565b601f821115620004f557620004bf8162000369565b620004ca846200037e565b81016020851015620004da578190505b620004f2620004e9856200037e565b83018262000483565b50505b505050565b600082821c905092915050565b60006200051a60001984600802620004fa565b1980831691505092915050565b600062000535838362000507565b9150826002028217905092915050565b6200055082620002cb565b67ffffffffffffffff8111156200056c576200056b620002d6565b5b62000578825462000334565b62000585828285620004aa565b600060209050601f831160018114620005bd5760008415620005a8578287015190505b620005b4858262000527565b86555062000624565b601f198416620005cd8662000369565b60005b82811015620005f757848901518255600182019150602085019450602081019050620005d0565b8683101562000617578489015162000613601f89168262000507565b8355505b6001600288020188555050505b505050505050565b6000819050919050565b600062000657620006516200064b846200062c565b620003fb565b620003f1565b9050919050565b620006698162000636565b82525050565b6200067a81620003f1565b82525050565b60006040820190506200069760008301856200065e565b620006a660208301846200066f565b9392505050565b6000602082019050620006c460008301846200066f565b92915050565b615d7a80620006da6000396000f3fe608060405234801561001057600080fd5b50600436106102525760003560e01c80636352211e116101465780639bcf7a15116100c3578063b88d4fde11610087578063b88d4fde1461075d578063c23dc68f14610779578063c87b56dd146107a9578063e8a3d485146107d9578063e985e9c5146107f7578063f8fc19e71461082757610252565b80639bcf7a15146106b8578063a22cb465146106d4578063aace20b7146106f0578063ac9650d81461070e578063b24f2d391461073e57610252565b80638462151c1161010a5780638462151c146106005780638da5cb5b14610630578063938e3d7b1461064e57806395d89b411461066a57806399a2557a1461068857610252565b80636352211e1461053657806363b45e2d1461056657806370a0823114610584578063754a81d9146105b457806383040532146105d057610252565b80632a55205a116101d4578063430c208111610198578063430c20811461046d5780634cc157df1461049d5780635bbb2177146104ce578063600dd5ea146104fe57806360108a981461051a57610252565b80632a55205a146103af5780632ac08a93146103e05780633b1475a71461041757806342842e0e1461043557806342966c681461045157610252565b806313af40351161021b57806313af40351461030d57806318160ddd146103295780631a1b58181461034757806323b872dd146103635780632419f51b1461037f57610252565b806275a3171461025757806301ffc9a71461027357806306fdde03146102a3578063081812fc146102c1578063095ea7b3146102f1575b600080fd5b610271600480360381019061026c91906144d4565b610857565b005b61028d60048036038101906102889190614588565b6108ce565b60405161029a91906145d0565b60405180910390f35b6102ab6109c8565b6040516102b8919061466a565b60405180910390f35b6102db60048036038101906102d691906146c2565b610a5a565b6040516102e891906146fe565b60405180910390f35b61030b60048036038101906103069190614719565b610ad6565b005b61032760048036038101906103229190614759565b610bda565b005b610331610c24565b60405161033e9190614795565b60405180910390f35b610361600480360381019061035c91906147b0565b610c3b565b005b61037d6004803603810190610378919061480c565b610d12565b005b610399600480360381019061039491906146c2565b610d22565b6040516103a69190614795565b60405180910390f35b6103c960048036038101906103c4919061485f565b610d95565b6040516103d792919061489f565b60405180910390f35b6103fa60048036038101906103f591906146c2565b610dd3565b60405161040e9897969594939291906148e1565b60405180910390f35b61041f610ff3565b60405161042c9190614795565b60405180910390f35b61044f600480360381019061044a919061480c565b610ffc565b005b61046b600480360381019061046691906146c2565b61101c565b005b61048760048036038101906104829190614719565b61102a565b60405161049491906145d0565b60405180910390f35b6104b760048036038101906104b291906146c2565b6110bf565b6040516104c5929190614991565b60405180910390f35b6104e860048036038101906104e39190614a82565b6111ca565b6040516104f59190614bfd565b60405180910390f35b61051860048036038101906105139190614719565b61128b565b005b610534600480360381019061052f9190614c1f565b6112d7565b005b610550600480360381019061054b91906146c2565b6114f2565b60405161055d91906146fe565b60405180910390f35b61056e611508565b60405161057b9190614795565b60405180910390f35b61059e60048036038101906105999190614759565b611515565b6040516105ab9190614795565b60405180910390f35b6105ce60048036038101906105c99190614d2f565b6115e4565b005b6105ea60048036038101906105e591906146c2565b611650565b6040516105f791906145d0565b60405180910390f35b61061a60048036038101906106159190614759565b611670565b6040516106279190614e8c565b60405180910390f35b61063861186b565b60405161064591906146fe565b60405180910390f35b61066860048036038101906106639190614eae565b611895565b005b6106726118df565b60405161067f919061466a565b60405180910390f35b6106a2600480360381019061069d9190614ef7565b611971565b6040516106af9190614e8c565b60405180910390f35b6106d260048036038101906106cd9190614f4a565b611c30565b005b6106ee60048036038101906106e99190614fc9565b611c7e565b005b6106f8611df5565b6040516107059190614795565b60405180910390f35b61072860048036038101906107239190615064565b611dfb565b60405161073591906151c8565b60405180910390f35b610746611fc3565b604051610754929190614991565b60405180910390f35b610777600480360381019061077291906151ea565b612002565b005b610793600480360381019061078e91906146c2565b61207a565b6040516107a091906152af565b60405180910390f35b6107c360048036038101906107be91906146c2565b612197565b6040516107d0919061466a565b60405180910390f35b6107e161228d565b6040516107ee919061466a565b60405180910390f35b610811600480360381019061080c91906152ca565b61231b565b60405161081e91906145d0565b60405180910390f35b610841600480360381019061083c91906146c2565b6123af565b60405161084e919061466a565b60405180910390f35b61085f612457565b61089e576040517f08c379a000000000000000000000000000000000000000000000000000000000815260040161089590615356565b60405180910390fd5b6108af6108a9610ff3565b82612494565b6108ca8260016040518060200160405280600081525061251b565b5050565b60006301ffc9a760e01b827bffffffffffffffffffffffffffffffffffffffffffffffffffffffff1916148061092957506380ac58cd60e01b827bffffffffffffffffffffffffffffffffffffffffffffffffffffffff1916145b806109595750635b5e139f60e01b827bffffffffffffffffffffffffffffffffffffffffffffffffffffffff1916145b806109c157507f2a55205a000000000000000000000000000000000000000000000000000000007bffffffffffffffffffffffffffffffffffffffffffffffffffffffff1916827bffffffffffffffffffffffffffffffffffffffffffffffffffffffff1916145b9050919050565b6060600280546109d7906153a5565b80601f0160208091040260200160405190810160405280929190818152602001828054610a03906153a5565b8015610a505780601f10610a2557610100808354040283529160200191610a50565b820191906000526020600020905b815481529060010190602001808311610a3357829003601f168201915b5050505050905090565b6000610a65826128db565b610a9b576040517fcf4700e400000000000000000000000000000000000000000000000000000000815260040160405180910390fd5b6006600083815260200190815260200160002060009054906101000a900473ffffffffffffffffffffffffffffffffffffffff169050919050565b6000610ae1826114f2565b90508073ffffffffffffffffffffffffffffffffffffffff168373ffffffffffffffffffffffffffffffffffffffff1603610b48576040517f943f7b8c00000000000000000000000000000000000000000000000000000000815260040160405180910390fd5b8073ffffffffffffffffffffffffffffffffffffffff16610b67612929565b73ffffffffffffffffffffffffffffffffffffffff1614610bca57610b9381610b8e612929565b61231b565b610bc9576040517fcfb3b94200000000000000000000000000000000000000000000000000000000815260040160405180910390fd5b5b610bd5838383612931565b505050565b610be26129e3565b610c18576040517f2d99739600000000000000000000000000000000000000000000000000000000815260040160405180910390fd5b610c2181612a20565b50565b6000610c2e612ae6565b6001546000540303905090565b3373ffffffffffffffffffffffffffffffffffffffff16610c5b836114f2565b73ffffffffffffffffffffffffffffffffffffffff1614610cb1576040517f08c379a0000000000000000000000000000000000000000000000000000000008152600401610ca890615422565b60405180910390fd5b80601060008481526020019081526020016000206007019081610cd491906155ee565b507f7e70084d84488f1d46902bb7fa3b765328c23f5713ec1e5d426bc7c9b2e9e1048282604051610d069291906156c0565b60405180910390a15050565b610d1d838383612aeb565b505050565b6000610d2c611508565b8210610d6f57816040517f0f2624ee000000000000000000000000000000000000000000000000000000008152600401610d669190614795565b60405180910390fd5b600c8281548110610d8357610d826156f0565b5b90600052602060002001549050919050565b600080600080610da4866110bf565b61ffff16915091508193506127108186610dbe919061574e565b610dc891906157bf565b925050509250929050565b6010602052806000526040600020600091509050806000015490806001018054610dfc906153a5565b80601f0160208091040260200160405190810160405280929190818152602001828054610e28906153a5565b8015610e755780601f10610e4a57610100808354040283529160200191610e75565b820191906000526020600020905b815481529060010190602001808311610e5857829003601f168201915b5050505050908060020160009054906101000a900473ffffffffffffffffffffffffffffffffffffffff16908060030160009054906101000a900473ffffffffffffffffffffffffffffffffffffffff1690806004018054610ed6906153a5565b80601f0160208091040260200160405190810160405280929190818152602001828054610f02906153a5565b8015610f4f5780601f10610f2457610100808354040283529160200191610f4f565b820191906000526020600020905b815481529060010190602001808311610f3257829003601f168201915b505050505090806005015490806006015490806007018054610f70906153a5565b80601f0160208091040260200160405190810160405280929190818152602001828054610f9c906153a5565b8015610fe95780601f10610fbe57610100808354040283529160200191610fe9565b820191906000526020600020905b815481529060010190602001808311610fcc57829003601f168201915b5050505050905088565b60008054905090565b61101783838360405180602001604052806000815250612002565b505050565b611027816001612f9f565b50565b600080611036836114f2565b90508073ffffffffffffffffffffffffffffffffffffffff168473ffffffffffffffffffffffffffffffffffffffff1614806110785750611077818561231b565b5b806110b657508373ffffffffffffffffffffffffffffffffffffffff1661109e84610a5a565b73ffffffffffffffffffffffffffffffffffffffff16145b91505092915050565b6000806000600b60008581526020019081526020016000206040518060400160405290816000820160009054906101000a900473ffffffffffffffffffffffffffffffffffffffff1673ffffffffffffffffffffffffffffffffffffffff1673ffffffffffffffffffffffffffffffffffffffff1681526020016001820154815250509050600073ffffffffffffffffffffffffffffffffffffffff16816000015173ffffffffffffffffffffffffffffffffffffffff161461118b57806000015181602001516111c0565b600a60009054906101000a900473ffffffffffffffffffffffffffffffffffffffff16600a60149054906101000a900461ffff165b9250925050915091565b606060008251905060008167ffffffffffffffff8111156111ee576111ed6143a9565b5b60405190808252806020026020018201604052801561122757816020015b6112146142d9565b81526020019060019003908161120c5790505b50905060005b8281146112805761125785828151811061124a576112496156f0565b5b602002602001015161207a565b82828151811061126a576112696156f0565b5b602002602001018190525080600101905061122d565b508092505050919050565b61129361338e565b6112c9576040517fdf5c6b0200000000000000000000000000000000000000000000000000000000815260040160405180910390fd5b6112d382826133cb565b5050565b601160008154809291906112ea906157f0565b919050555060405180610100016040528060115481526020018481526020013373ffffffffffffffffffffffffffffffffffffffff1681526020018373ffffffffffffffffffffffffffffffffffffffff1681526020016040518060400160405280600781526020017f50656e64696e6700000000000000000000000000000000000000000000000000815250815260200182815260200160008152602001604051806020016040528060008152508152506010600060115481526020019081526020016000206000820151816000015560208201518160010190816113d091906155ee565b5060408201518160020160006101000a81548173ffffffffffffffffffffffffffffffffffffffff021916908373ffffffffffffffffffffffffffffffffffffffff16021790555060608201518160030160006101000a81548173ffffffffffffffffffffffffffffffffffffffff021916908373ffffffffffffffffffffffffffffffffffffffff160217905550608082015181600401908161147491906155ee565b5060a0820151816005015560c0820151816006015560e082015181600701908161149e91906155ee565b509050506114ae336011546134c6565b7f7af99d65cb596cfdfc2aba99e0a28ed52bf550fd06066ef28d334007d9e8e2236011543384846040516114e59493929190615838565b60405180910390a1505050565b60006114fd826137a0565b600001519050919050565b6000600c80549050905090565b60008073ffffffffffffffffffffffffffffffffffffffff168273ffffffffffffffffffffffffffffffffffffffff160361157c576040517f8f4eb60400000000000000000000000000000000000000000000000000000000815260040160405180910390fd5b600560008373ffffffffffffffffffffffffffffffffffffffff1673ffffffffffffffffffffffffffffffffffffffff16815260200190815260200160002060000160009054906101000a900467ffffffffffffffff1667ffffffffffffffff169050919050565b6115ec612457565b61162b576040517f08c379a000000000000000000000000000000000000000000000000000000000815260040161162290615356565b60405180910390fd5b61163d611636610ff3565b8484613a2b565b505061164a84848361251b565b50505050565b600e6020528060005260406000206000915054906101000a900460ff1681565b6060600080600061168085611515565b905060008167ffffffffffffffff81111561169e5761169d6143a9565b5b6040519080825280602002602001820160405280156116cc5781602001602082028036833780820191505090505b5090506116d76142d9565b60006116e1612ae6565b90505b83861461185d57600460008281526020019081526020016000206040518060600160405290816000820160009054906101000a900473ffffffffffffffffffffffffffffffffffffffff1673ffffffffffffffffffffffffffffffffffffffff1673ffffffffffffffffffffffffffffffffffffffff1681526020016000820160149054906101000a900467ffffffffffffffff1667ffffffffffffffff1667ffffffffffffffff16815260200160008201601c9054906101000a900460ff1615151515815250509150816040015161185257600073ffffffffffffffffffffffffffffffffffffffff16826000015173ffffffffffffffffffffffffffffffffffffffff16146117f757816000015194505b8773ffffffffffffffffffffffffffffffffffffffff168573ffffffffffffffffffffffffffffffffffffffff16036118515780838780600101985081518110611844576118436156f0565b5b6020026020010181815250505b5b8060010190506116e4565b508195505050505050919050565b6000600960009054906101000a900473ffffffffffffffffffffffffffffffffffffffff16905090565b61189d613a91565b6118d3576040517f9f7f092500000000000000000000000000000000000000000000000000000000815260040160405180910390fd5b6118dc81613ace565b50565b6060600380546118ee906153a5565b80601f016020809104026020016040519081016040528092919081815260200182805461191a906153a5565b80156119675780601f1061193c57610100808354040283529160200191611967565b820191906000526020600020905b81548152906001019060200180831161194a57829003601f168201915b5050505050905090565b60608183106119ac576040517f32c1995a00000000000000000000000000000000000000000000000000000000815260040160405180910390fd5b60008060005490506119bc612ae6565b8510156119ce576119cb612ae6565b94505b808411156119da578093505b60006119e587611515565b905084861015611a08576000868603905081811015611a02578091505b50611a0d565b600090505b60008167ffffffffffffffff811115611a2957611a286143a9565b5b604051908082528060200260200182016040528015611a575781602001602082028036833780820191505090505b50905060008203611a6e5780945050505050611c29565b6000611a798861207a565b905060008160400151611a8e57816000015190505b60008990505b888114158015611aa45750848714155b15611c1b57600460008281526020019081526020016000206040518060600160405290816000820160009054906101000a900473ffffffffffffffffffffffffffffffffffffffff1673ffffffffffffffffffffffffffffffffffffffff1673ffffffffffffffffffffffffffffffffffffffff1681526020016000820160149054906101000a900467ffffffffffffffff1667ffffffffffffffff1667ffffffffffffffff16815260200160008201601c9054906101000a900460ff16151515158152505092508260400151611c1057600073ffffffffffffffffffffffffffffffffffffffff16836000015173ffffffffffffffffffffffffffffffffffffffff1614611bb557826000015191505b8a73ffffffffffffffffffffffffffffffffffffffff168273ffffffffffffffffffffffffffffffffffffffff1603611c0f5780848880600101995081518110611c0257611c016156f0565b5b6020026020010181815250505b5b806001019050611a94565b508583528296505050505050505b9392505050565b611c3861338e565b611c6e576040517fdf5c6b0200000000000000000000000000000000000000000000000000000000815260040160405180910390fd5b611c79838383613baa565b505050565b611c86612929565b73ffffffffffffffffffffffffffffffffffffffff168273ffffffffffffffffffffffffffffffffffffffff1603611cea576040517fb06307db00000000000000000000000000000000000000000000000000000000815260040160405180910390fd5b8060076000611cf7612929565b73ffffffffffffffffffffffffffffffffffffffff1673ffffffffffffffffffffffffffffffffffffffff16815260200190815260200160002060008473ffffffffffffffffffffffffffffffffffffffff1673ffffffffffffffffffffffffffffffffffffffff16815260200190815260200160002060006101000a81548160ff0219169083151502179055508173ffffffffffffffffffffffffffffffffffffffff16611da4612929565b73ffffffffffffffffffffffffffffffffffffffff167f17307eab39ab6107e8899845ad3d59bd9653f200f220920489ca2b5937696c3183604051611de991906145d0565b60405180910390a35050565b60115481565b60608282905067ffffffffffffffff811115611e1a57611e196143a9565b5b604051908082528060200260200182016040528015611e4d57816020015b6060815260200190600190039081611e385790505b5090506000611e5a612929565b905060008173ffffffffffffffffffffffffffffffffffffffff163373ffffffffffffffffffffffffffffffffffffffff161415905060005b85859050811015611fba578115611f1757611ef430878784818110611ebb57611eba6156f0565b5b9050602002810190611ecd919061588c565b86604051602001611ee093929190615967565b604051602081830303815290604052613cdb565b848281518110611f0757611f066156f0565b5b6020026020010181905250611fa7565b611f8830878784818110611f2e57611f2d6156f0565b5b9050602002810190611f40919061588c565b8080601f016020809104026020016040519081016040528093929190818152602001838380828437600081840152601f19601f82011690508083019250505050505050613cdb565b848281518110611f9b57611f9a6156f0565b5b60200260200101819052505b8080611fb2906157f0565b915050611e93565b50505092915050565b600080600a60009054906101000a900473ffffffffffffffffffffffffffffffffffffffff16600a60149054906101000a900461ffff16915091509091565b61200d848484612aeb565b61202c8373ffffffffffffffffffffffffffffffffffffffff16613d08565b156120745761203d84848484613d2b565b612073576040517fd1a57ed600000000000000000000000000000000000000000000000000000000815260040160405180910390fd5b5b50505050565b6120826142d9565b61208a6142d9565b612092612ae6565b8310806120a157506000548310155b156120af5780915050612192565b600460008481526020019081526020016000206040518060600160405290816000820160009054906101000a900473ffffffffffffffffffffffffffffffffffffffff1673ffffffffffffffffffffffffffffffffffffffff1673ffffffffffffffffffffffffffffffffffffffff1681526020016000820160149054906101000a900467ffffffffffffffff1667ffffffffffffffff1667ffffffffffffffff16815260200160008201601c9054906101000a900460ff16151515158152505090508060400151156121855780915050612192565b61218e836137a0565b9150505b919050565b60606000600f600084815260200190815260200160002080546121b9906153a5565b80601f01602080910402602001604051908101604052809291908181526020018280546121e5906153a5565b80156122325780601f1061220757610100808354040283529160200191612232565b820191906000526020600020905b81548152906001019060200180831161221557829003601f168201915b5050505050905060008151111561224c5780915050612288565b600061225784613e7b565b90508061226385614022565b6040516020016122749291906159cd565b604051602081830303815290604052925050505b919050565b6008805461229a906153a5565b80601f01602080910402602001604051908101604052809291908181526020018280546122c6906153a5565b80156123135780601f106122e857610100808354040283529160200191612313565b820191906000526020600020905b8154815290600101906020018083116122f657829003601f168201915b505050505081565b6000600760008473ffffffffffffffffffffffffffffffffffffffff1673ffffffffffffffffffffffffffffffffffffffff16815260200190815260200160002060008373ffffffffffffffffffffffffffffffffffffffff1673ffffffffffffffffffffffffffffffffffffffff16815260200190815260200160002060009054906101000a900460ff16905092915050565b60606010600083815260200190815260200160002060070180546123d2906153a5565b80601f01602080910402602001604051908101604052809291908181526020018280546123fe906153a5565b801561244b5780601f106124205761010080835404028352916020019161244b565b820191906000526020600020905b81548152906001019060200180831161242e57829003601f168201915b50505050509050919050565b600061246161186b565b73ffffffffffffffffffffffffffffffffffffffff163373ffffffffffffffffffffffffffffffffffffffff1614905090565b6000600f600084815260200190815260200160002080546124b4906153a5565b9050146124f6576040517f08c379a00000000000000000000000000000000000000000000000000000000081526004016124ed90615a3d565b60405180910390fd5b80600f6000848152602001908152602001600020908161251691906155ee565b505050565b600080549050600073ffffffffffffffffffffffffffffffffffffffff168473ffffffffffffffffffffffffffffffffffffffff1603612587576040517f2e07630000000000000000000000000000000000000000000000000000000000815260040160405180910390fd5b600083036125c1576040517fb562e8dd00000000000000000000000000000000000000000000000000000000815260040160405180910390fd5b6125ce6000858386614182565b82600560008673ffffffffffffffffffffffffffffffffffffffff1673ffffffffffffffffffffffffffffffffffffffff16815260200190815260200160002060000160008282829054906101000a900467ffffffffffffffff160192506101000a81548167ffffffffffffffff021916908367ffffffffffffffff16021790555082600560008673ffffffffffffffffffffffffffffffffffffffff1673ffffffffffffffffffffffffffffffffffffffff16815260200190815260200160002060000160088282829054906101000a900467ffffffffffffffff160192506101000a81548167ffffffffffffffff021916908367ffffffffffffffff160217905550836004600083815260200190815260200160002060000160006101000a81548173ffffffffffffffffffffffffffffffffffffffff021916908373ffffffffffffffffffffffffffffffffffffffff160217905550426004600083815260200190815260200160002060000160146101000a81548167ffffffffffffffff021916908367ffffffffffffffff16021790555060008190506000848201905061278f8673ffffffffffffffffffffffffffffffffffffffff16613d08565b15612854575b818673ffffffffffffffffffffffffffffffffffffffff16600073ffffffffffffffffffffffffffffffffffffffff167fddf252ad1be2c89b69c2b068fc378daa952ba7f163c4a11628f55a4df523b3ef60405160405180910390a46128046000878480600101955087613d2b565b61283a576040517fd1a57ed600000000000000000000000000000000000000000000000000000000815260040160405180910390fd5b80821061279557826000541461284f57600080fd5b6128bf565b5b818060010192508673ffffffffffffffffffffffffffffffffffffffff16600073ffffffffffffffffffffffffffffffffffffffff167fddf252ad1be2c89b69c2b068fc378daa952ba7f163c4a11628f55a4df523b3ef60405160405180910390a4808210612855575b8160008190555050506128d56000858386614188565b50505050565b6000816128e6612ae6565b111580156128f5575060005482105b8015612922575060046000838152602001908152602001600020600001601c9054906101000a900460ff16155b9050919050565b600033905090565b826006600084815260200190815260200160002060006101000a81548173ffffffffffffffffffffffffffffffffffffffff021916908373ffffffffffffffffffffffffffffffffffffffff160217905550818373ffffffffffffffffffffffffffffffffffffffff168273ffffffffffffffffffffffffffffffffffffffff167f8c5be1e5ebec7d5bd14f71427d1e84f3dd0314c0f7b2291e5b200ac8c7c3b92560405160405180910390a4505050565b60006129ed61186b565b73ffffffffffffffffffffffffffffffffffffffff163373ffffffffffffffffffffffffffffffffffffffff1614905090565b6000600960009054906101000a900473ffffffffffffffffffffffffffffffffffffffff16905081600960006101000a81548173ffffffffffffffffffffffffffffffffffffffff021916908373ffffffffffffffffffffffffffffffffffffffff1602179055508173ffffffffffffffffffffffffffffffffffffffff168173ffffffffffffffffffffffffffffffffffffffff167f8292fce18fa69edf4db7b94ea2e58241df0ae57f97e0a6c9b29067028bf92d7660405160405180910390a35050565b600090565b6000612af6826137a0565b90508373ffffffffffffffffffffffffffffffffffffffff16816000015173ffffffffffffffffffffffffffffffffffffffff1614612b61576040517fa114810000000000000000000000000000000000000000000000000000000000815260040160405180910390fd5b60008473ffffffffffffffffffffffffffffffffffffffff16612b82612929565b73ffffffffffffffffffffffffffffffffffffffff161480612bb15750612bb085612bab612929565b61231b565b5b80612bf65750612bbf612929565b73ffffffffffffffffffffffffffffffffffffffff16612bde84610a5a565b73ffffffffffffffffffffffffffffffffffffffff16145b905080612c2f576040517f59c896be00000000000000000000000000000000000000000000000000000000815260040160405180910390fd5b600073ffffffffffffffffffffffffffffffffffffffff168473ffffffffffffffffffffffffffffffffffffffff1603612c95576040517fea553b3400000000000000000000000000000000000000000000000000000000815260040160405180910390fd5b612ca28585856001614182565b612cae60008487612931565b6001600560008773ffffffffffffffffffffffffffffffffffffffff1673ffffffffffffffffffffffffffffffffffffffff16815260200190815260200160002060000160008282829054906101000a900467ffffffffffffffff160392506101000a81548167ffffffffffffffff021916908367ffffffffffffffff1602179055506001600560008673ffffffffffffffffffffffffffffffffffffffff1673ffffffffffffffffffffffffffffffffffffffff16815260200190815260200160002060000160008282829054906101000a900467ffffffffffffffff160192506101000a81548167ffffffffffffffff021916908367ffffffffffffffff1602179055506000600460008581526020019081526020016000209050848160000160006101000a81548173ffffffffffffffffffffffffffffffffffffffff021916908373ffffffffffffffffffffffffffffffffffffffff160217905550428160000160146101000a81548167ffffffffffffffff021916908367ffffffffffffffff16021790555060006001850190506000600460008381526020019081526020016000209050600073ffffffffffffffffffffffffffffffffffffffff168160000160009054906101000a900473ffffffffffffffffffffffffffffffffffffffff1673ffffffffffffffffffffffffffffffffffffffff1603612f2d576000548214612f2c57878160000160006101000a81548173ffffffffffffffffffffffffffffffffffffffff021916908373ffffffffffffffffffffffffffffffffffffffff16021790555084602001518160000160146101000a81548167ffffffffffffffff021916908367ffffffffffffffff1602179055505b5b505050828473ffffffffffffffffffffffffffffffffffffffff168673ffffffffffffffffffffffffffffffffffffffff167fddf252ad1be2c89b69c2b068fc378daa952ba7f163c4a11628f55a4df523b3ef60405160405180910390a4612f988585856001614188565b5050505050565b6000612faa836137a0565b9050600081600001519050821561308b5760008173ffffffffffffffffffffffffffffffffffffffff16612fdc612929565b73ffffffffffffffffffffffffffffffffffffffff16148061300b575061300a82613005612929565b61231b565b5b806130505750613019612929565b73ffffffffffffffffffffffffffffffffffffffff1661303886610a5a565b73ffffffffffffffffffffffffffffffffffffffff16145b905080613089576040517f59c896be00000000000000000000000000000000000000000000000000000000815260040160405180910390fd5b505b613099816000866001614182565b6130a560008583612931565b6000600560008373ffffffffffffffffffffffffffffffffffffffff1673ffffffffffffffffffffffffffffffffffffffff168152602001908152602001600020905060018160000160008282829054906101000a900467ffffffffffffffff160392506101000a81548167ffffffffffffffff021916908367ffffffffffffffff16021790555060018160000160108282829054906101000a900467ffffffffffffffff160192506101000a81548167ffffffffffffffff021916908367ffffffffffffffff1602179055506000600460008781526020019081526020016000209050828160000160006101000a81548173ffffffffffffffffffffffffffffffffffffffff021916908373ffffffffffffffffffffffffffffffffffffffff160217905550428160000160146101000a81548167ffffffffffffffff021916908367ffffffffffffffff160217905550600181600001601c6101000a81548160ff02191690831515021790555060006001870190506000600460008381526020019081526020016000209050600073ffffffffffffffffffffffffffffffffffffffff168160000160009054906101000a900473ffffffffffffffffffffffffffffffffffffffff1673ffffffffffffffffffffffffffffffffffffffff160361330857600054821461330757848160000160006101000a81548173ffffffffffffffffffffffffffffffffffffffff021916908373ffffffffffffffffffffffffffffffffffffffff16021790555085602001518160000160146101000a81548167ffffffffffffffff021916908367ffffffffffffffff1602179055505b5b5050505083600073ffffffffffffffffffffffffffffffffffffffff168273ffffffffffffffffffffffffffffffffffffffff167fddf252ad1be2c89b69c2b068fc378daa952ba7f163c4a11628f55a4df523b3ef60405160405180910390a4613376816000866001614188565b60016000815480929190600101919050555050505050565b600061339861186b565b73ffffffffffffffffffffffffffffffffffffffff163373ffffffffffffffffffffffffffffffffffffffff1614905090565b61271081111561341657612710816040517f5249856800000000000000000000000000000000000000000000000000000000815260040161340d929190615a98565b60405180910390fd5b81600a60006101000a81548173ffffffffffffffffffffffffffffffffffffffff021916908373ffffffffffffffffffffffffffffffffffffffff16021790555080600a60146101000a81548161ffff021916908361ffff1602179055508173ffffffffffffffffffffffffffffffffffffffff167f90d7ec04bcb8978719414f82e52e4cb651db41d0e6f8cea6118c2191e6183adb826040516134ba9190614795565b60405180910390a25050565b600080549050600073ffffffffffffffffffffffffffffffffffffffff168373ffffffffffffffffffffffffffffffffffffffff1603613532576040517f2e07630000000000000000000000000000000000000000000000000000000000815260040160405180910390fd5b6000820361356c576040517fb562e8dd00000000000000000000000000000000000000000000000000000000815260040160405180910390fd5b6135796000848385614182565b81600560008573ffffffffffffffffffffffffffffffffffffffff1673ffffffffffffffffffffffffffffffffffffffff16815260200190815260200160002060000160008282829054906101000a900467ffffffffffffffff160192506101000a81548167ffffffffffffffff021916908367ffffffffffffffff16021790555081600560008573ffffffffffffffffffffffffffffffffffffffff1673ffffffffffffffffffffffffffffffffffffffff16815260200190815260200160002060000160088282829054906101000a900467ffffffffffffffff160192506101000a81548167ffffffffffffffff021916908367ffffffffffffffff160217905550826004600083815260200190815260200160002060000160006101000a81548173ffffffffffffffffffffffffffffffffffffffff021916908373ffffffffffffffffffffffffffffffffffffffff160217905550426004600083815260200190815260200160002060000160146101000a81548167ffffffffffffffff021916908367ffffffffffffffff1602179055506000819050600083820190505b818060010192508573ffffffffffffffffffffffffffffffffffffffff16600073ffffffffffffffffffffffffffffffffffffffff167fddf252ad1be2c89b69c2b068fc378daa952ba7f163c4a11628f55a4df523b3ef60405160405180910390a480821061371c5781600081905550505061379b6000848385614188565b505050565b6137a86142d9565b6000829050806137b6612ae6565b116139f4576000548110156139f3576000600460008381526020019081526020016000206040518060600160405290816000820160009054906101000a900473ffffffffffffffffffffffffffffffffffffffff1673ffffffffffffffffffffffffffffffffffffffff1673ffffffffffffffffffffffffffffffffffffffff1681526020016000820160149054906101000a900467ffffffffffffffff1667ffffffffffffffff1667ffffffffffffffff16815260200160008201601c9054906101000a900460ff161515151581525050905080604001516139f157600073ffffffffffffffffffffffffffffffffffffffff16816000015173ffffffffffffffffffffffffffffffffffffffff16146138d5578092505050613a26565b5b6001156139f057818060019003925050600460008381526020019081526020016000206040518060600160405290816000820160009054906101000a900473ffffffffffffffffffffffffffffffffffffffff1673ffffffffffffffffffffffffffffffffffffffff1673ffffffffffffffffffffffffffffffffffffffff1681526020016000820160149054906101000a900467ffffffffffffffff1667ffffffffffffffff1667ffffffffffffffff16815260200160008201601c9054906101000a900460ff1615151515815250509050600073ffffffffffffffffffffffffffffffffffffffff16816000015173ffffffffffffffffffffffffffffffffffffffff16146139eb578092505050613a26565b6138d6565b5b505b5b6040517fdf2d9b4200000000000000000000000000000000000000000000000000000000815260040160405180910390fd5b919050565b6000808385613a3a9190615ac1565b9050809150600c81908060018154018082558091505060019003906000526020600020016000909190919091505582600d60008381526020019081526020016000209081613a8891906155ee565b50935093915050565b6000613a9b61186b565b73ffffffffffffffffffffffffffffffffffffffff163373ffffffffffffffffffffffffffffffffffffffff1614905090565b600060088054613add906153a5565b80601f0160208091040260200160405190810160405280929190818152602001828054613b09906153a5565b8015613b565780601f10613b2b57610100808354040283529160200191613b56565b820191906000526020600020905b815481529060010190602001808311613b3957829003601f168201915b505050505090508160089081613b6c91906155ee565b507fc9c7c3fe08b88b4df9d4d47ef47d2c43d55c025a0ba88ca442580ed9e7348a168183604051613b9e929190615af5565b60405180910390a15050565b612710811115613bf557612710816040517f52498568000000000000000000000000000000000000000000000000000000008152600401613bec929190615a98565b60405180910390fd5b60405180604001604052808373ffffffffffffffffffffffffffffffffffffffff16815260200182815250600b600085815260200190815260200160002060008201518160000160006101000a81548173ffffffffffffffffffffffffffffffffffffffff021916908373ffffffffffffffffffffffffffffffffffffffff160217905550602082015181600101559050508173ffffffffffffffffffffffffffffffffffffffff16837f7365cf4122f072a3365c20d54eff9b38d73c096c28e1892ec8f5b0e403a0f12d83604051613cce9190614795565b60405180910390a3505050565b6060613d008383604051806060016040528060278152602001615d1e6027913961418e565b905092915050565b6000808273ffffffffffffffffffffffffffffffffffffffff163b119050919050565b60008373ffffffffffffffffffffffffffffffffffffffff1663150b7a02613d51612929565b8786866040518563ffffffff1660e01b8152600401613d739493929190615b76565b6020604051808303816000875af1925050508015613daf57506040513d601f19601f82011682018060405250810190613dac9190615bd7565b60015b613e28573d8060008114613ddf576040519150601f19603f3d011682016040523d82523d6000602084013e613de4565b606091505b506000815103613e20576040517fd1a57ed600000000000000000000000000000000000000000000000000000000815260040160405180910390fd5b805181602001fd5b63150b7a0260e01b7bffffffffffffffffffffffffffffffffffffffffffffffffffffffff1916817bffffffffffffffffffffffffffffffffffffffffffffffffffffffff191614915050949350505050565b60606000613e87611508565b90506000600c805480602002602001604051908101604052809291908181526020018280548015613ed757602002820191906000526020600020905b815481526020019060010190808311613ec3575b5050505050905060005b82811015613fdf57818181518110613efc57613efb6156f0565b5b6020026020010151851015613fcb57600d6000838381518110613f2257613f216156f0565b5b602002602001015181526020019081526020016000208054613f43906153a5565b80601f0160208091040260200160405190810160405280929190818152602001828054613f6f906153a5565b8015613fbc5780601f10613f9157610100808354040283529160200191613fbc565b820191906000526020600020905b815481529060010190602001808311613f9f57829003601f168201915b5050505050935050505061401d565b600181613fd89190615ac1565b9050613ee1565b50836040517f25e5fda40000000000000000000000000000000000000000000000000000000081526004016140149190614795565b60405180910390fd5b919050565b606060008203614069576040518060400160405280600181526020017f3000000000000000000000000000000000000000000000000000000000000000815250905061417d565b600082905060005b6000821461409b578080614084906157f0565b915050600a8261409491906157bf565b9150614071565b60008167ffffffffffffffff8111156140b7576140b66143a9565b5b6040519080825280601f01601f1916602001820160405280156140e95781602001600182028036833780820191505090505b5090505b60008514614176576001826141029190615c04565b9150600a856141119190615c38565b603061411d9190615ac1565b60f81b818381518110614133576141326156f0565b5b60200101907effffffffffffffffffffffffffffffffffffffffffffffffffffffffffffff1916908160001a905350600a8561416f91906157bf565b94506140ed565b8093505050505b919050565b50505050565b50505050565b60606000808573ffffffffffffffffffffffffffffffffffffffff16856040516141b89190615c9a565b600060405180830381855af49150503d80600081146141f3576040519150601f19603f3d011682016040523d82523d6000602084013e6141f8565b606091505b509150915061420986838387614214565b925050509392505050565b6060831561427657600083510361426e5761422e85613d08565b61426d576040517f08c379a000000000000000000000000000000000000000000000000000000000815260040161426490615cfd565b60405180910390fd5b5b829050614281565b6142808383614289565b5b949350505050565b60008251111561429c5781518083602001fd5b806040517f08c379a00000000000000000000000000000000000000000000000000000000081526004016142d0919061466a565b60405180910390fd5b6040518060600160405280600073ffffffffffffffffffffffffffffffffffffffff168152602001600067ffffffffffffffff1681526020016000151581525090565b6000604051905090565b600080fd5b600080fd5b600073ffffffffffffffffffffffffffffffffffffffff82169050919050565b600061435b82614330565b9050919050565b61436b81614350565b811461437657600080fd5b50565b60008135905061438881614362565b92915050565b600080fd5b600080fd5b6000601f19601f8301169050919050565b7f4e487b7100000000000000000000000000000000000000000000000000000000600052604160045260246000fd5b6143e182614398565b810181811067ffffffffffffffff82111715614400576143ff6143a9565b5b80604052505050565b600061441361431c565b905061441f82826143d8565b919050565b600067ffffffffffffffff82111561443f5761443e6143a9565b5b61444882614398565b9050602081019050919050565b82818337600083830152505050565b600061447761447284614424565b614409565b90508281526020810184848401111561449357614492614393565b5b61449e848285614455565b509392505050565b600082601f8301126144bb576144ba61438e565b5b81356144cb848260208601614464565b91505092915050565b600080604083850312156144eb576144ea614326565b5b60006144f985828601614379565b925050602083013567ffffffffffffffff81111561451a5761451961432b565b5b614526858286016144a6565b9150509250929050565b60007fffffffff0000000000000000000000000000000000000000000000000000000082169050919050565b61456581614530565b811461457057600080fd5b50565b6000813590506145828161455c565b92915050565b60006020828403121561459e5761459d614326565b5b60006145ac84828501614573565b91505092915050565b60008115159050919050565b6145ca816145b5565b82525050565b60006020820190506145e560008301846145c1565b92915050565b600081519050919050565b600082825260208201905092915050565b60005b8381101561462557808201518184015260208101905061460a565b60008484015250505050565b600061463c826145eb565b61464681856145f6565b9350614656818560208601614607565b61465f81614398565b840191505092915050565b600060208201905081810360008301526146848184614631565b905092915050565b6000819050919050565b61469f8161468c565b81146146aa57600080fd5b50565b6000813590506146bc81614696565b92915050565b6000602082840312156146d8576146d7614326565b5b60006146e6848285016146ad565b91505092915050565b6146f881614350565b82525050565b600060208201905061471360008301846146ef565b92915050565b600080604083850312156147305761472f614326565b5b600061473e85828601614379565b925050602061474f858286016146ad565b9150509250929050565b60006020828403121561476f5761476e614326565b5b600061477d84828501614379565b91505092915050565b61478f8161468c565b82525050565b60006020820190506147aa6000830184614786565b92915050565b600080604083850312156147c7576147c6614326565b5b60006147d5858286016146ad565b925050602083013567ffffffffffffffff8111156147f6576147f561432b565b5b614802858286016144a6565b9150509250929050565b60008060006060848603121561482557614824614326565b5b600061483386828701614379565b935050602061484486828701614379565b9250506040614855868287016146ad565b9150509250925092565b6000806040838503121561487657614875614326565b5b6000614884858286016146ad565b9250506020614895858286016146ad565b9150509250929050565b60006040820190506148b460008301856146ef565b6148c16020830184614786565b9392505050565b6000819050919050565b6148db816148c8565b82525050565b6000610100820190506148f7600083018b614786565b8181036020830152614909818a614631565b905061491860408301896146ef565b61492560608301886146ef565b81810360808301526149378187614631565b905061494660a0830186614786565b61495360c08301856148d2565b81810360e08301526149658184614631565b90509998505050505050505050565b600061ffff82169050919050565b61498b81614974565b82525050565b60006040820190506149a660008301856146ef565b6149b36020830184614982565b9392505050565b600067ffffffffffffffff8211156149d5576149d46143a9565b5b602082029050602081019050919050565b600080fd5b60006149fe6149f9846149ba565b614409565b90508083825260208201905060208402830185811115614a2157614a206149e6565b5b835b81811015614a4a5780614a3688826146ad565b845260208401935050602081019050614a23565b5050509392505050565b600082601f830112614a6957614a6861438e565b5b8135614a798482602086016149eb565b91505092915050565b600060208284031215614a9857614a97614326565b5b600082013567ffffffffffffffff811115614ab657614ab561432b565b5b614ac284828501614a54565b91505092915050565b600081519050919050565b600082825260208201905092915050565b6000819050602082019050919050565b614b0081614350565b82525050565b600067ffffffffffffffff82169050919050565b614b2381614b06565b82525050565b614b32816145b5565b82525050565b606082016000820151614b4e6000850182614af7565b506020820151614b616020850182614b1a565b506040820151614b746040850182614b29565b50505050565b6000614b868383614b38565b60608301905092915050565b6000602082019050919050565b6000614baa82614acb565b614bb48185614ad6565b9350614bbf83614ae7565b8060005b83811015614bf0578151614bd78882614b7a565b9750614be283614b92565b925050600181019050614bc3565b5085935050505092915050565b60006020820190508181036000830152614c178184614b9f565b905092915050565b600080600060608486031215614c3857614c37614326565b5b600084013567ffffffffffffffff811115614c5657614c5561432b565b5b614c62868287016144a6565b9350506020614c7386828701614379565b9250506040614c84868287016146ad565b9150509250925092565b600067ffffffffffffffff821115614ca957614ca86143a9565b5b614cb282614398565b9050602081019050919050565b6000614cd2614ccd84614c8e565b614409565b905082815260208101848484011115614cee57614ced614393565b5b614cf9848285614455565b509392505050565b600082601f830112614d1657614d1561438e565b5b8135614d26848260208601614cbf565b91505092915050565b60008060008060808587031215614d4957614d48614326565b5b6000614d5787828801614379565b9450506020614d68878288016146ad565b935050604085013567ffffffffffffffff811115614d8957614d8861432b565b5b614d95878288016144a6565b925050606085013567ffffffffffffffff811115614db657614db561432b565b5b614dc287828801614d01565b91505092959194509250565b600081519050919050565b600082825260208201905092915050565b6000819050602082019050919050565b614e038161468c565b82525050565b6000614e158383614dfa565b60208301905092915050565b6000602082019050919050565b6000614e3982614dce565b614e438185614dd9565b9350614e4e83614dea565b8060005b83811015614e7f578151614e668882614e09565b9750614e7183614e21565b925050600181019050614e52565b5085935050505092915050565b60006020820190508181036000830152614ea68184614e2e565b905092915050565b600060208284031215614ec457614ec3614326565b5b600082013567ffffffffffffffff811115614ee257614ee161432b565b5b614eee848285016144a6565b91505092915050565b600080600060608486031215614f1057614f0f614326565b5b6000614f1e86828701614379565b9350506020614f2f868287016146ad565b9250506040614f40868287016146ad565b9150509250925092565b600080600060608486031215614f6357614f62614326565b5b6000614f71868287016146ad565b9350506020614f8286828701614379565b9250506040614f93868287016146ad565b9150509250925092565b614fa6816145b5565b8114614fb157600080fd5b50565b600081359050614fc381614f9d565b92915050565b60008060408385031215614fe057614fdf614326565b5b6000614fee85828601614379565b9250506020614fff85828601614fb4565b9150509250929050565b600080fd5b60008083601f8401126150245761502361438e565b5b8235905067ffffffffffffffff81111561504157615040615009565b5b60208301915083602082028301111561505d5761505c6149e6565b5b9250929050565b6000806020838503121561507b5761507a614326565b5b600083013567ffffffffffffffff8111156150995761509861432b565b5b6150a58582860161500e565b92509250509250929050565b600081519050919050565b600082825260208201905092915050565b6000819050602082019050919050565b600081519050919050565b600082825260208201905092915050565b6000615104826150dd565b61510e81856150e8565b935061511e818560208601614607565b61512781614398565b840191505092915050565b600061513e83836150f9565b905092915050565b6000602082019050919050565b600061515e826150b1565b61516881856150bc565b93508360208202850161517a856150cd565b8060005b858110156151b657848403895281516151978582615132565b94506151a283615146565b925060208a0199505060018101905061517e565b50829750879550505050505092915050565b600060208201905081810360008301526151e28184615153565b905092915050565b6000806000806080858703121561520457615203614326565b5b600061521287828801614379565b945050602061522387828801614379565b9350506040615234878288016146ad565b925050606085013567ffffffffffffffff8111156152555761525461432b565b5b61526187828801614d01565b91505092959194509250565b6060820160008201516152836000850182614af7565b5060208201516152966020850182614b1a565b5060408201516152a96040850182614b29565b50505050565b60006060820190506152c4600083018461526d565b92915050565b600080604083850312156152e1576152e0614326565b5b60006152ef85828601614379565b925050602061530085828601614379565b9150509250929050565b7f4e6f7420617574686f72697a656420746f206d696e742e000000000000000000600082015250565b60006153406017836145f6565b915061534b8261530a565b602082019050919050565b6000602082019050818103600083015261536f81615333565b9050919050565b7f4e487b7100000000000000000000000000000000000000000000000000000000600052602260045260246000fd5b600060028204905060018216806153bd57607f821691505b6020821081036153d0576153cf615376565b5b50919050565b7f4f6e6c79206f776e65722063616e2075706c6f616420646f63756d656e747300600082015250565b600061540c601f836145f6565b9150615417826153d6565b602082019050919050565b6000602082019050818103600083015261543b816153ff565b9050919050565b60008190508160005260206000209050919050565b60006020601f8301049050919050565b600082821b905092915050565b6000600883026154a47fffffffffffffffffffffffffffffffffffffffffffffffffffffffffffffffff82615467565b6154ae8683615467565b95508019841693508086168417925050509392505050565b6000819050919050565b60006154eb6154e66154e18461468c565b6154c6565b61468c565b9050919050565b6000819050919050565b615505836154d0565b615519615511826154f2565b848454615474565b825550505050565b600090565b61552e615521565b6155398184846154fc565b505050565b5b8181101561555d57615552600082615526565b60018101905061553f565b5050565b601f8211156155a25761557381615442565b61557c84615457565b8101602085101561558b578190505b61559f61559785615457565b83018261553e565b50505b505050565b600082821c905092915050565b60006155c5600019846008026155a7565b1980831691505092915050565b60006155de83836155b4565b9150826002028217905092915050565b6155f7826145eb565b67ffffffffffffffff8111156156105761560f6143a9565b5b61561a82546153a5565b615625828285615561565b600060209050601f8311600181146156585760008415615646578287015190505b61565085826155d2565b8655506156b8565b601f19841661566686615442565b60005b8281101561568e57848901518255600182019150602085019450602081019050615669565b868310156156ab57848901516156a7601f8916826155b4565b8355505b6001600288020188555050505b505050505050565b60006040820190506156d56000830185614786565b81810360208301526156e78184614631565b90509392505050565b7f4e487b7100000000000000000000000000000000000000000000000000000000600052603260045260246000fd5b7f4e487b7100000000000000000000000000000000000000000000000000000000600052601160045260246000fd5b60006157598261468c565b91506157648361468c565b92508282026157728161468c565b915082820484148315176157895761578861571f565b5b5092915050565b7f4e487b7100000000000000000000000000000000000000000000000000000000600052601260045260246000fd5b60006157ca8261468c565b91506157d58361468c565b9250826157e5576157e4615790565b5b828204905092915050565b60006157fb8261468c565b91507fffffffffffffffffffffffffffffffffffffffffffffffffffffffffffffffff820361582d5761582c61571f565b5b600182019050919050565b600060808201905061584d6000830187614786565b61585a60208301866146ef565b61586760408301856146ef565b6158746060830184614786565b95945050505050565b600080fd5b600080fd5b600080fd5b600080833560016020038436030381126158a9576158a861587d565b5b80840192508235915067ffffffffffffffff8211156158cb576158ca615882565b5b6020830192506001820236038313156158e7576158e6615887565b5b509250929050565b600081905092915050565b600061590683856158ef565b9350615913838584614455565b82840190509392505050565b60008160601b9050919050565b60006159378261591f565b9050919050565b60006159498261592c565b9050919050565b61596161595c82614350565b61593e565b82525050565b60006159748285876158fa565b91506159808284615950565b601482019150819050949350505050565b600081905092915050565b60006159a7826145eb565b6159b18185615991565b93506159c1818560208601614607565b80840191505092915050565b60006159d9828561599c565b91506159e5828461599c565b91508190509392505050565b7f55524920616c7265616479207365740000000000000000000000000000000000600082015250565b6000615a27600f836145f6565b9150615a32826159f1565b602082019050919050565b60006020820190508181036000830152615a5681615a1a565b9050919050565b6000819050919050565b6000615a82615a7d615a7884615a5d565b6154c6565b61468c565b9050919050565b615a9281615a67565b82525050565b6000604082019050615aad6000830185615a89565b615aba6020830184614786565b9392505050565b6000615acc8261468c565b9150615ad78361468c565b9250828201905080821115615aef57615aee61571f565b5b92915050565b60006040820190508181036000830152615b0f8185614631565b90508181036020830152615b238184614631565b90509392505050565b600082825260208201905092915050565b6000615b48826150dd565b615b528185615b2c565b9350615b62818560208601614607565b615b6b81614398565b840191505092915050565b6000608082019050615b8b60008301876146ef565b615b9860208301866146ef565b615ba56040830185614786565b8181036060830152615bb78184615b3d565b905095945050505050565b600081519050615bd18161455c565b92915050565b600060208284031215615bed57615bec614326565b5b6000615bfb84828501615bc2565b91505092915050565b6000615c0f8261468c565b9150615c1a8361468c565b9250828203905081811115615c3257615c3161571f565b5b92915050565b6000615c438261468c565b9150615c4e8361468c565b925082615c5e57615c5d615790565b5b828206905092915050565b6000615c74826150dd565b615c7e81856158ef565b9350615c8e818560208601614607565b80840191505092915050565b6000615ca68284615c69565b915081905092915050565b7f416464726573733a2063616c6c20746f206e6f6e2d636f6e7472616374000000600082015250565b6000615ce7601d836145f6565b9150615cf282615cb1565b602082019050919050565b60006020820190508181036000830152615d1681615cda565b905091905056fe416464726573733a206c6f772d6c6576656c2064656c65676174652063616c6c206661696c6564a264697066735822122041f68944849d37abdb466f882c6c4ea5526b46b19c7a995523fbd577acd33df364736f6c63430008130033","opcodes":"PUSH1 0x80 PUSH1 0x40 MSTORE CALLVALUE DUP1 ISZERO PUSH3 0x11 JUMPI PUSH1 0x0 DUP1 REVERT JUMPDEST POP CALLER PUSH1 0x40 MLOAD DUP1 PUSH1 0x40 ADD PUSH1 0x40 MSTORE DUP1 PUSH1 0xB DUP2 MSTORE PUSH1 0x20 ADD PUSH32 0x4D65646963696E654E4654000000000000000000000000000000000000000000 DUP2 MSTORE POP PUSH1 0x40 MLOAD DUP1 PUSH1 0x40 ADD PUSH1 0x40 MSTORE DUP1 PUSH1 0x3 DUP2 MSTORE PUSH1 0x20 ADD PUSH32 0x4D45440000000000000000000000000000000000000000000000000000000000 DUP2 MSTORE POP CALLER PUSH1 0x0 DUP4 DUP4 DUP2 PUSH1 0x2 SWAP1 DUP2 PUSH3 0x95 SWAP2 SWAP1 PUSH3 0x545 JUMP JUMPDEST POP DUP1 PUSH1 0x3 SWAP1 DUP2 PUSH3 0xA7 SWAP2 SWAP1 PUSH3 0x545 JUMP JUMPDEST POP PUSH3 0xB8 PUSH3 0x100 PUSH1 0x20 SHL PUSH1 0x20 SHR JUMP JUMPDEST PUSH1 0x0 DUP2 SWAP1 SSTORE POP POP POP PUSH3 0xD1 DUP6 PUSH3 0x105 PUSH1 0x20 SHL PUSH1 0x20 SHR JUMP JUMPDEST PUSH3 0xF5 DUP3 DUP3 PUSH16 0xFFFFFFFFFFFFFFFFFFFFFFFFFFFFFFFF AND PUSH3 0x1CB PUSH1 0x20 SHL PUSH1 0x20 SHR JUMP JUMPDEST POP POP POP POP POP PUSH3 0x6CA JUMP JUMPDEST PUSH1 0x0 SWAP1 JUMP JUMPDEST PUSH1 0x0 PUSH1 0x9 PUSH1 0x0 SWAP1 SLOAD SWAP1 PUSH2 0x100 EXP SWAP1 DIV PUSH20 0xFFFFFFFFFFFFFFFFFFFFFFFFFFFFFFFFFFFFFFFF AND SWAP1 POP DUP2 PUSH1 0x9 PUSH1 0x0 PUSH2 0x100 EXP DUP2 SLOAD DUP2 PUSH20 0xFFFFFFFFFFFFFFFFFFFFFFFFFFFFFFFFFFFFFFFF MUL NOT AND SWAP1 DUP4 PUSH20 0xFFFFFFFFFFFFFFFFFFFFFFFFFFFFFFFFFFFFFFFF AND MUL OR SWAP1 SSTORE POP DUP2 PUSH20 0xFFFFFFFFFFFFFFFFFFFFFFFFFFFFFFFFFFFFFFFF AND DUP2 PUSH20 0xFFFFFFFFFFFFFFFFFFFFFFFFFFFFFFFFFFFFFFFF AND PUSH32 0x8292FCE18FA69EDF4DB7B94EA2E58241DF0AE57F97E0A6C9B29067028BF92D76 PUSH1 0x40 MLOAD PUSH1 0x40 MLOAD DUP1 SWAP2 SUB SWAP1 LOG3 POP POP JUMP JUMPDEST PUSH2 0x2710 DUP2 GT ISZERO PUSH3 0x219 JUMPI PUSH2 0x2710 DUP2 PUSH1 0x40 MLOAD PUSH32 0x5249856800000000000000000000000000000000000000000000000000000000 DUP2 MSTORE PUSH1 0x4 ADD PUSH3 0x210 SWAP3 SWAP2 SWAP1 PUSH3 0x680 JUMP JUMPDEST PUSH1 0x40 MLOAD DUP1 SWAP2 SUB SWAP1 REVERT JUMPDEST DUP2 PUSH1 0xA PUSH1 0x0 PUSH2 0x100 EXP DUP2 SLOAD DUP2 PUSH20 0xFFFFFFFFFFFFFFFFFFFFFFFFFFFFFFFFFFFFFFFF MUL NOT AND SWAP1 DUP4 PUSH20 0xFFFFFFFFFFFFFFFFFFFFFFFFFFFFFFFFFFFFFFFF AND MUL OR SWAP1 SSTORE POP DUP1 PUSH1 0xA PUSH1 0x14 PUSH2 0x100 EXP DUP2 SLOAD DUP2 PUSH2 0xFFFF MUL NOT AND SWAP1 DUP4 PUSH2 0xFFFF AND MUL OR SWAP1 SSTORE POP DUP2 PUSH20 0xFFFFFFFFFFFFFFFFFFFFFFFFFFFFFFFFFFFFFFFF AND PUSH32 0x90D7EC04BCB8978719414F82E52E4CB651DB41D0E6F8CEA6118C2191E6183ADB DUP3 PUSH1 0x40 MLOAD PUSH3 0x2BF SWAP2 SWAP1 PUSH3 0x6AD JUMP JUMPDEST PUSH1 0x40 MLOAD DUP1 SWAP2 SUB SWAP1 LOG2 POP POP JUMP JUMPDEST PUSH1 0x0 DUP2 MLOAD SWAP1 POP SWAP2 SWAP1 POP JUMP JUMPDEST PUSH32 0x4E487B7100000000000000000000000000000000000000000000000000000000 PUSH1 0x0 MSTORE PUSH1 0x41 PUSH1 0x4 MSTORE PUSH1 0x24 PUSH1 0x0 REVERT JUMPDEST PUSH32 0x4E487B7100000000000000000000000000000000000000000000000000000000 PUSH1 0x0 MSTORE PUSH1 0x22 PUSH1 0x4 MSTORE PUSH1 0x24 PUSH1 0x0 REVERT JUMPDEST PUSH1 0x0 PUSH1 0x2 DUP3 DIV SWAP1 POP PUSH1 0x1 DUP3 AND DUP1 PUSH3 0x34D JUMPI PUSH1 0x7F DUP3 AND SWAP2 POP JUMPDEST PUSH1 0x20 DUP3 LT DUP2 SUB PUSH3 0x363 JUMPI PUSH3 0x362 PUSH3 0x305 JUMP JUMPDEST JUMPDEST POP SWAP2 SWAP1 POP JUMP JUMPDEST PUSH1 0x0 DUP2 SWAP1 POP DUP2 PUSH1 0x0 MSTORE PUSH1 0x20 PUSH1 0x0 KECCAK256 SWAP1 POP SWAP2 SWAP1 POP JUMP JUMPDEST PUSH1 0x0 PUSH1 0x20 PUSH1 0x1F DUP4 ADD DIV SWAP1 POP SWAP2 SWAP1 POP JUMP JUMPDEST PUSH1 0x0 DUP3 DUP3 SHL SWAP1 POP SWAP3 SWAP2 POP POP JUMP JUMPDEST PUSH1 0x0 PUSH1 0x8 DUP4 MUL PUSH3 0x3CD PUSH32 0xFFFFFFFFFFFFFFFFFFFFFFFFFFFFFFFFFFFFFFFFFFFFFFFFFFFFFFFFFFFFFFFF DUP3 PUSH3 0x38E JUMP JUMPDEST PUSH3 0x3D9 DUP7 DUP4 PUSH3 0x38E JUMP JUMPDEST SWAP6 POP DUP1 NOT DUP5 AND SWAP4 POP DUP1 DUP7 AND DUP5 OR SWAP3 POP POP POP SWAP4 SWAP3 POP POP POP JUMP JUMPDEST PUSH1 0x0 DUP2 SWAP1 POP SWAP2 SWAP1 POP JUMP JUMPDEST PUSH1 0x0 DUP2 SWAP1 POP SWAP2 SWAP1 POP JUMP JUMPDEST PUSH1 0x0 PUSH3 0x426 PUSH3 0x420 PUSH3 0x41A DUP5 PUSH3 0x3F1 JUMP JUMPDEST PUSH3 0x3FB JUMP JUMPDEST PUSH3 0x3F1 JUMP JUMPDEST SWAP1 POP SWAP2 SWAP1 POP JUMP JUMPDEST PUSH1 0x0 DUP2 SWAP1 POP SWAP2 SWAP1 POP JUMP JUMPDEST PUSH3 0x442 DUP4 PUSH3 0x405 JUMP JUMPDEST PUSH3 0x45A PUSH3 0x451 DUP3 PUSH3 0x42D JUMP JUMPDEST DUP5 DUP5 SLOAD PUSH3 0x39B JUMP JUMPDEST DUP3 SSTORE POP POP POP POP JUMP JUMPDEST PUSH1 0x0 SWAP1 JUMP JUMPDEST PUSH3 0x471 PUSH3 0x462 JUMP JUMPDEST PUSH3 0x47E DUP2 DUP5 DUP5 PUSH3 0x437 JUMP JUMPDEST POP POP POP JUMP JUMPDEST JUMPDEST DUP2 DUP2 LT ISZERO PUSH3 0x4A6 JUMPI PUSH3 0x49A PUSH1 0x0 DUP3 PUSH3 0x467 JUMP JUMPDEST PUSH1 0x1 DUP2 ADD SWAP1 POP PUSH3 0x484 JUMP JUMPDEST POP POP JUMP JUMPDEST PUSH1 0x1F DUP3 GT ISZERO PUSH3 0x4F5 JUMPI PUSH3 0x4BF DUP2 PUSH3 0x369 JUMP JUMPDEST PUSH3 0x4CA DUP5 PUSH3 0x37E JUMP JUMPDEST DUP2 ADD PUSH1 0x20 DUP6 LT ISZERO PUSH3 0x4DA JUMPI DUP2 SWAP1 POP JUMPDEST PUSH3 0x4F2 PUSH3 0x4E9 DUP6 PUSH3 0x37E JUMP JUMPDEST DUP4 ADD DUP3 PUSH3 0x483 JUMP JUMPDEST POP POP JUMPDEST POP POP POP JUMP JUMPDEST PUSH1 0x0 DUP3 DUP3 SHR SWAP1 POP SWAP3 SWAP2 POP POP JUMP JUMPDEST PUSH1 0x0 PUSH3 0x51A PUSH1 0x0 NOT DUP5 PUSH1 0x8 MUL PUSH3 0x4FA JUMP JUMPDEST NOT DUP1 DUP4 AND SWAP2 POP POP SWAP3 SWAP2 POP POP JUMP JUMPDEST PUSH1 0x0 PUSH3 0x535 DUP4 DUP4 PUSH3 0x507 JUMP JUMPDEST SWAP2 POP DUP3 PUSH1 0x2 MUL DUP3 OR SWAP1 POP SWAP3 SWAP2 POP POP JUMP JUMPDEST PUSH3 0x550 DUP3 PUSH3 0x2CB JUMP JUMPDEST PUSH8 0xFFFFFFFFFFFFFFFF DUP2 GT ISZERO PUSH3 0x56C JUMPI PUSH3 0x56B PUSH3 0x2D6 JUMP JUMPDEST JUMPDEST PUSH3 0x578 DUP3 SLOAD PUSH3 0x334 JUMP JUMPDEST PUSH3 0x585 DUP3 DUP3 DUP6 PUSH3 0x4AA JUMP JUMPDEST PUSH1 0x0 PUSH1 0x20 SWAP1 POP PUSH1 0x1F DUP4 GT PUSH1 0x1 DUP2 EQ PUSH3 0x5BD JUMPI PUSH1 0x0 DUP5 ISZERO PUSH3 0x5A8 JUMPI DUP3 DUP8 ADD MLOAD SWAP1 POP JUMPDEST PUSH3 0x5B4 DUP6 DUP3 PUSH3 0x527 JUMP JUMPDEST DUP7 SSTORE POP PUSH3 0x624 JUMP JUMPDEST PUSH1 0x1F NOT DUP5 AND PUSH3 0x5CD DUP7 PUSH3 0x369 JUMP JUMPDEST PUSH1 0x0 JUMPDEST DUP3 DUP2 LT ISZERO PUSH3 0x5F7 JUMPI DUP5 DUP10 ADD MLOAD DUP3 SSTORE PUSH1 0x1 DUP3 ADD SWAP2 POP PUSH1 0x20 DUP6 ADD SWAP5 POP PUSH1 0x20 DUP2 ADD SWAP1 POP PUSH3 0x5D0 JUMP JUMPDEST DUP7 DUP4 LT ISZERO PUSH3 0x617 JUMPI DUP5 DUP10 ADD MLOAD PUSH3 0x613 PUSH1 0x1F DUP10 AND DUP3 PUSH3 0x507 JUMP JUMPDEST DUP4 SSTORE POP JUMPDEST PUSH1 0x1 PUSH1 0x2 DUP9 MUL ADD DUP9 SSTORE POP POP POP JUMPDEST POP POP POP POP POP POP JUMP JUMPDEST PUSH1 0x0 DUP2 SWAP1 POP SWAP2 SWAP1 POP JUMP JUMPDEST PUSH1 0x0 PUSH3 0x657 PUSH3 0x651 PUSH3 0x64B DUP5 PUSH3 0x62C JUMP JUMPDEST PUSH3 0x3FB JUMP JUMPDEST PUSH3 0x3F1 JUMP JUMPDEST SWAP1 POP SWAP2 SWAP1 POP JUMP JUMPDEST PUSH3 0x669 DUP2 PUSH3 0x636 JUMP JUMPDEST DUP3 MSTORE POP POP JUMP JUMPDEST PUSH3 0x67A DUP2 PUSH3 0x3F1 JUMP JUMPDEST DUP3 MSTORE POP POP JUMP JUMPDEST PUSH1 0x0 PUSH1 0x40 DUP3 ADD SWAP1 POP PUSH3 0x697 PUSH1 0x0 DUP4 ADD DUP6 PUSH3 0x65E JUMP JUMPDEST PUSH3 0x6A6 PUSH1 0x20 DUP4 ADD DUP5 PUSH3 0x66F JUMP JUMPDEST SWAP4 SWAP3 POP POP POP JUMP JUMPDEST PUSH1 0x0 PUSH1 0x20 DUP3 ADD SWAP1 POP PUSH3 0x6C4 PUSH1 0x0 DUP4 ADD DUP5 PUSH3 0x66F JUMP JUMPDEST SWAP3 SWAP2 POP POP JUMP JUMPDEST PUSH2 0x5D7A DUP1 PUSH3 0x6DA PUSH1 0x0 CODECOPY PUSH1 0x0 RETURN INVALID PUSH1 0x80 PUSH1 0x40 MSTORE CALLVALUE DUP1 ISZERO PUSH2 0x10 JUMPI PUSH1 0x0 DUP1 REVERT JUMPDEST POP PUSH1 0x4 CALLDATASIZE LT PUSH2 0x252 JUMPI PUSH1 0x0 CALLDATALOAD PUSH1 0xE0 SHR DUP1 PUSH4 0x6352211E GT PUSH2 0x146 JUMPI DUP1 PUSH4 0x9BCF7A15 GT PUSH2 0xC3 JUMPI DUP1 PUSH4 0xB88D4FDE GT PUSH2 0x87 JUMPI DUP1 PUSH4 0xB88D4FDE EQ PUSH2 0x75D JUMPI DUP1 PUSH4 0xC23DC68F EQ PUSH2 0x779 JUMPI DUP1 PUSH4 0xC87B56DD EQ PUSH2 0x7A9 JUMPI DUP1 PUSH4 0xE8A3D485 EQ PUSH2 0x7D9 JUMPI DUP1 PUSH4 0xE985E9C5 EQ PUSH2 0x7F7 JUMPI DUP1 PUSH4 0xF8FC19E7 EQ PUSH2 0x827 JUMPI PUSH2 0x252 JUMP JUMPDEST DUP1 PUSH4 0x9BCF7A15 EQ PUSH2 0x6B8 JUMPI DUP1 PUSH4 0xA22CB465 EQ PUSH2 0x6D4 JUMPI DUP1 PUSH4 0xAACE20B7 EQ PUSH2 0x6F0 JUMPI DUP1 PUSH4 0xAC9650D8 EQ PUSH2 0x70E JUMPI DUP1 PUSH4 0xB24F2D39 EQ PUSH2 0x73E JUMPI PUSH2 0x252 JUMP JUMPDEST DUP1 PUSH4 0x8462151C GT PUSH2 0x10A JUMPI DUP1 PUSH4 0x8462151C EQ PUSH2 0x600 JUMPI DUP1 PUSH4 0x8DA5CB5B EQ PUSH2 0x630 JUMPI DUP1 PUSH4 0x938E3D7B EQ PUSH2 0x64E JUMPI DUP1 PUSH4 0x95D89B41 EQ PUSH2 0x66A JUMPI DUP1 PUSH4 0x99A2557A EQ PUSH2 0x688 JUMPI PUSH2 0x252 JUMP JUMPDEST DUP1 PUSH4 0x6352211E EQ PUSH2 0x536 JUMPI DUP1 PUSH4 0x63B45E2D EQ PUSH2 0x566 JUMPI DUP1 PUSH4 0x70A08231 EQ PUSH2 0x584 JUMPI DUP1 PUSH4 0x754A81D9 EQ PUSH2 0x5B4 JUMPI DUP1 PUSH4 0x83040532 EQ PUSH2 0x5D0 JUMPI PUSH2 0x252 JUMP JUMPDEST DUP1 PUSH4 0x2A55205A GT PUSH2 0x1D4 JUMPI DUP1 PUSH4 0x430C2081 GT PUSH2 0x198 JUMPI DUP1 PUSH4 0x430C2081 EQ PUSH2 0x46D JUMPI DUP1 PUSH4 0x4CC157DF EQ PUSH2 0x49D JUMPI DUP1 PUSH4 0x5BBB2177 EQ PUSH2 0x4CE JUMPI DUP1 PUSH4 0x600DD5EA EQ PUSH2 0x4FE JUMPI DUP1 PUSH4 0x60108A98 EQ PUSH2 0x51A JUMPI PUSH2 0x252 JUMP JUMPDEST DUP1 PUSH4 0x2A55205A EQ PUSH2 0x3AF JUMPI DUP1 PUSH4 0x2AC08A93 EQ PUSH2 0x3E0 JUMPI DUP1 PUSH4 0x3B1475A7 EQ PUSH2 0x417 JUMPI DUP1 PUSH4 0x42842E0E EQ PUSH2 0x435 JUMPI DUP1 PUSH4 0x42966C68 EQ PUSH2 0x451 JUMPI PUSH2 0x252 JUMP JUMPDEST DUP1 PUSH4 0x13AF4035 GT PUSH2 0x21B JUMPI DUP1 PUSH4 0x13AF4035 EQ PUSH2 0x30D JUMPI DUP1 PUSH4 0x18160DDD EQ PUSH2 0x329 JUMPI DUP1 PUSH4 0x1A1B5818 EQ PUSH2 0x347 JUMPI DUP1 PUSH4 0x23B872DD EQ PUSH2 0x363 JUMPI DUP1 PUSH4 0x2419F51B EQ PUSH2 0x37F JUMPI PUSH2 0x252 JUMP JUMPDEST DUP1 PUSH3 0x75A317 EQ PUSH2 0x257 JUMPI DUP1 PUSH4 0x1FFC9A7 EQ PUSH2 0x273 JUMPI DUP1 PUSH4 0x6FDDE03 EQ PUSH2 0x2A3 JUMPI DUP1 PUSH4 0x81812FC EQ PUSH2 0x2C1 JUMPI DUP1 PUSH4 0x95EA7B3 EQ PUSH2 0x2F1 JUMPI JUMPDEST PUSH1 0x0 DUP1 REVERT JUMPDEST PUSH2 0x271 PUSH1 0x4 DUP1 CALLDATASIZE SUB DUP2 ADD SWAP1 PUSH2 0x26C SWAP2 SWAP1 PUSH2 0x44D4 JUMP JUMPDEST PUSH2 0x857 JUMP JUMPDEST STOP JUMPDEST PUSH2 0x28D PUSH1 0x4 DUP1 CALLDATASIZE SUB DUP2 ADD SWAP1 PUSH2 0x288 SWAP2 SWAP1 PUSH2 0x4588 JUMP JUMPDEST PUSH2 0x8CE JUMP JUMPDEST PUSH1 0x40 MLOAD PUSH2 0x29A SWAP2 SWAP1 PUSH2 0x45D0 JUMP JUMPDEST PUSH1 0x40 MLOAD DUP1 SWAP2 SUB SWAP1 RETURN JUMPDEST PUSH2 0x2AB PUSH2 0x9C8 JUMP JUMPDEST PUSH1 0x40 MLOAD PUSH2 0x2B8 SWAP2 SWAP1 PUSH2 0x466A JUMP JUMPDEST PUSH1 0x40 MLOAD DUP1 SWAP2 SUB SWAP1 RETURN JUMPDEST PUSH2 0x2DB PUSH1 0x4 DUP1 CALLDATASIZE SUB DUP2 ADD SWAP1 PUSH2 0x2D6 SWAP2 SWAP1 PUSH2 0x46C2 JUMP JUMPDEST PUSH2 0xA5A JUMP JUMPDEST PUSH1 0x40 MLOAD PUSH2 0x2E8 SWAP2 SWAP1 PUSH2 0x46FE JUMP JUMPDEST PUSH1 0x40 MLOAD DUP1 SWAP2 SUB SWAP1 RETURN JUMPDEST PUSH2 0x30B PUSH1 0x4 DUP1 CALLDATASIZE SUB DUP2 ADD SWAP1 PUSH2 0x306 SWAP2 SWAP1 PUSH2 0x4719 JUMP JUMPDEST PUSH2 0xAD6 JUMP JUMPDEST STOP JUMPDEST PUSH2 0x327 PUSH1 0x4 DUP1 CALLDATASIZE SUB DUP2 ADD SWAP1 PUSH2 0x322 SWAP2 SWAP1 PUSH2 0x4759 JUMP JUMPDEST PUSH2 0xBDA JUMP JUMPDEST STOP JUMPDEST PUSH2 0x331 PUSH2 0xC24 JUMP JUMPDEST PUSH1 0x40 MLOAD PUSH2 0x33E SWAP2 SWAP1 PUSH2 0x4795 JUMP JUMPDEST PUSH1 0x40 MLOAD DUP1 SWAP2 SUB SWAP1 RETURN JUMPDEST PUSH2 0x361 PUSH1 0x4 DUP1 CALLDATASIZE SUB DUP2 ADD SWAP1 PUSH2 0x35C SWAP2 SWAP1 PUSH2 0x47B0 JUMP JUMPDEST PUSH2 0xC3B JUMP JUMPDEST STOP JUMPDEST PUSH2 0x37D PUSH1 0x4 DUP1 CALLDATASIZE SUB DUP2 ADD SWAP1 PUSH2 0x378 SWAP2 SWAP1 PUSH2 0x480C JUMP JUMPDEST PUSH2 0xD12 JUMP JUMPDEST STOP JUMPDEST PUSH2 0x399 PUSH1 0x4 DUP1 CALLDATASIZE SUB DUP2 ADD SWAP1 PUSH2 0x394 SWAP2 SWAP1 PUSH2 0x46C2 JUMP JUMPDEST PUSH2 0xD22 JUMP JUMPDEST PUSH1 0x40 MLOAD PUSH2 0x3A6 SWAP2 SWAP1 PUSH2 0x4795 JUMP JUMPDEST PUSH1 0x40 MLOAD DUP1 SWAP2 SUB SWAP1 RETURN JUMPDEST PUSH2 0x3C9 PUSH1 0x4 DUP1 CALLDATASIZE SUB DUP2 ADD SWAP1 PUSH2 0x3C4 SWAP2 SWAP1 PUSH2 0x485F JUMP JUMPDEST PUSH2 0xD95 JUMP JUMPDEST PUSH1 0x40 MLOAD PUSH2 0x3D7 SWAP3 SWAP2 SWAP1 PUSH2 0x489F JUMP JUMPDEST PUSH1 0x40 MLOAD DUP1 SWAP2 SUB SWAP1 RETURN JUMPDEST PUSH2 0x3FA PUSH1 0x4 DUP1 CALLDATASIZE SUB DUP2 ADD SWAP1 PUSH2 0x3F5 SWAP2 SWAP1 PUSH2 0x46C2 JUMP JUMPDEST PUSH2 0xDD3 JUMP JUMPDEST PUSH1 0x40 MLOAD PUSH2 0x40E SWAP9 SWAP8 SWAP7 SWAP6 SWAP5 SWAP4 SWAP3 SWAP2 SWAP1 PUSH2 0x48E1 JUMP JUMPDEST PUSH1 0x40 MLOAD DUP1 SWAP2 SUB SWAP1 RETURN JUMPDEST PUSH2 0x41F PUSH2 0xFF3 JUMP JUMPDEST PUSH1 0x40 MLOAD PUSH2 0x42C SWAP2 SWAP1 PUSH2 0x4795 JUMP JUMPDEST PUSH1 0x40 MLOAD DUP1 SWAP2 SUB SWAP1 RETURN JUMPDEST PUSH2 0x44F PUSH1 0x4 DUP1 CALLDATASIZE SUB DUP2 ADD SWAP1 PUSH2 0x44A SWAP2 SWAP1 PUSH2 0x480C JUMP JUMPDEST PUSH2 0xFFC JUMP JUMPDEST STOP JUMPDEST PUSH2 0x46B PUSH1 0x4 DUP1 CALLDATASIZE SUB DUP2 ADD SWAP1 PUSH2 0x466 SWAP2 SWAP1 PUSH2 0x46C2 JUMP JUMPDEST PUSH2 0x101C JUMP JUMPDEST STOP JUMPDEST PUSH2 0x487 PUSH1 0x4 DUP1 CALLDATASIZE SUB DUP2 ADD SWAP1 PUSH2 0x482 SWAP2 SWAP1 PUSH2 0x4719 JUMP JUMPDEST PUSH2 0x102A JUMP JUMPDEST PUSH1 0x40 MLOAD PUSH2 0x494 SWAP2 SWAP1 PUSH2 0x45D0 JUMP JUMPDEST PUSH1 0x40 MLOAD DUP1 SWAP2 SUB SWAP1 RETURN JUMPDEST PUSH2 0x4B7 PUSH1 0x4 DUP1 CALLDATASIZE SUB DUP2 ADD SWAP1 PUSH2 0x4B2 SWAP2 SWAP1 PUSH2 0x46C2 JUMP JUMPDEST PUSH2 0x10BF JUMP JUMPDEST PUSH1 0x40 MLOAD PUSH2 0x4C5 SWAP3 SWAP2 SWAP1 PUSH2 0x4991 JUMP JUMPDEST PUSH1 0x40 MLOAD DUP1 SWAP2 SUB SWAP1 RETURN JUMPDEST PUSH2 0x4E8 PUSH1 0x4 DUP1 CALLDATASIZE SUB DUP2 ADD SWAP1 PUSH2 0x4E3 SWAP2 SWAP1 PUSH2 0x4A82 JUMP JUMPDEST PUSH2 0x11CA JUMP JUMPDEST PUSH1 0x40 MLOAD PUSH2 0x4F5 SWAP2 SWAP1 PUSH2 0x4BFD JUMP JUMPDEST PUSH1 0x40 MLOAD DUP1 SWAP2 SUB SWAP1 RETURN JUMPDEST PUSH2 0x518 PUSH1 0x4 DUP1 CALLDATASIZE SUB DUP2 ADD SWAP1 PUSH2 0x513 SWAP2 SWAP1 PUSH2 0x4719 JUMP JUMPDEST PUSH2 0x128B JUMP JUMPDEST STOP JUMPDEST PUSH2 0x534 PUSH1 0x4 DUP1 CALLDATASIZE SUB DUP2 ADD SWAP1 PUSH2 0x52F SWAP2 SWAP1 PUSH2 0x4C1F JUMP JUMPDEST PUSH2 0x12D7 JUMP JUMPDEST STOP JUMPDEST PUSH2 0x550 PUSH1 0x4 DUP1 CALLDATASIZE SUB DUP2 ADD SWAP1 PUSH2 0x54B SWAP2 SWAP1 PUSH2 0x46C2 JUMP JUMPDEST PUSH2 0x14F2 JUMP JUMPDEST PUSH1 0x40 MLOAD PUSH2 0x55D SWAP2 SWAP1 PUSH2 0x46FE JUMP JUMPDEST PUSH1 0x40 MLOAD DUP1 SWAP2 SUB SWAP1 RETURN JUMPDEST PUSH2 0x56E PUSH2 0x1508 JUMP JUMPDEST PUSH1 0x40 MLOAD PUSH2 0x57B SWAP2 SWAP1 PUSH2 0x4795 JUMP JUMPDEST PUSH1 0x40 MLOAD DUP1 SWAP2 SUB SWAP1 RETURN JUMPDEST PUSH2 0x59E PUSH1 0x4 DUP1 CALLDATASIZE SUB DUP2 ADD SWAP1 PUSH2 0x599 SWAP2 SWAP1 PUSH2 0x4759 JUMP JUMPDEST PUSH2 0x1515 JUMP JUMPDEST PUSH1 0x40 MLOAD PUSH2 0x5AB SWAP2 SWAP1 PUSH2 0x4795 JUMP JUMPDEST PUSH1 0x40 MLOAD DUP1 SWAP2 SUB SWAP1 RETURN JUMPDEST PUSH2 0x5CE PUSH1 0x4 DUP1 CALLDATASIZE SUB DUP2 ADD SWAP1 PUSH2 0x5C9 SWAP2 SWAP1 PUSH2 0x4D2F JUMP JUMPDEST PUSH2 0x15E4 JUMP JUMPDEST STOP JUMPDEST PUSH2 0x5EA PUSH1 0x4 DUP1 CALLDATASIZE SUB DUP2 ADD SWAP1 PUSH2 0x5E5 SWAP2 SWAP1 PUSH2 0x46C2 JUMP JUMPDEST PUSH2 0x1650 JUMP JUMPDEST PUSH1 0x40 MLOAD PUSH2 0x5F7 SWAP2 SWAP1 PUSH2 0x45D0 JUMP JUMPDEST PUSH1 0x40 MLOAD DUP1 SWAP2 SUB SWAP1 RETURN JUMPDEST PUSH2 0x61A PUSH1 0x4 DUP1 CALLDATASIZE SUB DUP2 ADD SWAP1 PUSH2 0x615 SWAP2 SWAP1 PUSH2 0x4759 JUMP JUMPDEST PUSH2 0x1670 JUMP JUMPDEST PUSH1 0x40 MLOAD PUSH2 0x627 SWAP2 SWAP1 PUSH2 0x4E8C JUMP JUMPDEST PUSH1 0x40 MLOAD DUP1 SWAP2 SUB SWAP1 RETURN JUMPDEST PUSH2 0x638 PUSH2 0x186B JUMP JUMPDEST PUSH1 0x40 MLOAD PUSH2 0x645 SWAP2 SWAP1 PUSH2 0x46FE JUMP JUMPDEST PUSH1 0x40 MLOAD DUP1 SWAP2 SUB SWAP1 RETURN JUMPDEST PUSH2 0x668 PUSH1 0x4 DUP1 CALLDATASIZE SUB DUP2 ADD SWAP1 PUSH2 0x663 SWAP2 SWAP1 PUSH2 0x4EAE JUMP JUMPDEST PUSH2 0x1895 JUMP JUMPDEST STOP JUMPDEST PUSH2 0x672 PUSH2 0x18DF JUMP JUMPDEST PUSH1 0x40 MLOAD PUSH2 0x67F SWAP2 SWAP1 PUSH2 0x466A JUMP JUMPDEST PUSH1 0x40 MLOAD DUP1 SWAP2 SUB SWAP1 RETURN JUMPDEST PUSH2 0x6A2 PUSH1 0x4 DUP1 CALLDATASIZE SUB DUP2 ADD SWAP1 PUSH2 0x69D SWAP2 SWAP1 PUSH2 0x4EF7 JUMP JUMPDEST PUSH2 0x1971 JUMP JUMPDEST PUSH1 0x40 MLOAD PUSH2 0x6AF SWAP2 SWAP1 PUSH2 0x4E8C JUMP JUMPDEST PUSH1 0x40 MLOAD DUP1 SWAP2 SUB SWAP1 RETURN JUMPDEST PUSH2 0x6D2 PUSH1 0x4 DUP1 CALLDATASIZE SUB DUP2 ADD SWAP1 PUSH2 0x6CD SWAP2 SWAP1 PUSH2 0x4F4A JUMP JUMPDEST PUSH2 0x1C30 JUMP JUMPDEST STOP JUMPDEST PUSH2 0x6EE PUSH1 0x4 DUP1 CALLDATASIZE SUB DUP2 ADD SWAP1 PUSH2 0x6E9 SWAP2 SWAP1 PUSH2 0x4FC9 JUMP JUMPDEST PUSH2 0x1C7E JUMP JUMPDEST STOP JUMPDEST PUSH2 0x6F8 PUSH2 0x1DF5 JUMP JUMPDEST PUSH1 0x40 MLOAD PUSH2 0x705 SWAP2 SWAP1 PUSH2 0x4795 JUMP JUMPDEST PUSH1 0x40 MLOAD DUP1 SWAP2 SUB SWAP1 RETURN JUMPDEST PUSH2 0x728 PUSH1 0x4 DUP1 CALLDATASIZE SUB DUP2 ADD SWAP1 PUSH2 0x723 SWAP2 SWAP1 PUSH2 0x5064 JUMP JUMPDEST PUSH2 0x1DFB JUMP JUMPDEST PUSH1 0x40 MLOAD PUSH2 0x735 SWAP2 SWAP1 PUSH2 0x51C8 JUMP JUMPDEST PUSH1 0x40 MLOAD DUP1 SWAP2 SUB SWAP1 RETURN JUMPDEST PUSH2 0x746 PUSH2 0x1FC3 JUMP JUMPDEST PUSH1 0x40 MLOAD PUSH2 0x754 SWAP3 SWAP2 SWAP1 PUSH2 0x4991 JUMP JUMPDEST PUSH1 0x40 MLOAD DUP1 SWAP2 SUB SWAP1 RETURN JUMPDEST PUSH2 0x777 PUSH1 0x4 DUP1 CALLDATASIZE SUB DUP2 ADD SWAP1 PUSH2 0x772 SWAP2 SWAP1 PUSH2 0x51EA JUMP JUMPDEST PUSH2 0x2002 JUMP JUMPDEST STOP JUMPDEST PUSH2 0x793 PUSH1 0x4 DUP1 CALLDATASIZE SUB DUP2 ADD SWAP1 PUSH2 0x78E SWAP2 SWAP1 PUSH2 0x46C2 JUMP JUMPDEST PUSH2 0x207A JUMP JUMPDEST PUSH1 0x40 MLOAD PUSH2 0x7A0 SWAP2 SWAP1 PUSH2 0x52AF JUMP JUMPDEST PUSH1 0x40 MLOAD DUP1 SWAP2 SUB SWAP1 RETURN JUMPDEST PUSH2 0x7C3 PUSH1 0x4 DUP1 CALLDATASIZE SUB DUP2 ADD SWAP1 PUSH2 0x7BE SWAP2 SWAP1 PUSH2 0x46C2 JUMP JUMPDEST PUSH2 0x2197 JUMP JUMPDEST PUSH1 0x40 MLOAD PUSH2 0x7D0 SWAP2 SWAP1 PUSH2 0x466A JUMP JUMPDEST PUSH1 0x40 MLOAD DUP1 SWAP2 SUB SWAP1 RETURN JUMPDEST PUSH2 0x7E1 PUSH2 0x228D JUMP JUMPDEST PUSH1 0x40 MLOAD PUSH2 0x7EE SWAP2 SWAP1 PUSH2 0x466A JUMP JUMPDEST PUSH1 0x40 MLOAD DUP1 SWAP2 SUB SWAP1 RETURN JUMPDEST PUSH2 0x811 PUSH1 0x4 DUP1 CALLDATASIZE SUB DUP2 ADD SWAP1 PUSH2 0x80C SWAP2 SWAP1 PUSH2 0x52CA JUMP JUMPDEST PUSH2 0x231B JUMP JUMPDEST PUSH1 0x40 MLOAD PUSH2 0x81E SWAP2 SWAP1 PUSH2 0x45D0 JUMP JUMPDEST PUSH1 0x40 MLOAD DUP1 SWAP2 SUB SWAP1 RETURN JUMPDEST PUSH2 0x841 PUSH1 0x4 DUP1 CALLDATASIZE SUB DUP2 ADD SWAP1 PUSH2 0x83C SWAP2 SWAP1 PUSH2 0x46C2 JUMP JUMPDEST PUSH2 0x23AF JUMP JUMPDEST PUSH1 0x40 MLOAD PUSH2 0x84E SWAP2 SWAP1 PUSH2 0x466A JUMP JUMPDEST PUSH1 0x40 MLOAD DUP1 SWAP2 SUB SWAP1 RETURN JUMPDEST PUSH2 0x85F PUSH2 0x2457 JUMP JUMPDEST PUSH2 0x89E JUMPI PUSH1 0x40 MLOAD PUSH32 0x8C379A000000000000000000000000000000000000000000000000000000000 DUP2 MSTORE PUSH1 0x4 ADD PUSH2 0x895 SWAP1 PUSH2 0x5356 JUMP JUMPDEST PUSH1 0x40 MLOAD DUP1 SWAP2 SUB SWAP1 REVERT JUMPDEST PUSH2 0x8AF PUSH2 0x8A9 PUSH2 0xFF3 JUMP JUMPDEST DUP3 PUSH2 0x2494 JUMP JUMPDEST PUSH2 0x8CA DUP3 PUSH1 0x1 PUSH1 0x40 MLOAD DUP1 PUSH1 0x20 ADD PUSH1 0x40 MSTORE DUP1 PUSH1 0x0 DUP2 MSTORE POP PUSH2 0x251B JUMP JUMPDEST POP POP JUMP JUMPDEST PUSH1 0x0 PUSH4 0x1FFC9A7 PUSH1 0xE0 SHL DUP3 PUSH28 0xFFFFFFFFFFFFFFFFFFFFFFFFFFFFFFFFFFFFFFFFFFFFFFFFFFFFFFFF NOT AND EQ DUP1 PUSH2 0x929 JUMPI POP PUSH4 0x80AC58CD PUSH1 0xE0 SHL DUP3 PUSH28 0xFFFFFFFFFFFFFFFFFFFFFFFFFFFFFFFFFFFFFFFFFFFFFFFFFFFFFFFF NOT AND EQ JUMPDEST DUP1 PUSH2 0x959 JUMPI POP PUSH4 0x5B5E139F PUSH1 0xE0 SHL DUP3 PUSH28 0xFFFFFFFFFFFFFFFFFFFFFFFFFFFFFFFFFFFFFFFFFFFFFFFFFFFFFFFF NOT AND EQ JUMPDEST DUP1 PUSH2 0x9C1 JUMPI POP PUSH32 0x2A55205A00000000000000000000000000000000000000000000000000000000 PUSH28 0xFFFFFFFFFFFFFFFFFFFFFFFFFFFFFFFFFFFFFFFFFFFFFFFFFFFFFFFF NOT AND DUP3 PUSH28 0xFFFFFFFFFFFFFFFFFFFFFFFFFFFFFFFFFFFFFFFFFFFFFFFFFFFFFFFF NOT AND EQ JUMPDEST SWAP1 POP SWAP2 SWAP1 POP JUMP JUMPDEST PUSH1 0x60 PUSH1 0x2 DUP1 SLOAD PUSH2 0x9D7 SWAP1 PUSH2 0x53A5 JUMP JUMPDEST DUP1 PUSH1 0x1F ADD PUSH1 0x20 DUP1 SWAP2 DIV MUL PUSH1 0x20 ADD PUSH1 0x40 MLOAD SWAP1 DUP2 ADD PUSH1 0x40 MSTORE DUP1 SWAP3 SWAP2 SWAP1 DUP2 DUP2 MSTORE PUSH1 0x20 ADD DUP3 DUP1 SLOAD PUSH2 0xA03 SWAP1 PUSH2 0x53A5 JUMP JUMPDEST DUP1 ISZERO PUSH2 0xA50 JUMPI DUP1 PUSH1 0x1F LT PUSH2 0xA25 JUMPI PUSH2 0x100 DUP1 DUP4 SLOAD DIV MUL DUP4 MSTORE SWAP2 PUSH1 0x20 ADD SWAP2 PUSH2 0xA50 JUMP JUMPDEST DUP3 ADD SWAP2 SWAP1 PUSH1 0x0 MSTORE PUSH1 0x20 PUSH1 0x0 KECCAK256 SWAP1 JUMPDEST DUP2 SLOAD DUP2 MSTORE SWAP1 PUSH1 0x1 ADD SWAP1 PUSH1 0x20 ADD DUP1 DUP4 GT PUSH2 0xA33 JUMPI DUP3 SWAP1 SUB PUSH1 0x1F AND DUP3 ADD SWAP2 JUMPDEST POP POP POP POP POP SWAP1 POP SWAP1 JUMP JUMPDEST PUSH1 0x0 PUSH2 0xA65 DUP3 PUSH2 0x28DB JUMP JUMPDEST PUSH2 0xA9B JUMPI PUSH1 0x40 MLOAD PUSH32 0xCF4700E400000000000000000000000000000000000000000000000000000000 DUP2 MSTORE PUSH1 0x4 ADD PUSH1 0x40 MLOAD DUP1 SWAP2 SUB SWAP1 REVERT JUMPDEST PUSH1 0x6 PUSH1 0x0 DUP4 DUP2 MSTORE PUSH1 0x20 ADD SWAP1 DUP2 MSTORE PUSH1 0x20 ADD PUSH1 0x0 KECCAK256 PUSH1 0x0 SWAP1 SLOAD SWAP1 PUSH2 0x100 EXP SWAP1 DIV PUSH20 0xFFFFFFFFFFFFFFFFFFFFFFFFFFFFFFFFFFFFFFFF AND SWAP1 POP SWAP2 SWAP1 POP JUMP JUMPDEST PUSH1 0x0 PUSH2 0xAE1 DUP3 PUSH2 0x14F2 JUMP JUMPDEST SWAP1 POP DUP1 PUSH20 0xFFFFFFFFFFFFFFFFFFFFFFFFFFFFFFFFFFFFFFFF AND DUP4 PUSH20 0xFFFFFFFFFFFFFFFFFFFFFFFFFFFFFFFFFFFFFFFF AND SUB PUSH2 0xB48 JUMPI PUSH1 0x40 MLOAD PUSH32 0x943F7B8C00000000000000000000000000000000000000000000000000000000 DUP2 MSTORE PUSH1 0x4 ADD PUSH1 0x40 MLOAD DUP1 SWAP2 SUB SWAP1 REVERT JUMPDEST DUP1 PUSH20 0xFFFFFFFFFFFFFFFFFFFFFFFFFFFFFFFFFFFFFFFF AND PUSH2 0xB67 PUSH2 0x2929 JUMP JUMPDEST PUSH20 0xFFFFFFFFFFFFFFFFFFFFFFFFFFFFFFFFFFFFFFFF AND EQ PUSH2 0xBCA JUMPI PUSH2 0xB93 DUP2 PUSH2 0xB8E PUSH2 0x2929 JUMP JUMPDEST PUSH2 0x231B JUMP JUMPDEST PUSH2 0xBC9 JUMPI PUSH1 0x40 MLOAD PUSH32 0xCFB3B94200000000000000000000000000000000000000000000000000000000 DUP2 MSTORE PUSH1 0x4 ADD PUSH1 0x40 MLOAD DUP1 SWAP2 SUB SWAP1 REVERT JUMPDEST JUMPDEST PUSH2 0xBD5 DUP4 DUP4 DUP4 PUSH2 0x2931 JUMP JUMPDEST POP POP POP JUMP JUMPDEST PUSH2 0xBE2 PUSH2 0x29E3 JUMP JUMPDEST PUSH2 0xC18 JUMPI PUSH1 0x40 MLOAD PUSH32 0x2D99739600000000000000000000000000000000000000000000000000000000 DUP2 MSTORE PUSH1 0x4 ADD PUSH1 0x40 MLOAD DUP1 SWAP2 SUB SWAP1 REVERT JUMPDEST PUSH2 0xC21 DUP2 PUSH2 0x2A20 JUMP JUMPDEST POP JUMP JUMPDEST PUSH1 0x0 PUSH2 0xC2E PUSH2 0x2AE6 JUMP JUMPDEST PUSH1 0x1 SLOAD PUSH1 0x0 SLOAD SUB SUB SWAP1 POP SWAP1 JUMP JUMPDEST CALLER PUSH20 0xFFFFFFFFFFFFFFFFFFFFFFFFFFFFFFFFFFFFFFFF AND PUSH2 0xC5B DUP4 PUSH2 0x14F2 JUMP JUMPDEST PUSH20 0xFFFFFFFFFFFFFFFFFFFFFFFFFFFFFFFFFFFFFFFF AND EQ PUSH2 0xCB1 JUMPI PUSH1 0x40 MLOAD PUSH32 0x8C379A000000000000000000000000000000000000000000000000000000000 DUP2 MSTORE PUSH1 0x4 ADD PUSH2 0xCA8 SWAP1 PUSH2 0x5422 JUMP JUMPDEST PUSH1 0x40 MLOAD DUP1 SWAP2 SUB SWAP1 REVERT JUMPDEST DUP1 PUSH1 0x10 PUSH1 0x0 DUP5 DUP2 MSTORE PUSH1 0x20 ADD SWAP1 DUP2 MSTORE PUSH1 0x20 ADD PUSH1 0x0 KECCAK256 PUSH1 0x7 ADD SWAP1 DUP2 PUSH2 0xCD4 SWAP2 SWAP1 PUSH2 0x55EE JUMP JUMPDEST POP PUSH32 0x7E70084D84488F1D46902BB7FA3B765328C23F5713EC1E5D426BC7C9B2E9E104 DUP3 DUP3 PUSH1 0x40 MLOAD PUSH2 0xD06 SWAP3 SWAP2 SWAP1 PUSH2 0x56C0 JUMP JUMPDEST PUSH1 0x40 MLOAD DUP1 SWAP2 SUB SWAP1 LOG1 POP POP JUMP JUMPDEST PUSH2 0xD1D DUP4 DUP4 DUP4 PUSH2 0x2AEB JUMP JUMPDEST POP POP POP JUMP JUMPDEST PUSH1 0x0 PUSH2 0xD2C PUSH2 0x1508 JUMP JUMPDEST DUP3 LT PUSH2 0xD6F JUMPI DUP2 PUSH1 0x40 MLOAD PUSH32 0xF2624EE00000000000000000000000000000000000000000000000000000000 DUP2 MSTORE PUSH1 0x4 ADD PUSH2 0xD66 SWAP2 SWAP1 PUSH2 0x4795 JUMP JUMPDEST PUSH1 0x40 MLOAD DUP1 SWAP2 SUB SWAP1 REVERT JUMPDEST PUSH1 0xC DUP3 DUP2 SLOAD DUP2 LT PUSH2 0xD83 JUMPI PUSH2 0xD82 PUSH2 0x56F0 JUMP JUMPDEST JUMPDEST SWAP1 PUSH1 0x0 MSTORE PUSH1 0x20 PUSH1 0x0 KECCAK256 ADD SLOAD SWAP1 POP SWAP2 SWAP1 POP JUMP JUMPDEST PUSH1 0x0 DUP1 PUSH1 0x0 DUP1 PUSH2 0xDA4 DUP7 PUSH2 0x10BF JUMP JUMPDEST PUSH2 0xFFFF AND SWAP2 POP SWAP2 POP DUP2 SWAP4 POP PUSH2 0x2710 DUP2 DUP7 PUSH2 0xDBE SWAP2 SWAP1 PUSH2 0x574E JUMP JUMPDEST PUSH2 0xDC8 SWAP2 SWAP1 PUSH2 0x57BF JUMP JUMPDEST SWAP3 POP POP POP SWAP3 POP SWAP3 SWAP1 POP JUMP JUMPDEST PUSH1 0x10 PUSH1 0x20 MSTORE DUP1 PUSH1 0x0 MSTORE PUSH1 0x40 PUSH1 0x0 KECCAK256 PUSH1 0x0 SWAP2 POP SWAP1 POP DUP1 PUSH1 0x0 ADD SLOAD SWAP1 DUP1 PUSH1 0x1 ADD DUP1 SLOAD PUSH2 0xDFC SWAP1 PUSH2 0x53A5 JUMP JUMPDEST DUP1 PUSH1 0x1F ADD PUSH1 0x20 DUP1 SWAP2 DIV MUL PUSH1 0x20 ADD PUSH1 0x40 MLOAD SWAP1 DUP2 ADD PUSH1 0x40 MSTORE DUP1 SWAP3 SWAP2 SWAP1 DUP2 DUP2 MSTORE PUSH1 0x20 ADD DUP3 DUP1 SLOAD PUSH2 0xE28 SWAP1 PUSH2 0x53A5 JUMP JUMPDEST DUP1 ISZERO PUSH2 0xE75 JUMPI DUP1 PUSH1 0x1F LT PUSH2 0xE4A JUMPI PUSH2 0x100 DUP1 DUP4 SLOAD DIV MUL DUP4 MSTORE SWAP2 PUSH1 0x20 ADD SWAP2 PUSH2 0xE75 JUMP JUMPDEST DUP3 ADD SWAP2 SWAP1 PUSH1 0x0 MSTORE PUSH1 0x20 PUSH1 0x0 KECCAK256 SWAP1 JUMPDEST DUP2 SLOAD DUP2 MSTORE SWAP1 PUSH1 0x1 ADD SWAP1 PUSH1 0x20 ADD DUP1 DUP4 GT PUSH2 0xE58 JUMPI DUP3 SWAP1 SUB PUSH1 0x1F AND DUP3 ADD SWAP2 JUMPDEST POP POP POP POP POP SWAP1 DUP1 PUSH1 0x2 ADD PUSH1 0x0 SWAP1 SLOAD SWAP1 PUSH2 0x100 EXP SWAP1 DIV PUSH20 0xFFFFFFFFFFFFFFFFFFFFFFFFFFFFFFFFFFFFFFFF AND SWAP1 DUP1 PUSH1 0x3 ADD PUSH1 0x0 SWAP1 SLOAD SWAP1 PUSH2 0x100 EXP SWAP1 DIV PUSH20 0xFFFFFFFFFFFFFFFFFFFFFFFFFFFFFFFFFFFFFFFF AND SWAP1 DUP1 PUSH1 0x4 ADD DUP1 SLOAD PUSH2 0xED6 SWAP1 PUSH2 0x53A5 JUMP JUMPDEST DUP1 PUSH1 0x1F ADD PUSH1 0x20 DUP1 SWAP2 DIV MUL PUSH1 0x20 ADD PUSH1 0x40 MLOAD SWAP1 DUP2 ADD PUSH1 0x40 MSTORE DUP1 SWAP3 SWAP2 SWAP1 DUP2 DUP2 MSTORE PUSH1 0x20 ADD DUP3 DUP1 SLOAD PUSH2 0xF02 SWAP1 PUSH2 0x53A5 JUMP JUMPDEST DUP1 ISZERO PUSH2 0xF4F JUMPI DUP1 PUSH1 0x1F LT PUSH2 0xF24 JUMPI PUSH2 0x100 DUP1 DUP4 SLOAD DIV MUL DUP4 MSTORE SWAP2 PUSH1 0x20 ADD SWAP2 PUSH2 0xF4F JUMP JUMPDEST DUP3 ADD SWAP2 SWAP1 PUSH1 0x0 MSTORE PUSH1 0x20 PUSH1 0x0 KECCAK256 SWAP1 JUMPDEST DUP2 SLOAD DUP2 MSTORE SWAP1 PUSH1 0x1 ADD SWAP1 PUSH1 0x20 ADD DUP1 DUP4 GT PUSH2 0xF32 JUMPI DUP3 SWAP1 SUB PUSH1 0x1F AND DUP3 ADD SWAP2 JUMPDEST POP POP POP POP POP SWAP1 DUP1 PUSH1 0x5 ADD SLOAD SWAP1 DUP1 PUSH1 0x6 ADD SLOAD SWAP1 DUP1 PUSH1 0x7 ADD DUP1 SLOAD PUSH2 0xF70 SWAP1 PUSH2 0x53A5 JUMP JUMPDEST DUP1 PUSH1 0x1F ADD PUSH1 0x20 DUP1 SWAP2 DIV MUL PUSH1 0x20 ADD PUSH1 0x40 MLOAD SWAP1 DUP2 ADD PUSH1 0x40 MSTORE DUP1 SWAP3 SWAP2 SWAP1 DUP2 DUP2 MSTORE PUSH1 0x20 ADD DUP3 DUP1 SLOAD PUSH2 0xF9C SWAP1 PUSH2 0x53A5 JUMP JUMPDEST DUP1 ISZERO PUSH2 0xFE9 JUMPI DUP1 PUSH1 0x1F LT PUSH2 0xFBE JUMPI PUSH2 0x100 DUP1 DUP4 SLOAD DIV MUL DUP4 MSTORE SWAP2 PUSH1 0x20 ADD SWAP2 PUSH2 0xFE9 JUMP JUMPDEST DUP3 ADD SWAP2 SWAP1 PUSH1 0x0 MSTORE PUSH1 0x20 PUSH1 0x0 KECCAK256 SWAP1 JUMPDEST DUP2 SLOAD DUP2 MSTORE SWAP1 PUSH1 0x1 ADD SWAP1 PUSH1 0x20 ADD DUP1 DUP4 GT PUSH2 0xFCC JUMPI DUP3 SWAP1 SUB PUSH1 0x1F AND DUP3 ADD SWAP2 JUMPDEST POP POP POP POP POP SWAP1 POP DUP9 JUMP JUMPDEST PUSH1 0x0 DUP1 SLOAD SWAP1 POP SWAP1 JUMP JUMPDEST PUSH2 0x1017 DUP4 DUP4 DUP4 PUSH1 0x40 MLOAD DUP1 PUSH1 0x20 ADD PUSH1 0x40 MSTORE DUP1 PUSH1 0x0 DUP2 MSTORE POP PUSH2 0x2002 JUMP JUMPDEST POP POP POP JUMP JUMPDEST PUSH2 0x1027 DUP2 PUSH1 0x1 PUSH2 0x2F9F JUMP JUMPDEST POP JUMP JUMPDEST PUSH1 0x0 DUP1 PUSH2 0x1036 DUP4 PUSH2 0x14F2 JUMP JUMPDEST SWAP1 POP DUP1 PUSH20 0xFFFFFFFFFFFFFFFFFFFFFFFFFFFFFFFFFFFFFFFF AND DUP5 PUSH20 0xFFFFFFFFFFFFFFFFFFFFFFFFFFFFFFFFFFFFFFFF AND EQ DUP1 PUSH2 0x1078 JUMPI POP PUSH2 0x1077 DUP2 DUP6 PUSH2 0x231B JUMP JUMPDEST JUMPDEST DUP1 PUSH2 0x10B6 JUMPI POP DUP4 PUSH20 0xFFFFFFFFFFFFFFFFFFFFFFFFFFFFFFFFFFFFFFFF AND PUSH2 0x109E DUP5 PUSH2 0xA5A JUMP JUMPDEST PUSH20 0xFFFFFFFFFFFFFFFFFFFFFFFFFFFFFFFFFFFFFFFF AND EQ JUMPDEST SWAP2 POP POP SWAP3 SWAP2 POP POP JUMP JUMPDEST PUSH1 0x0 DUP1 PUSH1 0x0 PUSH1 0xB PUSH1 0x0 DUP6 DUP2 MSTORE PUSH1 0x20 ADD SWAP1 DUP2 MSTORE PUSH1 0x20 ADD PUSH1 0x0 KECCAK256 PUSH1 0x40 MLOAD DUP1 PUSH1 0x40 ADD PUSH1 0x40 MSTORE SWAP1 DUP2 PUSH1 0x0 DUP3 ADD PUSH1 0x0 SWAP1 SLOAD SWAP1 PUSH2 0x100 EXP SWAP1 DIV PUSH20 0xFFFFFFFFFFFFFFFFFFFFFFFFFFFFFFFFFFFFFFFF AND PUSH20 0xFFFFFFFFFFFFFFFFFFFFFFFFFFFFFFFFFFFFFFFF AND PUSH20 0xFFFFFFFFFFFFFFFFFFFFFFFFFFFFFFFFFFFFFFFF AND DUP2 MSTORE PUSH1 0x20 ADD PUSH1 0x1 DUP3 ADD SLOAD DUP2 MSTORE POP POP SWAP1 POP PUSH1 0x0 PUSH20 0xFFFFFFFFFFFFFFFFFFFFFFFFFFFFFFFFFFFFFFFF AND DUP2 PUSH1 0x0 ADD MLOAD PUSH20 0xFFFFFFFFFFFFFFFFFFFFFFFFFFFFFFFFFFFFFFFF AND EQ PUSH2 0x118B JUMPI DUP1 PUSH1 0x0 ADD MLOAD DUP2 PUSH1 0x20 ADD MLOAD PUSH2 0x11C0 JUMP JUMPDEST PUSH1 0xA PUSH1 0x0 SWAP1 SLOAD SWAP1 PUSH2 0x100 EXP SWAP1 DIV PUSH20 0xFFFFFFFFFFFFFFFFFFFFFFFFFFFFFFFFFFFFFFFF AND PUSH1 0xA PUSH1 0x14 SWAP1 SLOAD SWAP1 PUSH2 0x100 EXP SWAP1 DIV PUSH2 0xFFFF AND JUMPDEST SWAP3 POP SWAP3 POP POP SWAP2 POP SWAP2 JUMP JUMPDEST PUSH1 0x60 PUSH1 0x0 DUP3 MLOAD SWAP1 POP PUSH1 0x0 DUP2 PUSH8 0xFFFFFFFFFFFFFFFF DUP2 GT ISZERO PUSH2 0x11EE JUMPI PUSH2 0x11ED PUSH2 0x43A9 JUMP JUMPDEST JUMPDEST PUSH1 0x40 MLOAD SWAP1 DUP1 DUP3 MSTORE DUP1 PUSH1 0x20 MUL PUSH1 0x20 ADD DUP3 ADD PUSH1 0x40 MSTORE DUP1 ISZERO PUSH2 0x1227 JUMPI DUP2 PUSH1 0x20 ADD JUMPDEST PUSH2 0x1214 PUSH2 0x42D9 JUMP JUMPDEST DUP2 MSTORE PUSH1 0x20 ADD SWAP1 PUSH1 0x1 SWAP1 SUB SWAP1 DUP2 PUSH2 0x120C JUMPI SWAP1 POP JUMPDEST POP SWAP1 POP PUSH1 0x0 JUMPDEST DUP3 DUP2 EQ PUSH2 0x1280 JUMPI PUSH2 0x1257 DUP6 DUP3 DUP2 MLOAD DUP2 LT PUSH2 0x124A JUMPI PUSH2 0x1249 PUSH2 0x56F0 JUMP JUMPDEST JUMPDEST PUSH1 0x20 MUL PUSH1 0x20 ADD ADD MLOAD PUSH2 0x207A JUMP JUMPDEST DUP3 DUP3 DUP2 MLOAD DUP2 LT PUSH2 0x126A JUMPI PUSH2 0x1269 PUSH2 0x56F0 JUMP JUMPDEST JUMPDEST PUSH1 0x20 MUL PUSH1 0x20 ADD ADD DUP2 SWAP1 MSTORE POP DUP1 PUSH1 0x1 ADD SWAP1 POP PUSH2 0x122D JUMP JUMPDEST POP DUP1 SWAP3 POP POP POP SWAP2 SWAP1 POP JUMP JUMPDEST PUSH2 0x1293 PUSH2 0x338E JUMP JUMPDEST PUSH2 0x12C9 JUMPI PUSH1 0x40 MLOAD PUSH32 0xDF5C6B0200000000000000000000000000000000000000000000000000000000 DUP2 MSTORE PUSH1 0x4 ADD PUSH1 0x40 MLOAD DUP1 SWAP2 SUB SWAP1 REVERT JUMPDEST PUSH2 0x12D3 DUP3 DUP3 PUSH2 0x33CB JUMP JUMPDEST POP POP JUMP JUMPDEST PUSH1 0x11 PUSH1 0x0 DUP2 SLOAD DUP1 SWAP3 SWAP2 SWAP1 PUSH2 0x12EA SWAP1 PUSH2 0x57F0 JUMP JUMPDEST SWAP2 SWAP1 POP SSTORE POP PUSH1 0x40 MLOAD DUP1 PUSH2 0x100 ADD PUSH1 0x40 MSTORE DUP1 PUSH1 0x11 SLOAD DUP2 MSTORE PUSH1 0x20 ADD DUP5 DUP2 MSTORE PUSH1 0x20 ADD CALLER PUSH20 0xFFFFFFFFFFFFFFFFFFFFFFFFFFFFFFFFFFFFFFFF AND DUP2 MSTORE PUSH1 0x20 ADD DUP4 PUSH20 0xFFFFFFFFFFFFFFFFFFFFFFFFFFFFFFFFFFFFFFFF AND DUP2 MSTORE PUSH1 0x20 ADD PUSH1 0x40 MLOAD DUP1 PUSH1 0x40 ADD PUSH1 0x40 MSTORE DUP1 PUSH1 0x7 DUP2 MSTORE PUSH1 0x20 ADD PUSH32 0x50656E64696E6700000000000000000000000000000000000000000000000000 DUP2 MSTORE POP DUP2 MSTORE PUSH1 0x20 ADD DUP3 DUP2 MSTORE PUSH1 0x20 ADD PUSH1 0x0 DUP2 MSTORE PUSH1 0x20 ADD PUSH1 0x40 MLOAD DUP1 PUSH1 0x20 ADD PUSH1 0x40 MSTORE DUP1 PUSH1 0x0 DUP2 MSTORE POP DUP2 MSTORE POP PUSH1 0x10 PUSH1 0x0 PUSH1 0x11 SLOAD DUP2 MSTORE PUSH1 0x20 ADD SWAP1 DUP2 MSTORE PUSH1 0x20 ADD PUSH1 0x0 KECCAK256 PUSH1 0x0 DUP3 ADD MLOAD DUP2 PUSH1 0x0 ADD SSTORE PUSH1 0x20 DUP3 ADD MLOAD DUP2 PUSH1 0x1 ADD SWAP1 DUP2 PUSH2 0x13D0 SWAP2 SWAP1 PUSH2 0x55EE JUMP JUMPDEST POP PUSH1 0x40 DUP3 ADD MLOAD DUP2 PUSH1 0x2 ADD PUSH1 0x0 PUSH2 0x100 EXP DUP2 SLOAD DUP2 PUSH20 0xFFFFFFFFFFFFFFFFFFFFFFFFFFFFFFFFFFFFFFFF MUL NOT AND SWAP1 DUP4 PUSH20 0xFFFFFFFFFFFFFFFFFFFFFFFFFFFFFFFFFFFFFFFF AND MUL OR SWAP1 SSTORE POP PUSH1 0x60 DUP3 ADD MLOAD DUP2 PUSH1 0x3 ADD PUSH1 0x0 PUSH2 0x100 EXP DUP2 SLOAD DUP2 PUSH20 0xFFFFFFFFFFFFFFFFFFFFFFFFFFFFFFFFFFFFFFFF MUL NOT AND SWAP1 DUP4 PUSH20 0xFFFFFFFFFFFFFFFFFFFFFFFFFFFFFFFFFFFFFFFF AND MUL OR SWAP1 SSTORE POP PUSH1 0x80 DUP3 ADD MLOAD DUP2 PUSH1 0x4 ADD SWAP1 DUP2 PUSH2 0x1474 SWAP2 SWAP1 PUSH2 0x55EE JUMP JUMPDEST POP PUSH1 0xA0 DUP3 ADD MLOAD DUP2 PUSH1 0x5 ADD SSTORE PUSH1 0xC0 DUP3 ADD MLOAD DUP2 PUSH1 0x6 ADD SSTORE PUSH1 0xE0 DUP3 ADD MLOAD DUP2 PUSH1 0x7 ADD SWAP1 DUP2 PUSH2 0x149E SWAP2 SWAP1 PUSH2 0x55EE JUMP JUMPDEST POP SWAP1 POP POP PUSH2 0x14AE CALLER PUSH1 0x11 SLOAD PUSH2 0x34C6 JUMP JUMPDEST PUSH32 0x7AF99D65CB596CFDFC2ABA99E0A28ED52BF550FD06066EF28D334007D9E8E223 PUSH1 0x11 SLOAD CALLER DUP5 DUP5 PUSH1 0x40 MLOAD PUSH2 0x14E5 SWAP5 SWAP4 SWAP3 SWAP2 SWAP1 PUSH2 0x5838 JUMP JUMPDEST PUSH1 0x40 MLOAD DUP1 SWAP2 SUB SWAP1 LOG1 POP POP POP JUMP JUMPDEST PUSH1 0x0 PUSH2 0x14FD DUP3 PUSH2 0x37A0 JUMP JUMPDEST PUSH1 0x0 ADD MLOAD SWAP1 POP SWAP2 SWAP1 POP JUMP JUMPDEST PUSH1 0x0 PUSH1 0xC DUP1 SLOAD SWAP1 POP SWAP1 POP SWAP1 JUMP JUMPDEST PUSH1 0x0 DUP1 PUSH20 0xFFFFFFFFFFFFFFFFFFFFFFFFFFFFFFFFFFFFFFFF AND DUP3 PUSH20 0xFFFFFFFFFFFFFFFFFFFFFFFFFFFFFFFFFFFFFFFF AND SUB PUSH2 0x157C JUMPI PUSH1 0x40 MLOAD PUSH32 0x8F4EB60400000000000000000000000000000000000000000000000000000000 DUP2 MSTORE PUSH1 0x4 ADD PUSH1 0x40 MLOAD DUP1 SWAP2 SUB SWAP1 REVERT JUMPDEST PUSH1 0x5 PUSH1 0x0 DUP4 PUSH20 0xFFFFFFFFFFFFFFFFFFFFFFFFFFFFFFFFFFFFFFFF AND PUSH20 0xFFFFFFFFFFFFFFFFFFFFFFFFFFFFFFFFFFFFFFFF AND DUP2 MSTORE PUSH1 0x20 ADD SWAP1 DUP2 MSTORE PUSH1 0x20 ADD PUSH1 0x0 KECCAK256 PUSH1 0x0 ADD PUSH1 0x0 SWAP1 SLOAD SWAP1 PUSH2 0x100 EXP SWAP1 DIV PUSH8 0xFFFFFFFFFFFFFFFF AND PUSH8 0xFFFFFFFFFFFFFFFF AND SWAP1 POP SWAP2 SWAP1 POP JUMP JUMPDEST PUSH2 0x15EC PUSH2 0x2457 JUMP JUMPDEST PUSH2 0x162B JUMPI PUSH1 0x40 MLOAD PUSH32 0x8C379A000000000000000000000000000000000000000000000000000000000 DUP2 MSTORE PUSH1 0x4 ADD PUSH2 0x1622 SWAP1 PUSH2 0x5356 JUMP JUMPDEST PUSH1 0x40 MLOAD DUP1 SWAP2 SUB SWAP1 REVERT JUMPDEST PUSH2 0x163D PUSH2 0x1636 PUSH2 0xFF3 JUMP JUMPDEST DUP5 DUP5 PUSH2 0x3A2B JUMP JUMPDEST POP POP PUSH2 0x164A DUP5 DUP5 DUP4 PUSH2 0x251B JUMP JUMPDEST POP POP POP POP JUMP JUMPDEST PUSH1 0xE PUSH1 0x20 MSTORE DUP1 PUSH1 0x0 MSTORE PUSH1 0x40 PUSH1 0x0 KECCAK256 PUSH1 0x0 SWAP2 POP SLOAD SWAP1 PUSH2 0x100 EXP SWAP1 DIV PUSH1 0xFF AND DUP2 JUMP JUMPDEST PUSH1 0x60 PUSH1 0x0 DUP1 PUSH1 0x0 PUSH2 0x1680 DUP6 PUSH2 0x1515 JUMP JUMPDEST SWAP1 POP PUSH1 0x0 DUP2 PUSH8 0xFFFFFFFFFFFFFFFF DUP2 GT ISZERO PUSH2 0x169E JUMPI PUSH2 0x169D PUSH2 0x43A9 JUMP JUMPDEST JUMPDEST PUSH1 0x40 MLOAD SWAP1 DUP1 DUP3 MSTORE DUP1 PUSH1 0x20 MUL PUSH1 0x20 ADD DUP3 ADD PUSH1 0x40 MSTORE DUP1 ISZERO PUSH2 0x16CC JUMPI DUP2 PUSH1 0x20 ADD PUSH1 0x20 DUP3 MUL DUP1 CALLDATASIZE DUP4 CALLDATACOPY DUP1 DUP3 ADD SWAP2 POP POP SWAP1 POP JUMPDEST POP SWAP1 POP PUSH2 0x16D7 PUSH2 0x42D9 JUMP JUMPDEST PUSH1 0x0 PUSH2 0x16E1 PUSH2 0x2AE6 JUMP JUMPDEST SWAP1 POP JUMPDEST DUP4 DUP7 EQ PUSH2 0x185D JUMPI PUSH1 0x4 PUSH1 0x0 DUP3 DUP2 MSTORE PUSH1 0x20 ADD SWAP1 DUP2 MSTORE PUSH1 0x20 ADD PUSH1 0x0 KECCAK256 PUSH1 0x40 MLOAD DUP1 PUSH1 0x60 ADD PUSH1 0x40 MSTORE SWAP1 DUP2 PUSH1 0x0 DUP3 ADD PUSH1 0x0 SWAP1 SLOAD SWAP1 PUSH2 0x100 EXP SWAP1 DIV PUSH20 0xFFFFFFFFFFFFFFFFFFFFFFFFFFFFFFFFFFFFFFFF AND PUSH20 0xFFFFFFFFFFFFFFFFFFFFFFFFFFFFFFFFFFFFFFFF AND PUSH20 0xFFFFFFFFFFFFFFFFFFFFFFFFFFFFFFFFFFFFFFFF AND DUP2 MSTORE PUSH1 0x20 ADD PUSH1 0x0 DUP3 ADD PUSH1 0x14 SWAP1 SLOAD SWAP1 PUSH2 0x100 EXP SWAP1 DIV PUSH8 0xFFFFFFFFFFFFFFFF AND PUSH8 0xFFFFFFFFFFFFFFFF AND PUSH8 0xFFFFFFFFFFFFFFFF AND DUP2 MSTORE PUSH1 0x20 ADD PUSH1 0x0 DUP3 ADD PUSH1 0x1C SWAP1 SLOAD SWAP1 PUSH2 0x100 EXP SWAP1 DIV PUSH1 0xFF AND ISZERO ISZERO ISZERO ISZERO DUP2 MSTORE POP POP SWAP2 POP DUP2 PUSH1 0x40 ADD MLOAD PUSH2 0x1852 JUMPI PUSH1 0x0 PUSH20 0xFFFFFFFFFFFFFFFFFFFFFFFFFFFFFFFFFFFFFFFF AND DUP3 PUSH1 0x0 ADD MLOAD PUSH20 0xFFFFFFFFFFFFFFFFFFFFFFFFFFFFFFFFFFFFFFFF AND EQ PUSH2 0x17F7 JUMPI DUP2 PUSH1 0x0 ADD MLOAD SWAP5 POP JUMPDEST DUP8 PUSH20 0xFFFFFFFFFFFFFFFFFFFFFFFFFFFFFFFFFFFFFFFF AND DUP6 PUSH20 0xFFFFFFFFFFFFFFFFFFFFFFFFFFFFFFFFFFFFFFFF AND SUB PUSH2 0x1851 JUMPI DUP1 DUP4 DUP8 DUP1 PUSH1 0x1 ADD SWAP9 POP DUP2 MLOAD DUP2 LT PUSH2 0x1844 JUMPI PUSH2 0x1843 PUSH2 0x56F0 JUMP JUMPDEST JUMPDEST PUSH1 0x20 MUL PUSH1 0x20 ADD ADD DUP2 DUP2 MSTORE POP POP JUMPDEST JUMPDEST DUP1 PUSH1 0x1 ADD SWAP1 POP PUSH2 0x16E4 JUMP JUMPDEST POP DUP2 SWAP6 POP POP POP POP POP POP SWAP2 SWAP1 POP JUMP JUMPDEST PUSH1 0x0 PUSH1 0x9 PUSH1 0x0 SWAP1 SLOAD SWAP1 PUSH2 0x100 EXP SWAP1 DIV PUSH20 0xFFFFFFFFFFFFFFFFFFFFFFFFFFFFFFFFFFFFFFFF AND SWAP1 POP SWAP1 JUMP JUMPDEST PUSH2 0x189D PUSH2 0x3A91 JUMP JUMPDEST PUSH2 0x18D3 JUMPI PUSH1 0x40 MLOAD PUSH32 0x9F7F092500000000000000000000000000000000000000000000000000000000 DUP2 MSTORE PUSH1 0x4 ADD PUSH1 0x40 MLOAD DUP1 SWAP2 SUB SWAP1 REVERT JUMPDEST PUSH2 0x18DC DUP2 PUSH2 0x3ACE JUMP JUMPDEST POP JUMP JUMPDEST PUSH1 0x60 PUSH1 0x3 DUP1 SLOAD PUSH2 0x18EE SWAP1 PUSH2 0x53A5 JUMP JUMPDEST DUP1 PUSH1 0x1F ADD PUSH1 0x20 DUP1 SWAP2 DIV MUL PUSH1 0x20 ADD PUSH1 0x40 MLOAD SWAP1 DUP2 ADD PUSH1 0x40 MSTORE DUP1 SWAP3 SWAP2 SWAP1 DUP2 DUP2 MSTORE PUSH1 0x20 ADD DUP3 DUP1 SLOAD PUSH2 0x191A SWAP1 PUSH2 0x53A5 JUMP JUMPDEST DUP1 ISZERO PUSH2 0x1967 JUMPI DUP1 PUSH1 0x1F LT PUSH2 0x193C JUMPI PUSH2 0x100 DUP1 DUP4 SLOAD DIV MUL DUP4 MSTORE SWAP2 PUSH1 0x20 ADD SWAP2 PUSH2 0x1967 JUMP JUMPDEST DUP3 ADD SWAP2 SWAP1 PUSH1 0x0 MSTORE PUSH1 0x20 PUSH1 0x0 KECCAK256 SWAP1 JUMPDEST DUP2 SLOAD DUP2 MSTORE SWAP1 PUSH1 0x1 ADD SWAP1 PUSH1 0x20 ADD DUP1 DUP4 GT PUSH2 0x194A JUMPI DUP3 SWAP1 SUB PUSH1 0x1F AND DUP3 ADD SWAP2 JUMPDEST POP POP POP POP POP SWAP1 POP SWAP1 JUMP JUMPDEST PUSH1 0x60 DUP2 DUP4 LT PUSH2 0x19AC JUMPI PUSH1 0x40 MLOAD PUSH32 0x32C1995A00000000000000000000000000000000000000000000000000000000 DUP2 MSTORE PUSH1 0x4 ADD PUSH1 0x40 MLOAD DUP1 SWAP2 SUB SWAP1 REVERT JUMPDEST PUSH1 0x0 DUP1 PUSH1 0x0 SLOAD SWAP1 POP PUSH2 0x19BC PUSH2 0x2AE6 JUMP JUMPDEST DUP6 LT ISZERO PUSH2 0x19CE JUMPI PUSH2 0x19CB PUSH2 0x2AE6 JUMP JUMPDEST SWAP5 POP JUMPDEST DUP1 DUP5 GT ISZERO PUSH2 0x19DA JUMPI DUP1 SWAP4 POP JUMPDEST PUSH1 0x0 PUSH2 0x19E5 DUP8 PUSH2 0x1515 JUMP JUMPDEST SWAP1 POP DUP5 DUP7 LT ISZERO PUSH2 0x1A08 JUMPI PUSH1 0x0 DUP7 DUP7 SUB SWAP1 POP DUP2 DUP2 LT ISZERO PUSH2 0x1A02 JUMPI DUP1 SWAP2 POP JUMPDEST POP PUSH2 0x1A0D JUMP JUMPDEST PUSH1 0x0 SWAP1 POP JUMPDEST PUSH1 0x0 DUP2 PUSH8 0xFFFFFFFFFFFFFFFF DUP2 GT ISZERO PUSH2 0x1A29 JUMPI PUSH2 0x1A28 PUSH2 0x43A9 JUMP JUMPDEST JUMPDEST PUSH1 0x40 MLOAD SWAP1 DUP1 DUP3 MSTORE DUP1 PUSH1 0x20 MUL PUSH1 0x20 ADD DUP3 ADD PUSH1 0x40 MSTORE DUP1 ISZERO PUSH2 0x1A57 JUMPI DUP2 PUSH1 0x20 ADD PUSH1 0x20 DUP3 MUL DUP1 CALLDATASIZE DUP4 CALLDATACOPY DUP1 DUP3 ADD SWAP2 POP POP SWAP1 POP JUMPDEST POP SWAP1 POP PUSH1 0x0 DUP3 SUB PUSH2 0x1A6E JUMPI DUP1 SWAP5 POP POP POP POP POP PUSH2 0x1C29 JUMP JUMPDEST PUSH1 0x0 PUSH2 0x1A79 DUP9 PUSH2 0x207A JUMP JUMPDEST SWAP1 POP PUSH1 0x0 DUP2 PUSH1 0x40 ADD MLOAD PUSH2 0x1A8E JUMPI DUP2 PUSH1 0x0 ADD MLOAD SWAP1 POP JUMPDEST PUSH1 0x0 DUP10 SWAP1 POP JUMPDEST DUP9 DUP2 EQ ISZERO DUP1 ISZERO PUSH2 0x1AA4 JUMPI POP DUP5 DUP8 EQ ISZERO JUMPDEST ISZERO PUSH2 0x1C1B JUMPI PUSH1 0x4 PUSH1 0x0 DUP3 DUP2 MSTORE PUSH1 0x20 ADD SWAP1 DUP2 MSTORE PUSH1 0x20 ADD PUSH1 0x0 KECCAK256 PUSH1 0x40 MLOAD DUP1 PUSH1 0x60 ADD PUSH1 0x40 MSTORE SWAP1 DUP2 PUSH1 0x0 DUP3 ADD PUSH1 0x0 SWAP1 SLOAD SWAP1 PUSH2 0x100 EXP SWAP1 DIV PUSH20 0xFFFFFFFFFFFFFFFFFFFFFFFFFFFFFFFFFFFFFFFF AND PUSH20 0xFFFFFFFFFFFFFFFFFFFFFFFFFFFFFFFFFFFFFFFF AND PUSH20 0xFFFFFFFFFFFFFFFFFFFFFFFFFFFFFFFFFFFFFFFF AND DUP2 MSTORE PUSH1 0x20 ADD PUSH1 0x0 DUP3 ADD PUSH1 0x14 SWAP1 SLOAD SWAP1 PUSH2 0x100 EXP SWAP1 DIV PUSH8 0xFFFFFFFFFFFFFFFF AND PUSH8 0xFFFFFFFFFFFFFFFF AND PUSH8 0xFFFFFFFFFFFFFFFF AND DUP2 MSTORE PUSH1 0x20 ADD PUSH1 0x0 DUP3 ADD PUSH1 0x1C SWAP1 SLOAD SWAP1 PUSH2 0x100 EXP SWAP1 DIV PUSH1 0xFF AND ISZERO ISZERO ISZERO ISZERO DUP2 MSTORE POP POP SWAP3 POP DUP3 PUSH1 0x40 ADD MLOAD PUSH2 0x1C10 JUMPI PUSH1 0x0 PUSH20 0xFFFFFFFFFFFFFFFFFFFFFFFFFFFFFFFFFFFFFFFF AND DUP4 PUSH1 0x0 ADD MLOAD PUSH20 0xFFFFFFFFFFFFFFFFFFFFFFFFFFFFFFFFFFFFFFFF AND EQ PUSH2 0x1BB5 JUMPI DUP3 PUSH1 0x0 ADD MLOAD SWAP2 POP JUMPDEST DUP11 PUSH20 0xFFFFFFFFFFFFFFFFFFFFFFFFFFFFFFFFFFFFFFFF AND DUP3 PUSH20 0xFFFFFFFFFFFFFFFFFFFFFFFFFFFFFFFFFFFFFFFF AND SUB PUSH2 0x1C0F JUMPI DUP1 DUP5 DUP9 DUP1 PUSH1 0x1 ADD SWAP10 POP DUP2 MLOAD DUP2 LT PUSH2 0x1C02 JUMPI PUSH2 0x1C01 PUSH2 0x56F0 JUMP JUMPDEST JUMPDEST PUSH1 0x20 MUL PUSH1 0x20 ADD ADD DUP2 DUP2 MSTORE POP POP JUMPDEST JUMPDEST DUP1 PUSH1 0x1 ADD SWAP1 POP PUSH2 0x1A94 JUMP JUMPDEST POP DUP6 DUP4 MSTORE DUP3 SWAP7 POP POP POP POP POP POP POP JUMPDEST SWAP4 SWAP3 POP POP POP JUMP JUMPDEST PUSH2 0x1C38 PUSH2 0x338E JUMP JUMPDEST PUSH2 0x1C6E JUMPI PUSH1 0x40 MLOAD PUSH32 0xDF5C6B0200000000000000000000000000000000000000000000000000000000 DUP2 MSTORE PUSH1 0x4 ADD PUSH1 0x40 MLOAD DUP1 SWAP2 SUB SWAP1 REVERT JUMPDEST PUSH2 0x1C79 DUP4 DUP4 DUP4 PUSH2 0x3BAA JUMP JUMPDEST POP POP POP JUMP JUMPDEST PUSH2 0x1C86 PUSH2 0x2929 JUMP JUMPDEST PUSH20 0xFFFFFFFFFFFFFFFFFFFFFFFFFFFFFFFFFFFFFFFF AND DUP3 PUSH20 0xFFFFFFFFFFFFFFFFFFFFFFFFFFFFFFFFFFFFFFFF AND SUB PUSH2 0x1CEA JUMPI PUSH1 0x40 MLOAD PUSH32 0xB06307DB00000000000000000000000000000000000000000000000000000000 DUP2 MSTORE PUSH1 0x4 ADD PUSH1 0x40 MLOAD DUP1 SWAP2 SUB SWAP1 REVERT JUMPDEST DUP1 PUSH1 0x7 PUSH1 0x0 PUSH2 0x1CF7 PUSH2 0x2929 JUMP JUMPDEST PUSH20 0xFFFFFFFFFFFFFFFFFFFFFFFFFFFFFFFFFFFFFFFF AND PUSH20 0xFFFFFFFFFFFFFFFFFFFFFFFFFFFFFFFFFFFFFFFF AND DUP2 MSTORE PUSH1 0x20 ADD SWAP1 DUP2 MSTORE PUSH1 0x20 ADD PUSH1 0x0 KECCAK256 PUSH1 0x0 DUP5 PUSH20 0xFFFFFFFFFFFFFFFFFFFFFFFFFFFFFFFFFFFFFFFF AND PUSH20 0xFFFFFFFFFFFFFFFFFFFFFFFFFFFFFFFFFFFFFFFF AND DUP2 MSTORE PUSH1 0x20 ADD SWAP1 DUP2 MSTORE PUSH1 0x20 ADD PUSH1 0x0 KECCAK256 PUSH1 0x0 PUSH2 0x100 EXP DUP2 SLOAD DUP2 PUSH1 0xFF MUL NOT AND SWAP1 DUP4 ISZERO ISZERO MUL OR SWAP1 SSTORE POP DUP2 PUSH20 0xFFFFFFFFFFFFFFFFFFFFFFFFFFFFFFFFFFFFFFFF AND PUSH2 0x1DA4 PUSH2 0x2929 JUMP JUMPDEST PUSH20 0xFFFFFFFFFFFFFFFFFFFFFFFFFFFFFFFFFFFFFFFF AND PUSH32 0x17307EAB39AB6107E8899845AD3D59BD9653F200F220920489CA2B5937696C31 DUP4 PUSH1 0x40 MLOAD PUSH2 0x1DE9 SWAP2 SWAP1 PUSH2 0x45D0 JUMP JUMPDEST PUSH1 0x40 MLOAD DUP1 SWAP2 SUB SWAP1 LOG3 POP POP JUMP JUMPDEST PUSH1 0x11 SLOAD DUP2 JUMP JUMPDEST PUSH1 0x60 DUP3 DUP3 SWAP1 POP PUSH8 0xFFFFFFFFFFFFFFFF DUP2 GT ISZERO PUSH2 0x1E1A JUMPI PUSH2 0x1E19 PUSH2 0x43A9 JUMP JUMPDEST JUMPDEST PUSH1 0x40 MLOAD SWAP1 DUP1 DUP3 MSTORE DUP1 PUSH1 0x20 MUL PUSH1 0x20 ADD DUP3 ADD PUSH1 0x40 MSTORE DUP1 ISZERO PUSH2 0x1E4D JUMPI DUP2 PUSH1 0x20 ADD JUMPDEST PUSH1 0x60 DUP2 MSTORE PUSH1 0x20 ADD SWAP1 PUSH1 0x1 SWAP1 SUB SWAP1 DUP2 PUSH2 0x1E38 JUMPI SWAP1 POP JUMPDEST POP SWAP1 POP PUSH1 0x0 PUSH2 0x1E5A PUSH2 0x2929 JUMP JUMPDEST SWAP1 POP PUSH1 0x0 DUP2 PUSH20 0xFFFFFFFFFFFFFFFFFFFFFFFFFFFFFFFFFFFFFFFF AND CALLER PUSH20 0xFFFFFFFFFFFFFFFFFFFFFFFFFFFFFFFFFFFFFFFF AND EQ ISZERO SWAP1 POP PUSH1 0x0 JUMPDEST DUP6 DUP6 SWAP1 POP DUP2 LT ISZERO PUSH2 0x1FBA JUMPI DUP2 ISZERO PUSH2 0x1F17 JUMPI PUSH2 0x1EF4 ADDRESS DUP8 DUP8 DUP5 DUP2 DUP2 LT PUSH2 0x1EBB JUMPI PUSH2 0x1EBA PUSH2 0x56F0 JUMP JUMPDEST JUMPDEST SWAP1 POP PUSH1 0x20 MUL DUP2 ADD SWAP1 PUSH2 0x1ECD SWAP2 SWAP1 PUSH2 0x588C JUMP JUMPDEST DUP7 PUSH1 0x40 MLOAD PUSH1 0x20 ADD PUSH2 0x1EE0 SWAP4 SWAP3 SWAP2 SWAP1 PUSH2 0x5967 JUMP JUMPDEST PUSH1 0x40 MLOAD PUSH1 0x20 DUP2 DUP4 SUB SUB DUP2 MSTORE SWAP1 PUSH1 0x40 MSTORE PUSH2 0x3CDB JUMP JUMPDEST DUP5 DUP3 DUP2 MLOAD DUP2 LT PUSH2 0x1F07 JUMPI PUSH2 0x1F06 PUSH2 0x56F0 JUMP JUMPDEST JUMPDEST PUSH1 0x20 MUL PUSH1 0x20 ADD ADD DUP2 SWAP1 MSTORE POP PUSH2 0x1FA7 JUMP JUMPDEST PUSH2 0x1F88 ADDRESS DUP8 DUP8 DUP5 DUP2 DUP2 LT PUSH2 0x1F2E JUMPI PUSH2 0x1F2D PUSH2 0x56F0 JUMP JUMPDEST JUMPDEST SWAP1 POP PUSH1 0x20 MUL DUP2 ADD SWAP1 PUSH2 0x1F40 SWAP2 SWAP1 PUSH2 0x588C JUMP JUMPDEST DUP1 DUP1 PUSH1 0x1F ADD PUSH1 0x20 DUP1 SWAP2 DIV MUL PUSH1 0x20 ADD PUSH1 0x40 MLOAD SWAP1 DUP2 ADD PUSH1 0x40 MSTORE DUP1 SWAP4 SWAP3 SWAP2 SWAP1 DUP2 DUP2 MSTORE PUSH1 0x20 ADD DUP4 DUP4 DUP1 DUP3 DUP5 CALLDATACOPY PUSH1 0x0 DUP2 DUP5 ADD MSTORE PUSH1 0x1F NOT PUSH1 0x1F DUP3 ADD AND SWAP1 POP DUP1 DUP4 ADD SWAP3 POP POP POP POP POP POP POP PUSH2 0x3CDB JUMP JUMPDEST DUP5 DUP3 DUP2 MLOAD DUP2 LT PUSH2 0x1F9B JUMPI PUSH2 0x1F9A PUSH2 0x56F0 JUMP JUMPDEST JUMPDEST PUSH1 0x20 MUL PUSH1 0x20 ADD ADD DUP2 SWAP1 MSTORE POP JUMPDEST DUP1 DUP1 PUSH2 0x1FB2 SWAP1 PUSH2 0x57F0 JUMP JUMPDEST SWAP2 POP POP PUSH2 0x1E93 JUMP JUMPDEST POP POP POP SWAP3 SWAP2 POP POP JUMP JUMPDEST PUSH1 0x0 DUP1 PUSH1 0xA PUSH1 0x0 SWAP1 SLOAD SWAP1 PUSH2 0x100 EXP SWAP1 DIV PUSH20 0xFFFFFFFFFFFFFFFFFFFFFFFFFFFFFFFFFFFFFFFF AND PUSH1 0xA PUSH1 0x14 SWAP1 SLOAD SWAP1 PUSH2 0x100 EXP SWAP1 DIV PUSH2 0xFFFF AND SWAP2 POP SWAP2 POP SWAP1 SWAP2 JUMP JUMPDEST PUSH2 0x200D DUP5 DUP5 DUP5 PUSH2 0x2AEB JUMP JUMPDEST PUSH2 0x202C DUP4 PUSH20 0xFFFFFFFFFFFFFFFFFFFFFFFFFFFFFFFFFFFFFFFF AND PUSH2 0x3D08 JUMP JUMPDEST ISZERO PUSH2 0x2074 JUMPI PUSH2 0x203D DUP5 DUP5 DUP5 DUP5 PUSH2 0x3D2B JUMP JUMPDEST PUSH2 0x2073 JUMPI PUSH1 0x40 MLOAD PUSH32 0xD1A57ED600000000000000000000000000000000000000000000000000000000 DUP2 MSTORE PUSH1 0x4 ADD PUSH1 0x40 MLOAD DUP1 SWAP2 SUB SWAP1 REVERT JUMPDEST JUMPDEST POP POP POP POP JUMP JUMPDEST PUSH2 0x2082 PUSH2 0x42D9 JUMP JUMPDEST PUSH2 0x208A PUSH2 0x42D9 JUMP JUMPDEST PUSH2 0x2092 PUSH2 0x2AE6 JUMP JUMPDEST DUP4 LT DUP1 PUSH2 0x20A1 JUMPI POP PUSH1 0x0 SLOAD DUP4 LT ISZERO JUMPDEST ISZERO PUSH2 0x20AF JUMPI DUP1 SWAP2 POP POP PUSH2 0x2192 JUMP JUMPDEST PUSH1 0x4 PUSH1 0x0 DUP5 DUP2 MSTORE PUSH1 0x20 ADD SWAP1 DUP2 MSTORE PUSH1 0x20 ADD PUSH1 0x0 KECCAK256 PUSH1 0x40 MLOAD DUP1 PUSH1 0x60 ADD PUSH1 0x40 MSTORE SWAP1 DUP2 PUSH1 0x0 DUP3 ADD PUSH1 0x0 SWAP1 SLOAD SWAP1 PUSH2 0x100 EXP SWAP1 DIV PUSH20 0xFFFFFFFFFFFFFFFFFFFFFFFFFFFFFFFFFFFFFFFF AND PUSH20 0xFFFFFFFFFFFFFFFFFFFFFFFFFFFFFFFFFFFFFFFF AND PUSH20 0xFFFFFFFFFFFFFFFFFFFFFFFFFFFFFFFFFFFFFFFF AND DUP2 MSTORE PUSH1 0x20 ADD PUSH1 0x0 DUP3 ADD PUSH1 0x14 SWAP1 SLOAD SWAP1 PUSH2 0x100 EXP SWAP1 DIV PUSH8 0xFFFFFFFFFFFFFFFF AND PUSH8 0xFFFFFFFFFFFFFFFF AND PUSH8 0xFFFFFFFFFFFFFFFF AND DUP2 MSTORE PUSH1 0x20 ADD PUSH1 0x0 DUP3 ADD PUSH1 0x1C SWAP1 SLOAD SWAP1 PUSH2 0x100 EXP SWAP1 DIV PUSH1 0xFF AND ISZERO ISZERO ISZERO ISZERO DUP2 MSTORE POP POP SWAP1 POP DUP1 PUSH1 0x40 ADD MLOAD ISZERO PUSH2 0x2185 JUMPI DUP1 SWAP2 POP POP PUSH2 0x2192 JUMP JUMPDEST PUSH2 0x218E DUP4 PUSH2 0x37A0 JUMP JUMPDEST SWAP2 POP POP JUMPDEST SWAP2 SWAP1 POP JUMP JUMPDEST PUSH1 0x60 PUSH1 0x0 PUSH1 0xF PUSH1 0x0 DUP5 DUP2 MSTORE PUSH1 0x20 ADD SWAP1 DUP2 MSTORE PUSH1 0x20 ADD PUSH1 0x0 KECCAK256 DUP1 SLOAD PUSH2 0x21B9 SWAP1 PUSH2 0x53A5 JUMP JUMPDEST DUP1 PUSH1 0x1F ADD PUSH1 0x20 DUP1 SWAP2 DIV MUL PUSH1 0x20 ADD PUSH1 0x40 MLOAD SWAP1 DUP2 ADD PUSH1 0x40 MSTORE DUP1 SWAP3 SWAP2 SWAP1 DUP2 DUP2 MSTORE PUSH1 0x20 ADD DUP3 DUP1 SLOAD PUSH2 0x21E5 SWAP1 PUSH2 0x53A5 JUMP JUMPDEST DUP1 ISZERO PUSH2 0x2232 JUMPI DUP1 PUSH1 0x1F LT PUSH2 0x2207 JUMPI PUSH2 0x100 DUP1 DUP4 SLOAD DIV MUL DUP4 MSTORE SWAP2 PUSH1 0x20 ADD SWAP2 PUSH2 0x2232 JUMP JUMPDEST DUP3 ADD SWAP2 SWAP1 PUSH1 0x0 MSTORE PUSH1 0x20 PUSH1 0x0 KECCAK256 SWAP1 JUMPDEST DUP2 SLOAD DUP2 MSTORE SWAP1 PUSH1 0x1 ADD SWAP1 PUSH1 0x20 ADD DUP1 DUP4 GT PUSH2 0x2215 JUMPI DUP3 SWAP1 SUB PUSH1 0x1F AND DUP3 ADD SWAP2 JUMPDEST POP POP POP POP POP SWAP1 POP PUSH1 0x0 DUP2 MLOAD GT ISZERO PUSH2 0x224C JUMPI DUP1 SWAP2 POP POP PUSH2 0x2288 JUMP JUMPDEST PUSH1 0x0 PUSH2 0x2257 DUP5 PUSH2 0x3E7B JUMP JUMPDEST SWAP1 POP DUP1 PUSH2 0x2263 DUP6 PUSH2 0x4022 JUMP JUMPDEST PUSH1 0x40 MLOAD PUSH1 0x20 ADD PUSH2 0x2274 SWAP3 SWAP2 SWAP1 PUSH2 0x59CD JUMP JUMPDEST PUSH1 0x40 MLOAD PUSH1 0x20 DUP2 DUP4 SUB SUB DUP2 MSTORE SWAP1 PUSH1 0x40 MSTORE SWAP3 POP POP POP JUMPDEST SWAP2 SWAP1 POP JUMP JUMPDEST PUSH1 0x8 DUP1 SLOAD PUSH2 0x229A SWAP1 PUSH2 0x53A5 JUMP JUMPDEST DUP1 PUSH1 0x1F ADD PUSH1 0x20 DUP1 SWAP2 DIV MUL PUSH1 0x20 ADD PUSH1 0x40 MLOAD SWAP1 DUP2 ADD PUSH1 0x40 MSTORE DUP1 SWAP3 SWAP2 SWAP1 DUP2 DUP2 MSTORE PUSH1 0x20 ADD DUP3 DUP1 SLOAD PUSH2 0x22C6 SWAP1 PUSH2 0x53A5 JUMP JUMPDEST DUP1 ISZERO PUSH2 0x2313 JUMPI DUP1 PUSH1 0x1F LT PUSH2 0x22E8 JUMPI PUSH2 0x100 DUP1 DUP4 SLOAD DIV MUL DUP4 MSTORE SWAP2 PUSH1 0x20 ADD SWAP2 PUSH2 0x2313 JUMP JUMPDEST DUP3 ADD SWAP2 SWAP1 PUSH1 0x0 MSTORE PUSH1 0x20 PUSH1 0x0 KECCAK256 SWAP1 JUMPDEST DUP2 SLOAD DUP2 MSTORE SWAP1 PUSH1 0x1 ADD SWAP1 PUSH1 0x20 ADD DUP1 DUP4 GT PUSH2 0x22F6 JUMPI DUP3 SWAP1 SUB PUSH1 0x1F AND DUP3 ADD SWAP2 JUMPDEST POP POP POP POP POP DUP2 JUMP JUMPDEST PUSH1 0x0 PUSH1 0x7 PUSH1 0x0 DUP5 PUSH20 0xFFFFFFFFFFFFFFFFFFFFFFFFFFFFFFFFFFFFFFFF AND PUSH20 0xFFFFFFFFFFFFFFFFFFFFFFFFFFFFFFFFFFFFFFFF AND DUP2 MSTORE PUSH1 0x20 ADD SWAP1 DUP2 MSTORE PUSH1 0x20 ADD PUSH1 0x0 KECCAK256 PUSH1 0x0 DUP4 PUSH20 0xFFFFFFFFFFFFFFFFFFFFFFFFFFFFFFFFFFFFFFFF AND PUSH20 0xFFFFFFFFFFFFFFFFFFFFFFFFFFFFFFFFFFFFFFFF AND DUP2 MSTORE PUSH1 0x20 ADD SWAP1 DUP2 MSTORE PUSH1 0x20 ADD PUSH1 0x0 KECCAK256 PUSH1 0x0 SWAP1 SLOAD SWAP1 PUSH2 0x100 EXP SWAP1 DIV PUSH1 0xFF AND SWAP1 POP SWAP3 SWAP2 POP POP JUMP JUMPDEST PUSH1 0x60 PUSH1 0x10 PUSH1 0x0 DUP4 DUP2 MSTORE PUSH1 0x20 ADD SWAP1 DUP2 MSTORE PUSH1 0x20 ADD PUSH1 0x0 KECCAK256 PUSH1 0x7 ADD DUP1 SLOAD PUSH2 0x23D2 SWAP1 PUSH2 0x53A5 JUMP JUMPDEST DUP1 PUSH1 0x1F ADD PUSH1 0x20 DUP1 SWAP2 DIV MUL PUSH1 0x20 ADD PUSH1 0x40 MLOAD SWAP1 DUP2 ADD PUSH1 0x40 MSTORE DUP1 SWAP3 SWAP2 SWAP1 DUP2 DUP2 MSTORE PUSH1 0x20 ADD DUP3 DUP1 SLOAD PUSH2 0x23FE SWAP1 PUSH2 0x53A5 JUMP JUMPDEST DUP1 ISZERO PUSH2 0x244B JUMPI DUP1 PUSH1 0x1F LT PUSH2 0x2420 JUMPI PUSH2 0x100 DUP1 DUP4 SLOAD DIV MUL DUP4 MSTORE SWAP2 PUSH1 0x20 ADD SWAP2 PUSH2 0x244B JUMP JUMPDEST DUP3 ADD SWAP2 SWAP1 PUSH1 0x0 MSTORE PUSH1 0x20 PUSH1 0x0 KECCAK256 SWAP1 JUMPDEST DUP2 SLOAD DUP2 MSTORE SWAP1 PUSH1 0x1 ADD SWAP1 PUSH1 0x20 ADD DUP1 DUP4 GT PUSH2 0x242E JUMPI DUP3 SWAP1 SUB PUSH1 0x1F AND DUP3 ADD SWAP2 JUMPDEST POP POP POP POP POP SWAP1 POP SWAP2 SWAP1 POP JUMP JUMPDEST PUSH1 0x0 PUSH2 0x2461 PUSH2 0x186B JUMP JUMPDEST PUSH20 0xFFFFFFFFFFFFFFFFFFFFFFFFFFFFFFFFFFFFFFFF AND CALLER PUSH20 0xFFFFFFFFFFFFFFFFFFFFFFFFFFFFFFFFFFFFFFFF AND EQ SWAP1 POP SWAP1 JUMP JUMPDEST PUSH1 0x0 PUSH1 0xF PUSH1 0x0 DUP5 DUP2 MSTORE PUSH1 0x20 ADD SWAP1 DUP2 MSTORE PUSH1 0x20 ADD PUSH1 0x0 KECCAK256 DUP1 SLOAD PUSH2 0x24B4 SWAP1 PUSH2 0x53A5 JUMP JUMPDEST SWAP1 POP EQ PUSH2 0x24F6 JUMPI PUSH1 0x40 MLOAD PUSH32 0x8C379A000000000000000000000000000000000000000000000000000000000 DUP2 MSTORE PUSH1 0x4 ADD PUSH2 0x24ED SWAP1 PUSH2 0x5A3D JUMP JUMPDEST PUSH1 0x40 MLOAD DUP1 SWAP2 SUB SWAP1 REVERT JUMPDEST DUP1 PUSH1 0xF PUSH1 0x0 DUP5 DUP2 MSTORE PUSH1 0x20 ADD SWAP1 DUP2 MSTORE PUSH1 0x20 ADD PUSH1 0x0 KECCAK256 SWAP1 DUP2 PUSH2 0x2516 SWAP2 SWAP1 PUSH2 0x55EE JUMP JUMPDEST POP POP POP JUMP JUMPDEST PUSH1 0x0 DUP1 SLOAD SWAP1 POP PUSH1 0x0 PUSH20 0xFFFFFFFFFFFFFFFFFFFFFFFFFFFFFFFFFFFFFFFF AND DUP5 PUSH20 0xFFFFFFFFFFFFFFFFFFFFFFFFFFFFFFFFFFFFFFFF AND SUB PUSH2 0x2587 JUMPI PUSH1 0x40 MLOAD PUSH32 0x2E07630000000000000000000000000000000000000000000000000000000000 DUP2 MSTORE PUSH1 0x4 ADD PUSH1 0x40 MLOAD DUP1 SWAP2 SUB SWAP1 REVERT JUMPDEST PUSH1 0x0 DUP4 SUB PUSH2 0x25C1 JUMPI PUSH1 0x40 MLOAD PUSH32 0xB562E8DD00000000000000000000000000000000000000000000000000000000 DUP2 MSTORE PUSH1 0x4 ADD PUSH1 0x40 MLOAD DUP1 SWAP2 SUB SWAP1 REVERT JUMPDEST PUSH2 0x25CE PUSH1 0x0 DUP6 DUP4 DUP7 PUSH2 0x4182 JUMP JUMPDEST DUP3 PUSH1 0x5 PUSH1 0x0 DUP7 PUSH20 0xFFFFFFFFFFFFFFFFFFFFFFFFFFFFFFFFFFFFFFFF AND PUSH20 0xFFFFFFFFFFFFFFFFFFFFFFFFFFFFFFFFFFFFFFFF AND DUP2 MSTORE PUSH1 0x20 ADD SWAP1 DUP2 MSTORE PUSH1 0x20 ADD PUSH1 0x0 KECCAK256 PUSH1 0x0 ADD PUSH1 0x0 DUP3 DUP3 DUP3 SWAP1 SLOAD SWAP1 PUSH2 0x100 EXP SWAP1 DIV PUSH8 0xFFFFFFFFFFFFFFFF AND ADD SWAP3 POP PUSH2 0x100 EXP DUP2 SLOAD DUP2 PUSH8 0xFFFFFFFFFFFFFFFF MUL NOT AND SWAP1 DUP4 PUSH8 0xFFFFFFFFFFFFFFFF AND MUL OR SWAP1 SSTORE POP DUP3 PUSH1 0x5 PUSH1 0x0 DUP7 PUSH20 0xFFFFFFFFFFFFFFFFFFFFFFFFFFFFFFFFFFFFFFFF AND PUSH20 0xFFFFFFFFFFFFFFFFFFFFFFFFFFFFFFFFFFFFFFFF AND DUP2 MSTORE PUSH1 0x20 ADD SWAP1 DUP2 MSTORE PUSH1 0x20 ADD PUSH1 0x0 KECCAK256 PUSH1 0x0 ADD PUSH1 0x8 DUP3 DUP3 DUP3 SWAP1 SLOAD SWAP1 PUSH2 0x100 EXP SWAP1 DIV PUSH8 0xFFFFFFFFFFFFFFFF AND ADD SWAP3 POP PUSH2 0x100 EXP DUP2 SLOAD DUP2 PUSH8 0xFFFFFFFFFFFFFFFF MUL NOT AND SWAP1 DUP4 PUSH8 0xFFFFFFFFFFFFFFFF AND MUL OR SWAP1 SSTORE POP DUP4 PUSH1 0x4 PUSH1 0x0 DUP4 DUP2 MSTORE PUSH1 0x20 ADD SWAP1 DUP2 MSTORE PUSH1 0x20 ADD PUSH1 0x0 KECCAK256 PUSH1 0x0 ADD PUSH1 0x0 PUSH2 0x100 EXP DUP2 SLOAD DUP2 PUSH20 0xFFFFFFFFFFFFFFFFFFFFFFFFFFFFFFFFFFFFFFFF MUL NOT AND SWAP1 DUP4 PUSH20 0xFFFFFFFFFFFFFFFFFFFFFFFFFFFFFFFFFFFFFFFF AND MUL OR SWAP1 SSTORE POP TIMESTAMP PUSH1 0x4 PUSH1 0x0 DUP4 DUP2 MSTORE PUSH1 0x20 ADD SWAP1 DUP2 MSTORE PUSH1 0x20 ADD PUSH1 0x0 KECCAK256 PUSH1 0x0 ADD PUSH1 0x14 PUSH2 0x100 EXP DUP2 SLOAD DUP2 PUSH8 0xFFFFFFFFFFFFFFFF MUL NOT AND SWAP1 DUP4 PUSH8 0xFFFFFFFFFFFFFFFF AND MUL OR SWAP1 SSTORE POP PUSH1 0x0 DUP2 SWAP1 POP PUSH1 0x0 DUP5 DUP3 ADD SWAP1 POP PUSH2 0x278F DUP7 PUSH20 0xFFFFFFFFFFFFFFFFFFFFFFFFFFFFFFFFFFFFFFFF AND PUSH2 0x3D08 JUMP JUMPDEST ISZERO PUSH2 0x2854 JUMPI JUMPDEST DUP2 DUP7 PUSH20 0xFFFFFFFFFFFFFFFFFFFFFFFFFFFFFFFFFFFFFFFF AND PUSH1 0x0 PUSH20 0xFFFFFFFFFFFFFFFFFFFFFFFFFFFFFFFFFFFFFFFF AND PUSH32 0xDDF252AD1BE2C89B69C2B068FC378DAA952BA7F163C4A11628F55A4DF523B3EF PUSH1 0x40 MLOAD PUSH1 0x40 MLOAD DUP1 SWAP2 SUB SWAP1 LOG4 PUSH2 0x2804 PUSH1 0x0 DUP8 DUP5 DUP1 PUSH1 0x1 ADD SWAP6 POP DUP8 PUSH2 0x3D2B JUMP JUMPDEST PUSH2 0x283A JUMPI PUSH1 0x40 MLOAD PUSH32 0xD1A57ED600000000000000000000000000000000000000000000000000000000 DUP2 MSTORE PUSH1 0x4 ADD PUSH1 0x40 MLOAD DUP1 SWAP2 SUB SWAP1 REVERT JUMPDEST DUP1 DUP3 LT PUSH2 0x2795 JUMPI DUP3 PUSH1 0x0 SLOAD EQ PUSH2 0x284F JUMPI PUSH1 0x0 DUP1 REVERT JUMPDEST PUSH2 0x28BF JUMP JUMPDEST JUMPDEST DUP2 DUP1 PUSH1 0x1 ADD SWAP3 POP DUP7 PUSH20 0xFFFFFFFFFFFFFFFFFFFFFFFFFFFFFFFFFFFFFFFF AND PUSH1 0x0 PUSH20 0xFFFFFFFFFFFFFFFFFFFFFFFFFFFFFFFFFFFFFFFF AND PUSH32 0xDDF252AD1BE2C89B69C2B068FC378DAA952BA7F163C4A11628F55A4DF523B3EF PUSH1 0x40 MLOAD PUSH1 0x40 MLOAD DUP1 SWAP2 SUB SWAP1 LOG4 DUP1 DUP3 LT PUSH2 0x2855 JUMPI JUMPDEST DUP2 PUSH1 0x0 DUP2 SWAP1 SSTORE POP POP POP PUSH2 0x28D5 PUSH1 0x0 DUP6 DUP4 DUP7 PUSH2 0x4188 JUMP JUMPDEST POP POP POP POP JUMP JUMPDEST PUSH1 0x0 DUP2 PUSH2 0x28E6 PUSH2 0x2AE6 JUMP JUMPDEST GT ISZERO DUP1 ISZERO PUSH2 0x28F5 JUMPI POP PUSH1 0x0 SLOAD DUP3 LT JUMPDEST DUP1 ISZERO PUSH2 0x2922 JUMPI POP PUSH1 0x4 PUSH1 0x0 DUP4 DUP2 MSTORE PUSH1 0x20 ADD SWAP1 DUP2 MSTORE PUSH1 0x20 ADD PUSH1 0x0 KECCAK256 PUSH1 0x0 ADD PUSH1 0x1C SWAP1 SLOAD SWAP1 PUSH2 0x100 EXP SWAP1 DIV PUSH1 0xFF AND ISZERO JUMPDEST SWAP1 POP SWAP2 SWAP1 POP JUMP JUMPDEST PUSH1 0x0 CALLER SWAP1 POP SWAP1 JUMP JUMPDEST DUP3 PUSH1 0x6 PUSH1 0x0 DUP5 DUP2 MSTORE PUSH1 0x20 ADD SWAP1 DUP2 MSTORE PUSH1 0x20 ADD PUSH1 0x0 KECCAK256 PUSH1 0x0 PUSH2 0x100 EXP DUP2 SLOAD DUP2 PUSH20 0xFFFFFFFFFFFFFFFFFFFFFFFFFFFFFFFFFFFFFFFF MUL NOT AND SWAP1 DUP4 PUSH20 0xFFFFFFFFFFFFFFFFFFFFFFFFFFFFFFFFFFFFFFFF AND MUL OR SWAP1 SSTORE POP DUP2 DUP4 PUSH20 0xFFFFFFFFFFFFFFFFFFFFFFFFFFFFFFFFFFFFFFFF AND DUP3 PUSH20 0xFFFFFFFFFFFFFFFFFFFFFFFFFFFFFFFFFFFFFFFF AND PUSH32 0x8C5BE1E5EBEC7D5BD14F71427D1E84F3DD0314C0F7B2291E5B200AC8C7C3B925 PUSH1 0x40 MLOAD PUSH1 0x40 MLOAD DUP1 SWAP2 SUB SWAP1 LOG4 POP POP POP JUMP JUMPDEST PUSH1 0x0 PUSH2 0x29ED PUSH2 0x186B JUMP JUMPDEST PUSH20 0xFFFFFFFFFFFFFFFFFFFFFFFFFFFFFFFFFFFFFFFF AND CALLER PUSH20 0xFFFFFFFFFFFFFFFFFFFFFFFFFFFFFFFFFFFFFFFF AND EQ SWAP1 POP SWAP1 JUMP JUMPDEST PUSH1 0x0 PUSH1 0x9 PUSH1 0x0 SWAP1 SLOAD SWAP1 PUSH2 0x100 EXP SWAP1 DIV PUSH20 0xFFFFFFFFFFFFFFFFFFFFFFFFFFFFFFFFFFFFFFFF AND SWAP1 POP DUP2 PUSH1 0x9 PUSH1 0x0 PUSH2 0x100 EXP DUP2 SLOAD DUP2 PUSH20 0xFFFFFFFFFFFFFFFFFFFFFFFFFFFFFFFFFFFFFFFF MUL NOT AND SWAP1 DUP4 PUSH20 0xFFFFFFFFFFFFFFFFFFFFFFFFFFFFFFFFFFFFFFFF AND MUL OR SWAP1 SSTORE POP DUP2 PUSH20 0xFFFFFFFFFFFFFFFFFFFFFFFFFFFFFFFFFFFFFFFF AND DUP2 PUSH20 0xFFFFFFFFFFFFFFFFFFFFFFFFFFFFFFFFFFFFFFFF AND PUSH32 0x8292FCE18FA69EDF4DB7B94EA2E58241DF0AE57F97E0A6C9B29067028BF92D76 PUSH1 0x40 MLOAD PUSH1 0x40 MLOAD DUP1 SWAP2 SUB SWAP1 LOG3 POP POP JUMP JUMPDEST PUSH1 0x0 SWAP1 JUMP JUMPDEST PUSH1 0x0 PUSH2 0x2AF6 DUP3 PUSH2 0x37A0 JUMP JUMPDEST SWAP1 POP DUP4 PUSH20 0xFFFFFFFFFFFFFFFFFFFFFFFFFFFFFFFFFFFFFFFF AND DUP2 PUSH1 0x0 ADD MLOAD PUSH20 0xFFFFFFFFFFFFFFFFFFFFFFFFFFFFFFFFFFFFFFFF AND EQ PUSH2 0x2B61 JUMPI PUSH1 0x40 MLOAD PUSH32 0xA114810000000000000000000000000000000000000000000000000000000000 DUP2 MSTORE PUSH1 0x4 ADD PUSH1 0x40 MLOAD DUP1 SWAP2 SUB SWAP1 REVERT JUMPDEST PUSH1 0x0 DUP5 PUSH20 0xFFFFFFFFFFFFFFFFFFFFFFFFFFFFFFFFFFFFFFFF AND PUSH2 0x2B82 PUSH2 0x2929 JUMP JUMPDEST PUSH20 0xFFFFFFFFFFFFFFFFFFFFFFFFFFFFFFFFFFFFFFFF AND EQ DUP1 PUSH2 0x2BB1 JUMPI POP PUSH2 0x2BB0 DUP6 PUSH2 0x2BAB PUSH2 0x2929 JUMP JUMPDEST PUSH2 0x231B JUMP JUMPDEST JUMPDEST DUP1 PUSH2 0x2BF6 JUMPI POP PUSH2 0x2BBF PUSH2 0x2929 JUMP JUMPDEST PUSH20 0xFFFFFFFFFFFFFFFFFFFFFFFFFFFFFFFFFFFFFFFF AND PUSH2 0x2BDE DUP5 PUSH2 0xA5A JUMP JUMPDEST PUSH20 0xFFFFFFFFFFFFFFFFFFFFFFFFFFFFFFFFFFFFFFFF AND EQ JUMPDEST SWAP1 POP DUP1 PUSH2 0x2C2F JUMPI PUSH1 0x40 MLOAD PUSH32 0x59C896BE00000000000000000000000000000000000000000000000000000000 DUP2 MSTORE PUSH1 0x4 ADD PUSH1 0x40 MLOAD DUP1 SWAP2 SUB SWAP1 REVERT JUMPDEST PUSH1 0x0 PUSH20 0xFFFFFFFFFFFFFFFFFFFFFFFFFFFFFFFFFFFFFFFF AND DUP5 PUSH20 0xFFFFFFFFFFFFFFFFFFFFFFFFFFFFFFFFFFFFFFFF AND SUB PUSH2 0x2C95 JUMPI PUSH1 0x40 MLOAD PUSH32 0xEA553B3400000000000000000000000000000000000000000000000000000000 DUP2 MSTORE PUSH1 0x4 ADD PUSH1 0x40 MLOAD DUP1 SWAP2 SUB SWAP1 REVERT JUMPDEST PUSH2 0x2CA2 DUP6 DUP6 DUP6 PUSH1 0x1 PUSH2 0x4182 JUMP JUMPDEST PUSH2 0x2CAE PUSH1 0x0 DUP5 DUP8 PUSH2 0x2931 JUMP JUMPDEST PUSH1 0x1 PUSH1 0x5 PUSH1 0x0 DUP8 PUSH20 0xFFFFFFFFFFFFFFFFFFFFFFFFFFFFFFFFFFFFFFFF AND PUSH20 0xFFFFFFFFFFFFFFFFFFFFFFFFFFFFFFFFFFFFFFFF AND DUP2 MSTORE PUSH1 0x20 ADD SWAP1 DUP2 MSTORE PUSH1 0x20 ADD PUSH1 0x0 KECCAK256 PUSH1 0x0 ADD PUSH1 0x0 DUP3 DUP3 DUP3 SWAP1 SLOAD SWAP1 PUSH2 0x100 EXP SWAP1 DIV PUSH8 0xFFFFFFFFFFFFFFFF AND SUB SWAP3 POP PUSH2 0x100 EXP DUP2 SLOAD DUP2 PUSH8 0xFFFFFFFFFFFFFFFF MUL NOT AND SWAP1 DUP4 PUSH8 0xFFFFFFFFFFFFFFFF AND MUL OR SWAP1 SSTORE POP PUSH1 0x1 PUSH1 0x5 PUSH1 0x0 DUP7 PUSH20 0xFFFFFFFFFFFFFFFFFFFFFFFFFFFFFFFFFFFFFFFF AND PUSH20 0xFFFFFFFFFFFFFFFFFFFFFFFFFFFFFFFFFFFFFFFF AND DUP2 MSTORE PUSH1 0x20 ADD SWAP1 DUP2 MSTORE PUSH1 0x20 ADD PUSH1 0x0 KECCAK256 PUSH1 0x0 ADD PUSH1 0x0 DUP3 DUP3 DUP3 SWAP1 SLOAD SWAP1 PUSH2 0x100 EXP SWAP1 DIV PUSH8 0xFFFFFFFFFFFFFFFF AND ADD SWAP3 POP PUSH2 0x100 EXP DUP2 SLOAD DUP2 PUSH8 0xFFFFFFFFFFFFFFFF MUL NOT AND SWAP1 DUP4 PUSH8 0xFFFFFFFFFFFFFFFF AND MUL OR SWAP1 SSTORE POP PUSH1 0x0 PUSH1 0x4 PUSH1 0x0 DUP6 DUP2 MSTORE PUSH1 0x20 ADD SWAP1 DUP2 MSTORE PUSH1 0x20 ADD PUSH1 0x0 KECCAK256 SWAP1 POP DUP5 DUP2 PUSH1 0x0 ADD PUSH1 0x0 PUSH2 0x100 EXP DUP2 SLOAD DUP2 PUSH20 0xFFFFFFFFFFFFFFFFFFFFFFFFFFFFFFFFFFFFFFFF MUL NOT AND SWAP1 DUP4 PUSH20 0xFFFFFFFFFFFFFFFFFFFFFFFFFFFFFFFFFFFFFFFF AND MUL OR SWAP1 SSTORE POP TIMESTAMP DUP2 PUSH1 0x0 ADD PUSH1 0x14 PUSH2 0x100 EXP DUP2 SLOAD DUP2 PUSH8 0xFFFFFFFFFFFFFFFF MUL NOT AND SWAP1 DUP4 PUSH8 0xFFFFFFFFFFFFFFFF AND MUL OR SWAP1 SSTORE POP PUSH1 0x0 PUSH1 0x1 DUP6 ADD SWAP1 POP PUSH1 0x0 PUSH1 0x4 PUSH1 0x0 DUP4 DUP2 MSTORE PUSH1 0x20 ADD SWAP1 DUP2 MSTORE PUSH1 0x20 ADD PUSH1 0x0 KECCAK256 SWAP1 POP PUSH1 0x0 PUSH20 0xFFFFFFFFFFFFFFFFFFFFFFFFFFFFFFFFFFFFFFFF AND DUP2 PUSH1 0x0 ADD PUSH1 0x0 SWAP1 SLOAD SWAP1 PUSH2 0x100 EXP SWAP1 DIV PUSH20 0xFFFFFFFFFFFFFFFFFFFFFFFFFFFFFFFFFFFFFFFF AND PUSH20 0xFFFFFFFFFFFFFFFFFFFFFFFFFFFFFFFFFFFFFFFF AND SUB PUSH2 0x2F2D JUMPI PUSH1 0x0 SLOAD DUP3 EQ PUSH2 0x2F2C JUMPI DUP8 DUP2 PUSH1 0x0 ADD PUSH1 0x0 PUSH2 0x100 EXP DUP2 SLOAD DUP2 PUSH20 0xFFFFFFFFFFFFFFFFFFFFFFFFFFFFFFFFFFFFFFFF MUL NOT AND SWAP1 DUP4 PUSH20 0xFFFFFFFFFFFFFFFFFFFFFFFFFFFFFFFFFFFFFFFF AND MUL OR SWAP1 SSTORE POP DUP5 PUSH1 0x20 ADD MLOAD DUP2 PUSH1 0x0 ADD PUSH1 0x14 PUSH2 0x100 EXP DUP2 SLOAD DUP2 PUSH8 0xFFFFFFFFFFFFFFFF MUL NOT AND SWAP1 DUP4 PUSH8 0xFFFFFFFFFFFFFFFF AND MUL OR SWAP1 SSTORE POP JUMPDEST JUMPDEST POP POP POP DUP3 DUP5 PUSH20 0xFFFFFFFFFFFFFFFFFFFFFFFFFFFFFFFFFFFFFFFF AND DUP7 PUSH20 0xFFFFFFFFFFFFFFFFFFFFFFFFFFFFFFFFFFFFFFFF AND PUSH32 0xDDF252AD1BE2C89B69C2B068FC378DAA952BA7F163C4A11628F55A4DF523B3EF PUSH1 0x40 MLOAD PUSH1 0x40 MLOAD DUP1 SWAP2 SUB SWAP1 LOG4 PUSH2 0x2F98 DUP6 DUP6 DUP6 PUSH1 0x1 PUSH2 0x4188 JUMP JUMPDEST POP POP POP POP POP JUMP JUMPDEST PUSH1 0x0 PUSH2 0x2FAA DUP4 PUSH2 0x37A0 JUMP JUMPDEST SWAP1 POP PUSH1 0x0 DUP2 PUSH1 0x0 ADD MLOAD SWAP1 POP DUP3 ISZERO PUSH2 0x308B JUMPI PUSH1 0x0 DUP2 PUSH20 0xFFFFFFFFFFFFFFFFFFFFFFFFFFFFFFFFFFFFFFFF AND PUSH2 0x2FDC PUSH2 0x2929 JUMP JUMPDEST PUSH20 0xFFFFFFFFFFFFFFFFFFFFFFFFFFFFFFFFFFFFFFFF AND EQ DUP1 PUSH2 0x300B JUMPI POP PUSH2 0x300A DUP3 PUSH2 0x3005 PUSH2 0x2929 JUMP JUMPDEST PUSH2 0x231B JUMP JUMPDEST JUMPDEST DUP1 PUSH2 0x3050 JUMPI POP PUSH2 0x3019 PUSH2 0x2929 JUMP JUMPDEST PUSH20 0xFFFFFFFFFFFFFFFFFFFFFFFFFFFFFFFFFFFFFFFF AND PUSH2 0x3038 DUP7 PUSH2 0xA5A JUMP JUMPDEST PUSH20 0xFFFFFFFFFFFFFFFFFFFFFFFFFFFFFFFFFFFFFFFF AND EQ JUMPDEST SWAP1 POP DUP1 PUSH2 0x3089 JUMPI PUSH1 0x40 MLOAD PUSH32 0x59C896BE00000000000000000000000000000000000000000000000000000000 DUP2 MSTORE PUSH1 0x4 ADD PUSH1 0x40 MLOAD DUP1 SWAP2 SUB SWAP1 REVERT JUMPDEST POP JUMPDEST PUSH2 0x3099 DUP2 PUSH1 0x0 DUP7 PUSH1 0x1 PUSH2 0x4182 JUMP JUMPDEST PUSH2 0x30A5 PUSH1 0x0 DUP6 DUP4 PUSH2 0x2931 JUMP JUMPDEST PUSH1 0x0 PUSH1 0x5 PUSH1 0x0 DUP4 PUSH20 0xFFFFFFFFFFFFFFFFFFFFFFFFFFFFFFFFFFFFFFFF AND PUSH20 0xFFFFFFFFFFFFFFFFFFFFFFFFFFFFFFFFFFFFFFFF AND DUP2 MSTORE PUSH1 0x20 ADD SWAP1 DUP2 MSTORE PUSH1 0x20 ADD PUSH1 0x0 KECCAK256 SWAP1 POP PUSH1 0x1 DUP2 PUSH1 0x0 ADD PUSH1 0x0 DUP3 DUP3 DUP3 SWAP1 SLOAD SWAP1 PUSH2 0x100 EXP SWAP1 DIV PUSH8 0xFFFFFFFFFFFFFFFF AND SUB SWAP3 POP PUSH2 0x100 EXP DUP2 SLOAD DUP2 PUSH8 0xFFFFFFFFFFFFFFFF MUL NOT AND SWAP1 DUP4 PUSH8 0xFFFFFFFFFFFFFFFF AND MUL OR SWAP1 SSTORE POP PUSH1 0x1 DUP2 PUSH1 0x0 ADD PUSH1 0x10 DUP3 DUP3 DUP3 SWAP1 SLOAD SWAP1 PUSH2 0x100 EXP SWAP1 DIV PUSH8 0xFFFFFFFFFFFFFFFF AND ADD SWAP3 POP PUSH2 0x100 EXP DUP2 SLOAD DUP2 PUSH8 0xFFFFFFFFFFFFFFFF MUL NOT AND SWAP1 DUP4 PUSH8 0xFFFFFFFFFFFFFFFF AND MUL OR SWAP1 SSTORE POP PUSH1 0x0 PUSH1 0x4 PUSH1 0x0 DUP8 DUP2 MSTORE PUSH1 0x20 ADD SWAP1 DUP2 MSTORE PUSH1 0x20 ADD PUSH1 0x0 KECCAK256 SWAP1 POP DUP3 DUP2 PUSH1 0x0 ADD PUSH1 0x0 PUSH2 0x100 EXP DUP2 SLOAD DUP2 PUSH20 0xFFFFFFFFFFFFFFFFFFFFFFFFFFFFFFFFFFFFFFFF MUL NOT AND SWAP1 DUP4 PUSH20 0xFFFFFFFFFFFFFFFFFFFFFFFFFFFFFFFFFFFFFFFF AND MUL OR SWAP1 SSTORE POP TIMESTAMP DUP2 PUSH1 0x0 ADD PUSH1 0x14 PUSH2 0x100 EXP DUP2 SLOAD DUP2 PUSH8 0xFFFFFFFFFFFFFFFF MUL NOT AND SWAP1 DUP4 PUSH8 0xFFFFFFFFFFFFFFFF AND MUL OR SWAP1 SSTORE POP PUSH1 0x1 DUP2 PUSH1 0x0 ADD PUSH1 0x1C PUSH2 0x100 EXP DUP2 SLOAD DUP2 PUSH1 0xFF MUL NOT AND SWAP1 DUP4 ISZERO ISZERO MUL OR SWAP1 SSTORE POP PUSH1 0x0 PUSH1 0x1 DUP8 ADD SWAP1 POP PUSH1 0x0 PUSH1 0x4 PUSH1 0x0 DUP4 DUP2 MSTORE PUSH1 0x20 ADD SWAP1 DUP2 MSTORE PUSH1 0x20 ADD PUSH1 0x0 KECCAK256 SWAP1 POP PUSH1 0x0 PUSH20 0xFFFFFFFFFFFFFFFFFFFFFFFFFFFFFFFFFFFFFFFF AND DUP2 PUSH1 0x0 ADD PUSH1 0x0 SWAP1 SLOAD SWAP1 PUSH2 0x100 EXP SWAP1 DIV PUSH20 0xFFFFFFFFFFFFFFFFFFFFFFFFFFFFFFFFFFFFFFFF AND PUSH20 0xFFFFFFFFFFFFFFFFFFFFFFFFFFFFFFFFFFFFFFFF AND SUB PUSH2 0x3308 JUMPI PUSH1 0x0 SLOAD DUP3 EQ PUSH2 0x3307 JUMPI DUP5 DUP2 PUSH1 0x0 ADD PUSH1 0x0 PUSH2 0x100 EXP DUP2 SLOAD DUP2 PUSH20 0xFFFFFFFFFFFFFFFFFFFFFFFFFFFFFFFFFFFFFFFF MUL NOT AND SWAP1 DUP4 PUSH20 0xFFFFFFFFFFFFFFFFFFFFFFFFFFFFFFFFFFFFFFFF AND MUL OR SWAP1 SSTORE POP DUP6 PUSH1 0x20 ADD MLOAD DUP2 PUSH1 0x0 ADD PUSH1 0x14 PUSH2 0x100 EXP DUP2 SLOAD DUP2 PUSH8 0xFFFFFFFFFFFFFFFF MUL NOT AND SWAP1 DUP4 PUSH8 0xFFFFFFFFFFFFFFFF AND MUL OR SWAP1 SSTORE POP JUMPDEST JUMPDEST POP POP POP POP DUP4 PUSH1 0x0 PUSH20 0xFFFFFFFFFFFFFFFFFFFFFFFFFFFFFFFFFFFFFFFF AND DUP3 PUSH20 0xFFFFFFFFFFFFFFFFFFFFFFFFFFFFFFFFFFFFFFFF AND PUSH32 0xDDF252AD1BE2C89B69C2B068FC378DAA952BA7F163C4A11628F55A4DF523B3EF PUSH1 0x40 MLOAD PUSH1 0x40 MLOAD DUP1 SWAP2 SUB SWAP1 LOG4 PUSH2 0x3376 DUP2 PUSH1 0x0 DUP7 PUSH1 0x1 PUSH2 0x4188 JUMP JUMPDEST PUSH1 0x1 PUSH1 0x0 DUP2 SLOAD DUP1 SWAP3 SWAP2 SWAP1 PUSH1 0x1 ADD SWAP2 SWAP1 POP SSTORE POP POP POP POP POP JUMP JUMPDEST PUSH1 0x0 PUSH2 0x3398 PUSH2 0x186B JUMP JUMPDEST PUSH20 0xFFFFFFFFFFFFFFFFFFFFFFFFFFFFFFFFFFFFFFFF AND CALLER PUSH20 0xFFFFFFFFFFFFFFFFFFFFFFFFFFFFFFFFFFFFFFFF AND EQ SWAP1 POP SWAP1 JUMP JUMPDEST PUSH2 0x2710 DUP2 GT ISZERO PUSH2 0x3416 JUMPI PUSH2 0x2710 DUP2 PUSH1 0x40 MLOAD PUSH32 0x5249856800000000000000000000000000000000000000000000000000000000 DUP2 MSTORE PUSH1 0x4 ADD PUSH2 0x340D SWAP3 SWAP2 SWAP1 PUSH2 0x5A98 JUMP JUMPDEST PUSH1 0x40 MLOAD DUP1 SWAP2 SUB SWAP1 REVERT JUMPDEST DUP2 PUSH1 0xA PUSH1 0x0 PUSH2 0x100 EXP DUP2 SLOAD DUP2 PUSH20 0xFFFFFFFFFFFFFFFFFFFFFFFFFFFFFFFFFFFFFFFF MUL NOT AND SWAP1 DUP4 PUSH20 0xFFFFFFFFFFFFFFFFFFFFFFFFFFFFFFFFFFFFFFFF AND MUL OR SWAP1 SSTORE POP DUP1 PUSH1 0xA PUSH1 0x14 PUSH2 0x100 EXP DUP2 SLOAD DUP2 PUSH2 0xFFFF MUL NOT AND SWAP1 DUP4 PUSH2 0xFFFF AND MUL OR SWAP1 SSTORE POP DUP2 PUSH20 0xFFFFFFFFFFFFFFFFFFFFFFFFFFFFFFFFFFFFFFFF AND PUSH32 0x90D7EC04BCB8978719414F82E52E4CB651DB41D0E6F8CEA6118C2191E6183ADB DUP3 PUSH1 0x40 MLOAD PUSH2 0x34BA SWAP2 SWAP1 PUSH2 0x4795 JUMP JUMPDEST PUSH1 0x40 MLOAD DUP1 SWAP2 SUB SWAP1 LOG2 POP POP JUMP JUMPDEST PUSH1 0x0 DUP1 SLOAD SWAP1 POP PUSH1 0x0 PUSH20 0xFFFFFFFFFFFFFFFFFFFFFFFFFFFFFFFFFFFFFFFF AND DUP4 PUSH20 0xFFFFFFFFFFFFFFFFFFFFFFFFFFFFFFFFFFFFFFFF AND SUB PUSH2 0x3532 JUMPI PUSH1 0x40 MLOAD PUSH32 0x2E07630000000000000000000000000000000000000000000000000000000000 DUP2 MSTORE PUSH1 0x4 ADD PUSH1 0x40 MLOAD DUP1 SWAP2 SUB SWAP1 REVERT JUMPDEST PUSH1 0x0 DUP3 SUB PUSH2 0x356C JUMPI PUSH1 0x40 MLOAD PUSH32 0xB562E8DD00000000000000000000000000000000000000000000000000000000 DUP2 MSTORE PUSH1 0x4 ADD PUSH1 0x40 MLOAD DUP1 SWAP2 SUB SWAP1 REVERT JUMPDEST PUSH2 0x3579 PUSH1 0x0 DUP5 DUP4 DUP6 PUSH2 0x4182 JUMP JUMPDEST DUP2 PUSH1 0x5 PUSH1 0x0 DUP6 PUSH20 0xFFFFFFFFFFFFFFFFFFFFFFFFFFFFFFFFFFFFFFFF AND PUSH20 0xFFFFFFFFFFFFFFFFFFFFFFFFFFFFFFFFFFFFFFFF AND DUP2 MSTORE PUSH1 0x20 ADD SWAP1 DUP2 MSTORE PUSH1 0x20 ADD PUSH1 0x0 KECCAK256 PUSH1 0x0 ADD PUSH1 0x0 DUP3 DUP3 DUP3 SWAP1 SLOAD SWAP1 PUSH2 0x100 EXP SWAP1 DIV PUSH8 0xFFFFFFFFFFFFFFFF AND ADD SWAP3 POP PUSH2 0x100 EXP DUP2 SLOAD DUP2 PUSH8 0xFFFFFFFFFFFFFFFF MUL NOT AND SWAP1 DUP4 PUSH8 0xFFFFFFFFFFFFFFFF AND MUL OR SWAP1 SSTORE POP DUP2 PUSH1 0x5 PUSH1 0x0 DUP6 PUSH20 0xFFFFFFFFFFFFFFFFFFFFFFFFFFFFFFFFFFFFFFFF AND PUSH20 0xFFFFFFFFFFFFFFFFFFFFFFFFFFFFFFFFFFFFFFFF AND DUP2 MSTORE PUSH1 0x20 ADD SWAP1 DUP2 MSTORE PUSH1 0x20 ADD PUSH1 0x0 KECCAK256 PUSH1 0x0 ADD PUSH1 0x8 DUP3 DUP3 DUP3 SWAP1 SLOAD SWAP1 PUSH2 0x100 EXP SWAP1 DIV PUSH8 0xFFFFFFFFFFFFFFFF AND ADD SWAP3 POP PUSH2 0x100 EXP DUP2 SLOAD DUP2 PUSH8 0xFFFFFFFFFFFFFFFF MUL NOT AND SWAP1 DUP4 PUSH8 0xFFFFFFFFFFFFFFFF AND MUL OR SWAP1 SSTORE POP DUP3 PUSH1 0x4 PUSH1 0x0 DUP4 DUP2 MSTORE PUSH1 0x20 ADD SWAP1 DUP2 MSTORE PUSH1 0x20 ADD PUSH1 0x0 KECCAK256 PUSH1 0x0 ADD PUSH1 0x0 PUSH2 0x100 EXP DUP2 SLOAD DUP2 PUSH20 0xFFFFFFFFFFFFFFFFFFFFFFFFFFFFFFFFFFFFFFFF MUL NOT AND SWAP1 DUP4 PUSH20 0xFFFFFFFFFFFFFFFFFFFFFFFFFFFFFFFFFFFFFFFF AND MUL OR SWAP1 SSTORE POP TIMESTAMP PUSH1 0x4 PUSH1 0x0 DUP4 DUP2 MSTORE PUSH1 0x20 ADD SWAP1 DUP2 MSTORE PUSH1 0x20 ADD PUSH1 0x0 KECCAK256 PUSH1 0x0 ADD PUSH1 0x14 PUSH2 0x100 EXP DUP2 SLOAD DUP2 PUSH8 0xFFFFFFFFFFFFFFFF MUL NOT AND SWAP1 DUP4 PUSH8 0xFFFFFFFFFFFFFFFF AND MUL OR SWAP1 SSTORE POP PUSH1 0x0 DUP2 SWAP1 POP PUSH1 0x0 DUP4 DUP3 ADD SWAP1 POP JUMPDEST DUP2 DUP1 PUSH1 0x1 ADD SWAP3 POP DUP6 PUSH20 0xFFFFFFFFFFFFFFFFFFFFFFFFFFFFFFFFFFFFFFFF AND PUSH1 0x0 PUSH20 0xFFFFFFFFFFFFFFFFFFFFFFFFFFFFFFFFFFFFFFFF AND PUSH32 0xDDF252AD1BE2C89B69C2B068FC378DAA952BA7F163C4A11628F55A4DF523B3EF PUSH1 0x40 MLOAD PUSH1 0x40 MLOAD DUP1 SWAP2 SUB SWAP1 LOG4 DUP1 DUP3 LT PUSH2 0x371C JUMPI DUP2 PUSH1 0x0 DUP2 SWAP1 SSTORE POP POP POP PUSH2 0x379B PUSH1 0x0 DUP5 DUP4 DUP6 PUSH2 0x4188 JUMP JUMPDEST POP POP POP JUMP JUMPDEST PUSH2 0x37A8 PUSH2 0x42D9 JUMP JUMPDEST PUSH1 0x0 DUP3 SWAP1 POP DUP1 PUSH2 0x37B6 PUSH2 0x2AE6 JUMP JUMPDEST GT PUSH2 0x39F4 JUMPI PUSH1 0x0 SLOAD DUP2 LT ISZERO PUSH2 0x39F3 JUMPI PUSH1 0x0 PUSH1 0x4 PUSH1 0x0 DUP4 DUP2 MSTORE PUSH1 0x20 ADD SWAP1 DUP2 MSTORE PUSH1 0x20 ADD PUSH1 0x0 KECCAK256 PUSH1 0x40 MLOAD DUP1 PUSH1 0x60 ADD PUSH1 0x40 MSTORE SWAP1 DUP2 PUSH1 0x0 DUP3 ADD PUSH1 0x0 SWAP1 SLOAD SWAP1 PUSH2 0x100 EXP SWAP1 DIV PUSH20 0xFFFFFFFFFFFFFFFFFFFFFFFFFFFFFFFFFFFFFFFF AND PUSH20 0xFFFFFFFFFFFFFFFFFFFFFFFFFFFFFFFFFFFFFFFF AND PUSH20 0xFFFFFFFFFFFFFFFFFFFFFFFFFFFFFFFFFFFFFFFF AND DUP2 MSTORE PUSH1 0x20 ADD PUSH1 0x0 DUP3 ADD PUSH1 0x14 SWAP1 SLOAD SWAP1 PUSH2 0x100 EXP SWAP1 DIV PUSH8 0xFFFFFFFFFFFFFFFF AND PUSH8 0xFFFFFFFFFFFFFFFF AND PUSH8 0xFFFFFFFFFFFFFFFF AND DUP2 MSTORE PUSH1 0x20 ADD PUSH1 0x0 DUP3 ADD PUSH1 0x1C SWAP1 SLOAD SWAP1 PUSH2 0x100 EXP SWAP1 DIV PUSH1 0xFF AND ISZERO ISZERO ISZERO ISZERO DUP2 MSTORE POP POP SWAP1 POP DUP1 PUSH1 0x40 ADD MLOAD PUSH2 0x39F1 JUMPI PUSH1 0x0 PUSH20 0xFFFFFFFFFFFFFFFFFFFFFFFFFFFFFFFFFFFFFFFF AND DUP2 PUSH1 0x0 ADD MLOAD PUSH20 0xFFFFFFFFFFFFFFFFFFFFFFFFFFFFFFFFFFFFFFFF AND EQ PUSH2 0x38D5 JUMPI DUP1 SWAP3 POP POP POP PUSH2 0x3A26 JUMP JUMPDEST JUMPDEST PUSH1 0x1 ISZERO PUSH2 0x39F0 JUMPI DUP2 DUP1 PUSH1 0x1 SWAP1 SUB SWAP3 POP POP PUSH1 0x4 PUSH1 0x0 DUP4 DUP2 MSTORE PUSH1 0x20 ADD SWAP1 DUP2 MSTORE PUSH1 0x20 ADD PUSH1 0x0 KECCAK256 PUSH1 0x40 MLOAD DUP1 PUSH1 0x60 ADD PUSH1 0x40 MSTORE SWAP1 DUP2 PUSH1 0x0 DUP3 ADD PUSH1 0x0 SWAP1 SLOAD SWAP1 PUSH2 0x100 EXP SWAP1 DIV PUSH20 0xFFFFFFFFFFFFFFFFFFFFFFFFFFFFFFFFFFFFFFFF AND PUSH20 0xFFFFFFFFFFFFFFFFFFFFFFFFFFFFFFFFFFFFFFFF AND PUSH20 0xFFFFFFFFFFFFFFFFFFFFFFFFFFFFFFFFFFFFFFFF AND DUP2 MSTORE PUSH1 0x20 ADD PUSH1 0x0 DUP3 ADD PUSH1 0x14 SWAP1 SLOAD SWAP1 PUSH2 0x100 EXP SWAP1 DIV PUSH8 0xFFFFFFFFFFFFFFFF AND PUSH8 0xFFFFFFFFFFFFFFFF AND PUSH8 0xFFFFFFFFFFFFFFFF AND DUP2 MSTORE PUSH1 0x20 ADD PUSH1 0x0 DUP3 ADD PUSH1 0x1C SWAP1 SLOAD SWAP1 PUSH2 0x100 EXP SWAP1 DIV PUSH1 0xFF AND ISZERO ISZERO ISZERO ISZERO DUP2 MSTORE POP POP SWAP1 POP PUSH1 0x0 PUSH20 0xFFFFFFFFFFFFFFFFFFFFFFFFFFFFFFFFFFFFFFFF AND DUP2 PUSH1 0x0 ADD MLOAD PUSH20 0xFFFFFFFFFFFFFFFFFFFFFFFFFFFFFFFFFFFFFFFF AND EQ PUSH2 0x39EB JUMPI DUP1 SWAP3 POP POP POP PUSH2 0x3A26 JUMP JUMPDEST PUSH2 0x38D6 JUMP JUMPDEST JUMPDEST POP JUMPDEST JUMPDEST PUSH1 0x40 MLOAD PUSH32 0xDF2D9B4200000000000000000000000000000000000000000000000000000000 DUP2 MSTORE PUSH1 0x4 ADD PUSH1 0x40 MLOAD DUP1 SWAP2 SUB SWAP1 REVERT JUMPDEST SWAP2 SWAP1 POP JUMP JUMPDEST PUSH1 0x0 DUP1 DUP4 DUP6 PUSH2 0x3A3A SWAP2 SWAP1 PUSH2 0x5AC1 JUMP JUMPDEST SWAP1 POP DUP1 SWAP2 POP PUSH1 0xC DUP2 SWAP1 DUP1 PUSH1 0x1 DUP2 SLOAD ADD DUP1 DUP3 SSTORE DUP1 SWAP2 POP POP PUSH1 0x1 SWAP1 SUB SWAP1 PUSH1 0x0 MSTORE PUSH1 0x20 PUSH1 0x0 KECCAK256 ADD PUSH1 0x0 SWAP1 SWAP2 SWAP1 SWAP2 SWAP1 SWAP2 POP SSTORE DUP3 PUSH1 0xD PUSH1 0x0 DUP4 DUP2 MSTORE PUSH1 0x20 ADD SWAP1 DUP2 MSTORE PUSH1 0x20 ADD PUSH1 0x0 KECCAK256 SWAP1 DUP2 PUSH2 0x3A88 SWAP2 SWAP1 PUSH2 0x55EE JUMP JUMPDEST POP SWAP4 POP SWAP4 SWAP2 POP POP JUMP JUMPDEST PUSH1 0x0 PUSH2 0x3A9B PUSH2 0x186B JUMP JUMPDEST PUSH20 0xFFFFFFFFFFFFFFFFFFFFFFFFFFFFFFFFFFFFFFFF AND CALLER PUSH20 0xFFFFFFFFFFFFFFFFFFFFFFFFFFFFFFFFFFFFFFFF AND EQ SWAP1 POP SWAP1 JUMP JUMPDEST PUSH1 0x0 PUSH1 0x8 DUP1 SLOAD PUSH2 0x3ADD SWAP1 PUSH2 0x53A5 JUMP JUMPDEST DUP1 PUSH1 0x1F ADD PUSH1 0x20 DUP1 SWAP2 DIV MUL PUSH1 0x20 ADD PUSH1 0x40 MLOAD SWAP1 DUP2 ADD PUSH1 0x40 MSTORE DUP1 SWAP3 SWAP2 SWAP1 DUP2 DUP2 MSTORE PUSH1 0x20 ADD DUP3 DUP1 SLOAD PUSH2 0x3B09 SWAP1 PUSH2 0x53A5 JUMP JUMPDEST DUP1 ISZERO PUSH2 0x3B56 JUMPI DUP1 PUSH1 0x1F LT PUSH2 0x3B2B JUMPI PUSH2 0x100 DUP1 DUP4 SLOAD DIV MUL DUP4 MSTORE SWAP2 PUSH1 0x20 ADD SWAP2 PUSH2 0x3B56 JUMP JUMPDEST DUP3 ADD SWAP2 SWAP1 PUSH1 0x0 MSTORE PUSH1 0x20 PUSH1 0x0 KECCAK256 SWAP1 JUMPDEST DUP2 SLOAD DUP2 MSTORE SWAP1 PUSH1 0x1 ADD SWAP1 PUSH1 0x20 ADD DUP1 DUP4 GT PUSH2 0x3B39 JUMPI DUP3 SWAP1 SUB PUSH1 0x1F AND DUP3 ADD SWAP2 JUMPDEST POP POP POP POP POP SWAP1 POP DUP2 PUSH1 0x8 SWAP1 DUP2 PUSH2 0x3B6C SWAP2 SWAP1 PUSH2 0x55EE JUMP JUMPDEST POP PUSH32 0xC9C7C3FE08B88B4DF9D4D47EF47D2C43D55C025A0BA88CA442580ED9E7348A16 DUP2 DUP4 PUSH1 0x40 MLOAD PUSH2 0x3B9E SWAP3 SWAP2 SWAP1 PUSH2 0x5AF5 JUMP JUMPDEST PUSH1 0x40 MLOAD DUP1 SWAP2 SUB SWAP1 LOG1 POP POP JUMP JUMPDEST PUSH2 0x2710 DUP2 GT ISZERO PUSH2 0x3BF5 JUMPI PUSH2 0x2710 DUP2 PUSH1 0x40 MLOAD PUSH32 0x5249856800000000000000000000000000000000000000000000000000000000 DUP2 MSTORE PUSH1 0x4 ADD PUSH2 0x3BEC SWAP3 SWAP2 SWAP1 PUSH2 0x5A98 JUMP JUMPDEST PUSH1 0x40 MLOAD DUP1 SWAP2 SUB SWAP1 REVERT JUMPDEST PUSH1 0x40 MLOAD DUP1 PUSH1 0x40 ADD PUSH1 0x40 MSTORE DUP1 DUP4 PUSH20 0xFFFFFFFFFFFFFFFFFFFFFFFFFFFFFFFFFFFFFFFF AND DUP2 MSTORE PUSH1 0x20 ADD DUP3 DUP2 MSTORE POP PUSH1 0xB PUSH1 0x0 DUP6 DUP2 MSTORE PUSH1 0x20 ADD SWAP1 DUP2 MSTORE PUSH1 0x20 ADD PUSH1 0x0 KECCAK256 PUSH1 0x0 DUP3 ADD MLOAD DUP2 PUSH1 0x0 ADD PUSH1 0x0 PUSH2 0x100 EXP DUP2 SLOAD DUP2 PUSH20 0xFFFFFFFFFFFFFFFFFFFFFFFFFFFFFFFFFFFFFFFF MUL NOT AND SWAP1 DUP4 PUSH20 0xFFFFFFFFFFFFFFFFFFFFFFFFFFFFFFFFFFFFFFFF AND MUL OR SWAP1 SSTORE POP PUSH1 0x20 DUP3 ADD MLOAD DUP2 PUSH1 0x1 ADD SSTORE SWAP1 POP POP DUP2 PUSH20 0xFFFFFFFFFFFFFFFFFFFFFFFFFFFFFFFFFFFFFFFF AND DUP4 PUSH32 0x7365CF4122F072A3365C20D54EFF9B38D73C096C28E1892EC8F5B0E403A0F12D DUP4 PUSH1 0x40 MLOAD PUSH2 0x3CCE SWAP2 SWAP1 PUSH2 0x4795 JUMP JUMPDEST PUSH1 0x40 MLOAD DUP1 SWAP2 SUB SWAP1 LOG3 POP POP POP JUMP JUMPDEST PUSH1 0x60 PUSH2 0x3D00 DUP4 DUP4 PUSH1 0x40 MLOAD DUP1 PUSH1 0x60 ADD PUSH1 0x40 MSTORE DUP1 PUSH1 0x27 DUP2 MSTORE PUSH1 0x20 ADD PUSH2 0x5D1E PUSH1 0x27 SWAP2 CODECOPY PUSH2 0x418E JUMP JUMPDEST SWAP1 POP SWAP3 SWAP2 POP POP JUMP JUMPDEST PUSH1 0x0 DUP1 DUP3 PUSH20 0xFFFFFFFFFFFFFFFFFFFFFFFFFFFFFFFFFFFFFFFF AND EXTCODESIZE GT SWAP1 POP SWAP2 SWAP1 POP JUMP JUMPDEST PUSH1 0x0 DUP4 PUSH20 0xFFFFFFFFFFFFFFFFFFFFFFFFFFFFFFFFFFFFFFFF AND PUSH4 0x150B7A02 PUSH2 0x3D51 PUSH2 0x2929 JUMP JUMPDEST DUP8 DUP7 DUP7 PUSH1 0x40 MLOAD DUP6 PUSH4 0xFFFFFFFF AND PUSH1 0xE0 SHL DUP2 MSTORE PUSH1 0x4 ADD PUSH2 0x3D73 SWAP5 SWAP4 SWAP3 SWAP2 SWAP1 PUSH2 0x5B76 JUMP JUMPDEST PUSH1 0x20 PUSH1 0x40 MLOAD DUP1 DUP4 SUB DUP2 PUSH1 0x0 DUP8 GAS CALL SWAP3 POP POP POP DUP1 ISZERO PUSH2 0x3DAF JUMPI POP PUSH1 0x40 MLOAD RETURNDATASIZE PUSH1 0x1F NOT PUSH1 0x1F DUP3 ADD AND DUP3 ADD DUP1 PUSH1 0x40 MSTORE POP DUP2 ADD SWAP1 PUSH2 0x3DAC SWAP2 SWAP1 PUSH2 0x5BD7 JUMP JUMPDEST PUSH1 0x1 JUMPDEST PUSH2 0x3E28 JUMPI RETURNDATASIZE DUP1 PUSH1 0x0 DUP2 EQ PUSH2 0x3DDF JUMPI PUSH1 0x40 MLOAD SWAP2 POP PUSH1 0x1F NOT PUSH1 0x3F RETURNDATASIZE ADD AND DUP3 ADD PUSH1 0x40 MSTORE RETURNDATASIZE DUP3 MSTORE RETURNDATASIZE PUSH1 0x0 PUSH1 0x20 DUP5 ADD RETURNDATACOPY PUSH2 0x3DE4 JUMP JUMPDEST PUSH1 0x60 SWAP2 POP JUMPDEST POP PUSH1 0x0 DUP2 MLOAD SUB PUSH2 0x3E20 JUMPI PUSH1 0x40 MLOAD PUSH32 0xD1A57ED600000000000000000000000000000000000000000000000000000000 DUP2 MSTORE PUSH1 0x4 ADD PUSH1 0x40 MLOAD DUP1 SWAP2 SUB SWAP1 REVERT JUMPDEST DUP1 MLOAD DUP2 PUSH1 0x20 ADD REVERT JUMPDEST PUSH4 0x150B7A02 PUSH1 0xE0 SHL PUSH28 0xFFFFFFFFFFFFFFFFFFFFFFFFFFFFFFFFFFFFFFFFFFFFFFFFFFFFFFFF NOT AND DUP2 PUSH28 0xFFFFFFFFFFFFFFFFFFFFFFFFFFFFFFFFFFFFFFFFFFFFFFFFFFFFFFFF NOT AND EQ SWAP2 POP POP SWAP5 SWAP4 POP POP POP POP JUMP JUMPDEST PUSH1 0x60 PUSH1 0x0 PUSH2 0x3E87 PUSH2 0x1508 JUMP JUMPDEST SWAP1 POP PUSH1 0x0 PUSH1 0xC DUP1 SLOAD DUP1 PUSH1 0x20 MUL PUSH1 0x20 ADD PUSH1 0x40 MLOAD SWAP1 DUP2 ADD PUSH1 0x40 MSTORE DUP1 SWAP3 SWAP2 SWAP1 DUP2 DUP2 MSTORE PUSH1 0x20 ADD DUP3 DUP1 SLOAD DUP1 ISZERO PUSH2 0x3ED7 JUMPI PUSH1 0x20 MUL DUP3 ADD SWAP2 SWAP1 PUSH1 0x0 MSTORE PUSH1 0x20 PUSH1 0x0 KECCAK256 SWAP1 JUMPDEST DUP2 SLOAD DUP2 MSTORE PUSH1 0x20 ADD SWAP1 PUSH1 0x1 ADD SWAP1 DUP1 DUP4 GT PUSH2 0x3EC3 JUMPI JUMPDEST POP POP POP POP POP SWAP1 POP PUSH1 0x0 JUMPDEST DUP3 DUP2 LT ISZERO PUSH2 0x3FDF JUMPI DUP2 DUP2 DUP2 MLOAD DUP2 LT PUSH2 0x3EFC JUMPI PUSH2 0x3EFB PUSH2 0x56F0 JUMP JUMPDEST JUMPDEST PUSH1 0x20 MUL PUSH1 0x20 ADD ADD MLOAD DUP6 LT ISZERO PUSH2 0x3FCB JUMPI PUSH1 0xD PUSH1 0x0 DUP4 DUP4 DUP2 MLOAD DUP2 LT PUSH2 0x3F22 JUMPI PUSH2 0x3F21 PUSH2 0x56F0 JUMP JUMPDEST JUMPDEST PUSH1 0x20 MUL PUSH1 0x20 ADD ADD MLOAD DUP2 MSTORE PUSH1 0x20 ADD SWAP1 DUP2 MSTORE PUSH1 0x20 ADD PUSH1 0x0 KECCAK256 DUP1 SLOAD PUSH2 0x3F43 SWAP1 PUSH2 0x53A5 JUMP JUMPDEST DUP1 PUSH1 0x1F ADD PUSH1 0x20 DUP1 SWAP2 DIV MUL PUSH1 0x20 ADD PUSH1 0x40 MLOAD SWAP1 DUP2 ADD PUSH1 0x40 MSTORE DUP1 SWAP3 SWAP2 SWAP1 DUP2 DUP2 MSTORE PUSH1 0x20 ADD DUP3 DUP1 SLOAD PUSH2 0x3F6F SWAP1 PUSH2 0x53A5 JUMP JUMPDEST DUP1 ISZERO PUSH2 0x3FBC JUMPI DUP1 PUSH1 0x1F LT PUSH2 0x3F91 JUMPI PUSH2 0x100 DUP1 DUP4 SLOAD DIV MUL DUP4 MSTORE SWAP2 PUSH1 0x20 ADD SWAP2 PUSH2 0x3FBC JUMP JUMPDEST DUP3 ADD SWAP2 SWAP1 PUSH1 0x0 MSTORE PUSH1 0x20 PUSH1 0x0 KECCAK256 SWAP1 JUMPDEST DUP2 SLOAD DUP2 MSTORE SWAP1 PUSH1 0x1 ADD SWAP1 PUSH1 0x20 ADD DUP1 DUP4 GT PUSH2 0x3F9F JUMPI DUP3 SWAP1 SUB PUSH1 0x1F AND DUP3 ADD SWAP2 JUMPDEST POP POP POP POP POP SWAP4 POP POP POP POP PUSH2 0x401D JUMP JUMPDEST PUSH1 0x1 DUP2 PUSH2 0x3FD8 SWAP2 SWAP1 PUSH2 0x5AC1 JUMP JUMPDEST SWAP1 POP PUSH2 0x3EE1 JUMP JUMPDEST POP DUP4 PUSH1 0x40 MLOAD PUSH32 0x25E5FDA400000000000000000000000000000000000000000000000000000000 DUP2 MSTORE PUSH1 0x4 ADD PUSH2 0x4014 SWAP2 SWAP1 PUSH2 0x4795 JUMP JUMPDEST PUSH1 0x40 MLOAD DUP1 SWAP2 SUB SWAP1 REVERT JUMPDEST SWAP2 SWAP1 POP JUMP JUMPDEST PUSH1 0x60 PUSH1 0x0 DUP3 SUB PUSH2 0x4069 JUMPI PUSH1 0x40 MLOAD DUP1 PUSH1 0x40 ADD PUSH1 0x40 MSTORE DUP1 PUSH1 0x1 DUP2 MSTORE PUSH1 0x20 ADD PUSH32 0x3000000000000000000000000000000000000000000000000000000000000000 DUP2 MSTORE POP SWAP1 POP PUSH2 0x417D JUMP JUMPDEST PUSH1 0x0 DUP3 SWAP1 POP PUSH1 0x0 JUMPDEST PUSH1 0x0 DUP3 EQ PUSH2 0x409B JUMPI DUP1 DUP1 PUSH2 0x4084 SWAP1 PUSH2 0x57F0 JUMP JUMPDEST SWAP2 POP POP PUSH1 0xA DUP3 PUSH2 0x4094 SWAP2 SWAP1 PUSH2 0x57BF JUMP JUMPDEST SWAP2 POP PUSH2 0x4071 JUMP JUMPDEST PUSH1 0x0 DUP2 PUSH8 0xFFFFFFFFFFFFFFFF DUP2 GT ISZERO PUSH2 0x40B7 JUMPI PUSH2 0x40B6 PUSH2 0x43A9 JUMP JUMPDEST JUMPDEST PUSH1 0x40 MLOAD SWAP1 DUP1 DUP3 MSTORE DUP1 PUSH1 0x1F ADD PUSH1 0x1F NOT AND PUSH1 0x20 ADD DUP3 ADD PUSH1 0x40 MSTORE DUP1 ISZERO PUSH2 0x40E9 JUMPI DUP2 PUSH1 0x20 ADD PUSH1 0x1 DUP3 MUL DUP1 CALLDATASIZE DUP4 CALLDATACOPY DUP1 DUP3 ADD SWAP2 POP POP SWAP1 POP JUMPDEST POP SWAP1 POP JUMPDEST PUSH1 0x0 DUP6 EQ PUSH2 0x4176 JUMPI PUSH1 0x1 DUP3 PUSH2 0x4102 SWAP2 SWAP1 PUSH2 0x5C04 JUMP JUMPDEST SWAP2 POP PUSH1 0xA DUP6 PUSH2 0x4111 SWAP2 SWAP1 PUSH2 0x5C38 JUMP JUMPDEST PUSH1 0x30 PUSH2 0x411D SWAP2 SWAP1 PUSH2 0x5AC1 JUMP JUMPDEST PUSH1 0xF8 SHL DUP2 DUP4 DUP2 MLOAD DUP2 LT PUSH2 0x4133 JUMPI PUSH2 0x4132 PUSH2 0x56F0 JUMP JUMPDEST JUMPDEST PUSH1 0x20 ADD ADD SWAP1 PUSH31 0xFFFFFFFFFFFFFFFFFFFFFFFFFFFFFFFFFFFFFFFFFFFFFFFFFFFFFFFFFFFFFF NOT AND SWAP1 DUP2 PUSH1 0x0 BYTE SWAP1 MSTORE8 POP PUSH1 0xA DUP6 PUSH2 0x416F SWAP2 SWAP1 PUSH2 0x57BF JUMP JUMPDEST SWAP5 POP PUSH2 0x40ED JUMP JUMPDEST DUP1 SWAP4 POP POP POP POP JUMPDEST SWAP2 SWAP1 POP JUMP JUMPDEST POP POP POP POP JUMP JUMPDEST POP POP POP POP JUMP JUMPDEST PUSH1 0x60 PUSH1 0x0 DUP1 DUP6 PUSH20 0xFFFFFFFFFFFFFFFFFFFFFFFFFFFFFFFFFFFFFFFF AND DUP6 PUSH1 0x40 MLOAD PUSH2 0x41B8 SWAP2 SWAP1 PUSH2 0x5C9A JUMP JUMPDEST PUSH1 0x0 PUSH1 0x40 MLOAD DUP1 DUP4 SUB DUP2 DUP6 GAS DELEGATECALL SWAP2 POP POP RETURNDATASIZE DUP1 PUSH1 0x0 DUP2 EQ PUSH2 0x41F3 JUMPI PUSH1 0x40 MLOAD SWAP2 POP PUSH1 0x1F NOT PUSH1 0x3F RETURNDATASIZE ADD AND DUP3 ADD PUSH1 0x40 MSTORE RETURNDATASIZE DUP3 MSTORE RETURNDATASIZE PUSH1 0x0 PUSH1 0x20 DUP5 ADD RETURNDATACOPY PUSH2 0x41F8 JUMP JUMPDEST PUSH1 0x60 SWAP2 POP JUMPDEST POP SWAP2 POP SWAP2 POP PUSH2 0x4209 DUP7 DUP4 DUP4 DUP8 PUSH2 0x4214 JUMP JUMPDEST SWAP3 POP POP POP SWAP4 SWAP3 POP POP POP JUMP JUMPDEST PUSH1 0x60 DUP4 ISZERO PUSH2 0x4276 JUMPI PUSH1 0x0 DUP4 MLOAD SUB PUSH2 0x426E JUMPI PUSH2 0x422E DUP6 PUSH2 0x3D08 JUMP JUMPDEST PUSH2 0x426D JUMPI PUSH1 0x40 MLOAD PUSH32 0x8C379A000000000000000000000000000000000000000000000000000000000 DUP2 MSTORE PUSH1 0x4 ADD PUSH2 0x4264 SWAP1 PUSH2 0x5CFD JUMP JUMPDEST PUSH1 0x40 MLOAD DUP1 SWAP2 SUB SWAP1 REVERT JUMPDEST JUMPDEST DUP3 SWAP1 POP PUSH2 0x4281 JUMP JUMPDEST PUSH2 0x4280 DUP4 DUP4 PUSH2 0x4289 JUMP JUMPDEST JUMPDEST SWAP5 SWAP4 POP POP POP POP JUMP JUMPDEST PUSH1 0x0 DUP3 MLOAD GT ISZERO PUSH2 0x429C JUMPI DUP2 MLOAD DUP1 DUP4 PUSH1 0x20 ADD REVERT JUMPDEST DUP1 PUSH1 0x40 MLOAD PUSH32 0x8C379A000000000000000000000000000000000000000000000000000000000 DUP2 MSTORE PUSH1 0x4 ADD PUSH2 0x42D0 SWAP2 SWAP1 PUSH2 0x466A JUMP JUMPDEST PUSH1 0x40 MLOAD DUP1 SWAP2 SUB SWAP1 REVERT JUMPDEST PUSH1 0x40 MLOAD DUP1 PUSH1 0x60 ADD PUSH1 0x40 MSTORE DUP1 PUSH1 0x0 PUSH20 0xFFFFFFFFFFFFFFFFFFFFFFFFFFFFFFFFFFFFFFFF AND DUP2 MSTORE PUSH1 0x20 ADD PUSH1 0x0 PUSH8 0xFFFFFFFFFFFFFFFF AND DUP2 MSTORE PUSH1 0x20 ADD PUSH1 0x0 ISZERO ISZERO DUP2 MSTORE POP SWAP1 JUMP JUMPDEST PUSH1 0x0 PUSH1 0x40 MLOAD SWAP1 POP SWAP1 JUMP JUMPDEST PUSH1 0x0 DUP1 REVERT JUMPDEST PUSH1 0x0 DUP1 REVERT JUMPDEST PUSH1 0x0 PUSH20 0xFFFFFFFFFFFFFFFFFFFFFFFFFFFFFFFFFFFFFFFF DUP3 AND SWAP1 POP SWAP2 SWAP1 POP JUMP JUMPDEST PUSH1 0x0 PUSH2 0x435B DUP3 PUSH2 0x4330 JUMP JUMPDEST SWAP1 POP SWAP2 SWAP1 POP JUMP JUMPDEST PUSH2 0x436B DUP2 PUSH2 0x4350 JUMP JUMPDEST DUP2 EQ PUSH2 0x4376 JUMPI PUSH1 0x0 DUP1 REVERT JUMPDEST POP JUMP JUMPDEST PUSH1 0x0 DUP2 CALLDATALOAD SWAP1 POP PUSH2 0x4388 DUP2 PUSH2 0x4362 JUMP JUMPDEST SWAP3 SWAP2 POP POP JUMP JUMPDEST PUSH1 0x0 DUP1 REVERT JUMPDEST PUSH1 0x0 DUP1 REVERT JUMPDEST PUSH1 0x0 PUSH1 0x1F NOT PUSH1 0x1F DUP4 ADD AND SWAP1 POP SWAP2 SWAP1 POP JUMP JUMPDEST PUSH32 0x4E487B7100000000000000000000000000000000000000000000000000000000 PUSH1 0x0 MSTORE PUSH1 0x41 PUSH1 0x4 MSTORE PUSH1 0x24 PUSH1 0x0 REVERT JUMPDEST PUSH2 0x43E1 DUP3 PUSH2 0x4398 JUMP JUMPDEST DUP2 ADD DUP2 DUP2 LT PUSH8 0xFFFFFFFFFFFFFFFF DUP3 GT OR ISZERO PUSH2 0x4400 JUMPI PUSH2 0x43FF PUSH2 0x43A9 JUMP JUMPDEST JUMPDEST DUP1 PUSH1 0x40 MSTORE POP POP POP JUMP JUMPDEST PUSH1 0x0 PUSH2 0x4413 PUSH2 0x431C JUMP JUMPDEST SWAP1 POP PUSH2 0x441F DUP3 DUP3 PUSH2 0x43D8 JUMP JUMPDEST SWAP2 SWAP1 POP JUMP JUMPDEST PUSH1 0x0 PUSH8 0xFFFFFFFFFFFFFFFF DUP3 GT ISZERO PUSH2 0x443F JUMPI PUSH2 0x443E PUSH2 0x43A9 JUMP JUMPDEST JUMPDEST PUSH2 0x4448 DUP3 PUSH2 0x4398 JUMP JUMPDEST SWAP1 POP PUSH1 0x20 DUP2 ADD SWAP1 POP SWAP2 SWAP1 POP JUMP JUMPDEST DUP3 DUP2 DUP4 CALLDATACOPY PUSH1 0x0 DUP4 DUP4 ADD MSTORE POP POP POP JUMP JUMPDEST PUSH1 0x0 PUSH2 0x4477 PUSH2 0x4472 DUP5 PUSH2 0x4424 JUMP JUMPDEST PUSH2 0x4409 JUMP JUMPDEST SWAP1 POP DUP3 DUP2 MSTORE PUSH1 0x20 DUP2 ADD DUP5 DUP5 DUP5 ADD GT ISZERO PUSH2 0x4493 JUMPI PUSH2 0x4492 PUSH2 0x4393 JUMP JUMPDEST JUMPDEST PUSH2 0x449E DUP5 DUP3 DUP6 PUSH2 0x4455 JUMP JUMPDEST POP SWAP4 SWAP3 POP POP POP JUMP JUMPDEST PUSH1 0x0 DUP3 PUSH1 0x1F DUP4 ADD SLT PUSH2 0x44BB JUMPI PUSH2 0x44BA PUSH2 0x438E JUMP JUMPDEST JUMPDEST DUP2 CALLDATALOAD PUSH2 0x44CB DUP5 DUP3 PUSH1 0x20 DUP7 ADD PUSH2 0x4464 JUMP JUMPDEST SWAP2 POP POP SWAP3 SWAP2 POP POP JUMP JUMPDEST PUSH1 0x0 DUP1 PUSH1 0x40 DUP4 DUP6 SUB SLT ISZERO PUSH2 0x44EB JUMPI PUSH2 0x44EA PUSH2 0x4326 JUMP JUMPDEST JUMPDEST PUSH1 0x0 PUSH2 0x44F9 DUP6 DUP3 DUP7 ADD PUSH2 0x4379 JUMP JUMPDEST SWAP3 POP POP PUSH1 0x20 DUP4 ADD CALLDATALOAD PUSH8 0xFFFFFFFFFFFFFFFF DUP2 GT ISZERO PUSH2 0x451A JUMPI PUSH2 0x4519 PUSH2 0x432B JUMP JUMPDEST JUMPDEST PUSH2 0x4526 DUP6 DUP3 DUP7 ADD PUSH2 0x44A6 JUMP JUMPDEST SWAP2 POP POP SWAP3 POP SWAP3 SWAP1 POP JUMP JUMPDEST PUSH1 0x0 PUSH32 0xFFFFFFFF00000000000000000000000000000000000000000000000000000000 DUP3 AND SWAP1 POP SWAP2 SWAP1 POP JUMP JUMPDEST PUSH2 0x4565 DUP2 PUSH2 0x4530 JUMP JUMPDEST DUP2 EQ PUSH2 0x4570 JUMPI PUSH1 0x0 DUP1 REVERT JUMPDEST POP JUMP JUMPDEST PUSH1 0x0 DUP2 CALLDATALOAD SWAP1 POP PUSH2 0x4582 DUP2 PUSH2 0x455C JUMP JUMPDEST SWAP3 SWAP2 POP POP JUMP JUMPDEST PUSH1 0x0 PUSH1 0x20 DUP3 DUP5 SUB SLT ISZERO PUSH2 0x459E JUMPI PUSH2 0x459D PUSH2 0x4326 JUMP JUMPDEST JUMPDEST PUSH1 0x0 PUSH2 0x45AC DUP5 DUP3 DUP6 ADD PUSH2 0x4573 JUMP JUMPDEST SWAP2 POP POP SWAP3 SWAP2 POP POP JUMP JUMPDEST PUSH1 0x0 DUP2 ISZERO ISZERO SWAP1 POP SWAP2 SWAP1 POP JUMP JUMPDEST PUSH2 0x45CA DUP2 PUSH2 0x45B5 JUMP JUMPDEST DUP3 MSTORE POP POP JUMP JUMPDEST PUSH1 0x0 PUSH1 0x20 DUP3 ADD SWAP1 POP PUSH2 0x45E5 PUSH1 0x0 DUP4 ADD DUP5 PUSH2 0x45C1 JUMP JUMPDEST SWAP3 SWAP2 POP POP JUMP JUMPDEST PUSH1 0x0 DUP2 MLOAD SWAP1 POP SWAP2 SWAP1 POP JUMP JUMPDEST PUSH1 0x0 DUP3 DUP3 MSTORE PUSH1 0x20 DUP3 ADD SWAP1 POP SWAP3 SWAP2 POP POP JUMP JUMPDEST PUSH1 0x0 JUMPDEST DUP4 DUP2 LT ISZERO PUSH2 0x4625 JUMPI DUP1 DUP3 ADD MLOAD DUP2 DUP5 ADD MSTORE PUSH1 0x20 DUP2 ADD SWAP1 POP PUSH2 0x460A JUMP JUMPDEST PUSH1 0x0 DUP5 DUP5 ADD MSTORE POP POP POP POP JUMP JUMPDEST PUSH1 0x0 PUSH2 0x463C DUP3 PUSH2 0x45EB JUMP JUMPDEST PUSH2 0x4646 DUP2 DUP6 PUSH2 0x45F6 JUMP JUMPDEST SWAP4 POP PUSH2 0x4656 DUP2 DUP6 PUSH1 0x20 DUP7 ADD PUSH2 0x4607 JUMP JUMPDEST PUSH2 0x465F DUP2 PUSH2 0x4398 JUMP JUMPDEST DUP5 ADD SWAP2 POP POP SWAP3 SWAP2 POP POP JUMP JUMPDEST PUSH1 0x0 PUSH1 0x20 DUP3 ADD SWAP1 POP DUP2 DUP2 SUB PUSH1 0x0 DUP4 ADD MSTORE PUSH2 0x4684 DUP2 DUP5 PUSH2 0x4631 JUMP JUMPDEST SWAP1 POP SWAP3 SWAP2 POP POP JUMP JUMPDEST PUSH1 0x0 DUP2 SWAP1 POP SWAP2 SWAP1 POP JUMP JUMPDEST PUSH2 0x469F DUP2 PUSH2 0x468C JUMP JUMPDEST DUP2 EQ PUSH2 0x46AA JUMPI PUSH1 0x0 DUP1 REVERT JUMPDEST POP JUMP JUMPDEST PUSH1 0x0 DUP2 CALLDATALOAD SWAP1 POP PUSH2 0x46BC DUP2 PUSH2 0x4696 JUMP JUMPDEST SWAP3 SWAP2 POP POP JUMP JUMPDEST PUSH1 0x0 PUSH1 0x20 DUP3 DUP5 SUB SLT ISZERO PUSH2 0x46D8 JUMPI PUSH2 0x46D7 PUSH2 0x4326 JUMP JUMPDEST JUMPDEST PUSH1 0x0 PUSH2 0x46E6 DUP5 DUP3 DUP6 ADD PUSH2 0x46AD JUMP JUMPDEST SWAP2 POP POP SWAP3 SWAP2 POP POP JUMP JUMPDEST PUSH2 0x46F8 DUP2 PUSH2 0x4350 JUMP JUMPDEST DUP3 MSTORE POP POP JUMP JUMPDEST PUSH1 0x0 PUSH1 0x20 DUP3 ADD SWAP1 POP PUSH2 0x4713 PUSH1 0x0 DUP4 ADD DUP5 PUSH2 0x46EF JUMP JUMPDEST SWAP3 SWAP2 POP POP JUMP JUMPDEST PUSH1 0x0 DUP1 PUSH1 0x40 DUP4 DUP6 SUB SLT ISZERO PUSH2 0x4730 JUMPI PUSH2 0x472F PUSH2 0x4326 JUMP JUMPDEST JUMPDEST PUSH1 0x0 PUSH2 0x473E DUP6 DUP3 DUP7 ADD PUSH2 0x4379 JUMP JUMPDEST SWAP3 POP POP PUSH1 0x20 PUSH2 0x474F DUP6 DUP3 DUP7 ADD PUSH2 0x46AD JUMP JUMPDEST SWAP2 POP POP SWAP3 POP SWAP3 SWAP1 POP JUMP JUMPDEST PUSH1 0x0 PUSH1 0x20 DUP3 DUP5 SUB SLT ISZERO PUSH2 0x476F JUMPI PUSH2 0x476E PUSH2 0x4326 JUMP JUMPDEST JUMPDEST PUSH1 0x0 PUSH2 0x477D DUP5 DUP3 DUP6 ADD PUSH2 0x4379 JUMP JUMPDEST SWAP2 POP POP SWAP3 SWAP2 POP POP JUMP JUMPDEST PUSH2 0x478F DUP2 PUSH2 0x468C JUMP JUMPDEST DUP3 MSTORE POP POP JUMP JUMPDEST PUSH1 0x0 PUSH1 0x20 DUP3 ADD SWAP1 POP PUSH2 0x47AA PUSH1 0x0 DUP4 ADD DUP5 PUSH2 0x4786 JUMP JUMPDEST SWAP3 SWAP2 POP POP JUMP JUMPDEST PUSH1 0x0 DUP1 PUSH1 0x40 DUP4 DUP6 SUB SLT ISZERO PUSH2 0x47C7 JUMPI PUSH2 0x47C6 PUSH2 0x4326 JUMP JUMPDEST JUMPDEST PUSH1 0x0 PUSH2 0x47D5 DUP6 DUP3 DUP7 ADD PUSH2 0x46AD JUMP JUMPDEST SWAP3 POP POP PUSH1 0x20 DUP4 ADD CALLDATALOAD PUSH8 0xFFFFFFFFFFFFFFFF DUP2 GT ISZERO PUSH2 0x47F6 JUMPI PUSH2 0x47F5 PUSH2 0x432B JUMP JUMPDEST JUMPDEST PUSH2 0x4802 DUP6 DUP3 DUP7 ADD PUSH2 0x44A6 JUMP JUMPDEST SWAP2 POP POP SWAP3 POP SWAP3 SWAP1 POP JUMP JUMPDEST PUSH1 0x0 DUP1 PUSH1 0x0 PUSH1 0x60 DUP5 DUP7 SUB SLT ISZERO PUSH2 0x4825 JUMPI PUSH2 0x4824 PUSH2 0x4326 JUMP JUMPDEST JUMPDEST PUSH1 0x0 PUSH2 0x4833 DUP7 DUP3 DUP8 ADD PUSH2 0x4379 JUMP JUMPDEST SWAP4 POP POP PUSH1 0x20 PUSH2 0x4844 DUP7 DUP3 DUP8 ADD PUSH2 0x4379 JUMP JUMPDEST SWAP3 POP POP PUSH1 0x40 PUSH2 0x4855 DUP7 DUP3 DUP8 ADD PUSH2 0x46AD JUMP JUMPDEST SWAP2 POP POP SWAP3 POP SWAP3 POP SWAP3 JUMP JUMPDEST PUSH1 0x0 DUP1 PUSH1 0x40 DUP4 DUP6 SUB SLT ISZERO PUSH2 0x4876 JUMPI PUSH2 0x4875 PUSH2 0x4326 JUMP JUMPDEST JUMPDEST PUSH1 0x0 PUSH2 0x4884 DUP6 DUP3 DUP7 ADD PUSH2 0x46AD JUMP JUMPDEST SWAP3 POP POP PUSH1 0x20 PUSH2 0x4895 DUP6 DUP3 DUP7 ADD PUSH2 0x46AD JUMP JUMPDEST SWAP2 POP POP SWAP3 POP SWAP3 SWAP1 POP JUMP JUMPDEST PUSH1 0x0 PUSH1 0x40 DUP3 ADD SWAP1 POP PUSH2 0x48B4 PUSH1 0x0 DUP4 ADD DUP6 PUSH2 0x46EF JUMP JUMPDEST PUSH2 0x48C1 PUSH1 0x20 DUP4 ADD DUP5 PUSH2 0x4786 JUMP JUMPDEST SWAP4 SWAP3 POP POP POP JUMP JUMPDEST PUSH1 0x0 DUP2 SWAP1 POP SWAP2 SWAP1 POP JUMP JUMPDEST PUSH2 0x48DB DUP2 PUSH2 0x48C8 JUMP JUMPDEST DUP3 MSTORE POP POP JUMP JUMPDEST PUSH1 0x0 PUSH2 0x100 DUP3 ADD SWAP1 POP PUSH2 0x48F7 PUSH1 0x0 DUP4 ADD DUP12 PUSH2 0x4786 JUMP JUMPDEST DUP2 DUP2 SUB PUSH1 0x20 DUP4 ADD MSTORE PUSH2 0x4909 DUP2 DUP11 PUSH2 0x4631 JUMP JUMPDEST SWAP1 POP PUSH2 0x4918 PUSH1 0x40 DUP4 ADD DUP10 PUSH2 0x46EF JUMP JUMPDEST PUSH2 0x4925 PUSH1 0x60 DUP4 ADD DUP9 PUSH2 0x46EF JUMP JUMPDEST DUP2 DUP2 SUB PUSH1 0x80 DUP4 ADD MSTORE PUSH2 0x4937 DUP2 DUP8 PUSH2 0x4631 JUMP JUMPDEST SWAP1 POP PUSH2 0x4946 PUSH1 0xA0 DUP4 ADD DUP7 PUSH2 0x4786 JUMP JUMPDEST PUSH2 0x4953 PUSH1 0xC0 DUP4 ADD DUP6 PUSH2 0x48D2 JUMP JUMPDEST DUP2 DUP2 SUB PUSH1 0xE0 DUP4 ADD MSTORE PUSH2 0x4965 DUP2 DUP5 PUSH2 0x4631 JUMP JUMPDEST SWAP1 POP SWAP10 SWAP9 POP POP POP POP POP POP POP POP POP JUMP JUMPDEST PUSH1 0x0 PUSH2 0xFFFF DUP3 AND SWAP1 POP SWAP2 SWAP1 POP JUMP JUMPDEST PUSH2 0x498B DUP2 PUSH2 0x4974 JUMP JUMPDEST DUP3 MSTORE POP POP JUMP JUMPDEST PUSH1 0x0 PUSH1 0x40 DUP3 ADD SWAP1 POP PUSH2 0x49A6 PUSH1 0x0 DUP4 ADD DUP6 PUSH2 0x46EF JUMP JUMPDEST PUSH2 0x49B3 PUSH1 0x20 DUP4 ADD DUP5 PUSH2 0x4982 JUMP JUMPDEST SWAP4 SWAP3 POP POP POP JUMP JUMPDEST PUSH1 0x0 PUSH8 0xFFFFFFFFFFFFFFFF DUP3 GT ISZERO PUSH2 0x49D5 JUMPI PUSH2 0x49D4 PUSH2 0x43A9 JUMP JUMPDEST JUMPDEST PUSH1 0x20 DUP3 MUL SWAP1 POP PUSH1 0x20 DUP2 ADD SWAP1 POP SWAP2 SWAP1 POP JUMP JUMPDEST PUSH1 0x0 DUP1 REVERT JUMPDEST PUSH1 0x0 PUSH2 0x49FE PUSH2 0x49F9 DUP5 PUSH2 0x49BA JUMP JUMPDEST PUSH2 0x4409 JUMP JUMPDEST SWAP1 POP DUP1 DUP4 DUP3 MSTORE PUSH1 0x20 DUP3 ADD SWAP1 POP PUSH1 0x20 DUP5 MUL DUP4 ADD DUP6 DUP2 GT ISZERO PUSH2 0x4A21 JUMPI PUSH2 0x4A20 PUSH2 0x49E6 JUMP JUMPDEST JUMPDEST DUP4 JUMPDEST DUP2 DUP2 LT ISZERO PUSH2 0x4A4A JUMPI DUP1 PUSH2 0x4A36 DUP9 DUP3 PUSH2 0x46AD JUMP JUMPDEST DUP5 MSTORE PUSH1 0x20 DUP5 ADD SWAP4 POP POP PUSH1 0x20 DUP2 ADD SWAP1 POP PUSH2 0x4A23 JUMP JUMPDEST POP POP POP SWAP4 SWAP3 POP POP POP JUMP JUMPDEST PUSH1 0x0 DUP3 PUSH1 0x1F DUP4 ADD SLT PUSH2 0x4A69 JUMPI PUSH2 0x4A68 PUSH2 0x438E JUMP JUMPDEST JUMPDEST DUP2 CALLDATALOAD PUSH2 0x4A79 DUP5 DUP3 PUSH1 0x20 DUP7 ADD PUSH2 0x49EB JUMP JUMPDEST SWAP2 POP POP SWAP3 SWAP2 POP POP JUMP JUMPDEST PUSH1 0x0 PUSH1 0x20 DUP3 DUP5 SUB SLT ISZERO PUSH2 0x4A98 JUMPI PUSH2 0x4A97 PUSH2 0x4326 JUMP JUMPDEST JUMPDEST PUSH1 0x0 DUP3 ADD CALLDATALOAD PUSH8 0xFFFFFFFFFFFFFFFF DUP2 GT ISZERO PUSH2 0x4AB6 JUMPI PUSH2 0x4AB5 PUSH2 0x432B JUMP JUMPDEST JUMPDEST PUSH2 0x4AC2 DUP5 DUP3 DUP6 ADD PUSH2 0x4A54 JUMP JUMPDEST SWAP2 POP POP SWAP3 SWAP2 POP POP JUMP JUMPDEST PUSH1 0x0 DUP2 MLOAD SWAP1 POP SWAP2 SWAP1 POP JUMP JUMPDEST PUSH1 0x0 DUP3 DUP3 MSTORE PUSH1 0x20 DUP3 ADD SWAP1 POP SWAP3 SWAP2 POP POP JUMP JUMPDEST PUSH1 0x0 DUP2 SWAP1 POP PUSH1 0x20 DUP3 ADD SWAP1 POP SWAP2 SWAP1 POP JUMP JUMPDEST PUSH2 0x4B00 DUP2 PUSH2 0x4350 JUMP JUMPDEST DUP3 MSTORE POP POP JUMP JUMPDEST PUSH1 0x0 PUSH8 0xFFFFFFFFFFFFFFFF DUP3 AND SWAP1 POP SWAP2 SWAP1 POP JUMP JUMPDEST PUSH2 0x4B23 DUP2 PUSH2 0x4B06 JUMP JUMPDEST DUP3 MSTORE POP POP JUMP JUMPDEST PUSH2 0x4B32 DUP2 PUSH2 0x45B5 JUMP JUMPDEST DUP3 MSTORE POP POP JUMP JUMPDEST PUSH1 0x60 DUP3 ADD PUSH1 0x0 DUP3 ADD MLOAD PUSH2 0x4B4E PUSH1 0x0 DUP6 ADD DUP3 PUSH2 0x4AF7 JUMP JUMPDEST POP PUSH1 0x20 DUP3 ADD MLOAD PUSH2 0x4B61 PUSH1 0x20 DUP6 ADD DUP3 PUSH2 0x4B1A JUMP JUMPDEST POP PUSH1 0x40 DUP3 ADD MLOAD PUSH2 0x4B74 PUSH1 0x40 DUP6 ADD DUP3 PUSH2 0x4B29 JUMP JUMPDEST POP POP POP POP JUMP JUMPDEST PUSH1 0x0 PUSH2 0x4B86 DUP4 DUP4 PUSH2 0x4B38 JUMP JUMPDEST PUSH1 0x60 DUP4 ADD SWAP1 POP SWAP3 SWAP2 POP POP JUMP JUMPDEST PUSH1 0x0 PUSH1 0x20 DUP3 ADD SWAP1 POP SWAP2 SWAP1 POP JUMP JUMPDEST PUSH1 0x0 PUSH2 0x4BAA DUP3 PUSH2 0x4ACB JUMP JUMPDEST PUSH2 0x4BB4 DUP2 DUP6 PUSH2 0x4AD6 JUMP JUMPDEST SWAP4 POP PUSH2 0x4BBF DUP4 PUSH2 0x4AE7 JUMP JUMPDEST DUP1 PUSH1 0x0 JUMPDEST DUP4 DUP2 LT ISZERO PUSH2 0x4BF0 JUMPI DUP2 MLOAD PUSH2 0x4BD7 DUP9 DUP3 PUSH2 0x4B7A JUMP JUMPDEST SWAP8 POP PUSH2 0x4BE2 DUP4 PUSH2 0x4B92 JUMP JUMPDEST SWAP3 POP POP PUSH1 0x1 DUP2 ADD SWAP1 POP PUSH2 0x4BC3 JUMP JUMPDEST POP DUP6 SWAP4 POP POP POP POP SWAP3 SWAP2 POP POP JUMP JUMPDEST PUSH1 0x0 PUSH1 0x20 DUP3 ADD SWAP1 POP DUP2 DUP2 SUB PUSH1 0x0 DUP4 ADD MSTORE PUSH2 0x4C17 DUP2 DUP5 PUSH2 0x4B9F JUMP JUMPDEST SWAP1 POP SWAP3 SWAP2 POP POP JUMP JUMPDEST PUSH1 0x0 DUP1 PUSH1 0x0 PUSH1 0x60 DUP5 DUP7 SUB SLT ISZERO PUSH2 0x4C38 JUMPI PUSH2 0x4C37 PUSH2 0x4326 JUMP JUMPDEST JUMPDEST PUSH1 0x0 DUP5 ADD CALLDATALOAD PUSH8 0xFFFFFFFFFFFFFFFF DUP2 GT ISZERO PUSH2 0x4C56 JUMPI PUSH2 0x4C55 PUSH2 0x432B JUMP JUMPDEST JUMPDEST PUSH2 0x4C62 DUP7 DUP3 DUP8 ADD PUSH2 0x44A6 JUMP JUMPDEST SWAP4 POP POP PUSH1 0x20 PUSH2 0x4C73 DUP7 DUP3 DUP8 ADD PUSH2 0x4379 JUMP JUMPDEST SWAP3 POP POP PUSH1 0x40 PUSH2 0x4C84 DUP7 DUP3 DUP8 ADD PUSH2 0x46AD JUMP JUMPDEST SWAP2 POP POP SWAP3 POP SWAP3 POP SWAP3 JUMP JUMPDEST PUSH1 0x0 PUSH8 0xFFFFFFFFFFFFFFFF DUP3 GT ISZERO PUSH2 0x4CA9 JUMPI PUSH2 0x4CA8 PUSH2 0x43A9 JUMP JUMPDEST JUMPDEST PUSH2 0x4CB2 DUP3 PUSH2 0x4398 JUMP JUMPDEST SWAP1 POP PUSH1 0x20 DUP2 ADD SWAP1 POP SWAP2 SWAP1 POP JUMP JUMPDEST PUSH1 0x0 PUSH2 0x4CD2 PUSH2 0x4CCD DUP5 PUSH2 0x4C8E JUMP JUMPDEST PUSH2 0x4409 JUMP JUMPDEST SWAP1 POP DUP3 DUP2 MSTORE PUSH1 0x20 DUP2 ADD DUP5 DUP5 DUP5 ADD GT ISZERO PUSH2 0x4CEE JUMPI PUSH2 0x4CED PUSH2 0x4393 JUMP JUMPDEST JUMPDEST PUSH2 0x4CF9 DUP5 DUP3 DUP6 PUSH2 0x4455 JUMP JUMPDEST POP SWAP4 SWAP3 POP POP POP JUMP JUMPDEST PUSH1 0x0 DUP3 PUSH1 0x1F DUP4 ADD SLT PUSH2 0x4D16 JUMPI PUSH2 0x4D15 PUSH2 0x438E JUMP JUMPDEST JUMPDEST DUP2 CALLDATALOAD PUSH2 0x4D26 DUP5 DUP3 PUSH1 0x20 DUP7 ADD PUSH2 0x4CBF JUMP JUMPDEST SWAP2 POP POP SWAP3 SWAP2 POP POP JUMP JUMPDEST PUSH1 0x0 DUP1 PUSH1 0x0 DUP1 PUSH1 0x80 DUP6 DUP8 SUB SLT ISZERO PUSH2 0x4D49 JUMPI PUSH2 0x4D48 PUSH2 0x4326 JUMP JUMPDEST JUMPDEST PUSH1 0x0 PUSH2 0x4D57 DUP8 DUP3 DUP9 ADD PUSH2 0x4379 JUMP JUMPDEST SWAP5 POP POP PUSH1 0x20 PUSH2 0x4D68 DUP8 DUP3 DUP9 ADD PUSH2 0x46AD JUMP JUMPDEST SWAP4 POP POP PUSH1 0x40 DUP6 ADD CALLDATALOAD PUSH8 0xFFFFFFFFFFFFFFFF DUP2 GT ISZERO PUSH2 0x4D89 JUMPI PUSH2 0x4D88 PUSH2 0x432B JUMP JUMPDEST JUMPDEST PUSH2 0x4D95 DUP8 DUP3 DUP9 ADD PUSH2 0x44A6 JUMP JUMPDEST SWAP3 POP POP PUSH1 0x60 DUP6 ADD CALLDATALOAD PUSH8 0xFFFFFFFFFFFFFFFF DUP2 GT ISZERO PUSH2 0x4DB6 JUMPI PUSH2 0x4DB5 PUSH2 0x432B JUMP JUMPDEST JUMPDEST PUSH2 0x4DC2 DUP8 DUP3 DUP9 ADD PUSH2 0x4D01 JUMP JUMPDEST SWAP2 POP POP SWAP3 SWAP6 SWAP2 SWAP5 POP SWAP3 POP JUMP JUMPDEST PUSH1 0x0 DUP2 MLOAD SWAP1 POP SWAP2 SWAP1 POP JUMP JUMPDEST PUSH1 0x0 DUP3 DUP3 MSTORE PUSH1 0x20 DUP3 ADD SWAP1 POP SWAP3 SWAP2 POP POP JUMP JUMPDEST PUSH1 0x0 DUP2 SWAP1 POP PUSH1 0x20 DUP3 ADD SWAP1 POP SWAP2 SWAP1 POP JUMP JUMPDEST PUSH2 0x4E03 DUP2 PUSH2 0x468C JUMP JUMPDEST DUP3 MSTORE POP POP JUMP JUMPDEST PUSH1 0x0 PUSH2 0x4E15 DUP4 DUP4 PUSH2 0x4DFA JUMP JUMPDEST PUSH1 0x20 DUP4 ADD SWAP1 POP SWAP3 SWAP2 POP POP JUMP JUMPDEST PUSH1 0x0 PUSH1 0x20 DUP3 ADD SWAP1 POP SWAP2 SWAP1 POP JUMP JUMPDEST PUSH1 0x0 PUSH2 0x4E39 DUP3 PUSH2 0x4DCE JUMP JUMPDEST PUSH2 0x4E43 DUP2 DUP6 PUSH2 0x4DD9 JUMP JUMPDEST SWAP4 POP PUSH2 0x4E4E DUP4 PUSH2 0x4DEA JUMP JUMPDEST DUP1 PUSH1 0x0 JUMPDEST DUP4 DUP2 LT ISZERO PUSH2 0x4E7F JUMPI DUP2 MLOAD PUSH2 0x4E66 DUP9 DUP3 PUSH2 0x4E09 JUMP JUMPDEST SWAP8 POP PUSH2 0x4E71 DUP4 PUSH2 0x4E21 JUMP JUMPDEST SWAP3 POP POP PUSH1 0x1 DUP2 ADD SWAP1 POP PUSH2 0x4E52 JUMP JUMPDEST POP DUP6 SWAP4 POP POP POP POP SWAP3 SWAP2 POP POP JUMP JUMPDEST PUSH1 0x0 PUSH1 0x20 DUP3 ADD SWAP1 POP DUP2 DUP2 SUB PUSH1 0x0 DUP4 ADD MSTORE PUSH2 0x4EA6 DUP2 DUP5 PUSH2 0x4E2E JUMP JUMPDEST SWAP1 POP SWAP3 SWAP2 POP POP JUMP JUMPDEST PUSH1 0x0 PUSH1 0x20 DUP3 DUP5 SUB SLT ISZERO PUSH2 0x4EC4 JUMPI PUSH2 0x4EC3 PUSH2 0x4326 JUMP JUMPDEST JUMPDEST PUSH1 0x0 DUP3 ADD CALLDATALOAD PUSH8 0xFFFFFFFFFFFFFFFF DUP2 GT ISZERO PUSH2 0x4EE2 JUMPI PUSH2 0x4EE1 PUSH2 0x432B JUMP JUMPDEST JUMPDEST PUSH2 0x4EEE DUP5 DUP3 DUP6 ADD PUSH2 0x44A6 JUMP JUMPDEST SWAP2 POP POP SWAP3 SWAP2 POP POP JUMP JUMPDEST PUSH1 0x0 DUP1 PUSH1 0x0 PUSH1 0x60 DUP5 DUP7 SUB SLT ISZERO PUSH2 0x4F10 JUMPI PUSH2 0x4F0F PUSH2 0x4326 JUMP JUMPDEST JUMPDEST PUSH1 0x0 PUSH2 0x4F1E DUP7 DUP3 DUP8 ADD PUSH2 0x4379 JUMP JUMPDEST SWAP4 POP POP PUSH1 0x20 PUSH2 0x4F2F DUP7 DUP3 DUP8 ADD PUSH2 0x46AD JUMP JUMPDEST SWAP3 POP POP PUSH1 0x40 PUSH2 0x4F40 DUP7 DUP3 DUP8 ADD PUSH2 0x46AD JUMP JUMPDEST SWAP2 POP POP SWAP3 POP SWAP3 POP SWAP3 JUMP JUMPDEST PUSH1 0x0 DUP1 PUSH1 0x0 PUSH1 0x60 DUP5 DUP7 SUB SLT ISZERO PUSH2 0x4F63 JUMPI PUSH2 0x4F62 PUSH2 0x4326 JUMP JUMPDEST JUMPDEST PUSH1 0x0 PUSH2 0x4F71 DUP7 DUP3 DUP8 ADD PUSH2 0x46AD JUMP JUMPDEST SWAP4 POP POP PUSH1 0x20 PUSH2 0x4F82 DUP7 DUP3 DUP8 ADD PUSH2 0x4379 JUMP JUMPDEST SWAP3 POP POP PUSH1 0x40 PUSH2 0x4F93 DUP7 DUP3 DUP8 ADD PUSH2 0x46AD JUMP JUMPDEST SWAP2 POP POP SWAP3 POP SWAP3 POP SWAP3 JUMP JUMPDEST PUSH2 0x4FA6 DUP2 PUSH2 0x45B5 JUMP JUMPDEST DUP2 EQ PUSH2 0x4FB1 JUMPI PUSH1 0x0 DUP1 REVERT JUMPDEST POP JUMP JUMPDEST PUSH1 0x0 DUP2 CALLDATALOAD SWAP1 POP PUSH2 0x4FC3 DUP2 PUSH2 0x4F9D JUMP JUMPDEST SWAP3 SWAP2 POP POP JUMP JUMPDEST PUSH1 0x0 DUP1 PUSH1 0x40 DUP4 DUP6 SUB SLT ISZERO PUSH2 0x4FE0 JUMPI PUSH2 0x4FDF PUSH2 0x4326 JUMP JUMPDEST JUMPDEST PUSH1 0x0 PUSH2 0x4FEE DUP6 DUP3 DUP7 ADD PUSH2 0x4379 JUMP JUMPDEST SWAP3 POP POP PUSH1 0x20 PUSH2 0x4FFF DUP6 DUP3 DUP7 ADD PUSH2 0x4FB4 JUMP JUMPDEST SWAP2 POP POP SWAP3 POP SWAP3 SWAP1 POP JUMP JUMPDEST PUSH1 0x0 DUP1 REVERT JUMPDEST PUSH1 0x0 DUP1 DUP4 PUSH1 0x1F DUP5 ADD SLT PUSH2 0x5024 JUMPI PUSH2 0x5023 PUSH2 0x438E JUMP JUMPDEST JUMPDEST DUP3 CALLDATALOAD SWAP1 POP PUSH8 0xFFFFFFFFFFFFFFFF DUP2 GT ISZERO PUSH2 0x5041 JUMPI PUSH2 0x5040 PUSH2 0x5009 JUMP JUMPDEST JUMPDEST PUSH1 0x20 DUP4 ADD SWAP2 POP DUP4 PUSH1 0x20 DUP3 MUL DUP4 ADD GT ISZERO PUSH2 0x505D JUMPI PUSH2 0x505C PUSH2 0x49E6 JUMP JUMPDEST JUMPDEST SWAP3 POP SWAP3 SWAP1 POP JUMP JUMPDEST PUSH1 0x0 DUP1 PUSH1 0x20 DUP4 DUP6 SUB SLT ISZERO PUSH2 0x507B JUMPI PUSH2 0x507A PUSH2 0x4326 JUMP JUMPDEST JUMPDEST PUSH1 0x0 DUP4 ADD CALLDATALOAD PUSH8 0xFFFFFFFFFFFFFFFF DUP2 GT ISZERO PUSH2 0x5099 JUMPI PUSH2 0x5098 PUSH2 0x432B JUMP JUMPDEST JUMPDEST PUSH2 0x50A5 DUP6 DUP3 DUP7 ADD PUSH2 0x500E JUMP JUMPDEST SWAP3 POP SWAP3 POP POP SWAP3 POP SWAP3 SWAP1 POP JUMP JUMPDEST PUSH1 0x0 DUP2 MLOAD SWAP1 POP SWAP2 SWAP1 POP JUMP JUMPDEST PUSH1 0x0 DUP3 DUP3 MSTORE PUSH1 0x20 DUP3 ADD SWAP1 POP SWAP3 SWAP2 POP POP JUMP JUMPDEST PUSH1 0x0 DUP2 SWAP1 POP PUSH1 0x20 DUP3 ADD SWAP1 POP SWAP2 SWAP1 POP JUMP JUMPDEST PUSH1 0x0 DUP2 MLOAD SWAP1 POP SWAP2 SWAP1 POP JUMP JUMPDEST PUSH1 0x0 DUP3 DUP3 MSTORE PUSH1 0x20 DUP3 ADD SWAP1 POP SWAP3 SWAP2 POP POP JUMP JUMPDEST PUSH1 0x0 PUSH2 0x5104 DUP3 PUSH2 0x50DD JUMP JUMPDEST PUSH2 0x510E DUP2 DUP6 PUSH2 0x50E8 JUMP JUMPDEST SWAP4 POP PUSH2 0x511E DUP2 DUP6 PUSH1 0x20 DUP7 ADD PUSH2 0x4607 JUMP JUMPDEST PUSH2 0x5127 DUP2 PUSH2 0x4398 JUMP JUMPDEST DUP5 ADD SWAP2 POP POP SWAP3 SWAP2 POP POP JUMP JUMPDEST PUSH1 0x0 PUSH2 0x513E DUP4 DUP4 PUSH2 0x50F9 JUMP JUMPDEST SWAP1 POP SWAP3 SWAP2 POP POP JUMP JUMPDEST PUSH1 0x0 PUSH1 0x20 DUP3 ADD SWAP1 POP SWAP2 SWAP1 POP JUMP JUMPDEST PUSH1 0x0 PUSH2 0x515E DUP3 PUSH2 0x50B1 JUMP JUMPDEST PUSH2 0x5168 DUP2 DUP6 PUSH2 0x50BC JUMP JUMPDEST SWAP4 POP DUP4 PUSH1 0x20 DUP3 MUL DUP6 ADD PUSH2 0x517A DUP6 PUSH2 0x50CD JUMP JUMPDEST DUP1 PUSH1 0x0 JUMPDEST DUP6 DUP2 LT ISZERO PUSH2 0x51B6 JUMPI DUP5 DUP5 SUB DUP10 MSTORE DUP2 MLOAD PUSH2 0x5197 DUP6 DUP3 PUSH2 0x5132 JUMP JUMPDEST SWAP5 POP PUSH2 0x51A2 DUP4 PUSH2 0x5146 JUMP JUMPDEST SWAP3 POP PUSH1 0x20 DUP11 ADD SWAP10 POP POP PUSH1 0x1 DUP2 ADD SWAP1 POP PUSH2 0x517E JUMP JUMPDEST POP DUP3 SWAP8 POP DUP8 SWAP6 POP POP POP POP POP POP SWAP3 SWAP2 POP POP JUMP JUMPDEST PUSH1 0x0 PUSH1 0x20 DUP3 ADD SWAP1 POP DUP2 DUP2 SUB PUSH1 0x0 DUP4 ADD MSTORE PUSH2 0x51E2 DUP2 DUP5 PUSH2 0x5153 JUMP JUMPDEST SWAP1 POP SWAP3 SWAP2 POP POP JUMP JUMPDEST PUSH1 0x0 DUP1 PUSH1 0x0 DUP1 PUSH1 0x80 DUP6 DUP8 SUB SLT ISZERO PUSH2 0x5204 JUMPI PUSH2 0x5203 PUSH2 0x4326 JUMP JUMPDEST JUMPDEST PUSH1 0x0 PUSH2 0x5212 DUP8 DUP3 DUP9 ADD PUSH2 0x4379 JUMP JUMPDEST SWAP5 POP POP PUSH1 0x20 PUSH2 0x5223 DUP8 DUP3 DUP9 ADD PUSH2 0x4379 JUMP JUMPDEST SWAP4 POP POP PUSH1 0x40 PUSH2 0x5234 DUP8 DUP3 DUP9 ADD PUSH2 0x46AD JUMP JUMPDEST SWAP3 POP POP PUSH1 0x60 DUP6 ADD CALLDATALOAD PUSH8 0xFFFFFFFFFFFFFFFF DUP2 GT ISZERO PUSH2 0x5255 JUMPI PUSH2 0x5254 PUSH2 0x432B JUMP JUMPDEST JUMPDEST PUSH2 0x5261 DUP8 DUP3 DUP9 ADD PUSH2 0x4D01 JUMP JUMPDEST SWAP2 POP POP SWAP3 SWAP6 SWAP2 SWAP5 POP SWAP3 POP JUMP JUMPDEST PUSH1 0x60 DUP3 ADD PUSH1 0x0 DUP3 ADD MLOAD PUSH2 0x5283 PUSH1 0x0 DUP6 ADD DUP3 PUSH2 0x4AF7 JUMP JUMPDEST POP PUSH1 0x20 DUP3 ADD MLOAD PUSH2 0x5296 PUSH1 0x20 DUP6 ADD DUP3 PUSH2 0x4B1A JUMP JUMPDEST POP PUSH1 0x40 DUP3 ADD MLOAD PUSH2 0x52A9 PUSH1 0x40 DUP6 ADD DUP3 PUSH2 0x4B29 JUMP JUMPDEST POP POP POP POP JUMP JUMPDEST PUSH1 0x0 PUSH1 0x60 DUP3 ADD SWAP1 POP PUSH2 0x52C4 PUSH1 0x0 DUP4 ADD DUP5 PUSH2 0x526D JUMP JUMPDEST SWAP3 SWAP2 POP POP JUMP JUMPDEST PUSH1 0x0 DUP1 PUSH1 0x40 DUP4 DUP6 SUB SLT ISZERO PUSH2 0x52E1 JUMPI PUSH2 0x52E0 PUSH2 0x4326 JUMP JUMPDEST JUMPDEST PUSH1 0x0 PUSH2 0x52EF DUP6 DUP3 DUP7 ADD PUSH2 0x4379 JUMP JUMPDEST SWAP3 POP POP PUSH1 0x20 PUSH2 0x5300 DUP6 DUP3 DUP7 ADD PUSH2 0x4379 JUMP JUMPDEST SWAP2 POP POP SWAP3 POP SWAP3 SWAP1 POP JUMP JUMPDEST PUSH32 0x4E6F7420617574686F72697A656420746F206D696E742E000000000000000000 PUSH1 0x0 DUP3 ADD MSTORE POP JUMP JUMPDEST PUSH1 0x0 PUSH2 0x5340 PUSH1 0x17 DUP4 PUSH2 0x45F6 JUMP JUMPDEST SWAP2 POP PUSH2 0x534B DUP3 PUSH2 0x530A JUMP JUMPDEST PUSH1 0x20 DUP3 ADD SWAP1 POP SWAP2 SWAP1 POP JUMP JUMPDEST PUSH1 0x0 PUSH1 0x20 DUP3 ADD SWAP1 POP DUP2 DUP2 SUB PUSH1 0x0 DUP4 ADD MSTORE PUSH2 0x536F DUP2 PUSH2 0x5333 JUMP JUMPDEST SWAP1 POP SWAP2 SWAP1 POP JUMP JUMPDEST PUSH32 0x4E487B7100000000000000000000000000000000000000000000000000000000 PUSH1 0x0 MSTORE PUSH1 0x22 PUSH1 0x4 MSTORE PUSH1 0x24 PUSH1 0x0 REVERT JUMPDEST PUSH1 0x0 PUSH1 0x2 DUP3 DIV SWAP1 POP PUSH1 0x1 DUP3 AND DUP1 PUSH2 0x53BD JUMPI PUSH1 0x7F DUP3 AND SWAP2 POP JUMPDEST PUSH1 0x20 DUP3 LT DUP2 SUB PUSH2 0x53D0 JUMPI PUSH2 0x53CF PUSH2 0x5376 JUMP JUMPDEST JUMPDEST POP SWAP2 SWAP1 POP JUMP JUMPDEST PUSH32 0x4F6E6C79206F776E65722063616E2075706C6F616420646F63756D656E747300 PUSH1 0x0 DUP3 ADD MSTORE POP JUMP JUMPDEST PUSH1 0x0 PUSH2 0x540C PUSH1 0x1F DUP4 PUSH2 0x45F6 JUMP JUMPDEST SWAP2 POP PUSH2 0x5417 DUP3 PUSH2 0x53D6 JUMP JUMPDEST PUSH1 0x20 DUP3 ADD SWAP1 POP SWAP2 SWAP1 POP JUMP JUMPDEST PUSH1 0x0 PUSH1 0x20 DUP3 ADD SWAP1 POP DUP2 DUP2 SUB PUSH1 0x0 DUP4 ADD MSTORE PUSH2 0x543B DUP2 PUSH2 0x53FF JUMP JUMPDEST SWAP1 POP SWAP2 SWAP1 POP JUMP JUMPDEST PUSH1 0x0 DUP2 SWAP1 POP DUP2 PUSH1 0x0 MSTORE PUSH1 0x20 PUSH1 0x0 KECCAK256 SWAP1 POP SWAP2 SWAP1 POP JUMP JUMPDEST PUSH1 0x0 PUSH1 0x20 PUSH1 0x1F DUP4 ADD DIV SWAP1 POP SWAP2 SWAP1 POP JUMP JUMPDEST PUSH1 0x0 DUP3 DUP3 SHL SWAP1 POP SWAP3 SWAP2 POP POP JUMP JUMPDEST PUSH1 0x0 PUSH1 0x8 DUP4 MUL PUSH2 0x54A4 PUSH32 0xFFFFFFFFFFFFFFFFFFFFFFFFFFFFFFFFFFFFFFFFFFFFFFFFFFFFFFFFFFFFFFFF DUP3 PUSH2 0x5467 JUMP JUMPDEST PUSH2 0x54AE DUP7 DUP4 PUSH2 0x5467 JUMP JUMPDEST SWAP6 POP DUP1 NOT DUP5 AND SWAP4 POP DUP1 DUP7 AND DUP5 OR SWAP3 POP POP POP SWAP4 SWAP3 POP POP POP JUMP JUMPDEST PUSH1 0x0 DUP2 SWAP1 POP SWAP2 SWAP1 POP JUMP JUMPDEST PUSH1 0x0 PUSH2 0x54EB PUSH2 0x54E6 PUSH2 0x54E1 DUP5 PUSH2 0x468C JUMP JUMPDEST PUSH2 0x54C6 JUMP JUMPDEST PUSH2 0x468C JUMP JUMPDEST SWAP1 POP SWAP2 SWAP1 POP JUMP JUMPDEST PUSH1 0x0 DUP2 SWAP1 POP SWAP2 SWAP1 POP JUMP JUMPDEST PUSH2 0x5505 DUP4 PUSH2 0x54D0 JUMP JUMPDEST PUSH2 0x5519 PUSH2 0x5511 DUP3 PUSH2 0x54F2 JUMP JUMPDEST DUP5 DUP5 SLOAD PUSH2 0x5474 JUMP JUMPDEST DUP3 SSTORE POP POP POP POP JUMP JUMPDEST PUSH1 0x0 SWAP1 JUMP JUMPDEST PUSH2 0x552E PUSH2 0x5521 JUMP JUMPDEST PUSH2 0x5539 DUP2 DUP5 DUP5 PUSH2 0x54FC JUMP JUMPDEST POP POP POP JUMP JUMPDEST JUMPDEST DUP2 DUP2 LT ISZERO PUSH2 0x555D JUMPI PUSH2 0x5552 PUSH1 0x0 DUP3 PUSH2 0x5526 JUMP JUMPDEST PUSH1 0x1 DUP2 ADD SWAP1 POP PUSH2 0x553F JUMP JUMPDEST POP POP JUMP JUMPDEST PUSH1 0x1F DUP3 GT ISZERO PUSH2 0x55A2 JUMPI PUSH2 0x5573 DUP2 PUSH2 0x5442 JUMP JUMPDEST PUSH2 0x557C DUP5 PUSH2 0x5457 JUMP JUMPDEST DUP2 ADD PUSH1 0x20 DUP6 LT ISZERO PUSH2 0x558B JUMPI DUP2 SWAP1 POP JUMPDEST PUSH2 0x559F PUSH2 0x5597 DUP6 PUSH2 0x5457 JUMP JUMPDEST DUP4 ADD DUP3 PUSH2 0x553E JUMP JUMPDEST POP POP JUMPDEST POP POP POP JUMP JUMPDEST PUSH1 0x0 DUP3 DUP3 SHR SWAP1 POP SWAP3 SWAP2 POP POP JUMP JUMPDEST PUSH1 0x0 PUSH2 0x55C5 PUSH1 0x0 NOT DUP5 PUSH1 0x8 MUL PUSH2 0x55A7 JUMP JUMPDEST NOT DUP1 DUP4 AND SWAP2 POP POP SWAP3 SWAP2 POP POP JUMP JUMPDEST PUSH1 0x0 PUSH2 0x55DE DUP4 DUP4 PUSH2 0x55B4 JUMP JUMPDEST SWAP2 POP DUP3 PUSH1 0x2 MUL DUP3 OR SWAP1 POP SWAP3 SWAP2 POP POP JUMP JUMPDEST PUSH2 0x55F7 DUP3 PUSH2 0x45EB JUMP JUMPDEST PUSH8 0xFFFFFFFFFFFFFFFF DUP2 GT ISZERO PUSH2 0x5610 JUMPI PUSH2 0x560F PUSH2 0x43A9 JUMP JUMPDEST JUMPDEST PUSH2 0x561A DUP3 SLOAD PUSH2 0x53A5 JUMP JUMPDEST PUSH2 0x5625 DUP3 DUP3 DUP6 PUSH2 0x5561 JUMP JUMPDEST PUSH1 0x0 PUSH1 0x20 SWAP1 POP PUSH1 0x1F DUP4 GT PUSH1 0x1 DUP2 EQ PUSH2 0x5658 JUMPI PUSH1 0x0 DUP5 ISZERO PUSH2 0x5646 JUMPI DUP3 DUP8 ADD MLOAD SWAP1 POP JUMPDEST PUSH2 0x5650 DUP6 DUP3 PUSH2 0x55D2 JUMP JUMPDEST DUP7 SSTORE POP PUSH2 0x56B8 JUMP JUMPDEST PUSH1 0x1F NOT DUP5 AND PUSH2 0x5666 DUP7 PUSH2 0x5442 JUMP JUMPDEST PUSH1 0x0 JUMPDEST DUP3 DUP2 LT ISZERO PUSH2 0x568E JUMPI DUP5 DUP10 ADD MLOAD DUP3 SSTORE PUSH1 0x1 DUP3 ADD SWAP2 POP PUSH1 0x20 DUP6 ADD SWAP5 POP PUSH1 0x20 DUP2 ADD SWAP1 POP PUSH2 0x5669 JUMP JUMPDEST DUP7 DUP4 LT ISZERO PUSH2 0x56AB JUMPI DUP5 DUP10 ADD MLOAD PUSH2 0x56A7 PUSH1 0x1F DUP10 AND DUP3 PUSH2 0x55B4 JUMP JUMPDEST DUP4 SSTORE POP JUMPDEST PUSH1 0x1 PUSH1 0x2 DUP9 MUL ADD DUP9 SSTORE POP POP POP JUMPDEST POP POP POP POP POP POP JUMP JUMPDEST PUSH1 0x0 PUSH1 0x40 DUP3 ADD SWAP1 POP PUSH2 0x56D5 PUSH1 0x0 DUP4 ADD DUP6 PUSH2 0x4786 JUMP JUMPDEST DUP2 DUP2 SUB PUSH1 0x20 DUP4 ADD MSTORE PUSH2 0x56E7 DUP2 DUP5 PUSH2 0x4631 JUMP JUMPDEST SWAP1 POP SWAP4 SWAP3 POP POP POP JUMP JUMPDEST PUSH32 0x4E487B7100000000000000000000000000000000000000000000000000000000 PUSH1 0x0 MSTORE PUSH1 0x32 PUSH1 0x4 MSTORE PUSH1 0x24 PUSH1 0x0 REVERT JUMPDEST PUSH32 0x4E487B7100000000000000000000000000000000000000000000000000000000 PUSH1 0x0 MSTORE PUSH1 0x11 PUSH1 0x4 MSTORE PUSH1 0x24 PUSH1 0x0 REVERT JUMPDEST PUSH1 0x0 PUSH2 0x5759 DUP3 PUSH2 0x468C JUMP JUMPDEST SWAP2 POP PUSH2 0x5764 DUP4 PUSH2 0x468C JUMP JUMPDEST SWAP3 POP DUP3 DUP3 MUL PUSH2 0x5772 DUP2 PUSH2 0x468C JUMP JUMPDEST SWAP2 POP DUP3 DUP3 DIV DUP5 EQ DUP4 ISZERO OR PUSH2 0x5789 JUMPI PUSH2 0x5788 PUSH2 0x571F JUMP JUMPDEST JUMPDEST POP SWAP3 SWAP2 POP POP JUMP JUMPDEST PUSH32 0x4E487B7100000000000000000000000000000000000000000000000000000000 PUSH1 0x0 MSTORE PUSH1 0x12 PUSH1 0x4 MSTORE PUSH1 0x24 PUSH1 0x0 REVERT JUMPDEST PUSH1 0x0 PUSH2 0x57CA DUP3 PUSH2 0x468C JUMP JUMPDEST SWAP2 POP PUSH2 0x57D5 DUP4 PUSH2 0x468C JUMP JUMPDEST SWAP3 POP DUP3 PUSH2 0x57E5 JUMPI PUSH2 0x57E4 PUSH2 0x5790 JUMP JUMPDEST JUMPDEST DUP3 DUP3 DIV SWAP1 POP SWAP3 SWAP2 POP POP JUMP JUMPDEST PUSH1 0x0 PUSH2 0x57FB DUP3 PUSH2 0x468C JUMP JUMPDEST SWAP2 POP PUSH32 0xFFFFFFFFFFFFFFFFFFFFFFFFFFFFFFFFFFFFFFFFFFFFFFFFFFFFFFFFFFFFFFFF DUP3 SUB PUSH2 0x582D JUMPI PUSH2 0x582C PUSH2 0x571F JUMP JUMPDEST JUMPDEST PUSH1 0x1 DUP3 ADD SWAP1 POP SWAP2 SWAP1 POP JUMP JUMPDEST PUSH1 0x0 PUSH1 0x80 DUP3 ADD SWAP1 POP PUSH2 0x584D PUSH1 0x0 DUP4 ADD DUP8 PUSH2 0x4786 JUMP JUMPDEST PUSH2 0x585A PUSH1 0x20 DUP4 ADD DUP7 PUSH2 0x46EF JUMP JUMPDEST PUSH2 0x5867 PUSH1 0x40 DUP4 ADD DUP6 PUSH2 0x46EF JUMP JUMPDEST PUSH2 0x5874 PUSH1 0x60 DUP4 ADD DUP5 PUSH2 0x4786 JUMP JUMPDEST SWAP6 SWAP5 POP POP POP POP POP JUMP JUMPDEST PUSH1 0x0 DUP1 REVERT JUMPDEST PUSH1 0x0 DUP1 REVERT JUMPDEST PUSH1 0x0 DUP1 REVERT JUMPDEST PUSH1 0x0 DUP1 DUP4 CALLDATALOAD PUSH1 0x1 PUSH1 0x20 SUB DUP5 CALLDATASIZE SUB SUB DUP2 SLT PUSH2 0x58A9 JUMPI PUSH2 0x58A8 PUSH2 0x587D JUMP JUMPDEST JUMPDEST DUP1 DUP5 ADD SWAP3 POP DUP3 CALLDATALOAD SWAP2 POP PUSH8 0xFFFFFFFFFFFFFFFF DUP3 GT ISZERO PUSH2 0x58CB JUMPI PUSH2 0x58CA PUSH2 0x5882 JUMP JUMPDEST JUMPDEST PUSH1 0x20 DUP4 ADD SWAP3 POP PUSH1 0x1 DUP3 MUL CALLDATASIZE SUB DUP4 SGT ISZERO PUSH2 0x58E7 JUMPI PUSH2 0x58E6 PUSH2 0x5887 JUMP JUMPDEST JUMPDEST POP SWAP3 POP SWAP3 SWAP1 POP JUMP JUMPDEST PUSH1 0x0 DUP2 SWAP1 POP SWAP3 SWAP2 POP POP JUMP JUMPDEST PUSH1 0x0 PUSH2 0x5906 DUP4 DUP6 PUSH2 0x58EF JUMP JUMPDEST SWAP4 POP PUSH2 0x5913 DUP4 DUP6 DUP5 PUSH2 0x4455 JUMP JUMPDEST DUP3 DUP5 ADD SWAP1 POP SWAP4 SWAP3 POP POP POP JUMP JUMPDEST PUSH1 0x0 DUP2 PUSH1 0x60 SHL SWAP1 POP SWAP2 SWAP1 POP JUMP JUMPDEST PUSH1 0x0 PUSH2 0x5937 DUP3 PUSH2 0x591F JUMP JUMPDEST SWAP1 POP SWAP2 SWAP1 POP JUMP JUMPDEST PUSH1 0x0 PUSH2 0x5949 DUP3 PUSH2 0x592C JUMP JUMPDEST SWAP1 POP SWAP2 SWAP1 POP JUMP JUMPDEST PUSH2 0x5961 PUSH2 0x595C DUP3 PUSH2 0x4350 JUMP JUMPDEST PUSH2 0x593E JUMP JUMPDEST DUP3 MSTORE POP POP JUMP JUMPDEST PUSH1 0x0 PUSH2 0x5974 DUP3 DUP6 DUP8 PUSH2 0x58FA JUMP JUMPDEST SWAP2 POP PUSH2 0x5980 DUP3 DUP5 PUSH2 0x5950 JUMP JUMPDEST PUSH1 0x14 DUP3 ADD SWAP2 POP DUP2 SWAP1 POP SWAP5 SWAP4 POP POP POP POP JUMP JUMPDEST PUSH1 0x0 DUP2 SWAP1 POP SWAP3 SWAP2 POP POP JUMP JUMPDEST PUSH1 0x0 PUSH2 0x59A7 DUP3 PUSH2 0x45EB JUMP JUMPDEST PUSH2 0x59B1 DUP2 DUP6 PUSH2 0x5991 JUMP JUMPDEST SWAP4 POP PUSH2 0x59C1 DUP2 DUP6 PUSH1 0x20 DUP7 ADD PUSH2 0x4607 JUMP JUMPDEST DUP1 DUP5 ADD SWAP2 POP POP SWAP3 SWAP2 POP POP JUMP JUMPDEST PUSH1 0x0 PUSH2 0x59D9 DUP3 DUP6 PUSH2 0x599C JUMP JUMPDEST SWAP2 POP PUSH2 0x59E5 DUP3 DUP5 PUSH2 0x599C JUMP JUMPDEST SWAP2 POP DUP2 SWAP1 POP SWAP4 SWAP3 POP POP POP JUMP JUMPDEST PUSH32 0x55524920616C7265616479207365740000000000000000000000000000000000 PUSH1 0x0 DUP3 ADD MSTORE POP JUMP JUMPDEST PUSH1 0x0 PUSH2 0x5A27 PUSH1 0xF DUP4 PUSH2 0x45F6 JUMP JUMPDEST SWAP2 POP PUSH2 0x5A32 DUP3 PUSH2 0x59F1 JUMP JUMPDEST PUSH1 0x20 DUP3 ADD SWAP1 POP SWAP2 SWAP1 POP JUMP JUMPDEST PUSH1 0x0 PUSH1 0x20 DUP3 ADD SWAP1 POP DUP2 DUP2 SUB PUSH1 0x0 DUP4 ADD MSTORE PUSH2 0x5A56 DUP2 PUSH2 0x5A1A JUMP JUMPDEST SWAP1 POP SWAP2 SWAP1 POP JUMP JUMPDEST PUSH1 0x0 DUP2 SWAP1 POP SWAP2 SWAP1 POP JUMP JUMPDEST PUSH1 0x0 PUSH2 0x5A82 PUSH2 0x5A7D PUSH2 0x5A78 DUP5 PUSH2 0x5A5D JUMP JUMPDEST PUSH2 0x54C6 JUMP JUMPDEST PUSH2 0x468C JUMP JUMPDEST SWAP1 POP SWAP2 SWAP1 POP JUMP JUMPDEST PUSH2 0x5A92 DUP2 PUSH2 0x5A67 JUMP JUMPDEST DUP3 MSTORE POP POP JUMP JUMPDEST PUSH1 0x0 PUSH1 0x40 DUP3 ADD SWAP1 POP PUSH2 0x5AAD PUSH1 0x0 DUP4 ADD DUP6 PUSH2 0x5A89 JUMP JUMPDEST PUSH2 0x5ABA PUSH1 0x20 DUP4 ADD DUP5 PUSH2 0x4786 JUMP JUMPDEST SWAP4 SWAP3 POP POP POP JUMP JUMPDEST PUSH1 0x0 PUSH2 0x5ACC DUP3 PUSH2 0x468C JUMP JUMPDEST SWAP2 POP PUSH2 0x5AD7 DUP4 PUSH2 0x468C JUMP JUMPDEST SWAP3 POP DUP3 DUP3 ADD SWAP1 POP DUP1 DUP3 GT ISZERO PUSH2 0x5AEF JUMPI PUSH2 0x5AEE PUSH2 0x571F JUMP JUMPDEST JUMPDEST SWAP3 SWAP2 POP POP JUMP JUMPDEST PUSH1 0x0 PUSH1 0x40 DUP3 ADD SWAP1 POP DUP2 DUP2 SUB PUSH1 0x0 DUP4 ADD MSTORE PUSH2 0x5B0F DUP2 DUP6 PUSH2 0x4631 JUMP JUMPDEST SWAP1 POP DUP2 DUP2 SUB PUSH1 0x20 DUP4 ADD MSTORE PUSH2 0x5B23 DUP2 DUP5 PUSH2 0x4631 JUMP JUMPDEST SWAP1 POP SWAP4 SWAP3 POP POP POP JUMP JUMPDEST PUSH1 0x0 DUP3 DUP3 MSTORE PUSH1 0x20 DUP3 ADD SWAP1 POP SWAP3 SWAP2 POP POP JUMP JUMPDEST PUSH1 0x0 PUSH2 0x5B48 DUP3 PUSH2 0x50DD JUMP JUMPDEST PUSH2 0x5B52 DUP2 DUP6 PUSH2 0x5B2C JUMP JUMPDEST SWAP4 POP PUSH2 0x5B62 DUP2 DUP6 PUSH1 0x20 DUP7 ADD PUSH2 0x4607 JUMP JUMPDEST PUSH2 0x5B6B DUP2 PUSH2 0x4398 JUMP JUMPDEST DUP5 ADD SWAP2 POP POP SWAP3 SWAP2 POP POP JUMP JUMPDEST PUSH1 0x0 PUSH1 0x80 DUP3 ADD SWAP1 POP PUSH2 0x5B8B PUSH1 0x0 DUP4 ADD DUP8 PUSH2 0x46EF JUMP JUMPDEST PUSH2 0x5B98 PUSH1 0x20 DUP4 ADD DUP7 PUSH2 0x46EF JUMP JUMPDEST PUSH2 0x5BA5 PUSH1 0x40 DUP4 ADD DUP6 PUSH2 0x4786 JUMP JUMPDEST DUP2 DUP2 SUB PUSH1 0x60 DUP4 ADD MSTORE PUSH2 0x5BB7 DUP2 DUP5 PUSH2 0x5B3D JUMP JUMPDEST SWAP1 POP SWAP6 SWAP5 POP POP POP POP POP JUMP JUMPDEST PUSH1 0x0 DUP2 MLOAD SWAP1 POP PUSH2 0x5BD1 DUP2 PUSH2 0x455C JUMP JUMPDEST SWAP3 SWAP2 POP POP JUMP JUMPDEST PUSH1 0x0 PUSH1 0x20 DUP3 DUP5 SUB SLT ISZERO PUSH2 0x5BED JUMPI PUSH2 0x5BEC PUSH2 0x4326 JUMP JUMPDEST JUMPDEST PUSH1 0x0 PUSH2 0x5BFB DUP5 DUP3 DUP6 ADD PUSH2 0x5BC2 JUMP JUMPDEST SWAP2 POP POP SWAP3 SWAP2 POP POP JUMP JUMPDEST PUSH1 0x0 PUSH2 0x5C0F DUP3 PUSH2 0x468C JUMP JUMPDEST SWAP2 POP PUSH2 0x5C1A DUP4 PUSH2 0x468C JUMP JUMPDEST SWAP3 POP DUP3 DUP3 SUB SWAP1 POP DUP2 DUP2 GT ISZERO PUSH2 0x5C32 JUMPI PUSH2 0x5C31 PUSH2 0x571F JUMP JUMPDEST JUMPDEST SWAP3 SWAP2 POP POP JUMP JUMPDEST PUSH1 0x0 PUSH2 0x5C43 DUP3 PUSH2 0x468C JUMP JUMPDEST SWAP2 POP PUSH2 0x5C4E DUP4 PUSH2 0x468C JUMP JUMPDEST SWAP3 POP DUP3 PUSH2 0x5C5E JUMPI PUSH2 0x5C5D PUSH2 0x5790 JUMP JUMPDEST JUMPDEST DUP3 DUP3 MOD SWAP1 POP SWAP3 SWAP2 POP POP JUMP JUMPDEST PUSH1 0x0 PUSH2 0x5C74 DUP3 PUSH2 0x50DD JUMP JUMPDEST PUSH2 0x5C7E DUP2 DUP6 PUSH2 0x58EF JUMP JUMPDEST SWAP4 POP PUSH2 0x5C8E DUP2 DUP6 PUSH1 0x20 DUP7 ADD PUSH2 0x4607 JUMP JUMPDEST DUP1 DUP5 ADD SWAP2 POP POP SWAP3 SWAP2 POP POP JUMP JUMPDEST PUSH1 0x0 PUSH2 0x5CA6 DUP3 DUP5 PUSH2 0x5C69 JUMP JUMPDEST SWAP2 POP DUP2 SWAP1 POP SWAP3 SWAP2 POP POP JUMP JUMPDEST PUSH32 0x416464726573733A2063616C6C20746F206E6F6E2D636F6E7472616374000000 PUSH1 0x0 DUP3 ADD MSTORE POP JUMP JUMPDEST PUSH1 0x0 PUSH2 0x5CE7 PUSH1 0x1D DUP4 PUSH2 0x45F6 JUMP JUMPDEST SWAP2 POP PUSH2 0x5CF2 DUP3 PUSH2 0x5CB1 JUMP JUMPDEST PUSH1 0x20 DUP3 ADD SWAP1 POP SWAP2 SWAP1 POP JUMP JUMPDEST PUSH1 0x0 PUSH1 0x20 DUP3 ADD SWAP1 POP DUP2 DUP2 SUB PUSH1 0x0 DUP4 ADD MSTORE PUSH2 0x5D16 DUP2 PUSH2 0x5CDA JUMP JUMPDEST SWAP1 POP SWAP2 SWAP1 POP JUMP INVALID COINBASE PUSH5 0x6472657373 GASPRICE KECCAK256 PUSH13 0x6F772D6C6576656C2064656C65 PUSH8 0x6174652063616C6C KECCAK256 PUSH7 0x61696C6564A264 PUSH10 0x7066735822122041F689 PREVRANDAO DUP5 SWAP14 CALLDATACOPY 0xAB 0xDB CHAINID PUSH16 0x882C6C4EA5526B46B19C7A995523FBD5 PUSH24 0xACD33DF364736F6C63430008130033000000000000000000 "},"methodIdentifiers":{"approve(address,uint256)":"095ea7b3","balanceOf(address)":"70a08231","batchFrozen(uint256)":"83040532","batchMintTo(address,uint256,string,bytes)":"754a81d9","burn(uint256)":"42966c68","contractURI()":"e8a3d485","createShipment(string,address,uint256)":"60108a98","explicitOwnershipOf(uint256)":"c23dc68f","explicitOwnershipsOf(uint256[])":"5bbb2177","getApproved(uint256)":"081812fc","getBaseURICount()":"63b45e2d","getBatchIdAtIndex(uint256)":"2419f51b","getCustomClearance(uint256)":"f8fc19e7","getDefaultRoyaltyInfo()":"b24f2d39","getRoyaltyInfoForToken(uint256)":"4cc157df","isApprovedForAll(address,address)":"e985e9c5","isApprovedOrOwner(address,uint256)":"430c2081","mintTo(address,string)":"0075a317","multicall(bytes[])":"ac9650d8","name()":"06fdde03","nextTokenIdToMint()":"3b1475a7","owner()":"8da5cb5b","ownerOf(uint256)":"6352211e","royaltyInfo(uint256,uint256)":"2a55205a","safeTransferFrom(address,address,uint256)":"42842e0e","safeTransferFrom(address,address,uint256,bytes)":"b88d4fde","setApprovalForAll(address,bool)":"a22cb465","setContractURI(string)":"938e3d7b","setDefaultRoyaltyInfo(address,uint256)":"600dd5ea","setOwner(address)":"13af4035","setRoyaltyInfoForToken(uint256,address,uint256)":"9bcf7a15","shipmentCount()":"aace20b7","shipments(uint256)":"2ac08a93","supportsInterface(bytes4)":"01ffc9a7","symbol()":"95d89b41","tokenURI(uint256)":"c87b56dd","tokensOfOwner(address)":"8462151c","tokensOfOwnerIn(address,uint256,uint256)":"99a2557a","totalSupply()":"18160ddd","transferFrom(address,address,uint256)":"23b872dd","uploadCustomClearance(uint256,string)":"1a1b5818"}}}}}