{"@thirdweb-dev/contracts/extension/Multicall.sol":{"Multicall":{"abi":[{"inputs":[{"internalType":"bytes[]","name":"data","type":"bytes[]"}],"name":"multicall","outputs":[{"internalType":"bytes[]","name":"results","type":"bytes[]"}],"stateMutability":"nonpayable","type":"function"}],"evm":{"bytecode":{"linkReferences":{},"object":"6080806040523461001657610448908161001c8239f35b600080fdfe6040608081526004908136101561001557600080fd5b600090813560e01c63ac9650d81461002c57600080fd5b3461029b57602090816003193601126102975783359167ffffffffffffffff94858411610293573660238501121561029357838101359386851161028f576024916005973684888b1b8501011161028b5761008c87939798969598610317565b96610099865198896102df565b838852601f196100a885610317565b01875b81811061027c575050368190036042190190875b85811061012457505050505050508051938080860192818752855180945283818801981b870101940192955b8287106100f85785850386f35b909192938280610114600193603f198a8203018652885161029f565b96019201960195929190926100eb565b86818d9c999a9c1b830101358381121561027857820187810135858111610274576044918281019082360382136102705790829161016e6101658f9561032f565b945194856102df565b8284528c84019483369201011161027057818f928d928637830101528a51916060918284018481108982111761025d578f80938f938f857f416464726573733a206c6f772d6c6576656c2064656c65676174652063616c6c660819985a5b195960ca1b9286976102199c9b995260278b528a01528801525190305af4903d1561025657508c3d6102096102008261032f565b925192836102df565b815280928d3d92013e5b30610375565b610223828c61034b565b5261022e818b61034b565b50600019811461024457600101999796996100bf565b634e487b7160e01b8b5260118552868bfd5b9150610213565b50634e487b7160e01b8f52604189528a8ffd5b8e80fd5b8c80fd5b8b80fd5b60608a82018c01528a016100ab565b8780fd5b8580fd5b8480fd5b8280fd5b5080fd5b919082519283825260005b8481106102cb575050826000602080949584010152601f8019910116010190565b6020818301810151848301820152016102aa565b90601f8019910116810190811067ffffffffffffffff82111761030157604052565b634e487b7160e01b600052604160045260246000fd5b67ffffffffffffffff81116103015760051b60200190565b67ffffffffffffffff811161030157601f01601f191660200190565b805182101561035f5760209160051b010190565b634e487b7160e01b600052603260045260246000fd5b919290156103d75750815115610389575090565b3b156103925790565b60405162461bcd60e51b815260206004820152601d60248201527f416464726573733a2063616c6c20746f206e6f6e2d636f6e74726163740000006044820152606490fd5b8251909150156103ea5750805190602001fd5b60405162461bcd60e51b81526020600482015290819061040e90602483019061029f565b0390fdfea2646970667358221220587d0034c3d7822b781f4fe2ce481f0049b60c832daeff52c247968d69d712d764736f6c63430008140033","opcodes":"PUSH1 0x80 DUP1 PUSH1 0x40 MSTORE CALLVALUE PUSH2 0x16 JUMPI PUSH2 0x448 SWAP1 DUP2 PUSH2 0x1C DUP3 CODECOPY RETURN JUMPDEST PUSH1 0x0 DUP1 REVERT INVALID PUSH1 0x40 PUSH1 0x80 DUP2 MSTORE PUSH1 0x4 SWAP1 DUP2 CALLDATASIZE LT ISZERO PUSH2 0x15 JUMPI PUSH1 0x0 DUP1 REVERT JUMPDEST PUSH1 0x0 SWAP1 DUP2 CALLDATALOAD PUSH1 0xE0 SHR PUSH4 0xAC9650D8 EQ PUSH2 0x2C JUMPI PUSH1 0x0 DUP1 REVERT JUMPDEST CALLVALUE PUSH2 0x29B JUMPI PUSH1 0x20 SWAP1 DUP2 PUSH1 0x3 NOT CALLDATASIZE ADD SLT PUSH2 0x297 JUMPI DUP4 CALLDATALOAD SWAP2 PUSH8 0xFFFFFFFFFFFFFFFF SWAP5 DUP6 DUP5 GT PUSH2 0x293 JUMPI CALLDATASIZE PUSH1 0x23 DUP6 ADD SLT ISZERO PUSH2 0x293 JUMPI DUP4 DUP2 ADD CALLDATALOAD SWAP4 DUP7 DUP6 GT PUSH2 0x28F JUMPI PUSH1 0x24 SWAP2 PUSH1 0x5 SWAP8 CALLDATASIZE DUP5 DUP9 DUP12 SHL DUP6 ADD ADD GT PUSH2 0x28B JUMPI PUSH2 0x8C DUP8 SWAP4 SWAP8 SWAP9 SWAP7 SWAP6 SWAP9 PUSH2 0x317 JUMP JUMPDEST SWAP7 PUSH2 0x99 DUP7 MLOAD SWAP9 DUP10 PUSH2 0x2DF JUMP JUMPDEST DUP4 DUP9 MSTORE PUSH1 0x1F NOT PUSH2 0xA8 DUP6 PUSH2 0x317 JUMP JUMPDEST ADD DUP8 JUMPDEST DUP2 DUP2 LT PUSH2 0x27C JUMPI POP POP CALLDATASIZE DUP2 SWAP1 SUB PUSH1 0x42 NOT ADD SWAP1 DUP8 JUMPDEST DUP6 DUP2 LT PUSH2 0x124 JUMPI POP POP POP POP POP POP POP DUP1 MLOAD SWAP4 DUP1 DUP1 DUP7 ADD SWAP3 DUP2 DUP8 MSTORE DUP6 MLOAD DUP1 SWAP5 MSTORE DUP4 DUP2 DUP9 ADD SWAP9 SHL DUP8 ADD ADD SWAP5 ADD SWAP3 SWAP6 JUMPDEST DUP3 DUP8 LT PUSH2 0xF8 JUMPI DUP6 DUP6 SUB DUP7 RETURN JUMPDEST SWAP1 SWAP2 SWAP3 SWAP4 DUP3 DUP1 PUSH2 0x114 PUSH1 0x1 SWAP4 PUSH1 0x3F NOT DUP11 DUP3 SUB ADD DUP7 MSTORE DUP9 MLOAD PUSH2 0x29F JUMP JUMPDEST SWAP7 ADD SWAP3 ADD SWAP7 ADD SWAP6 SWAP3 SWAP2 SWAP1 SWAP3 PUSH2 0xEB JUMP JUMPDEST DUP7 DUP2 DUP14 SWAP13 SWAP10 SWAP11 SWAP13 SHL DUP4 ADD ADD CALLDATALOAD DUP4 DUP2 SLT ISZERO PUSH2 0x278 JUMPI DUP3 ADD DUP8 DUP2 ADD CALLDATALOAD DUP6 DUP2 GT PUSH2 0x274 JUMPI PUSH1 0x44 SWAP2 DUP3 DUP2 ADD SWAP1 DUP3 CALLDATASIZE SUB DUP3 SGT PUSH2 0x270 JUMPI SWAP1 DUP3 SWAP2 PUSH2 0x16E PUSH2 0x165 DUP16 SWAP6 PUSH2 0x32F JUMP JUMPDEST SWAP5 MLOAD SWAP5 DUP6 PUSH2 0x2DF JUMP JUMPDEST DUP3 DUP5 MSTORE DUP13 DUP5 ADD SWAP5 DUP4 CALLDATASIZE SWAP3 ADD ADD GT PUSH2 0x270 JUMPI DUP2 DUP16 SWAP3 DUP14 SWAP3 DUP7 CALLDATACOPY DUP4 ADD ADD MSTORE DUP11 MLOAD SWAP2 PUSH1 0x60 SWAP2 DUP3 DUP5 ADD DUP5 DUP2 LT DUP10 DUP3 GT OR PUSH2 0x25D JUMPI DUP16 DUP1 SWAP4 DUP16 SWAP4 DUP16 DUP6 PUSH32 0x416464726573733A206C6F772D6C6576656C2064656C65676174652063616C6C PUSH7 0x819985A5B1959 PUSH1 0xCA SHL SWAP3 DUP7 SWAP8 PUSH2 0x219 SWAP13 SWAP12 SWAP10 MSTORE PUSH1 0x27 DUP12 MSTORE DUP11 ADD MSTORE DUP9 ADD MSTORE MLOAD SWAP1 ADDRESS GAS DELEGATECALL SWAP1 RETURNDATASIZE ISZERO PUSH2 0x256 JUMPI POP DUP13 RETURNDATASIZE PUSH2 0x209 PUSH2 0x200 DUP3 PUSH2 0x32F JUMP JUMPDEST SWAP3 MLOAD SWAP3 DUP4 PUSH2 0x2DF JUMP JUMPDEST DUP2 MSTORE DUP1 SWAP3 DUP14 RETURNDATASIZE SWAP3 ADD RETURNDATACOPY JUMPDEST ADDRESS PUSH2 0x375 JUMP JUMPDEST PUSH2 0x223 DUP3 DUP13 PUSH2 0x34B JUMP JUMPDEST MSTORE PUSH2 0x22E DUP2 DUP12 PUSH2 0x34B JUMP JUMPDEST POP PUSH1 0x0 NOT DUP2 EQ PUSH2 0x244 JUMPI PUSH1 0x1 ADD SWAP10 SWAP8 SWAP7 SWAP10 PUSH2 0xBF JUMP JUMPDEST PUSH4 0x4E487B71 PUSH1 0xE0 SHL DUP12 MSTORE PUSH1 0x11 DUP6 MSTORE DUP7 DUP12 REVERT JUMPDEST SWAP2 POP PUSH2 0x213 JUMP JUMPDEST POP PUSH4 0x4E487B71 PUSH1 0xE0 SHL DUP16 MSTORE PUSH1 0x41 DUP10 MSTORE DUP11 DUP16 REVERT JUMPDEST DUP15 DUP1 REVERT JUMPDEST DUP13 DUP1 REVERT JUMPDEST DUP12 DUP1 REVERT JUMPDEST PUSH1 0x60 DUP11 DUP3 ADD DUP13 ADD MSTORE DUP11 ADD PUSH2 0xAB JUMP JUMPDEST DUP8 DUP1 REVERT JUMPDEST DUP6 DUP1 REVERT JUMPDEST DUP5 DUP1 REVERT JUMPDEST DUP3 DUP1 REVERT JUMPDEST POP DUP1 REVERT JUMPDEST SWAP2 SWAP1 DUP3 MLOAD SWAP3 DUP4 DUP3 MSTORE PUSH1 0x0 JUMPDEST DUP5 DUP2 LT PUSH2 0x2CB JUMPI POP POP DUP3 PUSH1 0x0 PUSH1 0x20 DUP1 SWAP5 SWAP6 DUP5 ADD ADD MSTORE PUSH1 0x1F DUP1 NOT SWAP2 ADD AND ADD ADD SWAP1 JUMP JUMPDEST PUSH1 0x20 DUP2 DUP4 ADD DUP2 ADD MLOAD DUP5 DUP4 ADD DUP3 ADD MSTORE ADD PUSH2 0x2AA JUMP JUMPDEST SWAP1 PUSH1 0x1F DUP1 NOT SWAP2 ADD AND DUP2 ADD SWAP1 DUP2 LT PUSH8 0xFFFFFFFFFFFFFFFF DUP3 GT OR PUSH2 0x301 JUMPI PUSH1 0x40 MSTORE JUMP JUMPDEST PUSH4 0x4E487B71 PUSH1 0xE0 SHL PUSH1 0x0 MSTORE PUSH1 0x41 PUSH1 0x4 MSTORE PUSH1 0x24 PUSH1 0x0 REVERT JUMPDEST PUSH8 0xFFFFFFFFFFFFFFFF DUP2 GT PUSH2 0x301 JUMPI PUSH1 0x5 SHL PUSH1 0x20 ADD SWAP1 JUMP JUMPDEST PUSH8 0xFFFFFFFFFFFFFFFF DUP2 GT PUSH2 0x301 JUMPI PUSH1 0x1F ADD PUSH1 0x1F NOT AND PUSH1 0x20 ADD SWAP1 JUMP JUMPDEST DUP1 MLOAD DUP3 LT ISZERO PUSH2 0x35F JUMPI PUSH1 0x20 SWAP2 PUSH1 0x5 SHL ADD ADD SWAP1 JUMP JUMPDEST PUSH4 0x4E487B71 PUSH1 0xE0 SHL PUSH1 0x0 MSTORE PUSH1 0x32 PUSH1 0x4 MSTORE PUSH1 0x24 PUSH1 0x0 REVERT JUMPDEST SWAP2 SWAP3 SWAP1 ISZERO PUSH2 0x3D7 JUMPI POP DUP2 MLOAD ISZERO PUSH2 0x389 JUMPI POP SWAP1 JUMP JUMPDEST EXTCODESIZE ISZERO PUSH2 0x392 JUMPI SWAP1 JUMP JUMPDEST PUSH1 0x40 MLOAD PUSH3 0x461BCD PUSH1 0xE5 SHL DUP2 MSTORE PUSH1 0x20 PUSH1 0x4 DUP3 ADD MSTORE PUSH1 0x1D PUSH1 0x24 DUP3 ADD MSTORE PUSH32 0x416464726573733A2063616C6C20746F206E6F6E2D636F6E7472616374000000 PUSH1 0x44 DUP3 ADD MSTORE PUSH1 0x64 SWAP1 REVERT JUMPDEST DUP3 MLOAD SWAP1 SWAP2 POP ISZERO PUSH2 0x3EA JUMPI POP DUP1 MLOAD SWAP1 PUSH1 0x20 ADD REVERT JUMPDEST PUSH1 0x40 MLOAD PUSH3 0x461BCD PUSH1 0xE5 SHL DUP2 MSTORE PUSH1 0x20 PUSH1 0x4 DUP3 ADD MSTORE SWAP1 DUP2 SWAP1 PUSH2 0x40E SWAP1 PUSH1 0x24 DUP4 ADD SWAP1 PUSH2 0x29F JUMP JUMPDEST SUB SWAP1 REVERT INVALID LOG2 PUSH5 0x6970667358 0x22 SLT KECCAK256 PC PUSH30 0x34C3D7822B781F4FE2CE481F0049B60C832DAEFF52C247968D69D712D7 PUSH5 0x736F6C6343 STOP ADDMOD EQ STOP CALLER "},"methodIdentifiers":{"multicall(bytes[])":"ac9650d8"}}}}}