{"@thirdweb-dev/contracts/extension/BatchMintMetadata.sol":{"BatchMintMetadata":{"abi":[{"inputs":[{"internalType":"uint256","name":"index","type":"uint256"}],"name":"BatchMintInvalidBatchId","type":"error"},{"inputs":[{"internalType":"uint256","name":"tokenId","type":"uint256"}],"name":"BatchMintInvalidTokenId","type":"error"},{"inputs":[{"internalType":"uint256","name":"batchId","type":"uint256"}],"name":"BatchMintMetadataFrozen","type":"error"},{"anonymous":false,"inputs":[{"indexed":false,"internalType":"uint256","name":"_fromTokenId","type":"uint256"},{"indexed":false,"internalType":"uint256","name":"_toTokenId","type":"uint256"}],"name":"BatchMetadataUpdate","type":"event"},{"anonymous":false,"inputs":[],"name":"MetadataFrozen","type":"event"},{"inputs":[{"internalType":"uint256","name":"","type":"uint256"}],"name":"batchFrozen","outputs":[{"internalType":"bool","name":"","type":"bool"}],"stateMutability":"view","type":"function"},{"inputs":[],"name":"getBaseURICount","outputs":[{"internalType":"uint256","name":"","type":"uint256"}],"stateMutability":"view","type":"function"},{"inputs":[{"internalType":"uint256","name":"_index","type":"uint256"}],"name":"getBatchIdAtIndex","outputs":[{"internalType":"uint256","name":"","type":"uint256"}],"stateMutability":"view","type":"function"}],"evm":{"bytecode":{"linkReferences":{},"object":"6080806040523461001657610124908161001c8239f35b600080fdfe6080806040526004361015601257600080fd5b600090813560e01c9081632419f51b1460885750806363b45e2d14606d57638304053214603e57600080fd5b34606a576020366003190112606a5760ff60406020926004358152600284522054166040519015158152f35b80fd5b5034606a5780600319360112606a5760209054604051908152f35b90503460ea57602036600319011260ea5760043590825482101560d6575081602092527f290decd9548b62a8d60345a988386fc84ba6bc95484008f6362f93160ef3e5630154604051908152f35b602491630793127760e11b82526004820152fd5b5080fdfea26469706673582212203ae533f6f41cd52aca00449f1300fe22ade088a4611369abcda37a3f2b65b2c164736f6c63430008140033","opcodes":"PUSH1 0x80 DUP1 PUSH1 0x40 MSTORE CALLVALUE PUSH2 0x16 JUMPI PUSH2 0x124 SWAP1 DUP2 PUSH2 0x1C DUP3 CODECOPY RETURN JUMPDEST PUSH1 0x0 DUP1 REVERT INVALID PUSH1 0x80 DUP1 PUSH1 0x40 MSTORE PUSH1 0x4 CALLDATASIZE LT ISZERO PUSH1 0x12 JUMPI PUSH1 0x0 DUP1 REVERT JUMPDEST PUSH1 0x0 SWAP1 DUP2 CALLDATALOAD PUSH1 0xE0 SHR SWAP1 DUP2 PUSH4 0x2419F51B EQ PUSH1 0x88 JUMPI POP DUP1 PUSH4 0x63B45E2D EQ PUSH1 0x6D JUMPI PUSH4 0x83040532 EQ PUSH1 0x3E JUMPI PUSH1 0x0 DUP1 REVERT JUMPDEST CALLVALUE PUSH1 0x6A JUMPI PUSH1 0x20 CALLDATASIZE PUSH1 0x3 NOT ADD SLT PUSH1 0x6A JUMPI PUSH1 0xFF PUSH1 0x40 PUSH1 0x20 SWAP3 PUSH1 0x4 CALLDATALOAD DUP2 MSTORE PUSH1 0x2 DUP5 MSTORE KECCAK256 SLOAD AND PUSH1 0x40 MLOAD SWAP1 ISZERO ISZERO DUP2 MSTORE RETURN JUMPDEST DUP1 REVERT JUMPDEST POP CALLVALUE PUSH1 0x6A JUMPI DUP1 PUSH1 0x3 NOT CALLDATASIZE ADD SLT PUSH1 0x6A JUMPI PUSH1 0x20 SWAP1 SLOAD PUSH1 0x40 MLOAD SWAP1 DUP2 MSTORE RETURN JUMPDEST SWAP1 POP CALLVALUE PUSH1 0xEA JUMPI PUSH1 0x20 CALLDATASIZE PUSH1 0x3 NOT ADD SLT PUSH1 0xEA JUMPI PUSH1 0x4 CALLDATALOAD SWAP1 DUP3 SLOAD DUP3 LT ISZERO PUSH1 0xD6 JUMPI POP DUP2 PUSH1 0x20 SWAP3 MSTORE PUSH32 0x290DECD9548B62A8D60345A988386FC84BA6BC95484008F6362F93160EF3E563 ADD SLOAD PUSH1 0x40 MLOAD SWAP1 DUP2 MSTORE RETURN JUMPDEST PUSH1 0x24 SWAP2 PUSH4 0x7931277 PUSH1 0xE1 SHL DUP3 MSTORE PUSH1 0x4 DUP3 ADD MSTORE REVERT JUMPDEST POP DUP1 REVERT INVALID LOG2 PUSH5 0x6970667358 0x22 SLT KECCAK256 GASPRICE 0xE5 CALLER 0xF6 DELEGATECALL SHR 0xD5 0x2A 0xCA STOP PREVRANDAO SWAP16 SGT STOP INVALID 0x22 0xAD 0xE0 DUP9 LOG4 PUSH2 0x1369 0xAB 0xCD LOG3 PUSH27 0x3F2B65B2C164736F6C634300081400330000000000000000000000 "},"methodIdentifiers":{"batchFrozen(uint256)":"83040532","getBaseURICount()":"63b45e2d","getBatchIdAtIndex(uint256)":"2419f51b"}}}}}