{"contracts/ShippingNFT.sol":{"ShippingNFT":{"abi":[{"inputs":[],"stateMutability":"nonpayable","type":"constructor"},{"inputs":[],"name":"ApprovalCallerNotOwnerNorApproved","type":"error"},{"inputs":[],"name":"ApprovalQueryForNonexistentToken","type":"error"},{"inputs":[],"name":"ApprovalToCurrentOwner","type":"error"},{"inputs":[],"name":"ApproveToCaller","type":"error"},{"inputs":[],"name":"BalanceQueryForZeroAddress","type":"error"},{"inputs":[{"internalType":"uint256","name":"index","type":"uint256"}],"name":"BatchMintInvalidBatchId","type":"error"},{"inputs":[{"internalType":"uint256","name":"tokenId","type":"uint256"}],"name":"BatchMintInvalidTokenId","type":"error"},{"inputs":[{"internalType":"uint256","name":"batchId","type":"uint256"}],"name":"BatchMintMetadataFrozen","type":"error"},{"inputs":[],"name":"ContractMetadataUnauthorized","type":"error"},{"inputs":[],"name":"InvalidQueryRange","type":"error"},{"inputs":[],"name":"MintToZeroAddress","type":"error"},{"inputs":[],"name":"MintZeroQuantity","type":"error"},{"inputs":[],"name":"OwnableUnauthorized","type":"error"},{"inputs":[],"name":"OwnerQueryForNonexistentToken","type":"error"},{"inputs":[{"internalType":"uint256","name":"max","type":"uint256"},{"internalType":"uint256","name":"actual","type":"uint256"}],"name":"RoyaltyExceededMaxFeeBps","type":"error"},{"inputs":[{"internalType":"address","name":"recipient","type":"address"}],"name":"RoyaltyInvalidRecipient","type":"error"},{"inputs":[],"name":"RoyaltyUnauthorized","type":"error"},{"inputs":[],"name":"TransferCallerNotOwnerNorApproved","type":"error"},{"inputs":[],"name":"TransferFromIncorrectOwner","type":"error"},{"inputs":[],"name":"TransferToNonERC721ReceiverImplementer","type":"error"},{"inputs":[],"name":"TransferToZeroAddress","type":"error"},{"inputs":[],"name":"URIQueryForNonexistentToken","type":"error"},{"anonymous":false,"inputs":[{"indexed":true,"internalType":"address","name":"owner","type":"address"},{"indexed":true,"internalType":"address","name":"approved","type":"address"},{"indexed":true,"internalType":"uint256","name":"tokenId","type":"uint256"}],"name":"Approval","type":"event"},{"anonymous":false,"inputs":[{"indexed":true,"internalType":"address","name":"owner","type":"address"},{"indexed":true,"internalType":"address","name":"operator","type":"address"},{"indexed":false,"internalType":"bool","name":"approved","type":"bool"}],"name":"ApprovalForAll","type":"event"},{"anonymous":false,"inputs":[{"indexed":false,"internalType":"uint256","name":"_fromTokenId","type":"uint256"},{"indexed":false,"internalType":"uint256","name":"_toTokenId","type":"uint256"}],"name":"BatchMetadataUpdate","type":"event"},{"anonymous":false,"inputs":[{"indexed":false,"internalType":"string","name":"prevURI","type":"string"},{"indexed":false,"internalType":"string","name":"newURI","type":"string"}],"name":"ContractURIUpdated","type":"event"},{"anonymous":false,"inputs":[{"indexed":true,"internalType":"address","name":"newRoyaltyRecipient","type":"address"},{"indexed":false,"internalType":"uint256","name":"newRoyaltyBps","type":"uint256"}],"name":"DefaultRoyalty","type":"event"},{"anonymous":false,"inputs":[{"indexed":true,"internalType":"uint256","name":"id","type":"uint256"},{"indexed":false,"internalType":"string","name":"cid","type":"string"}],"name":"DocumentUploaded","type":"event"},{"anonymous":false,"inputs":[],"name":"MetadataFrozen","type":"event"},{"anonymous":false,"inputs":[{"indexed":true,"internalType":"address","name":"prevOwner","type":"address"},{"indexed":true,"internalType":"address","name":"newOwner","type":"address"}],"name":"OwnerUpdated","type":"event"},{"anonymous":false,"inputs":[{"indexed":true,"internalType":"uint256","name":"tokenId","type":"uint256"},{"indexed":true,"internalType":"address","name":"royaltyRecipient","type":"address"},{"indexed":false,"internalType":"uint256","name":"royaltyBps","type":"uint256"}],"name":"RoyaltyForToken","type":"event"},{"anonymous":false,"inputs":[{"indexed":true,"internalType":"uint256","name":"id","type":"uint256"},{"indexed":true,"internalType":"address","name":"sender","type":"address"},{"indexed":true,"internalType":"address","name":"receiver","type":"address"},{"indexed":false,"internalType":"string","name":"description","type":"string"},{"indexed":false,"internalType":"string","name":"documentCID","type":"string"}],"name":"ShipmentCreated","type":"event"},{"anonymous":false,"inputs":[{"indexed":true,"internalType":"uint256","name":"id","type":"uint256"},{"indexed":true,"internalType":"address","name":"from","type":"address"},{"indexed":true,"internalType":"address","name":"to","type":"address"}],"name":"ShipmentTransferred","type":"event"},{"anonymous":false,"inputs":[{"indexed":true,"internalType":"address","name":"from","type":"address"},{"indexed":true,"internalType":"address","name":"to","type":"address"},{"indexed":true,"internalType":"uint256","name":"tokenId","type":"uint256"}],"name":"Transfer","type":"event"},{"inputs":[{"internalType":"address","name":"to","type":"address"},{"internalType":"uint256","name":"tokenId","type":"uint256"}],"name":"approve","outputs":[],"stateMutability":"nonpayable","type":"function"},{"inputs":[{"internalType":"address","name":"owner","type":"address"}],"name":"balanceOf","outputs":[{"internalType":"uint256","name":"","type":"uint256"}],"stateMutability":"view","type":"function"},{"inputs":[{"internalType":"uint256","name":"","type":"uint256"}],"name":"batchFrozen","outputs":[{"internalType":"bool","name":"","type":"bool"}],"stateMutability":"view","type":"function"},{"inputs":[{"internalType":"address","name":"_to","type":"address"},{"internalType":"uint256","name":"_quantity","type":"uint256"},{"internalType":"string","name":"_baseURI","type":"string"},{"internalType":"bytes","name":"_data","type":"bytes"}],"name":"batchMintTo","outputs":[],"stateMutability":"nonpayable","type":"function"},{"inputs":[{"internalType":"uint256","name":"_tokenId","type":"uint256"}],"name":"burn","outputs":[],"stateMutability":"nonpayable","type":"function"},{"inputs":[],"name":"contractURI","outputs":[{"internalType":"string","name":"","type":"string"}],"stateMutability":"view","type":"function"},{"inputs":[{"internalType":"uint256","name":"id","type":"uint256"},{"internalType":"string","name":"desc","type":"string"},{"internalType":"address","name":"receiver","type":"address"},{"internalType":"string","name":"cid","type":"string"}],"name":"createShipment","outputs":[],"stateMutability":"nonpayable","type":"function"},{"inputs":[{"internalType":"uint256","name":"tokenId","type":"uint256"}],"name":"explicitOwnershipOf","outputs":[{"components":[{"internalType":"address","name":"addr","type":"address"},{"internalType":"uint64","name":"startTimestamp","type":"uint64"},{"internalType":"bool","name":"burned","type":"bool"}],"internalType":"struct IERC721A.TokenOwnership","name":"","type":"tuple"}],"stateMutability":"view","type":"function"},{"inputs":[{"internalType":"uint256[]","name":"tokenIds","type":"uint256[]"}],"name":"explicitOwnershipsOf","outputs":[{"components":[{"internalType":"address","name":"addr","type":"address"},{"internalType":"uint64","name":"startTimestamp","type":"uint64"},{"internalType":"bool","name":"burned","type":"bool"}],"internalType":"struct IERC721A.TokenOwnership[]","name":"","type":"tuple[]"}],"stateMutability":"view","type":"function"},{"inputs":[{"internalType":"uint256","name":"tokenId","type":"uint256"}],"name":"getApproved","outputs":[{"internalType":"address","name":"","type":"address"}],"stateMutability":"view","type":"function"},{"inputs":[],"name":"getBaseURICount","outputs":[{"internalType":"uint256","name":"","type":"uint256"}],"stateMutability":"view","type":"function"},{"inputs":[{"internalType":"uint256","name":"_index","type":"uint256"}],"name":"getBatchIdAtIndex","outputs":[{"internalType":"uint256","name":"","type":"uint256"}],"stateMutability":"view","type":"function"},{"inputs":[],"name":"getDefaultRoyaltyInfo","outputs":[{"internalType":"address","name":"","type":"address"},{"internalType":"uint16","name":"","type":"uint16"}],"stateMutability":"view","type":"function"},{"inputs":[{"internalType":"uint256","name":"_tokenId","type":"uint256"}],"name":"getRoyaltyInfoForToken","outputs":[{"internalType":"address","name":"","type":"address"},{"internalType":"uint16","name":"","type":"uint16"}],"stateMutability":"view","type":"function"},{"inputs":[{"internalType":"uint256","name":"id","type":"uint256"}],"name":"getShipmentDetails","outputs":[{"internalType":"string","name":"desc","type":"string"},{"internalType":"address","name":"sender","type":"address"},{"internalType":"address","name":"receiver","type":"address"},{"internalType":"string","name":"cid","type":"string"}],"stateMutability":"view","type":"function"},{"inputs":[{"internalType":"address","name":"owner","type":"address"},{"internalType":"address","name":"operator","type":"address"}],"name":"isApprovedForAll","outputs":[{"internalType":"bool","name":"","type":"bool"}],"stateMutability":"view","type":"function"},{"inputs":[{"internalType":"address","name":"_operator","type":"address"},{"internalType":"uint256","name":"_tokenId","type":"uint256"}],"name":"isApprovedOrOwner","outputs":[{"internalType":"bool","name":"isApprovedOrOwnerOf","type":"bool"}],"stateMutability":"view","type":"function"},{"inputs":[{"internalType":"address","name":"_to","type":"address"},{"internalType":"string","name":"_tokenURI","type":"string"}],"name":"mintTo","outputs":[],"stateMutability":"nonpayable","type":"function"},{"inputs":[{"internalType":"bytes[]","name":"data","type":"bytes[]"}],"name":"multicall","outputs":[{"internalType":"bytes[]","name":"results","type":"bytes[]"}],"stateMutability":"nonpayable","type":"function"},{"inputs":[],"name":"name","outputs":[{"internalType":"string","name":"","type":"string"}],"stateMutability":"view","type":"function"},{"inputs":[],"name":"nextTokenIdToMint","outputs":[{"internalType":"uint256","name":"","type":"uint256"}],"stateMutability":"view","type":"function"},{"inputs":[],"name":"owner","outputs":[{"internalType":"address","name":"","type":"address"}],"stateMutability":"view","type":"function"},{"inputs":[{"internalType":"uint256","name":"tokenId","type":"uint256"}],"name":"ownerOf","outputs":[{"internalType":"address","name":"","type":"address"}],"stateMutability":"view","type":"function"},{"inputs":[{"internalType":"uint256","name":"tokenId","type":"uint256"},{"internalType":"uint256","name":"salePrice","type":"uint256"}],"name":"royaltyInfo","outputs":[{"internalType":"address","name":"receiver","type":"address"},{"internalType":"uint256","name":"royaltyAmount","type":"uint256"}],"stateMutability":"view","type":"function"},{"inputs":[{"internalType":"address","name":"from","type":"address"},{"internalType":"address","name":"to","type":"address"},{"internalType":"uint256","name":"tokenId","type":"uint256"}],"name":"safeTransferFrom","outputs":[],"stateMutability":"nonpayable","type":"function"},{"inputs":[{"internalType":"address","name":"from","type":"address"},{"internalType":"address","name":"to","type":"address"},{"internalType":"uint256","name":"tokenId","type":"uint256"},{"internalType":"bytes","name":"_data","type":"bytes"}],"name":"safeTransferFrom","outputs":[],"stateMutability":"nonpayable","type":"function"},{"inputs":[{"internalType":"address","name":"operator","type":"address"},{"internalType":"bool","name":"approved","type":"bool"}],"name":"setApprovalForAll","outputs":[],"stateMutability":"nonpayable","type":"function"},{"inputs":[{"internalType":"string","name":"_uri","type":"string"}],"name":"setContractURI","outputs":[],"stateMutability":"nonpayable","type":"function"},{"inputs":[{"internalType":"address","name":"_royaltyRecipient","type":"address"},{"internalType":"uint256","name":"_royaltyBps","type":"uint256"}],"name":"setDefaultRoyaltyInfo","outputs":[],"stateMutability":"nonpayable","type":"function"},{"inputs":[{"internalType":"address","name":"_newOwner","type":"address"}],"name":"setOwner","outputs":[],"stateMutability":"nonpayable","type":"function"},{"inputs":[{"internalType":"uint256","name":"_tokenId","type":"uint256"},{"internalType":"address","name":"_recipient","type":"address"},{"internalType":"uint256","name":"_bps","type":"uint256"}],"name":"setRoyaltyInfoForToken","outputs":[],"stateMutability":"nonpayable","type":"function"},{"inputs":[],"name":"shipmentCount","outputs":[{"internalType":"uint256","name":"","type":"uint256"}],"stateMutability":"view","type":"function"},{"inputs":[{"internalType":"uint256","name":"","type":"uint256"}],"name":"shipments","outputs":[{"internalType":"string","name":"description","type":"string"},{"internalType":"address","name":"sender","type":"address"},{"internalType":"address","name":"receiver","type":"address"},{"internalType":"string","name":"documentCID","type":"string"}],"stateMutability":"view","type":"function"},{"inputs":[{"internalType":"bytes4","name":"interfaceId","type":"bytes4"}],"name":"supportsInterface","outputs":[{"internalType":"bool","name":"","type":"bool"}],"stateMutability":"view","type":"function"},{"inputs":[],"name":"symbol","outputs":[{"internalType":"string","name":"","type":"string"}],"stateMutability":"view","type":"function"},{"inputs":[{"internalType":"uint256","name":"_tokenId","type":"uint256"}],"name":"tokenURI","outputs":[{"internalType":"string","name":"","type":"string"}],"stateMutability":"view","type":"function"},{"inputs":[{"internalType":"address","name":"owner","type":"address"}],"name":"tokensOfOwner","outputs":[{"internalType":"uint256[]","name":"","type":"uint256[]"}],"stateMutability":"view","type":"function"},{"inputs":[{"internalType":"address","name":"owner","type":"address"},{"internalType":"uint256","name":"start","type":"uint256"},{"internalType":"uint256","name":"stop","type":"uint256"}],"name":"tokensOfOwnerIn","outputs":[{"internalType":"uint256[]","name":"","type":"uint256[]"}],"stateMutability":"view","type":"function"},{"inputs":[],"name":"totalSupply","outputs":[{"internalType":"uint256","name":"","type":"uint256"}],"stateMutability":"view","type":"function"},{"inputs":[{"internalType":"address","name":"from","type":"address"},{"internalType":"address","name":"to","type":"address"},{"internalType":"uint256","name":"tokenId","type":"uint256"}],"name":"transferFrom","outputs":[],"stateMutability":"nonpayable","type":"function"},{"inputs":[{"internalType":"uint256","name":"id","type":"uint256"}],"name":"transferShipment","outputs":[],"stateMutability":"nonpayable","type":"function"},{"inputs":[{"internalType":"uint256","name":"id","type":"uint256"},{"internalType":"string","name":"cid","type":"string"}],"name":"uploadDocument","outputs":[],"stateMutability":"nonpayable","type":"function"}],"evm":{"bytecode":{"linkReferences":{},"object":"60803462000392576040906001600160401b0381830181811183821017620002a4578352600c82526020916b109b1bd8dad4da1a5c13919560a21b8382015283519184830183811082821117620002a45785526005835264042534849560dc1b848401528151818111620002a457600254906001938483811c9316801562000387575b8784101462000283578190601f9384811162000330575b508790848311600114620002c657600092620002ba575b5050600019600383901b1c191690841b176002555b8351918211620002a45760039384548481811c9116801562000299575b87821014620002835782811162000238575b5085918311600114620001d157928293918392600094620001c5575b50501b9160001990841b1c19161790555b600080805560098054336001600160a01b03198216811790925590916001600160a01b03909116907f8292fce18fa69edf4db7b94ea2e58241df0ae57f97e0a6c9b29067028bf92d769080a3600a80546001600160b01b0319163361ffff60a01b1981169190911790915582516000815290917f90d7ec04bcb8978719414f82e52e4cb651db41d0e6f8cea6118c2191e6183adb91a25161338b9081620003988239f35b01519250388062000110565b90601f198316918560005283876000209360005b898883831062000220575050501062000207575b505050811b01905562000121565b015160001983861b60f8161c19169055388080620001f9565b868601518855909601959485019487935001620001e5565b85600052866000208380860160051c82019289871062000279575b0160051c019085905b8281106200026c575050620000f4565b600081550185906200025c565b9250819262000253565b634e487b7160e01b600052602260045260246000fd5b90607f1690620000e2565b634e487b7160e01b600052604160045260246000fd5b015190503880620000b0565b90869350601f198316916002600052896000209260005b8b828210620003195750508411620002ff575b505050811b01600255620000c5565b015160001960f88460031b161c19169055388080620002f0565b8385015186558a97909501949384019301620002dd565b9091506002600052876000208480850160051c8201928a86106200037d575b918891869594930160051c01915b8281106200036d57505062000099565b600081558594508891016200035d565b925081926200034f565b92607f169262000082565b600080fdfe6080604052600436101561001257600080fd5b60003560e01c806275a317146102b657806301ffc9a7146102b157806306fdde03146102ac578063081812fc146102a7578063095ea7b3146102a257806313af40351461029d57806318160ddd1461029857806323b872dd146102935780632419f51b1461028e5780632a55205a146102895780632ac08a93146102845780633b1475a71461027f57806342842e0e1461027a57806342966c6814610275578063430c2081146102705780634cc157df1461026b5780635bbb2177146102665780635fbd4e9014610261578063600dd5ea1461025c5780636352211e1461025757806363b45e2d14610252578063693d70aa1461024d57806370a0823114610248578063754a81d91461024357806379cda7721461023e57806383040532146102395780638462151c146102345780638da5cb5b1461022f578063938e3d7b1461022a57806395d89b411461022557806399a2557a146102205780639bcf7a151461021b578063a22cb46514610216578063aace20b714610211578063ac9650d81461020c578063b24f2d3914610207578063b88d4fde14610202578063c23dc68f146101fd578063c87b56dd146101f8578063d2d78cdc146101f3578063e8a3d485146101ee5763e985e9c5146101e957600080fd5b611eaf565b611e93565b611d89565b611d56565b611d08565b611cba565b611c84565b611c1f565b611b9f565b611af7565b611a0e565b6119d6565b61192f565b61179c565b611773565b6116a6565b61163a565b6114db565b611345565b61131a565b611278565b61125a565b61122a565b611166565b6110e1565b61104c565b610f89565b610eea565b610c7f565b610c57565b610c39565b610bdd565b6109aa565b610941565b61092a565b6108d2565b610850565b6107ae565b61077e565b610699565b6105ba565b61041a565b600435906001600160a01b03821682036102d157565b600080fd5b602435906001600160a01b03821682036102d157565b604435906001600160a01b03821682036102d157565b634e487b7160e01b600052604160045260246000fd5b608081019081106001600160401b0382111761033357604052565b610302565b604081019081106001600160401b0382111761033357604052565b606081019081106001600160401b0382111761033357604052565b602081019081106001600160401b0382111761033357604052565b90601f801991011681019081106001600160401b0382111761033357604052565b6001600160401b03811161033357601f01601f191660200190565b9291926103d1826103aa565b916103df6040519384610389565b8294818452818301116102d1578281602093846000960137010152565b9080601f830112156102d157816020610417933591016103c5565b90565b346102d15760403660031901126102d1576104336102bb565b6001600160401b036024358181116102d1576104539036906004016103fc565b9161046960018060a01b03600954163314611f7f565b600091825490818452602091600f83526104866040862054610a04565b610571578452600f825260408420918551918211610333576104b2826104ac8554610a04565b8561204f565b80601f83116001146104fe5750819085966104f096926104f3575b50508160011b916000199060031b1c19161790555b6104ea611fcb565b90612371565b80f35b0151905038806104cd565b90601f1983169661051485600052602060002090565b9287905b898210610559575050908392916001946104f0989910610540575b505050811b0190556104e2565b015160001960f88460031b161c19169055388080610533565b80600185968294968601518155019501930190610518565b60405162461bcd60e51b815260048101849052600f60248201526e15549248185b1c9958591e481cd95d608a1b6044820152606490fd5b6001600160e01b03198116036102d157565b346102d15760203660031901126102d15760206004356105d9816105a8565b63ffffffff60e01b166301ffc9a760e01b811490811561062f575b811561061e575b811561060d575b506040519015158152f35b63152a902d60e11b14905038610602565b635b5e139f60e01b811491506105fb565b6380ac58cd60e01b811491506105f4565b60005b8381106106535750506000910152565b8181015183820152602001610643565b9060209161067c81518092818552858086019101610640565b601f01601f1916010190565b906020610417928181520190610663565b346102d15760008060031936011261077b5760405190806002546106bc81610a04565b8085529160019180831690811561075157506001146106f6575b6106f2856106e681870382610389565b60405191829182610688565b0390f35b9250600283527f405787fa12a823e0f2b7631cc41b3ba8828b3321ca811111fa75cd3aa3bb5ace5b8284106107395750505081016020016106e6826106f26106d6565b8054602085870181019190915290930192810161071e565b8695506106f2969350602092506106e694915060ff191682840152151560051b82010192936106d6565b80fd5b346102d15760203660031901126102d157602061079c6004356122a9565b6040516001600160a01b039091168152f35b346102d15760403660031901126102d1576107c76102bb565b6001600160a01b03602435816107dc82612208565b5116809284161461083e578133036107fa575b6107f892612914565b005b6000828152600760209081526040808320338452909152902061082790610823905b5460ff1690565b1590565b156107ef576040516367d9dca160e11b8152600490fd5b60405163250fdee360e21b8152600490fd5b346102d15760203660031901126102d1576108696102bb565b600954906001600160a01b0380831691338390036108c0571680926bffffffffffffffffffffffff60a01b16176009557f8292fce18fa69edf4db7b94ea2e58241df0ae57f97e0a6c9b29067028bf92d76600080a3005b6040516316ccb9cb60e11b8152600490fd5b346102d15760003660031901126102d15760206000546001549003604051908152f35b60609060031901126102d1576001600160a01b039060043582811681036102d1579160243590811681036102d1579060443590565b346102d1576107f861093b366108f5565b916126ee565b346102d15760203660031901126102d157600435600c5481101561099257602090600c6000527fdf6966c971051c3d54ec59162606531493a51404a002842f56009d7e5cf4a8c70154604051908152f35b60249060405190630793127760e11b82526004820152fd5b346102d15760403660031901126102d15760243561ffff6109cc600435612fc2565b91909116918281029281840414901517156109ff57604080516001600160a01b0390921682526127109092046020820152f35b612dc5565b90600182811c92168015610a34575b6020831014610a1e57565b634e487b7160e01b600052602260045260246000fd5b91607f1691610a13565b6040519060008260085491610a5283610a04565b80835292600190818116908115610ada5750600114610a7b575b50610a7992500383610389565b565b6008600090815291507ff3f7a9fe364faab93b216da50a3214154f22a0a2b415b23a84c8169e8b636ee35b848310610abf5750610a79935050810160200138610a6c565b81935090816020925483858a01015201910190918592610aa6565b905060209250610a7994915060ff191682840152151560051b82010138610a6c565b9060405191826000825492610b1084610a04565b908184526001948581169081600014610b7d5750600114610b3a575b5050610a7992500383610389565b9093915060005260209081600020936000915b818310610b65575050610a7993508201013880610b2c565b85548884018501529485019487945091830191610b4d565b915050610a7994506020925060ff191682840152151560051b8201013880610b2c565b9091610bb86104179593608084526080840190610663565b6001600160a01b03918216602084015293166040820152808303606090910152610663565b346102d15760203660031901126102d15760043560005260106020526040600020610c0781610afc565b6106f260018060a01b0392610c2c600385600184015416956002840154169201610afc565b9060405194859485610ba0565b346102d15760003660031901126102d1576020600054604051908152f35b346102d1576107f8610c68366108f5565b9060405192610c768461036e565b60008452612302565b346102d15760203660031901126102d157600435610c9c81612208565b80516001600160a01b039081169081903382148015610eaa575b8015610e8a575b15610e7857600093610ccf83876128c7565b6001600160a01b0383166000908152600560205260409020610d7990610d2f610d12610d0283546001600160401b031690565b600019016001600160401b031690565b825467ffffffffffffffff19166001600160401b03909116178255565b8054610d519060801c6001600160401b03165b6001016001600160401b031690565b815467ffffffffffffffff60801b191660809190911b67ffffffffffffffff60801b16179055565b610dcf610d90876000526004602052604060002090565b80546001600160a01b0319166001600160a01b038616178155610dbc6001600160401b03421682612346565b805460ff60e01b1916600160e01b179055565b60018601610de7816000526004602052604060002090565b80549093166001600160a01b031615610e25575b505050506000805160206133368339815191528280a46107f8610e2060015460010190565b600155565b855403610e33575b80610dfb565b81546001600160a01b0319166001600160a01b03909316929092178155610e7091610e6a906020905b01516001600160401b031690565b90612346565b388080610e2d565b604051632ce44b5f60e11b8152600490fd5b5033610ea4610e98876122a9565b6001600160a01b031690565b14610cbd565b50610ee561081c33610ece8560018060a01b03166000526007602052604060002090565b9060018060a01b0316600052602052604060002090565b610cb6565b346102d15760403660031901126102d1576020610f056102bb565b602435906001600160a01b0380610f1b84612208565b51169281831692848414948515610f59575b50508315610f43575b5050506040519015158152f35b610f4f919293506122a9565b1614388080610f36565b60009081526007875260408082206001600160a01b03939093168252602092909252205460ff1693503880610f2d565b346102d15760203660031901126102d157610fa5600435612fc2565b604080516001600160a01b0393909316835261ffff91909116602083015290f35b6001600160401b0381116103335760051b60200190565b6020908160408183019282815285518094520193019160005b828110611004575050505090565b909192938260608261104060019489516040809160018060a01b0381511684526001600160401b03602082015116602085015201511515910152565b01950193929101610ff6565b346102d1576020806003193601126102d1576004356001600160401b0381116102d157366023820112156102d15780600401359061108982610fc6565b916110976040519384610389565b80835260248484019160051b830101913683116102d157602401905b8282106110d2576106f26110c685612b8d565b60405191829182610fdd565b813581529084019084016110b3565b346102d15760203660031901126102d157600435600090808252601060205260018060a01b0361112b8160026040862001541683604051916111228361036e565b86835233612302565b81835260106020526002604084200154169033907ff93018b8b4bccae90eff1a45a9da1a2e27a277e2e578a67de10b89d4af5279d28480a480f35b346102d15760403660031901126102d15761117f6102bb565b600954602435916001600160a01b039182163303611218576127108084116111fa5750600a80546001600160b01b0319169190921690811760a084901b61ffff60a01b1617909155604051918252907f90d7ec04bcb8978719414f82e52e4cb651db41d0e6f8cea6118c2191e6183adb9080602081010390a2005b6044908460405191630a4930ad60e31b835260048301526024820152fd5b604051636fae358160e11b8152600490fd5b346102d15760203660031901126102d15760206001600160a01b03611250600435612208565b5116604051908152f35b346102d15760003660031901126102d1576020600c54604051908152f35b346102d15760203660031901126102d157600435600052601060205260406000206040516112a581610318565b6112ae82610afc565b81526106f260018060a01b039161130e6113006112e96003866001890154169660208601978852600289015416976040860198895201610afc565b60608401819052925194516001600160a01b031690565b94516001600160a01b031690565b60405194859485610ba0565b346102d15760203660031901126102d157602061133d6113386102bb565b612171565b604051908152f35b346102d15760803660031901126102d15761135e6102bb565b602435604435916001600160401b03928381116102d1576113839036906004016103fc565b916064358481116102d15761139c9036906004016103fc565b916113b260018060a01b03600954163314611f7f565b60009384548381018091116109ff57600c54906801000000000000000082101561033357611404816113eb600194858101600c55612d8e565b90919082549060031b91821b91600019901b1916179055565b86526020600d8152604087209280519889116103335761142e896114288654610a04565b8661204f565b81601f8a1160011461146d57509780928192899a6104f09a94611462575b50501b916000199060031b1c1916179055612555565b01519250388061144c565b909891601f1983169961148586600052602060002090565b928a905b8c82106114c4575050836104f09a9b106114ab575b505050811b019055612555565b015160001960f88460031b161c1916905538808061149e565b808785968294968601518155019501930190611489565b346102d15760403660031901126102d1576001600160401b036004356024358281116102d15761150f9036906004016103fc565b60009282845260209060108252600360408620019183519182116103335761153b826104ac8554610a04565b80601f83116001146115a8575091817f7e70084d84488f1d46902bb7fa3b765328c23f5713ec1e5d426bc7c9b2e9e104949261159794889161159d575b508160011b916000199060031b1c191617905560405191829182610688565b0390a280f35b905083015138611578565b90601f1983166115bd85600052602060002090565b9288905b828210611622575050926115979492600192827f7e70084d84488f1d46902bb7fa3b765328c23f5713ec1e5d426bc7c9b2e9e104989610611609575b5050811b0190556106e6565b85015160001960f88460031b161c1916905538806115fd565b80600185968294968b015181550195019301906115c1565b346102d15760203660031901126102d157600435600052600e602052602060ff604060002054166040519015158152f35b6020908160408183019282815285518094520193019160005b828110611692575050505090565b835185529381019392810192600101611684565b346102d15760203660031901126102d1576116bf6102bb565b6000806116cb83612171565b916116d583612c1b565b936116de6121ac565b506001600160a01b0390811691835b85850361170257604051806106f2898261166b565b61171e611719826000526004602052604060002090565b6121cb565b604081015161176a57516001600160a01b0316838116611761575b50600190848484161461174d575b016116ed565b8061175b838801978a612b74565b52611747565b91506001611739565b50600190611747565b346102d15760003660031901126102d1576009546040516001600160a01b039091168152602090f35b346102d1576020806003193601126102d1576001600160401b03906004358281116102d1576117cf9036906004016103fc565b6009549091906001600160a01b0316330361191d576117ec610a3e565b9082519384116103335761180a84611805600854610a04565b611fde565b80601f8511600114611877575092807fc9c7c3fe08b88b4df9d4d47ef47d2c43d55c025a0ba88ca442580ed9e7348a169460009161186c575b508160011b916000199060031b1c1916176008555b61186760405192839283612ecc565b0390a1005b905083015138611843565b600860005290601f1985167ff3f7a9fe364faab93b216da50a3214154f22a0a2b415b23a84c8169e8b636ee3926000905b8282106119055750509185917fc9c7c3fe08b88b4df9d4d47ef47d2c43d55c025a0ba88ca442580ed9e7348a1696600194106118ec575b5050811b01600855611858565b85015160001960f88460031b161c1916905538806118df565b80600185968294968a015181550195019301906118a8565b604051639f7f092560e01b8152600490fd5b346102d15760008060031936011261077b57604051908060035461195281610a04565b80855291600191808316908115610751575060011461197b576106f2856106e681870382610389565b9250600383527fc2575a0e9e593c00f959f8c92f12db2869c3395a3b0502d05e2516446f71f85b5b8284106119be5750505081016020016106e6826106f26106d6565b805460208587018101919091529093019281016119a3565b346102d15760603660031901126102d1576106f2611a026119f56102bb565b6044359060243590612c4d565b6040519182918261166b565b346102d15760603660031901126102d157600435611a2a6102d6565b9060443560018060a01b038060095416330361121857612710808311611ad957507f7365cf4122f072a3365c20d54eff9b38d73c096c28e1892ec8f5b0e403a0f12d91611ac4611ad49260405196611a8188610338565b169586815282602082015285600052600b6020526040600020815181546001600160a01b0319166001600160a01b03919091161781559060019060200151910155565b6040519081529081906020820190565b0390a3005b6044908360405191630a4930ad60e31b835260048301526024820152fd5b346102d15760403660031901126102d157611b106102bb565b6024358015158091036102d1576001600160a01b03821691338314611b8d573360009081526007602090815260408083206001600160a01b0390941683529290522060ff1981541660ff83161790556040519081527f17307eab39ab6107e8899845ad3d59bd9653f200f220920489ca2b5937696c3160203392a3005b60405163b06307db60e01b8152600490fd5b346102d15760003660031901126102d1576020601154604051908152f35b602080820190808352835180925260408301928160408460051b8301019501936000915b848310611bf15750505050505090565b9091929394958480611c0f600193603f198682030187528a51610663565b9801930193019194939290611be1565b346102d15760203660031901126102d1576001600160401b036004358181116102d157366023820112156102d15780600401359182116102d1573660248360051b830101116102d1576106f2916024611c789201612f00565b60405191829182611bbd565b346102d15760003660031901126102d157600a54604080516001600160a01b038316815260a09290921c61ffff16602083015290f35b346102d15760803660031901126102d157611cd36102bb565b611cdb6102d6565b606435916001600160401b0383116102d157611cfe6107f89336906004016103fc565b9160443591612302565b346102d15760203660031901126102d1576060611d26600435612ae5565b6040805182516001600160a01b031681526020808401516001600160401b03169082015291810151151590820152f35b346102d15760203660031901126102d1576106f2611d75600435611f0c565b604051918291602083526020830190610663565b346102d15760803660031901126102d1576001600160401b036004356024358281116102d157611dbd9036906004016103fc565b90611dc66102ec565b926064359081116102d157611e85611e037fa7cfdd00229a0d68229c8182f3e3970f755e7622cb61ccced1f2fdba497616339236906004016103fc565b946011548411611e8a575b611e28604051611e1d8161036e565b600081528533612555565b611e6e604051611e3781610318565b8681523360208201526001600160a01b0383166040820152876060820152611e69866000526010602052604060002090565b6131e9565b60405191829160018060a01b031696339683612ecc565b0390a4005b83601155611e0e565b346102d15760003660031901126102d1576106f2611d75610a3e565b346102d15760403660031901126102d157602060ff611f00611ecf6102bb565b611ed76102d6565b6001600160a01b0391821660009081526007865260408082209290931681526020919091522090565b54166040519015158152f35b806000526020600f8152611f236040600020610afc565b8051611f79575061041790611f40611f3a84612df7565b9361311e565b926040519381611f598693518092868087019101610640565b8201611f6d82518093868085019101610640565b01038084520182610389565b91505090565b15611f8657565b60405162461bcd60e51b815260206004820152601760248201527f4e6f7420617574686f72697a656420746f206d696e742e0000000000000000006044820152606490fd5b60405190611fd88261036e565b60008252565b601f8111611fea575050565b600090600882527ff3f7a9fe364faab93b216da50a3214154f22a0a2b415b23a84c8169e8b636ee3906020601f850160051c83019410612045575b601f0160051c01915b82811061203a57505050565b81815560010161202e565b9092508290612025565b90601f811161205d57505050565b600091825260208220906020601f850160051c83019410612099575b601f0160051c01915b82811061208e57505050565b818155600101612082565b9092508290612079565b91909182516001600160401b038111610333576120ca816120c48454610a04565b8461204f565b602080601f83116001146121065750819293946000926120fb575b50508160011b916000199060031b1c1916179055565b0151905038806120e5565b90601f1983169561211c85600052602060002090565b926000905b88821061215957505083600195969710612140575b505050811b019055565b015160001960f88460031b161c19169055388080612136565b80600185968294968601518155019501930190612121565b6001600160a01b0316801561219a5760005260056020526001600160401b036040600020541690565b6040516323d3ad8160e21b8152600490fd5b604051906121b982610353565b60006040838281528260208201520152565b906040516121d881610353565b91546001600160a01b038116835260a081901c6001600160401b0316602084015260e01c60ff1615156040830152565b6122106121ac565b5080600054811061222e575b604051636f96cda160e11b8152600490fd5b611719612245916000526004602052604060002090565b6122556108236040830151151590565b1561221c5780516001600160a01b03166122a457505b60001901612286611719826000526004602052604060002090565b805161229a906001600160a01b0316610e98565b6122a4575061226b565b905090565b6000548110806122e6575b156122d4576000908152600660205260409020546001600160a01b031690565b6040516333d1c03960e21b8152600490fd5b5080600052600460205260ff60406000205460e01c16156122b4565b9291906123108282866126ee565b803b61231d575b50505050565b61232693612abc565b156123345738808080612317565b6040516368d2bf6b60e11b8152600490fd5b805467ffffffffffffffff60a01b191660a09290921b67ffffffffffffffff60a01b16919091179055565b600080546001600160a01b0383169391929091908415612544576001600160a01b03811660009081526005602052604090206123d6905b6123bc610d4282546001600160401b031690565b6001600160401b03166001600160401b0319825416179055565b6001600160a01b03811660009081526005602052604090206124309080546124099060401c6001600160401b0316610d42565b67ffffffffffffffff60401b82549160401b169067ffffffffffffffff60401b1916179055565b61246781612448856000526004602052604060002090565b80546001600160a01b0319166001600160a01b03909216919091179055565b61248d6001600160401b034216612488856000526004602052604060002090565b612346565b8294600190818501833b15156000146124fc5782805b6124b8575b50505050505081540361077b5755565b156124ef575b868883896000805160206133368339815191528180a46124e561082387868c019b88612a13565b61233457836124a3565b8088106124be57806124a8565b9250935080809350905b612512575b5050505055565b15612537575b83828087019685876000805160206133368339815191528180a4612506565b808510612518578061250b565b604051622e076360e81b8152600490fd5b6000805492939092916001600160a01b03811680156125445785156126dc576126266001600160401b036125f88189166125c66125a48760018060a01b03166000526005602052604060002090565b6123bc836125b983546001600160401b031690565b016001600160401b031690565b6001600160a01b038616600090815260056020526040902061240990916125b983546001600160401b039060401c1690565b61261084612448886000526004602052604060002090565b4216612488866000526004602052604060002090565b8395840190823b15156000146126945760019182805b6126505750505050505081540361077b5755565b15612687575b868883896000805160206133368339815191528180a461267d61082387868c019b88612a13565b612334578361263c565b80881061265657806124a8565b935091505060019081805b6126aa575050505055565b156126cf575b83828087019685876000805160206133368339815191528180a461269f565b8085106126b0578061250b565b60405163b562e8dd60e01b8152600490fd5b6126f783612208565b80516001600160a01b0380841693929181168490036128b657833314801561288d575b8015612879575b15610e78578416938415612867576127d49061273d84886128c7565b6001600160a01b038416600090815260056020526040902061276d906123bc610d0282546001600160401b031690565b6001600160a01b038116600090815260056020526040902061278e906123a8565b6127c46127a5886000526004602052604060002090565b80546001600160a01b0319166001600160a01b03909316929092178255565b6001600160401b03421690612346565b60018501906127ed826000526004602052604060002090565b8054909290612804906001600160a01b0316610e98565b15612823575b50505050600080516020613336833981519152600080a4565b60005403612832575b8061280a565b81546001600160a01b0319166001600160a01b0390931692909217815561285f91610e6a90602090610e5c565b38808061282c565b604051633a954ecd60e21b8152600490fd5b5033612887610e98886122a9565b14612721565b506128b161081c33610ece8660018060a01b03166000526007602052604060002090565b61271a565b60405162a1148160e81b8152600490fd5b600081815260066020526040812080546001600160a01b031916905590916001600160a01b03167f8c5be1e5ebec7d5bd14f71427d1e84f3dd0314c0f7b2291e5b200ac8c7c3b9258280a4565b600082815260066020526040902080546001600160a01b0319166001600160a01b0383161790559091906001600160a01b0390811691167f8c5be1e5ebec7d5bd14f71427d1e84f3dd0314c0f7b2291e5b200ac8c7c3b925600080a4565b908160209103126102d15751610417816105a8565b610417939260809260018060a01b031682526000602083015260408201528160608201520190610663565b6001600160a01b03918216815291166020820152604081019190915260806060820181905261041792910190610663565b3d15612a0e573d906129f4826103aa565b91612a026040519384610389565b82523d6000602084013e565b606090565b612a3c60209160009394604051948580948193630a85bd0160e11b998a84523360048501612987565b03926001600160a01b03165af160009181612a8c575b50612a7e57612a5f6129e3565b80519081612a79576040516368d2bf6b60e11b8152600490fd5b602001fd5b6001600160e01b0319161490565b612aae91925060203d8111612ab5575b612aa68183610389565b810190612972565b9038612a52565b503d612a9c565b92602091612a3c936000604051809681958294630a85bd0160e11b9a8b855233600486016129b2565b612aed6121ac565b50612af66121ac565b6000548210156122a4575080600052600460205260406000209060ff60405192612b1f84610353565b546001600160a01b038116845260a081901c6001600160401b0316602085015260e01c16151560408301819052612b5a576104179150612208565b5090565b634e487b7160e01b600052603260045260246000fd5b8051821015612b885760209160051b010190565b612b5e565b8051612b9881610fc6565b91612ba66040519384610389565b818352601f19612bb583610fc6565b0160005b818110612c0457505060005b828103612bd25750505090565b80612be8612be260019385612b74565b51612ae5565b612bf28287612b74565b52612bfd8186612b74565b5001612bc5565b602090612c0f6121ac565b82828801015201612bb9565b90612c2582610fc6565b612c326040519182610389565b8281528092612c43601f1991610fc6565b0190602036910137565b9082811015612d7c576000918254808511612d74575b50612c6d81612171565b84831015612d6d57828503818110612d65575b505b612c8b81612c1b565b958115612d5d57612c9b84612ae5565b918594604093612cb061082386830151151590565b612d4b575b505b8781141580612d41575b15612d3457612cdd611719826000526004602052604060002090565b80850151612d2b57516001600160a01b0390811680612d22575b509081600192871690881614612d0e575b01612cb7565b80612d1c838a01998c612b74565b52612d08565b96506001612cf7565b50600190612d08565b5050959450505050815290565b5081871415612cc1565b516001600160a01b0316955038612cb5565b945050505050565b905038612c80565b5082612c82565b935038612c63565b604051631960ccad60e11b8152600490fd5b600c54811015612b8857600c6000527fdf6966c971051c3d54ec59162606531493a51404a002842f56009d7e5cf4a8c70190600090565b634e487b7160e01b600052601160045260246000fd5b90600182018092116109ff57565b60300190816030116109ff57565b600c5460405180828152816020809201600c6000527fdf6966c971051c3d54ec59162606531493a51404a002842f56009d7e5cf4a8c79260005b868110612eb5575050612e4692500382610389565b60005b828110612e6d576040516309797f6960e21b815260048101859052602490fd5b0390fd5b612e778183612b74565b518410612e8c57612e8790612ddb565b612e49565b6104179350612eb09250612e9f91612b74565b51600052600d602052604060002090565b610afc565b845483526001948501948694509282019201612e31565b9091612ee361041793604084526040840190610663565b916020818403910152610663565b60001981146109ff5760010190565b90612f0a81610fc6565b91612f186040519384610389565b818352601f19612f2783610fc6565b0160005b818110612fb157505060005b828110612f445750505090565b8060051b820135601e19833603018112156102d1578201908135916001600160401b0383116102d15760200182360381136102d157612f8b612f9191612fac9436916103c5565b3061301d565b612f9b8287612b74565b52612fa68186612b74565b50612ef1565b612f37565b806060602080938801015201612f2b565b600052600b602052604060002090602060405192612fdf84610338565b80546001600160a01b03908116808652600190920154929094018290528061301457505061ffff600a549283169260a01c1690565b925061ffff1690565b90610417916000806040519361303285610353565b602785527f416464726573733a206c6f772d6c6576656c2064656c65676174652063616c6c6020860152660819985a5b195960ca1b6040860152602081519101845af461307d6129e3565b9290156130de5750815115613090575090565b3b156130995790565b60405162461bcd60e51b815260206004820152601d60248201527f416464726573733a2063616c6c20746f206e6f6e2d636f6e74726163740000006044820152606490fd5b8251909150156130f15750805190602001fd5b60405162461bcd60e51b8152908190612e699060048301610688565b908151811015612b88570160200190565b80156131cb57806000908282935b6131b7575061313a836103aa565b926131486040519485610389565b80845281601f19613158836103aa565b013660208701375b61316a5750505090565b60001981019081116109ff578091600a916131ae6131a561319561318f868606612de9565b60ff1690565b60f81b6001600160f81b03191690565b861a918761310d565b53049081613160565b926131c3600a91612ef1565b93048061312c565b506040516131d881610338565b60018152600360fc1b602082015290565b91909182519283516001600160401b0381116103335761320d816104ac8554610a04565b6020948590601f83116001146132b95761325c610a799697846060956003979561327f956000926132ae575b50508160011b9160001990891b1c19161787555b8301516001600160a01b031690565b6001860180546001600160a01b0319166001600160a01b03909216919091179055565b60408101516002850180546001600160a01b0319166001600160a01b03909216919091179055015191016120a3565b015190503880613239565b90601f198316916132cf86600052602060002090565b9260005b81811061331e5750976001856003979561327f9561325c95606099610a799d9e10613306575b505050811b01875561324d565b0151600019838b1b60f8161c191690553880806132f9565b9293896001819287860151815501950193016132d356feddf252ad1be2c89b69c2b068fc378daa952ba7f163c4a11628f55a4df523b3efa26469706673582212202c94f4afaa26c8f29652ff9fb423add0f2c521ceb0fbb6928c27f87e14fc460d64736f6c63430008140033","opcodes":"PUSH1 0x80 CALLVALUE PUSH3 0x392 JUMPI PUSH1 0x40 SWAP1 PUSH1 0x1 PUSH1 0x1 PUSH1 0x40 SHL SUB DUP2 DUP4 ADD DUP2 DUP2 GT DUP4 DUP3 LT OR PUSH3 0x2A4 JUMPI DUP4 MSTORE PUSH1 0xC DUP3 MSTORE PUSH1 0x20 SWAP2 PUSH12 0x109B1BD8DAD4DA1A5C139195 PUSH1 0xA2 SHL DUP4 DUP3 ADD MSTORE DUP4 MLOAD SWAP2 DUP5 DUP4 ADD DUP4 DUP2 LT DUP3 DUP3 GT OR PUSH3 0x2A4 JUMPI DUP6 MSTORE PUSH1 0x5 DUP4 MSTORE PUSH5 0x425348495 PUSH1 0xDC SHL DUP5 DUP5 ADD MSTORE DUP2 MLOAD DUP2 DUP2 GT PUSH3 0x2A4 JUMPI PUSH1 0x2 SLOAD SWAP1 PUSH1 0x1 SWAP4 DUP5 DUP4 DUP2 SHR SWAP4 AND DUP1 ISZERO PUSH3 0x387 JUMPI JUMPDEST DUP8 DUP5 LT EQ PUSH3 0x283 JUMPI DUP2 SWAP1 PUSH1 0x1F SWAP4 DUP5 DUP2 GT PUSH3 0x330 JUMPI JUMPDEST POP DUP8 SWAP1 DUP5 DUP4 GT PUSH1 0x1 EQ PUSH3 0x2C6 JUMPI PUSH1 0x0 SWAP3 PUSH3 0x2BA JUMPI JUMPDEST POP POP PUSH1 0x0 NOT PUSH1 0x3 DUP4 SWAP1 SHL SHR NOT AND SWAP1 DUP5 SHL OR PUSH1 0x2 SSTORE JUMPDEST DUP4 MLOAD SWAP2 DUP3 GT PUSH3 0x2A4 JUMPI PUSH1 0x3 SWAP4 DUP5 SLOAD DUP5 DUP2 DUP2 SHR SWAP2 AND DUP1 ISZERO PUSH3 0x299 JUMPI JUMPDEST DUP8 DUP3 LT EQ PUSH3 0x283 JUMPI DUP3 DUP2 GT PUSH3 0x238 JUMPI JUMPDEST POP DUP6 SWAP2 DUP4 GT PUSH1 0x1 EQ PUSH3 0x1D1 JUMPI SWAP3 DUP3 SWAP4 SWAP2 DUP4 SWAP3 PUSH1 0x0 SWAP5 PUSH3 0x1C5 JUMPI JUMPDEST POP POP SHL SWAP2 PUSH1 0x0 NOT SWAP1 DUP5 SHL SHR NOT AND OR SWAP1 SSTORE JUMPDEST PUSH1 0x0 DUP1 DUP1 SSTORE PUSH1 0x9 DUP1 SLOAD CALLER PUSH1 0x1 PUSH1 0x1 PUSH1 0xA0 SHL SUB NOT DUP3 AND DUP2 OR SWAP1 SWAP3 SSTORE SWAP1 SWAP2 PUSH1 0x1 PUSH1 0x1 PUSH1 0xA0 SHL SUB SWAP1 SWAP2 AND SWAP1 PUSH32 0x8292FCE18FA69EDF4DB7B94EA2E58241DF0AE57F97E0A6C9B29067028BF92D76 SWAP1 DUP1 LOG3 PUSH1 0xA DUP1 SLOAD PUSH1 0x1 PUSH1 0x1 PUSH1 0xB0 SHL SUB NOT AND CALLER PUSH2 0xFFFF PUSH1 0xA0 SHL NOT DUP2 AND SWAP2 SWAP1 SWAP2 OR SWAP1 SWAP2 SSTORE DUP3 MLOAD PUSH1 0x0 DUP2 MSTORE SWAP1 SWAP2 PUSH32 0x90D7EC04BCB8978719414F82E52E4CB651DB41D0E6F8CEA6118C2191E6183ADB SWAP2 LOG2 MLOAD PUSH2 0x338B SWAP1 DUP2 PUSH3 0x398 DUP3 CODECOPY RETURN JUMPDEST ADD MLOAD SWAP3 POP CODESIZE DUP1 PUSH3 0x110 JUMP JUMPDEST SWAP1 PUSH1 0x1F NOT DUP4 AND SWAP2 DUP6 PUSH1 0x0 MSTORE DUP4 DUP8 PUSH1 0x0 KECCAK256 SWAP4 PUSH1 0x0 JUMPDEST DUP10 DUP9 DUP4 DUP4 LT PUSH3 0x220 JUMPI POP POP POP LT PUSH3 0x207 JUMPI JUMPDEST POP POP POP DUP2 SHL ADD SWAP1 SSTORE PUSH3 0x121 JUMP JUMPDEST ADD MLOAD PUSH1 0x0 NOT DUP4 DUP7 SHL PUSH1 0xF8 AND SHR NOT AND SWAP1 SSTORE CODESIZE DUP1 DUP1 PUSH3 0x1F9 JUMP JUMPDEST DUP7 DUP7 ADD MLOAD DUP9 SSTORE SWAP1 SWAP7 ADD SWAP6 SWAP5 DUP6 ADD SWAP5 DUP8 SWAP4 POP ADD PUSH3 0x1E5 JUMP JUMPDEST DUP6 PUSH1 0x0 MSTORE DUP7 PUSH1 0x0 KECCAK256 DUP4 DUP1 DUP7 ADD PUSH1 0x5 SHR DUP3 ADD SWAP3 DUP10 DUP8 LT PUSH3 0x279 JUMPI JUMPDEST ADD PUSH1 0x5 SHR ADD SWAP1 DUP6 SWAP1 JUMPDEST DUP3 DUP2 LT PUSH3 0x26C JUMPI POP POP PUSH3 0xF4 JUMP JUMPDEST PUSH1 0x0 DUP2 SSTORE ADD DUP6 SWAP1 PUSH3 0x25C JUMP JUMPDEST SWAP3 POP DUP2 SWAP3 PUSH3 0x253 JUMP JUMPDEST PUSH4 0x4E487B71 PUSH1 0xE0 SHL PUSH1 0x0 MSTORE PUSH1 0x22 PUSH1 0x4 MSTORE PUSH1 0x24 PUSH1 0x0 REVERT JUMPDEST SWAP1 PUSH1 0x7F AND SWAP1 PUSH3 0xE2 JUMP JUMPDEST PUSH4 0x4E487B71 PUSH1 0xE0 SHL PUSH1 0x0 MSTORE PUSH1 0x41 PUSH1 0x4 MSTORE PUSH1 0x24 PUSH1 0x0 REVERT JUMPDEST ADD MLOAD SWAP1 POP CODESIZE DUP1 PUSH3 0xB0 JUMP JUMPDEST SWAP1 DUP7 SWAP4 POP PUSH1 0x1F NOT DUP4 AND SWAP2 PUSH1 0x2 PUSH1 0x0 MSTORE DUP10 PUSH1 0x0 KECCAK256 SWAP3 PUSH1 0x0 JUMPDEST DUP12 DUP3 DUP3 LT PUSH3 0x319 JUMPI POP POP DUP5 GT PUSH3 0x2FF JUMPI JUMPDEST POP POP POP DUP2 SHL ADD PUSH1 0x2 SSTORE PUSH3 0xC5 JUMP JUMPDEST ADD MLOAD PUSH1 0x0 NOT PUSH1 0xF8 DUP5 PUSH1 0x3 SHL AND SHR NOT AND SWAP1 SSTORE CODESIZE DUP1 DUP1 PUSH3 0x2F0 JUMP JUMPDEST DUP4 DUP6 ADD MLOAD DUP7 SSTORE DUP11 SWAP8 SWAP1 SWAP6 ADD SWAP5 SWAP4 DUP5 ADD SWAP4 ADD PUSH3 0x2DD JUMP JUMPDEST SWAP1 SWAP2 POP PUSH1 0x2 PUSH1 0x0 MSTORE DUP8 PUSH1 0x0 KECCAK256 DUP5 DUP1 DUP6 ADD PUSH1 0x5 SHR DUP3 ADD SWAP3 DUP11 DUP7 LT PUSH3 0x37D JUMPI JUMPDEST SWAP2 DUP9 SWAP2 DUP7 SWAP6 SWAP5 SWAP4 ADD PUSH1 0x5 SHR ADD SWAP2 JUMPDEST DUP3 DUP2 LT PUSH3 0x36D JUMPI POP POP PUSH3 0x99 JUMP JUMPDEST PUSH1 0x0 DUP2 SSTORE DUP6 SWAP5 POP DUP9 SWAP2 ADD PUSH3 0x35D JUMP JUMPDEST SWAP3 POP DUP2 SWAP3 PUSH3 0x34F JUMP JUMPDEST SWAP3 PUSH1 0x7F AND SWAP3 PUSH3 0x82 JUMP JUMPDEST PUSH1 0x0 DUP1 REVERT INVALID PUSH1 0x80 PUSH1 0x40 MSTORE PUSH1 0x4 CALLDATASIZE LT ISZERO PUSH2 0x12 JUMPI PUSH1 0x0 DUP1 REVERT JUMPDEST PUSH1 0x0 CALLDATALOAD PUSH1 0xE0 SHR DUP1 PUSH3 0x75A317 EQ PUSH2 0x2B6 JUMPI DUP1 PUSH4 0x1FFC9A7 EQ PUSH2 0x2B1 JUMPI DUP1 PUSH4 0x6FDDE03 EQ PUSH2 0x2AC JUMPI DUP1 PUSH4 0x81812FC EQ PUSH2 0x2A7 JUMPI DUP1 PUSH4 0x95EA7B3 EQ PUSH2 0x2A2 JUMPI DUP1 PUSH4 0x13AF4035 EQ PUSH2 0x29D JUMPI DUP1 PUSH4 0x18160DDD EQ PUSH2 0x298 JUMPI DUP1 PUSH4 0x23B872DD EQ PUSH2 0x293 JUMPI DUP1 PUSH4 0x2419F51B EQ PUSH2 0x28E JUMPI DUP1 PUSH4 0x2A55205A EQ PUSH2 0x289 JUMPI DUP1 PUSH4 0x2AC08A93 EQ PUSH2 0x284 JUMPI DUP1 PUSH4 0x3B1475A7 EQ PUSH2 0x27F JUMPI DUP1 PUSH4 0x42842E0E EQ PUSH2 0x27A JUMPI DUP1 PUSH4 0x42966C68 EQ PUSH2 0x275 JUMPI DUP1 PUSH4 0x430C2081 EQ PUSH2 0x270 JUMPI DUP1 PUSH4 0x4CC157DF EQ PUSH2 0x26B JUMPI DUP1 PUSH4 0x5BBB2177 EQ PUSH2 0x266 JUMPI DUP1 PUSH4 0x5FBD4E90 EQ PUSH2 0x261 JUMPI DUP1 PUSH4 0x600DD5EA EQ PUSH2 0x25C JUMPI DUP1 PUSH4 0x6352211E EQ PUSH2 0x257 JUMPI DUP1 PUSH4 0x63B45E2D EQ PUSH2 0x252 JUMPI DUP1 PUSH4 0x693D70AA EQ PUSH2 0x24D JUMPI DUP1 PUSH4 0x70A08231 EQ PUSH2 0x248 JUMPI DUP1 PUSH4 0x754A81D9 EQ PUSH2 0x243 JUMPI DUP1 PUSH4 0x79CDA772 EQ PUSH2 0x23E JUMPI DUP1 PUSH4 0x83040532 EQ PUSH2 0x239 JUMPI DUP1 PUSH4 0x8462151C EQ PUSH2 0x234 JUMPI DUP1 PUSH4 0x8DA5CB5B EQ PUSH2 0x22F JUMPI DUP1 PUSH4 0x938E3D7B EQ PUSH2 0x22A JUMPI DUP1 PUSH4 0x95D89B41 EQ PUSH2 0x225 JUMPI DUP1 PUSH4 0x99A2557A EQ PUSH2 0x220 JUMPI DUP1 PUSH4 0x9BCF7A15 EQ PUSH2 0x21B JUMPI DUP1 PUSH4 0xA22CB465 EQ PUSH2 0x216 JUMPI DUP1 PUSH4 0xAACE20B7 EQ PUSH2 0x211 JUMPI DUP1 PUSH4 0xAC9650D8 EQ PUSH2 0x20C JUMPI DUP1 PUSH4 0xB24F2D39 EQ PUSH2 0x207 JUMPI DUP1 PUSH4 0xB88D4FDE EQ PUSH2 0x202 JUMPI DUP1 PUSH4 0xC23DC68F EQ PUSH2 0x1FD JUMPI DUP1 PUSH4 0xC87B56DD EQ PUSH2 0x1F8 JUMPI DUP1 PUSH4 0xD2D78CDC EQ PUSH2 0x1F3 JUMPI DUP1 PUSH4 0xE8A3D485 EQ PUSH2 0x1EE JUMPI PUSH4 0xE985E9C5 EQ PUSH2 0x1E9 JUMPI PUSH1 0x0 DUP1 REVERT JUMPDEST PUSH2 0x1EAF JUMP JUMPDEST PUSH2 0x1E93 JUMP JUMPDEST PUSH2 0x1D89 JUMP JUMPDEST PUSH2 0x1D56 JUMP JUMPDEST PUSH2 0x1D08 JUMP JUMPDEST PUSH2 0x1CBA JUMP JUMPDEST PUSH2 0x1C84 JUMP JUMPDEST PUSH2 0x1C1F JUMP JUMPDEST PUSH2 0x1B9F JUMP JUMPDEST PUSH2 0x1AF7 JUMP JUMPDEST PUSH2 0x1A0E JUMP JUMPDEST PUSH2 0x19D6 JUMP JUMPDEST PUSH2 0x192F JUMP JUMPDEST PUSH2 0x179C JUMP JUMPDEST PUSH2 0x1773 JUMP JUMPDEST PUSH2 0x16A6 JUMP JUMPDEST PUSH2 0x163A JUMP JUMPDEST PUSH2 0x14DB JUMP JUMPDEST PUSH2 0x1345 JUMP JUMPDEST PUSH2 0x131A JUMP JUMPDEST PUSH2 0x1278 JUMP JUMPDEST PUSH2 0x125A JUMP JUMPDEST PUSH2 0x122A JUMP JUMPDEST PUSH2 0x1166 JUMP JUMPDEST PUSH2 0x10E1 JUMP JUMPDEST PUSH2 0x104C JUMP JUMPDEST PUSH2 0xF89 JUMP JUMPDEST PUSH2 0xEEA JUMP JUMPDEST PUSH2 0xC7F JUMP JUMPDEST PUSH2 0xC57 JUMP JUMPDEST PUSH2 0xC39 JUMP JUMPDEST PUSH2 0xBDD JUMP JUMPDEST PUSH2 0x9AA JUMP JUMPDEST PUSH2 0x941 JUMP JUMPDEST PUSH2 0x92A JUMP JUMPDEST PUSH2 0x8D2 JUMP JUMPDEST PUSH2 0x850 JUMP JUMPDEST PUSH2 0x7AE JUMP JUMPDEST PUSH2 0x77E JUMP JUMPDEST PUSH2 0x699 JUMP JUMPDEST PUSH2 0x5BA JUMP JUMPDEST PUSH2 0x41A JUMP JUMPDEST PUSH1 0x4 CALLDATALOAD SWAP1 PUSH1 0x1 PUSH1 0x1 PUSH1 0xA0 SHL SUB DUP3 AND DUP3 SUB PUSH2 0x2D1 JUMPI JUMP JUMPDEST PUSH1 0x0 DUP1 REVERT JUMPDEST PUSH1 0x24 CALLDATALOAD SWAP1 PUSH1 0x1 PUSH1 0x1 PUSH1 0xA0 SHL SUB DUP3 AND DUP3 SUB PUSH2 0x2D1 JUMPI JUMP JUMPDEST PUSH1 0x44 CALLDATALOAD SWAP1 PUSH1 0x1 PUSH1 0x1 PUSH1 0xA0 SHL SUB DUP3 AND DUP3 SUB PUSH2 0x2D1 JUMPI JUMP JUMPDEST PUSH4 0x4E487B71 PUSH1 0xE0 SHL PUSH1 0x0 MSTORE PUSH1 0x41 PUSH1 0x4 MSTORE PUSH1 0x24 PUSH1 0x0 REVERT JUMPDEST PUSH1 0x80 DUP2 ADD SWAP1 DUP2 LT PUSH1 0x1 PUSH1 0x1 PUSH1 0x40 SHL SUB DUP3 GT OR PUSH2 0x333 JUMPI PUSH1 0x40 MSTORE JUMP JUMPDEST PUSH2 0x302 JUMP JUMPDEST PUSH1 0x40 DUP2 ADD SWAP1 DUP2 LT PUSH1 0x1 PUSH1 0x1 PUSH1 0x40 SHL SUB DUP3 GT OR PUSH2 0x333 JUMPI PUSH1 0x40 MSTORE JUMP JUMPDEST PUSH1 0x60 DUP2 ADD SWAP1 DUP2 LT PUSH1 0x1 PUSH1 0x1 PUSH1 0x40 SHL SUB DUP3 GT OR PUSH2 0x333 JUMPI PUSH1 0x40 MSTORE JUMP JUMPDEST PUSH1 0x20 DUP2 ADD SWAP1 DUP2 LT PUSH1 0x1 PUSH1 0x1 PUSH1 0x40 SHL SUB DUP3 GT OR PUSH2 0x333 JUMPI PUSH1 0x40 MSTORE JUMP JUMPDEST SWAP1 PUSH1 0x1F DUP1 NOT SWAP2 ADD AND DUP2 ADD SWAP1 DUP2 LT PUSH1 0x1 PUSH1 0x1 PUSH1 0x40 SHL SUB DUP3 GT OR PUSH2 0x333 JUMPI PUSH1 0x40 MSTORE JUMP JUMPDEST PUSH1 0x1 PUSH1 0x1 PUSH1 0x40 SHL SUB DUP2 GT PUSH2 0x333 JUMPI PUSH1 0x1F ADD PUSH1 0x1F NOT AND PUSH1 0x20 ADD SWAP1 JUMP JUMPDEST SWAP3 SWAP2 SWAP3 PUSH2 0x3D1 DUP3 PUSH2 0x3AA JUMP JUMPDEST SWAP2 PUSH2 0x3DF PUSH1 0x40 MLOAD SWAP4 DUP5 PUSH2 0x389 JUMP JUMPDEST DUP3 SWAP5 DUP2 DUP5 MSTORE DUP2 DUP4 ADD GT PUSH2 0x2D1 JUMPI DUP3 DUP2 PUSH1 0x20 SWAP4 DUP5 PUSH1 0x0 SWAP7 ADD CALLDATACOPY ADD ADD MSTORE JUMP JUMPDEST SWAP1 DUP1 PUSH1 0x1F DUP4 ADD SLT ISZERO PUSH2 0x2D1 JUMPI DUP2 PUSH1 0x20 PUSH2 0x417 SWAP4 CALLDATALOAD SWAP2 ADD PUSH2 0x3C5 JUMP JUMPDEST SWAP1 JUMP JUMPDEST CALLVALUE PUSH2 0x2D1 JUMPI PUSH1 0x40 CALLDATASIZE PUSH1 0x3 NOT ADD SLT PUSH2 0x2D1 JUMPI PUSH2 0x433 PUSH2 0x2BB JUMP JUMPDEST PUSH1 0x1 PUSH1 0x1 PUSH1 0x40 SHL SUB PUSH1 0x24 CALLDATALOAD DUP2 DUP2 GT PUSH2 0x2D1 JUMPI PUSH2 0x453 SWAP1 CALLDATASIZE SWAP1 PUSH1 0x4 ADD PUSH2 0x3FC JUMP JUMPDEST SWAP2 PUSH2 0x469 PUSH1 0x1 DUP1 PUSH1 0xA0 SHL SUB PUSH1 0x9 SLOAD AND CALLER EQ PUSH2 0x1F7F JUMP JUMPDEST PUSH1 0x0 SWAP2 DUP3 SLOAD SWAP1 DUP2 DUP5 MSTORE PUSH1 0x20 SWAP2 PUSH1 0xF DUP4 MSTORE PUSH2 0x486 PUSH1 0x40 DUP7 KECCAK256 SLOAD PUSH2 0xA04 JUMP JUMPDEST PUSH2 0x571 JUMPI DUP5 MSTORE PUSH1 0xF DUP3 MSTORE PUSH1 0x40 DUP5 KECCAK256 SWAP2 DUP6 MLOAD SWAP2 DUP3 GT PUSH2 0x333 JUMPI PUSH2 0x4B2 DUP3 PUSH2 0x4AC DUP6 SLOAD PUSH2 0xA04 JUMP JUMPDEST DUP6 PUSH2 0x204F JUMP JUMPDEST DUP1 PUSH1 0x1F DUP4 GT PUSH1 0x1 EQ PUSH2 0x4FE JUMPI POP DUP2 SWAP1 DUP6 SWAP7 PUSH2 0x4F0 SWAP7 SWAP3 PUSH2 0x4F3 JUMPI JUMPDEST POP POP DUP2 PUSH1 0x1 SHL SWAP2 PUSH1 0x0 NOT SWAP1 PUSH1 0x3 SHL SHR NOT AND OR SWAP1 SSTORE JUMPDEST PUSH2 0x4EA PUSH2 0x1FCB JUMP JUMPDEST SWAP1 PUSH2 0x2371 JUMP JUMPDEST DUP1 RETURN JUMPDEST ADD MLOAD SWAP1 POP CODESIZE DUP1 PUSH2 0x4CD JUMP JUMPDEST SWAP1 PUSH1 0x1F NOT DUP4 AND SWAP7 PUSH2 0x514 DUP6 PUSH1 0x0 MSTORE PUSH1 0x20 PUSH1 0x0 KECCAK256 SWAP1 JUMP JUMPDEST SWAP3 DUP8 SWAP1 JUMPDEST DUP10 DUP3 LT PUSH2 0x559 JUMPI POP POP SWAP1 DUP4 SWAP3 SWAP2 PUSH1 0x1 SWAP5 PUSH2 0x4F0 SWAP9 SWAP10 LT PUSH2 0x540 JUMPI JUMPDEST POP POP POP DUP2 SHL ADD SWAP1 SSTORE PUSH2 0x4E2 JUMP JUMPDEST ADD MLOAD PUSH1 0x0 NOT PUSH1 0xF8 DUP5 PUSH1 0x3 SHL AND SHR NOT AND SWAP1 SSTORE CODESIZE DUP1 DUP1 PUSH2 0x533 JUMP JUMPDEST DUP1 PUSH1 0x1 DUP6 SWAP7 DUP3 SWAP5 SWAP7 DUP7 ADD MLOAD DUP2 SSTORE ADD SWAP6 ADD SWAP4 ADD SWAP1 PUSH2 0x518 JUMP JUMPDEST PUSH1 0x40 MLOAD PUSH3 0x461BCD PUSH1 0xE5 SHL DUP2 MSTORE PUSH1 0x4 DUP2 ADD DUP5 SWAP1 MSTORE PUSH1 0xF PUSH1 0x24 DUP3 ADD MSTORE PUSH15 0x15549248185B1C9958591E481CD95D PUSH1 0x8A SHL PUSH1 0x44 DUP3 ADD MSTORE PUSH1 0x64 SWAP1 REVERT JUMPDEST PUSH1 0x1 PUSH1 0x1 PUSH1 0xE0 SHL SUB NOT DUP2 AND SUB PUSH2 0x2D1 JUMPI JUMP JUMPDEST CALLVALUE PUSH2 0x2D1 JUMPI PUSH1 0x20 CALLDATASIZE PUSH1 0x3 NOT ADD SLT PUSH2 0x2D1 JUMPI PUSH1 0x20 PUSH1 0x4 CALLDATALOAD PUSH2 0x5D9 DUP2 PUSH2 0x5A8 JUMP JUMPDEST PUSH4 0xFFFFFFFF PUSH1 0xE0 SHL AND PUSH4 0x1FFC9A7 PUSH1 0xE0 SHL DUP2 EQ SWAP1 DUP2 ISZERO PUSH2 0x62F JUMPI JUMPDEST DUP2 ISZERO PUSH2 0x61E JUMPI JUMPDEST DUP2 ISZERO PUSH2 0x60D JUMPI JUMPDEST POP PUSH1 0x40 MLOAD SWAP1 ISZERO ISZERO DUP2 MSTORE RETURN JUMPDEST PUSH4 0x152A902D PUSH1 0xE1 SHL EQ SWAP1 POP CODESIZE PUSH2 0x602 JUMP JUMPDEST PUSH4 0x5B5E139F PUSH1 0xE0 SHL DUP2 EQ SWAP2 POP PUSH2 0x5FB JUMP JUMPDEST PUSH4 0x80AC58CD PUSH1 0xE0 SHL DUP2 EQ SWAP2 POP PUSH2 0x5F4 JUMP JUMPDEST PUSH1 0x0 JUMPDEST DUP4 DUP2 LT PUSH2 0x653 JUMPI POP POP PUSH1 0x0 SWAP2 ADD MSTORE JUMP JUMPDEST DUP2 DUP2 ADD MLOAD DUP4 DUP3 ADD MSTORE PUSH1 0x20 ADD PUSH2 0x643 JUMP JUMPDEST SWAP1 PUSH1 0x20 SWAP2 PUSH2 0x67C DUP2 MLOAD DUP1 SWAP3 DUP2 DUP6 MSTORE DUP6 DUP1 DUP7 ADD SWAP2 ADD PUSH2 0x640 JUMP JUMPDEST PUSH1 0x1F ADD PUSH1 0x1F NOT AND ADD ADD SWAP1 JUMP JUMPDEST SWAP1 PUSH1 0x20 PUSH2 0x417 SWAP3 DUP2 DUP2 MSTORE ADD SWAP1 PUSH2 0x663 JUMP JUMPDEST CALLVALUE PUSH2 0x2D1 JUMPI PUSH1 0x0 DUP1 PUSH1 0x3 NOT CALLDATASIZE ADD SLT PUSH2 0x77B JUMPI PUSH1 0x40 MLOAD SWAP1 DUP1 PUSH1 0x2 SLOAD PUSH2 0x6BC DUP2 PUSH2 0xA04 JUMP JUMPDEST DUP1 DUP6 MSTORE SWAP2 PUSH1 0x1 SWAP2 DUP1 DUP4 AND SWAP1 DUP2 ISZERO PUSH2 0x751 JUMPI POP PUSH1 0x1 EQ PUSH2 0x6F6 JUMPI JUMPDEST PUSH2 0x6F2 DUP6 PUSH2 0x6E6 DUP2 DUP8 SUB DUP3 PUSH2 0x389 JUMP JUMPDEST PUSH1 0x40 MLOAD SWAP2 DUP3 SWAP2 DUP3 PUSH2 0x688 JUMP JUMPDEST SUB SWAP1 RETURN JUMPDEST SWAP3 POP PUSH1 0x2 DUP4 MSTORE PUSH32 0x405787FA12A823E0F2B7631CC41B3BA8828B3321CA811111FA75CD3AA3BB5ACE JUMPDEST DUP3 DUP5 LT PUSH2 0x739 JUMPI POP POP POP DUP2 ADD PUSH1 0x20 ADD PUSH2 0x6E6 DUP3 PUSH2 0x6F2 PUSH2 0x6D6 JUMP JUMPDEST DUP1 SLOAD PUSH1 0x20 DUP6 DUP8 ADD DUP2 ADD SWAP2 SWAP1 SWAP2 MSTORE SWAP1 SWAP4 ADD SWAP3 DUP2 ADD PUSH2 0x71E JUMP JUMPDEST DUP7 SWAP6 POP PUSH2 0x6F2 SWAP7 SWAP4 POP PUSH1 0x20 SWAP3 POP PUSH2 0x6E6 SWAP5 SWAP2 POP PUSH1 0xFF NOT AND DUP3 DUP5 ADD MSTORE ISZERO ISZERO PUSH1 0x5 SHL DUP3 ADD ADD SWAP3 SWAP4 PUSH2 0x6D6 JUMP JUMPDEST DUP1 REVERT JUMPDEST CALLVALUE PUSH2 0x2D1 JUMPI PUSH1 0x20 CALLDATASIZE PUSH1 0x3 NOT ADD SLT PUSH2 0x2D1 JUMPI PUSH1 0x20 PUSH2 0x79C PUSH1 0x4 CALLDATALOAD PUSH2 0x22A9 JUMP JUMPDEST PUSH1 0x40 MLOAD PUSH1 0x1 PUSH1 0x1 PUSH1 0xA0 SHL SUB SWAP1 SWAP2 AND DUP2 MSTORE RETURN JUMPDEST CALLVALUE PUSH2 0x2D1 JUMPI PUSH1 0x40 CALLDATASIZE PUSH1 0x3 NOT ADD SLT PUSH2 0x2D1 JUMPI PUSH2 0x7C7 PUSH2 0x2BB JUMP JUMPDEST PUSH1 0x1 PUSH1 0x1 PUSH1 0xA0 SHL SUB PUSH1 0x24 CALLDATALOAD DUP2 PUSH2 0x7DC DUP3 PUSH2 0x2208 JUMP JUMPDEST MLOAD AND DUP1 SWAP3 DUP5 AND EQ PUSH2 0x83E JUMPI DUP2 CALLER SUB PUSH2 0x7FA JUMPI JUMPDEST PUSH2 0x7F8 SWAP3 PUSH2 0x2914 JUMP JUMPDEST STOP JUMPDEST PUSH1 0x0 DUP3 DUP2 MSTORE PUSH1 0x7 PUSH1 0x20 SWAP1 DUP2 MSTORE PUSH1 0x40 DUP1 DUP4 KECCAK256 CALLER DUP5 MSTORE SWAP1 SWAP2 MSTORE SWAP1 KECCAK256 PUSH2 0x827 SWAP1 PUSH2 0x823 SWAP1 JUMPDEST SLOAD PUSH1 0xFF AND SWAP1 JUMP JUMPDEST ISZERO SWAP1 JUMP JUMPDEST ISZERO PUSH2 0x7EF JUMPI PUSH1 0x40 MLOAD PUSH4 0x67D9DCA1 PUSH1 0xE1 SHL DUP2 MSTORE PUSH1 0x4 SWAP1 REVERT JUMPDEST PUSH1 0x40 MLOAD PUSH4 0x250FDEE3 PUSH1 0xE2 SHL DUP2 MSTORE PUSH1 0x4 SWAP1 REVERT JUMPDEST CALLVALUE PUSH2 0x2D1 JUMPI PUSH1 0x20 CALLDATASIZE PUSH1 0x3 NOT ADD SLT PUSH2 0x2D1 JUMPI PUSH2 0x869 PUSH2 0x2BB JUMP JUMPDEST PUSH1 0x9 SLOAD SWAP1 PUSH1 0x1 PUSH1 0x1 PUSH1 0xA0 SHL SUB DUP1 DUP4 AND SWAP2 CALLER DUP4 SWAP1 SUB PUSH2 0x8C0 JUMPI AND DUP1 SWAP3 PUSH12 0xFFFFFFFFFFFFFFFFFFFFFFFF PUSH1 0xA0 SHL AND OR PUSH1 0x9 SSTORE PUSH32 0x8292FCE18FA69EDF4DB7B94EA2E58241DF0AE57F97E0A6C9B29067028BF92D76 PUSH1 0x0 DUP1 LOG3 STOP JUMPDEST PUSH1 0x40 MLOAD PUSH4 0x16CCB9CB PUSH1 0xE1 SHL DUP2 MSTORE PUSH1 0x4 SWAP1 REVERT JUMPDEST CALLVALUE PUSH2 0x2D1 JUMPI PUSH1 0x0 CALLDATASIZE PUSH1 0x3 NOT ADD SLT PUSH2 0x2D1 JUMPI PUSH1 0x20 PUSH1 0x0 SLOAD PUSH1 0x1 SLOAD SWAP1 SUB PUSH1 0x40 MLOAD SWAP1 DUP2 MSTORE RETURN JUMPDEST PUSH1 0x60 SWAP1 PUSH1 0x3 NOT ADD SLT PUSH2 0x2D1 JUMPI PUSH1 0x1 PUSH1 0x1 PUSH1 0xA0 SHL SUB SWAP1 PUSH1 0x4 CALLDATALOAD DUP3 DUP2 AND DUP2 SUB PUSH2 0x2D1 JUMPI SWAP2 PUSH1 0x24 CALLDATALOAD SWAP1 DUP2 AND DUP2 SUB PUSH2 0x2D1 JUMPI SWAP1 PUSH1 0x44 CALLDATALOAD SWAP1 JUMP JUMPDEST CALLVALUE PUSH2 0x2D1 JUMPI PUSH2 0x7F8 PUSH2 0x93B CALLDATASIZE PUSH2 0x8F5 JUMP JUMPDEST SWAP2 PUSH2 0x26EE JUMP JUMPDEST CALLVALUE PUSH2 0x2D1 JUMPI PUSH1 0x20 CALLDATASIZE PUSH1 0x3 NOT ADD SLT PUSH2 0x2D1 JUMPI PUSH1 0x4 CALLDATALOAD PUSH1 0xC SLOAD DUP2 LT ISZERO PUSH2 0x992 JUMPI PUSH1 0x20 SWAP1 PUSH1 0xC PUSH1 0x0 MSTORE PUSH32 0xDF6966C971051C3D54EC59162606531493A51404A002842F56009D7E5CF4A8C7 ADD SLOAD PUSH1 0x40 MLOAD SWAP1 DUP2 MSTORE RETURN JUMPDEST PUSH1 0x24 SWAP1 PUSH1 0x40 MLOAD SWAP1 PUSH4 0x7931277 PUSH1 0xE1 SHL DUP3 MSTORE PUSH1 0x4 DUP3 ADD MSTORE REVERT JUMPDEST CALLVALUE PUSH2 0x2D1 JUMPI PUSH1 0x40 CALLDATASIZE PUSH1 0x3 NOT ADD SLT PUSH2 0x2D1 JUMPI PUSH1 0x24 CALLDATALOAD PUSH2 0xFFFF PUSH2 0x9CC PUSH1 0x4 CALLDATALOAD PUSH2 0x2FC2 JUMP JUMPDEST SWAP2 SWAP1 SWAP2 AND SWAP2 DUP3 DUP2 MUL SWAP3 DUP2 DUP5 DIV EQ SWAP1 ISZERO OR ISZERO PUSH2 0x9FF JUMPI PUSH1 0x40 DUP1 MLOAD PUSH1 0x1 PUSH1 0x1 PUSH1 0xA0 SHL SUB SWAP1 SWAP3 AND DUP3 MSTORE PUSH2 0x2710 SWAP1 SWAP3 DIV PUSH1 0x20 DUP3 ADD MSTORE RETURN JUMPDEST PUSH2 0x2DC5 JUMP JUMPDEST SWAP1 PUSH1 0x1 DUP3 DUP2 SHR SWAP3 AND DUP1 ISZERO PUSH2 0xA34 JUMPI JUMPDEST PUSH1 0x20 DUP4 LT EQ PUSH2 0xA1E JUMPI JUMP JUMPDEST PUSH4 0x4E487B71 PUSH1 0xE0 SHL PUSH1 0x0 MSTORE PUSH1 0x22 PUSH1 0x4 MSTORE PUSH1 0x24 PUSH1 0x0 REVERT JUMPDEST SWAP2 PUSH1 0x7F AND SWAP2 PUSH2 0xA13 JUMP JUMPDEST PUSH1 0x40 MLOAD SWAP1 PUSH1 0x0 DUP3 PUSH1 0x8 SLOAD SWAP2 PUSH2 0xA52 DUP4 PUSH2 0xA04 JUMP JUMPDEST DUP1 DUP4 MSTORE SWAP3 PUSH1 0x1 SWAP1 DUP2 DUP2 AND SWAP1 DUP2 ISZERO PUSH2 0xADA JUMPI POP PUSH1 0x1 EQ PUSH2 0xA7B JUMPI JUMPDEST POP PUSH2 0xA79 SWAP3 POP SUB DUP4 PUSH2 0x389 JUMP JUMPDEST JUMP JUMPDEST PUSH1 0x8 PUSH1 0x0 SWAP1 DUP2 MSTORE SWAP2 POP PUSH32 0xF3F7A9FE364FAAB93B216DA50A3214154F22A0A2B415B23A84C8169E8B636EE3 JUMPDEST DUP5 DUP4 LT PUSH2 0xABF JUMPI POP PUSH2 0xA79 SWAP4 POP POP DUP2 ADD PUSH1 0x20 ADD CODESIZE PUSH2 0xA6C JUMP JUMPDEST DUP2 SWAP4 POP SWAP1 DUP2 PUSH1 0x20 SWAP3 SLOAD DUP4 DUP6 DUP11 ADD ADD MSTORE ADD SWAP2 ADD SWAP1 SWAP2 DUP6 SWAP3 PUSH2 0xAA6 JUMP JUMPDEST SWAP1 POP PUSH1 0x20 SWAP3 POP PUSH2 0xA79 SWAP5 SWAP2 POP PUSH1 0xFF NOT AND DUP3 DUP5 ADD MSTORE ISZERO ISZERO PUSH1 0x5 SHL DUP3 ADD ADD CODESIZE PUSH2 0xA6C JUMP JUMPDEST SWAP1 PUSH1 0x40 MLOAD SWAP2 DUP3 PUSH1 0x0 DUP3 SLOAD SWAP3 PUSH2 0xB10 DUP5 PUSH2 0xA04 JUMP JUMPDEST SWAP1 DUP2 DUP5 MSTORE PUSH1 0x1 SWAP5 DUP6 DUP2 AND SWAP1 DUP2 PUSH1 0x0 EQ PUSH2 0xB7D JUMPI POP PUSH1 0x1 EQ PUSH2 0xB3A JUMPI JUMPDEST POP POP PUSH2 0xA79 SWAP3 POP SUB DUP4 PUSH2 0x389 JUMP JUMPDEST SWAP1 SWAP4 SWAP2 POP PUSH1 0x0 MSTORE PUSH1 0x20 SWAP1 DUP2 PUSH1 0x0 KECCAK256 SWAP4 PUSH1 0x0 SWAP2 JUMPDEST DUP2 DUP4 LT PUSH2 0xB65 JUMPI POP POP PUSH2 0xA79 SWAP4 POP DUP3 ADD ADD CODESIZE DUP1 PUSH2 0xB2C JUMP JUMPDEST DUP6 SLOAD DUP9 DUP5 ADD DUP6 ADD MSTORE SWAP5 DUP6 ADD SWAP5 DUP8 SWAP5 POP SWAP2 DUP4 ADD SWAP2 PUSH2 0xB4D JUMP JUMPDEST SWAP2 POP POP PUSH2 0xA79 SWAP5 POP PUSH1 0x20 SWAP3 POP PUSH1 0xFF NOT AND DUP3 DUP5 ADD MSTORE ISZERO ISZERO PUSH1 0x5 SHL DUP3 ADD ADD CODESIZE DUP1 PUSH2 0xB2C JUMP JUMPDEST SWAP1 SWAP2 PUSH2 0xBB8 PUSH2 0x417 SWAP6 SWAP4 PUSH1 0x80 DUP5 MSTORE PUSH1 0x80 DUP5 ADD SWAP1 PUSH2 0x663 JUMP JUMPDEST PUSH1 0x1 PUSH1 0x1 PUSH1 0xA0 SHL SUB SWAP2 DUP3 AND PUSH1 0x20 DUP5 ADD MSTORE SWAP4 AND PUSH1 0x40 DUP3 ADD MSTORE DUP1 DUP4 SUB PUSH1 0x60 SWAP1 SWAP2 ADD MSTORE PUSH2 0x663 JUMP JUMPDEST CALLVALUE PUSH2 0x2D1 JUMPI PUSH1 0x20 CALLDATASIZE PUSH1 0x3 NOT ADD SLT PUSH2 0x2D1 JUMPI PUSH1 0x4 CALLDATALOAD PUSH1 0x0 MSTORE PUSH1 0x10 PUSH1 0x20 MSTORE PUSH1 0x40 PUSH1 0x0 KECCAK256 PUSH2 0xC07 DUP2 PUSH2 0xAFC JUMP JUMPDEST PUSH2 0x6F2 PUSH1 0x1 DUP1 PUSH1 0xA0 SHL SUB SWAP3 PUSH2 0xC2C PUSH1 0x3 DUP6 PUSH1 0x1 DUP5 ADD SLOAD AND SWAP6 PUSH1 0x2 DUP5 ADD SLOAD AND SWAP3 ADD PUSH2 0xAFC JUMP JUMPDEST SWAP1 PUSH1 0x40 MLOAD SWAP5 DUP6 SWAP5 DUP6 PUSH2 0xBA0 JUMP JUMPDEST CALLVALUE PUSH2 0x2D1 JUMPI PUSH1 0x0 CALLDATASIZE PUSH1 0x3 NOT ADD SLT PUSH2 0x2D1 JUMPI PUSH1 0x20 PUSH1 0x0 SLOAD PUSH1 0x40 MLOAD SWAP1 DUP2 MSTORE RETURN JUMPDEST CALLVALUE PUSH2 0x2D1 JUMPI PUSH2 0x7F8 PUSH2 0xC68 CALLDATASIZE PUSH2 0x8F5 JUMP JUMPDEST SWAP1 PUSH1 0x40 MLOAD SWAP3 PUSH2 0xC76 DUP5 PUSH2 0x36E JUMP JUMPDEST PUSH1 0x0 DUP5 MSTORE PUSH2 0x2302 JUMP JUMPDEST CALLVALUE PUSH2 0x2D1 JUMPI PUSH1 0x20 CALLDATASIZE PUSH1 0x3 NOT ADD SLT PUSH2 0x2D1 JUMPI PUSH1 0x4 CALLDATALOAD PUSH2 0xC9C DUP2 PUSH2 0x2208 JUMP JUMPDEST DUP1 MLOAD PUSH1 0x1 PUSH1 0x1 PUSH1 0xA0 SHL SUB SWAP1 DUP2 AND SWAP1 DUP2 SWAP1 CALLER DUP3 EQ DUP1 ISZERO PUSH2 0xEAA JUMPI JUMPDEST DUP1 ISZERO PUSH2 0xE8A JUMPI JUMPDEST ISZERO PUSH2 0xE78 JUMPI PUSH1 0x0 SWAP4 PUSH2 0xCCF DUP4 DUP8 PUSH2 0x28C7 JUMP JUMPDEST PUSH1 0x1 PUSH1 0x1 PUSH1 0xA0 SHL SUB DUP4 AND PUSH1 0x0 SWAP1 DUP2 MSTORE PUSH1 0x5 PUSH1 0x20 MSTORE PUSH1 0x40 SWAP1 KECCAK256 PUSH2 0xD79 SWAP1 PUSH2 0xD2F PUSH2 0xD12 PUSH2 0xD02 DUP4 SLOAD PUSH1 0x1 PUSH1 0x1 PUSH1 0x40 SHL SUB AND SWAP1 JUMP JUMPDEST PUSH1 0x0 NOT ADD PUSH1 0x1 PUSH1 0x1 PUSH1 0x40 SHL SUB AND SWAP1 JUMP JUMPDEST DUP3 SLOAD PUSH8 0xFFFFFFFFFFFFFFFF NOT AND PUSH1 0x1 PUSH1 0x1 PUSH1 0x40 SHL SUB SWAP1 SWAP2 AND OR DUP3 SSTORE JUMP JUMPDEST DUP1 SLOAD PUSH2 0xD51 SWAP1 PUSH1 0x80 SHR PUSH1 0x1 PUSH1 0x1 PUSH1 0x40 SHL SUB AND JUMPDEST PUSH1 0x1 ADD PUSH1 0x1 PUSH1 0x1 PUSH1 0x40 SHL SUB AND SWAP1 JUMP JUMPDEST DUP2 SLOAD PUSH8 0xFFFFFFFFFFFFFFFF PUSH1 0x80 SHL NOT AND PUSH1 0x80 SWAP2 SWAP1 SWAP2 SHL PUSH8 0xFFFFFFFFFFFFFFFF PUSH1 0x80 SHL AND OR SWAP1 SSTORE JUMP JUMPDEST PUSH2 0xDCF PUSH2 0xD90 DUP8 PUSH1 0x0 MSTORE PUSH1 0x4 PUSH1 0x20 MSTORE PUSH1 0x40 PUSH1 0x0 KECCAK256 SWAP1 JUMP JUMPDEST DUP1 SLOAD PUSH1 0x1 PUSH1 0x1 PUSH1 0xA0 SHL SUB NOT AND PUSH1 0x1 PUSH1 0x1 PUSH1 0xA0 SHL SUB DUP7 AND OR DUP2 SSTORE PUSH2 0xDBC PUSH1 0x1 PUSH1 0x1 PUSH1 0x40 SHL SUB TIMESTAMP AND DUP3 PUSH2 0x2346 JUMP JUMPDEST DUP1 SLOAD PUSH1 0xFF PUSH1 0xE0 SHL NOT AND PUSH1 0x1 PUSH1 0xE0 SHL OR SWAP1 SSTORE JUMP JUMPDEST PUSH1 0x1 DUP7 ADD PUSH2 0xDE7 DUP2 PUSH1 0x0 MSTORE PUSH1 0x4 PUSH1 0x20 MSTORE PUSH1 0x40 PUSH1 0x0 KECCAK256 SWAP1 JUMP JUMPDEST DUP1 SLOAD SWAP1 SWAP4 AND PUSH1 0x1 PUSH1 0x1 PUSH1 0xA0 SHL SUB AND ISZERO PUSH2 0xE25 JUMPI JUMPDEST POP POP POP POP PUSH1 0x0 DUP1 MLOAD PUSH1 0x20 PUSH2 0x3336 DUP4 CODECOPY DUP2 MLOAD SWAP2 MSTORE DUP3 DUP1 LOG4 PUSH2 0x7F8 PUSH2 0xE20 PUSH1 0x1 SLOAD PUSH1 0x1 ADD SWAP1 JUMP JUMPDEST PUSH1 0x1 SSTORE JUMP JUMPDEST DUP6 SLOAD SUB PUSH2 0xE33 JUMPI JUMPDEST DUP1 PUSH2 0xDFB JUMP JUMPDEST DUP2 SLOAD PUSH1 0x1 PUSH1 0x1 PUSH1 0xA0 SHL SUB NOT AND PUSH1 0x1 PUSH1 0x1 PUSH1 0xA0 SHL SUB SWAP1 SWAP4 AND SWAP3 SWAP1 SWAP3 OR DUP2 SSTORE PUSH2 0xE70 SWAP2 PUSH2 0xE6A SWAP1 PUSH1 0x20 SWAP1 JUMPDEST ADD MLOAD PUSH1 0x1 PUSH1 0x1 PUSH1 0x40 SHL SUB AND SWAP1 JUMP JUMPDEST SWAP1 PUSH2 0x2346 JUMP JUMPDEST CODESIZE DUP1 DUP1 PUSH2 0xE2D JUMP JUMPDEST PUSH1 0x40 MLOAD PUSH4 0x2CE44B5F PUSH1 0xE1 SHL DUP2 MSTORE PUSH1 0x4 SWAP1 REVERT JUMPDEST POP CALLER PUSH2 0xEA4 PUSH2 0xE98 DUP8 PUSH2 0x22A9 JUMP JUMPDEST PUSH1 0x1 PUSH1 0x1 PUSH1 0xA0 SHL SUB AND SWAP1 JUMP JUMPDEST EQ PUSH2 0xCBD JUMP JUMPDEST POP PUSH2 0xEE5 PUSH2 0x81C CALLER PUSH2 0xECE DUP6 PUSH1 0x1 DUP1 PUSH1 0xA0 SHL SUB AND PUSH1 0x0 MSTORE PUSH1 0x7 PUSH1 0x20 MSTORE PUSH1 0x40 PUSH1 0x0 KECCAK256 SWAP1 JUMP JUMPDEST SWAP1 PUSH1 0x1 DUP1 PUSH1 0xA0 SHL SUB AND PUSH1 0x0 MSTORE PUSH1 0x20 MSTORE PUSH1 0x40 PUSH1 0x0 KECCAK256 SWAP1 JUMP JUMPDEST PUSH2 0xCB6 JUMP JUMPDEST CALLVALUE PUSH2 0x2D1 JUMPI PUSH1 0x40 CALLDATASIZE PUSH1 0x3 NOT ADD SLT PUSH2 0x2D1 JUMPI PUSH1 0x20 PUSH2 0xF05 PUSH2 0x2BB JUMP JUMPDEST PUSH1 0x24 CALLDATALOAD SWAP1 PUSH1 0x1 PUSH1 0x1 PUSH1 0xA0 SHL SUB DUP1 PUSH2 0xF1B DUP5 PUSH2 0x2208 JUMP JUMPDEST MLOAD AND SWAP3 DUP2 DUP4 AND SWAP3 DUP5 DUP5 EQ SWAP5 DUP6 ISZERO PUSH2 0xF59 JUMPI JUMPDEST POP POP DUP4 ISZERO PUSH2 0xF43 JUMPI JUMPDEST POP POP POP PUSH1 0x40 MLOAD SWAP1 ISZERO ISZERO DUP2 MSTORE RETURN JUMPDEST PUSH2 0xF4F SWAP2 SWAP3 SWAP4 POP PUSH2 0x22A9 JUMP JUMPDEST AND EQ CODESIZE DUP1 DUP1 PUSH2 0xF36 JUMP JUMPDEST PUSH1 0x0 SWAP1 DUP2 MSTORE PUSH1 0x7 DUP8 MSTORE PUSH1 0x40 DUP1 DUP3 KECCAK256 PUSH1 0x1 PUSH1 0x1 PUSH1 0xA0 SHL SUB SWAP4 SWAP1 SWAP4 AND DUP3 MSTORE PUSH1 0x20 SWAP3 SWAP1 SWAP3 MSTORE KECCAK256 SLOAD PUSH1 0xFF AND SWAP4 POP CODESIZE DUP1 PUSH2 0xF2D JUMP JUMPDEST CALLVALUE PUSH2 0x2D1 JUMPI PUSH1 0x20 CALLDATASIZE PUSH1 0x3 NOT ADD SLT PUSH2 0x2D1 JUMPI PUSH2 0xFA5 PUSH1 0x4 CALLDATALOAD PUSH2 0x2FC2 JUMP JUMPDEST PUSH1 0x40 DUP1 MLOAD PUSH1 0x1 PUSH1 0x1 PUSH1 0xA0 SHL SUB SWAP4 SWAP1 SWAP4 AND DUP4 MSTORE PUSH2 0xFFFF SWAP2 SWAP1 SWAP2 AND PUSH1 0x20 DUP4 ADD MSTORE SWAP1 RETURN JUMPDEST PUSH1 0x1 PUSH1 0x1 PUSH1 0x40 SHL SUB DUP2 GT PUSH2 0x333 JUMPI PUSH1 0x5 SHL PUSH1 0x20 ADD SWAP1 JUMP JUMPDEST PUSH1 0x20 SWAP1 DUP2 PUSH1 0x40 DUP2 DUP4 ADD SWAP3 DUP3 DUP2 MSTORE DUP6 MLOAD DUP1 SWAP5 MSTORE ADD SWAP4 ADD SWAP2 PUSH1 0x0 JUMPDEST DUP3 DUP2 LT PUSH2 0x1004 JUMPI POP POP POP POP SWAP1 JUMP JUMPDEST SWAP1 SWAP2 SWAP3 SWAP4 DUP3 PUSH1 0x60 DUP3 PUSH2 0x1040 PUSH1 0x1 SWAP5 DUP10 MLOAD PUSH1 0x40 DUP1 SWAP2 PUSH1 0x1 DUP1 PUSH1 0xA0 SHL SUB DUP2 MLOAD AND DUP5 MSTORE PUSH1 0x1 PUSH1 0x1 PUSH1 0x40 SHL SUB PUSH1 0x20 DUP3 ADD MLOAD AND PUSH1 0x20 DUP6 ADD MSTORE ADD MLOAD ISZERO ISZERO SWAP2 ADD MSTORE JUMP JUMPDEST ADD SWAP6 ADD SWAP4 SWAP3 SWAP2 ADD PUSH2 0xFF6 JUMP JUMPDEST CALLVALUE PUSH2 0x2D1 JUMPI PUSH1 0x20 DUP1 PUSH1 0x3 NOT CALLDATASIZE ADD SLT PUSH2 0x2D1 JUMPI PUSH1 0x4 CALLDATALOAD PUSH1 0x1 PUSH1 0x1 PUSH1 0x40 SHL SUB DUP2 GT PUSH2 0x2D1 JUMPI CALLDATASIZE PUSH1 0x23 DUP3 ADD SLT ISZERO PUSH2 0x2D1 JUMPI DUP1 PUSH1 0x4 ADD CALLDATALOAD SWAP1 PUSH2 0x1089 DUP3 PUSH2 0xFC6 JUMP JUMPDEST SWAP2 PUSH2 0x1097 PUSH1 0x40 MLOAD SWAP4 DUP5 PUSH2 0x389 JUMP JUMPDEST DUP1 DUP4 MSTORE PUSH1 0x24 DUP5 DUP5 ADD SWAP2 PUSH1 0x5 SHL DUP4 ADD ADD SWAP2 CALLDATASIZE DUP4 GT PUSH2 0x2D1 JUMPI PUSH1 0x24 ADD SWAP1 JUMPDEST DUP3 DUP3 LT PUSH2 0x10D2 JUMPI PUSH2 0x6F2 PUSH2 0x10C6 DUP6 PUSH2 0x2B8D JUMP JUMPDEST PUSH1 0x40 MLOAD SWAP2 DUP3 SWAP2 DUP3 PUSH2 0xFDD JUMP JUMPDEST DUP2 CALLDATALOAD DUP2 MSTORE SWAP1 DUP5 ADD SWAP1 DUP5 ADD PUSH2 0x10B3 JUMP JUMPDEST CALLVALUE PUSH2 0x2D1 JUMPI PUSH1 0x20 CALLDATASIZE PUSH1 0x3 NOT ADD SLT PUSH2 0x2D1 JUMPI PUSH1 0x4 CALLDATALOAD PUSH1 0x0 SWAP1 DUP1 DUP3 MSTORE PUSH1 0x10 PUSH1 0x20 MSTORE PUSH1 0x1 DUP1 PUSH1 0xA0 SHL SUB PUSH2 0x112B DUP2 PUSH1 0x2 PUSH1 0x40 DUP7 KECCAK256 ADD SLOAD AND DUP4 PUSH1 0x40 MLOAD SWAP2 PUSH2 0x1122 DUP4 PUSH2 0x36E JUMP JUMPDEST DUP7 DUP4 MSTORE CALLER PUSH2 0x2302 JUMP JUMPDEST DUP2 DUP4 MSTORE PUSH1 0x10 PUSH1 0x20 MSTORE PUSH1 0x2 PUSH1 0x40 DUP5 KECCAK256 ADD SLOAD AND SWAP1 CALLER SWAP1 PUSH32 0xF93018B8B4BCCAE90EFF1A45A9DA1A2E27A277E2E578A67DE10B89D4AF5279D2 DUP5 DUP1 LOG4 DUP1 RETURN JUMPDEST CALLVALUE PUSH2 0x2D1 JUMPI PUSH1 0x40 CALLDATASIZE PUSH1 0x3 NOT ADD SLT PUSH2 0x2D1 JUMPI PUSH2 0x117F PUSH2 0x2BB JUMP JUMPDEST PUSH1 0x9 SLOAD PUSH1 0x24 CALLDATALOAD SWAP2 PUSH1 0x1 PUSH1 0x1 PUSH1 0xA0 SHL SUB SWAP2 DUP3 AND CALLER SUB PUSH2 0x1218 JUMPI PUSH2 0x2710 DUP1 DUP5 GT PUSH2 0x11FA JUMPI POP PUSH1 0xA DUP1 SLOAD PUSH1 0x1 PUSH1 0x1 PUSH1 0xB0 SHL SUB NOT AND SWAP2 SWAP1 SWAP3 AND SWAP1 DUP2 OR PUSH1 0xA0 DUP5 SWAP1 SHL PUSH2 0xFFFF PUSH1 0xA0 SHL AND OR SWAP1 SWAP2 SSTORE PUSH1 0x40 MLOAD SWAP2 DUP3 MSTORE SWAP1 PUSH32 0x90D7EC04BCB8978719414F82E52E4CB651DB41D0E6F8CEA6118C2191E6183ADB SWAP1 DUP1 PUSH1 0x20 DUP2 ADD SUB SWAP1 LOG2 STOP JUMPDEST PUSH1 0x44 SWAP1 DUP5 PUSH1 0x40 MLOAD SWAP2 PUSH4 0xA4930AD PUSH1 0xE3 SHL DUP4 MSTORE PUSH1 0x4 DUP4 ADD MSTORE PUSH1 0x24 DUP3 ADD MSTORE REVERT JUMPDEST PUSH1 0x40 MLOAD PUSH4 0x6FAE3581 PUSH1 0xE1 SHL DUP2 MSTORE PUSH1 0x4 SWAP1 REVERT JUMPDEST CALLVALUE PUSH2 0x2D1 JUMPI PUSH1 0x20 CALLDATASIZE PUSH1 0x3 NOT ADD SLT PUSH2 0x2D1 JUMPI PUSH1 0x20 PUSH1 0x1 PUSH1 0x1 PUSH1 0xA0 SHL SUB PUSH2 0x1250 PUSH1 0x4 CALLDATALOAD PUSH2 0x2208 JUMP JUMPDEST MLOAD AND PUSH1 0x40 MLOAD SWAP1 DUP2 MSTORE RETURN JUMPDEST CALLVALUE PUSH2 0x2D1 JUMPI PUSH1 0x0 CALLDATASIZE PUSH1 0x3 NOT ADD SLT PUSH2 0x2D1 JUMPI PUSH1 0x20 PUSH1 0xC SLOAD PUSH1 0x40 MLOAD SWAP1 DUP2 MSTORE RETURN JUMPDEST CALLVALUE PUSH2 0x2D1 JUMPI PUSH1 0x20 CALLDATASIZE PUSH1 0x3 NOT ADD SLT PUSH2 0x2D1 JUMPI PUSH1 0x4 CALLDATALOAD PUSH1 0x0 MSTORE PUSH1 0x10 PUSH1 0x20 MSTORE PUSH1 0x40 PUSH1 0x0 KECCAK256 PUSH1 0x40 MLOAD PUSH2 0x12A5 DUP2 PUSH2 0x318 JUMP JUMPDEST PUSH2 0x12AE DUP3 PUSH2 0xAFC JUMP JUMPDEST DUP2 MSTORE PUSH2 0x6F2 PUSH1 0x1 DUP1 PUSH1 0xA0 SHL SUB SWAP2 PUSH2 0x130E PUSH2 0x1300 PUSH2 0x12E9 PUSH1 0x3 DUP7 PUSH1 0x1 DUP10 ADD SLOAD AND SWAP7 PUSH1 0x20 DUP7 ADD SWAP8 DUP9 MSTORE PUSH1 0x2 DUP10 ADD SLOAD AND SWAP8 PUSH1 0x40 DUP7 ADD SWAP9 DUP10 MSTORE ADD PUSH2 0xAFC JUMP JUMPDEST PUSH1 0x60 DUP5 ADD DUP2 SWAP1 MSTORE SWAP3 MLOAD SWAP5 MLOAD PUSH1 0x1 PUSH1 0x1 PUSH1 0xA0 SHL SUB AND SWAP1 JUMP JUMPDEST SWAP5 MLOAD PUSH1 0x1 PUSH1 0x1 PUSH1 0xA0 SHL SUB AND SWAP1 JUMP JUMPDEST PUSH1 0x40 MLOAD SWAP5 DUP6 SWAP5 DUP6 PUSH2 0xBA0 JUMP JUMPDEST CALLVALUE PUSH2 0x2D1 JUMPI PUSH1 0x20 CALLDATASIZE PUSH1 0x3 NOT ADD SLT PUSH2 0x2D1 JUMPI PUSH1 0x20 PUSH2 0x133D PUSH2 0x1338 PUSH2 0x2BB JUMP JUMPDEST PUSH2 0x2171 JUMP JUMPDEST PUSH1 0x40 MLOAD SWAP1 DUP2 MSTORE RETURN JUMPDEST CALLVALUE PUSH2 0x2D1 JUMPI PUSH1 0x80 CALLDATASIZE PUSH1 0x3 NOT ADD SLT PUSH2 0x2D1 JUMPI PUSH2 0x135E PUSH2 0x2BB JUMP JUMPDEST PUSH1 0x24 CALLDATALOAD PUSH1 0x44 CALLDATALOAD SWAP2 PUSH1 0x1 PUSH1 0x1 PUSH1 0x40 SHL SUB SWAP3 DUP4 DUP2 GT PUSH2 0x2D1 JUMPI PUSH2 0x1383 SWAP1 CALLDATASIZE SWAP1 PUSH1 0x4 ADD PUSH2 0x3FC JUMP JUMPDEST SWAP2 PUSH1 0x64 CALLDATALOAD DUP5 DUP2 GT PUSH2 0x2D1 JUMPI PUSH2 0x139C SWAP1 CALLDATASIZE SWAP1 PUSH1 0x4 ADD PUSH2 0x3FC JUMP JUMPDEST SWAP2 PUSH2 0x13B2 PUSH1 0x1 DUP1 PUSH1 0xA0 SHL SUB PUSH1 0x9 SLOAD AND CALLER EQ PUSH2 0x1F7F JUMP JUMPDEST PUSH1 0x0 SWAP4 DUP5 SLOAD DUP4 DUP2 ADD DUP1 SWAP2 GT PUSH2 0x9FF JUMPI PUSH1 0xC SLOAD SWAP1 PUSH9 0x10000000000000000 DUP3 LT ISZERO PUSH2 0x333 JUMPI PUSH2 0x1404 DUP2 PUSH2 0x13EB PUSH1 0x1 SWAP5 DUP6 DUP2 ADD PUSH1 0xC SSTORE PUSH2 0x2D8E JUMP JUMPDEST SWAP1 SWAP2 SWAP1 DUP3 SLOAD SWAP1 PUSH1 0x3 SHL SWAP2 DUP3 SHL SWAP2 PUSH1 0x0 NOT SWAP1 SHL NOT AND OR SWAP1 SSTORE JUMP JUMPDEST DUP7 MSTORE PUSH1 0x20 PUSH1 0xD DUP2 MSTORE PUSH1 0x40 DUP8 KECCAK256 SWAP3 DUP1 MLOAD SWAP9 DUP10 GT PUSH2 0x333 JUMPI PUSH2 0x142E DUP10 PUSH2 0x1428 DUP7 SLOAD PUSH2 0xA04 JUMP JUMPDEST DUP7 PUSH2 0x204F JUMP JUMPDEST DUP2 PUSH1 0x1F DUP11 GT PUSH1 0x1 EQ PUSH2 0x146D JUMPI POP SWAP8 DUP1 SWAP3 DUP2 SWAP3 DUP10 SWAP11 PUSH2 0x4F0 SWAP11 SWAP5 PUSH2 0x1462 JUMPI JUMPDEST POP POP SHL SWAP2 PUSH1 0x0 NOT SWAP1 PUSH1 0x3 SHL SHR NOT AND OR SWAP1 SSTORE PUSH2 0x2555 JUMP JUMPDEST ADD MLOAD SWAP3 POP CODESIZE DUP1 PUSH2 0x144C JUMP JUMPDEST SWAP1 SWAP9 SWAP2 PUSH1 0x1F NOT DUP4 AND SWAP10 PUSH2 0x1485 DUP7 PUSH1 0x0 MSTORE PUSH1 0x20 PUSH1 0x0 KECCAK256 SWAP1 JUMP JUMPDEST SWAP3 DUP11 SWAP1 JUMPDEST DUP13 DUP3 LT PUSH2 0x14C4 JUMPI POP POP DUP4 PUSH2 0x4F0 SWAP11 SWAP12 LT PUSH2 0x14AB JUMPI JUMPDEST POP POP POP DUP2 SHL ADD SWAP1 SSTORE PUSH2 0x2555 JUMP JUMPDEST ADD MLOAD PUSH1 0x0 NOT PUSH1 0xF8 DUP5 PUSH1 0x3 SHL AND SHR NOT AND SWAP1 SSTORE CODESIZE DUP1 DUP1 PUSH2 0x149E JUMP JUMPDEST DUP1 DUP8 DUP6 SWAP7 DUP3 SWAP5 SWAP7 DUP7 ADD MLOAD DUP2 SSTORE ADD SWAP6 ADD SWAP4 ADD SWAP1 PUSH2 0x1489 JUMP JUMPDEST CALLVALUE PUSH2 0x2D1 JUMPI PUSH1 0x40 CALLDATASIZE PUSH1 0x3 NOT ADD SLT PUSH2 0x2D1 JUMPI PUSH1 0x1 PUSH1 0x1 PUSH1 0x40 SHL SUB PUSH1 0x4 CALLDATALOAD PUSH1 0x24 CALLDATALOAD DUP3 DUP2 GT PUSH2 0x2D1 JUMPI PUSH2 0x150F SWAP1 CALLDATASIZE SWAP1 PUSH1 0x4 ADD PUSH2 0x3FC JUMP JUMPDEST PUSH1 0x0 SWAP3 DUP3 DUP5 MSTORE PUSH1 0x20 SWAP1 PUSH1 0x10 DUP3 MSTORE PUSH1 0x3 PUSH1 0x40 DUP7 KECCAK256 ADD SWAP2 DUP4 MLOAD SWAP2 DUP3 GT PUSH2 0x333 JUMPI PUSH2 0x153B DUP3 PUSH2 0x4AC DUP6 SLOAD PUSH2 0xA04 JUMP JUMPDEST DUP1 PUSH1 0x1F DUP4 GT PUSH1 0x1 EQ PUSH2 0x15A8 JUMPI POP SWAP2 DUP2 PUSH32 0x7E70084D84488F1D46902BB7FA3B765328C23F5713EC1E5D426BC7C9B2E9E104 SWAP5 SWAP3 PUSH2 0x1597 SWAP5 DUP9 SWAP2 PUSH2 0x159D JUMPI JUMPDEST POP DUP2 PUSH1 0x1 SHL SWAP2 PUSH1 0x0 NOT SWAP1 PUSH1 0x3 SHL SHR NOT AND OR SWAP1 SSTORE PUSH1 0x40 MLOAD SWAP2 DUP3 SWAP2 DUP3 PUSH2 0x688 JUMP JUMPDEST SUB SWAP1 LOG2 DUP1 RETURN JUMPDEST SWAP1 POP DUP4 ADD MLOAD CODESIZE PUSH2 0x1578 JUMP JUMPDEST SWAP1 PUSH1 0x1F NOT DUP4 AND PUSH2 0x15BD DUP6 PUSH1 0x0 MSTORE PUSH1 0x20 PUSH1 0x0 KECCAK256 SWAP1 JUMP JUMPDEST SWAP3 DUP9 SWAP1 JUMPDEST DUP3 DUP3 LT PUSH2 0x1622 JUMPI POP POP SWAP3 PUSH2 0x1597 SWAP5 SWAP3 PUSH1 0x1 SWAP3 DUP3 PUSH32 0x7E70084D84488F1D46902BB7FA3B765328C23F5713EC1E5D426BC7C9B2E9E104 SWAP9 SWAP7 LT PUSH2 0x1609 JUMPI JUMPDEST POP POP DUP2 SHL ADD SWAP1 SSTORE PUSH2 0x6E6 JUMP JUMPDEST DUP6 ADD MLOAD PUSH1 0x0 NOT PUSH1 0xF8 DUP5 PUSH1 0x3 SHL AND SHR NOT AND SWAP1 SSTORE CODESIZE DUP1 PUSH2 0x15FD JUMP JUMPDEST DUP1 PUSH1 0x1 DUP6 SWAP7 DUP3 SWAP5 SWAP7 DUP12 ADD MLOAD DUP2 SSTORE ADD SWAP6 ADD SWAP4 ADD SWAP1 PUSH2 0x15C1 JUMP JUMPDEST CALLVALUE PUSH2 0x2D1 JUMPI PUSH1 0x20 CALLDATASIZE PUSH1 0x3 NOT ADD SLT PUSH2 0x2D1 JUMPI PUSH1 0x4 CALLDATALOAD PUSH1 0x0 MSTORE PUSH1 0xE PUSH1 0x20 MSTORE PUSH1 0x20 PUSH1 0xFF PUSH1 0x40 PUSH1 0x0 KECCAK256 SLOAD AND PUSH1 0x40 MLOAD SWAP1 ISZERO ISZERO DUP2 MSTORE RETURN JUMPDEST PUSH1 0x20 SWAP1 DUP2 PUSH1 0x40 DUP2 DUP4 ADD SWAP3 DUP3 DUP2 MSTORE DUP6 MLOAD DUP1 SWAP5 MSTORE ADD SWAP4 ADD SWAP2 PUSH1 0x0 JUMPDEST DUP3 DUP2 LT PUSH2 0x1692 JUMPI POP POP POP POP SWAP1 JUMP JUMPDEST DUP4 MLOAD DUP6 MSTORE SWAP4 DUP2 ADD SWAP4 SWAP3 DUP2 ADD SWAP3 PUSH1 0x1 ADD PUSH2 0x1684 JUMP JUMPDEST CALLVALUE PUSH2 0x2D1 JUMPI PUSH1 0x20 CALLDATASIZE PUSH1 0x3 NOT ADD SLT PUSH2 0x2D1 JUMPI PUSH2 0x16BF PUSH2 0x2BB JUMP JUMPDEST PUSH1 0x0 DUP1 PUSH2 0x16CB DUP4 PUSH2 0x2171 JUMP JUMPDEST SWAP2 PUSH2 0x16D5 DUP4 PUSH2 0x2C1B JUMP JUMPDEST SWAP4 PUSH2 0x16DE PUSH2 0x21AC JUMP JUMPDEST POP PUSH1 0x1 PUSH1 0x1 PUSH1 0xA0 SHL SUB SWAP1 DUP2 AND SWAP2 DUP4 JUMPDEST DUP6 DUP6 SUB PUSH2 0x1702 JUMPI PUSH1 0x40 MLOAD DUP1 PUSH2 0x6F2 DUP10 DUP3 PUSH2 0x166B JUMP JUMPDEST PUSH2 0x171E PUSH2 0x1719 DUP3 PUSH1 0x0 MSTORE PUSH1 0x4 PUSH1 0x20 MSTORE PUSH1 0x40 PUSH1 0x0 KECCAK256 SWAP1 JUMP JUMPDEST PUSH2 0x21CB JUMP JUMPDEST PUSH1 0x40 DUP2 ADD MLOAD PUSH2 0x176A JUMPI MLOAD PUSH1 0x1 PUSH1 0x1 PUSH1 0xA0 SHL SUB AND DUP4 DUP2 AND PUSH2 0x1761 JUMPI JUMPDEST POP PUSH1 0x1 SWAP1 DUP5 DUP5 DUP5 AND EQ PUSH2 0x174D JUMPI JUMPDEST ADD PUSH2 0x16ED JUMP JUMPDEST DUP1 PUSH2 0x175B DUP4 DUP9 ADD SWAP8 DUP11 PUSH2 0x2B74 JUMP JUMPDEST MSTORE PUSH2 0x1747 JUMP JUMPDEST SWAP2 POP PUSH1 0x1 PUSH2 0x1739 JUMP JUMPDEST POP PUSH1 0x1 SWAP1 PUSH2 0x1747 JUMP JUMPDEST CALLVALUE PUSH2 0x2D1 JUMPI PUSH1 0x0 CALLDATASIZE PUSH1 0x3 NOT ADD SLT PUSH2 0x2D1 JUMPI PUSH1 0x9 SLOAD PUSH1 0x40 MLOAD PUSH1 0x1 PUSH1 0x1 PUSH1 0xA0 SHL SUB SWAP1 SWAP2 AND DUP2 MSTORE PUSH1 0x20 SWAP1 RETURN JUMPDEST CALLVALUE PUSH2 0x2D1 JUMPI PUSH1 0x20 DUP1 PUSH1 0x3 NOT CALLDATASIZE ADD SLT PUSH2 0x2D1 JUMPI PUSH1 0x1 PUSH1 0x1 PUSH1 0x40 SHL SUB SWAP1 PUSH1 0x4 CALLDATALOAD DUP3 DUP2 GT PUSH2 0x2D1 JUMPI PUSH2 0x17CF SWAP1 CALLDATASIZE SWAP1 PUSH1 0x4 ADD PUSH2 0x3FC JUMP JUMPDEST PUSH1 0x9 SLOAD SWAP1 SWAP2 SWAP1 PUSH1 0x1 PUSH1 0x1 PUSH1 0xA0 SHL SUB AND CALLER SUB PUSH2 0x191D JUMPI PUSH2 0x17EC PUSH2 0xA3E JUMP JUMPDEST SWAP1 DUP3 MLOAD SWAP4 DUP5 GT PUSH2 0x333 JUMPI PUSH2 0x180A DUP5 PUSH2 0x1805 PUSH1 0x8 SLOAD PUSH2 0xA04 JUMP JUMPDEST PUSH2 0x1FDE JUMP JUMPDEST DUP1 PUSH1 0x1F DUP6 GT PUSH1 0x1 EQ PUSH2 0x1877 JUMPI POP SWAP3 DUP1 PUSH32 0xC9C7C3FE08B88B4DF9D4D47EF47D2C43D55C025A0BA88CA442580ED9E7348A16 SWAP5 PUSH1 0x0 SWAP2 PUSH2 0x186C JUMPI JUMPDEST POP DUP2 PUSH1 0x1 SHL SWAP2 PUSH1 0x0 NOT SWAP1 PUSH1 0x3 SHL SHR NOT AND OR PUSH1 0x8 SSTORE JUMPDEST PUSH2 0x1867 PUSH1 0x40 MLOAD SWAP3 DUP4 SWAP3 DUP4 PUSH2 0x2ECC JUMP JUMPDEST SUB SWAP1 LOG1 STOP JUMPDEST SWAP1 POP DUP4 ADD MLOAD CODESIZE PUSH2 0x1843 JUMP JUMPDEST PUSH1 0x8 PUSH1 0x0 MSTORE SWAP1 PUSH1 0x1F NOT DUP6 AND PUSH32 0xF3F7A9FE364FAAB93B216DA50A3214154F22A0A2B415B23A84C8169E8B636EE3 SWAP3 PUSH1 0x0 SWAP1 JUMPDEST DUP3 DUP3 LT PUSH2 0x1905 JUMPI POP POP SWAP2 DUP6 SWAP2 PUSH32 0xC9C7C3FE08B88B4DF9D4D47EF47D2C43D55C025A0BA88CA442580ED9E7348A16 SWAP7 PUSH1 0x1 SWAP5 LT PUSH2 0x18EC JUMPI JUMPDEST POP POP DUP2 SHL ADD PUSH1 0x8 SSTORE PUSH2 0x1858 JUMP JUMPDEST DUP6 ADD MLOAD PUSH1 0x0 NOT PUSH1 0xF8 DUP5 PUSH1 0x3 SHL AND SHR NOT AND SWAP1 SSTORE CODESIZE DUP1 PUSH2 0x18DF JUMP JUMPDEST DUP1 PUSH1 0x1 DUP6 SWAP7 DUP3 SWAP5 SWAP7 DUP11 ADD MLOAD DUP2 SSTORE ADD SWAP6 ADD SWAP4 ADD SWAP1 PUSH2 0x18A8 JUMP JUMPDEST PUSH1 0x40 MLOAD PUSH4 0x9F7F0925 PUSH1 0xE0 SHL DUP2 MSTORE PUSH1 0x4 SWAP1 REVERT JUMPDEST CALLVALUE PUSH2 0x2D1 JUMPI PUSH1 0x0 DUP1 PUSH1 0x3 NOT CALLDATASIZE ADD SLT PUSH2 0x77B JUMPI PUSH1 0x40 MLOAD SWAP1 DUP1 PUSH1 0x3 SLOAD PUSH2 0x1952 DUP2 PUSH2 0xA04 JUMP JUMPDEST DUP1 DUP6 MSTORE SWAP2 PUSH1 0x1 SWAP2 DUP1 DUP4 AND SWAP1 DUP2 ISZERO PUSH2 0x751 JUMPI POP PUSH1 0x1 EQ PUSH2 0x197B JUMPI PUSH2 0x6F2 DUP6 PUSH2 0x6E6 DUP2 DUP8 SUB DUP3 PUSH2 0x389 JUMP JUMPDEST SWAP3 POP PUSH1 0x3 DUP4 MSTORE PUSH32 0xC2575A0E9E593C00F959F8C92F12DB2869C3395A3B0502D05E2516446F71F85B JUMPDEST DUP3 DUP5 LT PUSH2 0x19BE JUMPI POP POP POP DUP2 ADD PUSH1 0x20 ADD PUSH2 0x6E6 DUP3 PUSH2 0x6F2 PUSH2 0x6D6 JUMP JUMPDEST DUP1 SLOAD PUSH1 0x20 DUP6 DUP8 ADD DUP2 ADD SWAP2 SWAP1 SWAP2 MSTORE SWAP1 SWAP4 ADD SWAP3 DUP2 ADD PUSH2 0x19A3 JUMP JUMPDEST CALLVALUE PUSH2 0x2D1 JUMPI PUSH1 0x60 CALLDATASIZE PUSH1 0x3 NOT ADD SLT PUSH2 0x2D1 JUMPI PUSH2 0x6F2 PUSH2 0x1A02 PUSH2 0x19F5 PUSH2 0x2BB JUMP JUMPDEST PUSH1 0x44 CALLDATALOAD SWAP1 PUSH1 0x24 CALLDATALOAD SWAP1 PUSH2 0x2C4D JUMP JUMPDEST PUSH1 0x40 MLOAD SWAP2 DUP3 SWAP2 DUP3 PUSH2 0x166B JUMP JUMPDEST CALLVALUE PUSH2 0x2D1 JUMPI PUSH1 0x60 CALLDATASIZE PUSH1 0x3 NOT ADD SLT PUSH2 0x2D1 JUMPI PUSH1 0x4 CALLDATALOAD PUSH2 0x1A2A PUSH2 0x2D6 JUMP JUMPDEST SWAP1 PUSH1 0x44 CALLDATALOAD PUSH1 0x1 DUP1 PUSH1 0xA0 SHL SUB DUP1 PUSH1 0x9 SLOAD AND CALLER SUB PUSH2 0x1218 JUMPI PUSH2 0x2710 DUP1 DUP4 GT PUSH2 0x1AD9 JUMPI POP PUSH32 0x7365CF4122F072A3365C20D54EFF9B38D73C096C28E1892EC8F5B0E403A0F12D SWAP2 PUSH2 0x1AC4 PUSH2 0x1AD4 SWAP3 PUSH1 0x40 MLOAD SWAP7 PUSH2 0x1A81 DUP9 PUSH2 0x338 JUMP JUMPDEST AND SWAP6 DUP7 DUP2 MSTORE DUP3 PUSH1 0x20 DUP3 ADD MSTORE DUP6 PUSH1 0x0 MSTORE PUSH1 0xB PUSH1 0x20 MSTORE PUSH1 0x40 PUSH1 0x0 KECCAK256 DUP2 MLOAD DUP2 SLOAD PUSH1 0x1 PUSH1 0x1 PUSH1 0xA0 SHL SUB NOT AND PUSH1 0x1 PUSH1 0x1 PUSH1 0xA0 SHL SUB SWAP2 SWAP1 SWAP2 AND OR DUP2 SSTORE SWAP1 PUSH1 0x1 SWAP1 PUSH1 0x20 ADD MLOAD SWAP2 ADD SSTORE JUMP JUMPDEST PUSH1 0x40 MLOAD SWAP1 DUP2 MSTORE SWAP1 DUP2 SWAP1 PUSH1 0x20 DUP3 ADD SWAP1 JUMP JUMPDEST SUB SWAP1 LOG3 STOP JUMPDEST PUSH1 0x44 SWAP1 DUP4 PUSH1 0x40 MLOAD SWAP2 PUSH4 0xA4930AD PUSH1 0xE3 SHL DUP4 MSTORE PUSH1 0x4 DUP4 ADD MSTORE PUSH1 0x24 DUP3 ADD MSTORE REVERT JUMPDEST CALLVALUE PUSH2 0x2D1 JUMPI PUSH1 0x40 CALLDATASIZE PUSH1 0x3 NOT ADD SLT PUSH2 0x2D1 JUMPI PUSH2 0x1B10 PUSH2 0x2BB JUMP JUMPDEST PUSH1 0x24 CALLDATALOAD DUP1 ISZERO ISZERO DUP1 SWAP2 SUB PUSH2 0x2D1 JUMPI PUSH1 0x1 PUSH1 0x1 PUSH1 0xA0 SHL SUB DUP3 AND SWAP2 CALLER DUP4 EQ PUSH2 0x1B8D JUMPI CALLER PUSH1 0x0 SWAP1 DUP2 MSTORE PUSH1 0x7 PUSH1 0x20 SWAP1 DUP2 MSTORE PUSH1 0x40 DUP1 DUP4 KECCAK256 PUSH1 0x1 PUSH1 0x1 PUSH1 0xA0 SHL SUB SWAP1 SWAP5 AND DUP4 MSTORE SWAP3 SWAP1 MSTORE KECCAK256 PUSH1 0xFF NOT DUP2 SLOAD AND PUSH1 0xFF DUP4 AND OR SWAP1 SSTORE PUSH1 0x40 MLOAD SWAP1 DUP2 MSTORE PUSH32 0x17307EAB39AB6107E8899845AD3D59BD9653F200F220920489CA2B5937696C31 PUSH1 0x20 CALLER SWAP3 LOG3 STOP JUMPDEST PUSH1 0x40 MLOAD PUSH4 0xB06307DB PUSH1 0xE0 SHL DUP2 MSTORE PUSH1 0x4 SWAP1 REVERT JUMPDEST CALLVALUE PUSH2 0x2D1 JUMPI PUSH1 0x0 CALLDATASIZE PUSH1 0x3 NOT ADD SLT PUSH2 0x2D1 JUMPI PUSH1 0x20 PUSH1 0x11 SLOAD PUSH1 0x40 MLOAD SWAP1 DUP2 MSTORE RETURN JUMPDEST PUSH1 0x20 DUP1 DUP3 ADD SWAP1 DUP1 DUP4 MSTORE DUP4 MLOAD DUP1 SWAP3 MSTORE PUSH1 0x40 DUP4 ADD SWAP3 DUP2 PUSH1 0x40 DUP5 PUSH1 0x5 SHL DUP4 ADD ADD SWAP6 ADD SWAP4 PUSH1 0x0 SWAP2 JUMPDEST DUP5 DUP4 LT PUSH2 0x1BF1 JUMPI POP POP POP POP POP POP SWAP1 JUMP JUMPDEST SWAP1 SWAP2 SWAP3 SWAP4 SWAP5 SWAP6 DUP5 DUP1 PUSH2 0x1C0F PUSH1 0x1 SWAP4 PUSH1 0x3F NOT DUP7 DUP3 SUB ADD DUP8 MSTORE DUP11 MLOAD PUSH2 0x663 JUMP JUMPDEST SWAP9 ADD SWAP4 ADD SWAP4 ADD SWAP2 SWAP5 SWAP4 SWAP3 SWAP1 PUSH2 0x1BE1 JUMP JUMPDEST CALLVALUE PUSH2 0x2D1 JUMPI PUSH1 0x20 CALLDATASIZE PUSH1 0x3 NOT ADD SLT PUSH2 0x2D1 JUMPI PUSH1 0x1 PUSH1 0x1 PUSH1 0x40 SHL SUB PUSH1 0x4 CALLDATALOAD DUP2 DUP2 GT PUSH2 0x2D1 JUMPI CALLDATASIZE PUSH1 0x23 DUP3 ADD SLT ISZERO PUSH2 0x2D1 JUMPI DUP1 PUSH1 0x4 ADD CALLDATALOAD SWAP2 DUP3 GT PUSH2 0x2D1 JUMPI CALLDATASIZE PUSH1 0x24 DUP4 PUSH1 0x5 SHL DUP4 ADD ADD GT PUSH2 0x2D1 JUMPI PUSH2 0x6F2 SWAP2 PUSH1 0x24 PUSH2 0x1C78 SWAP3 ADD PUSH2 0x2F00 JUMP JUMPDEST PUSH1 0x40 MLOAD SWAP2 DUP3 SWAP2 DUP3 PUSH2 0x1BBD JUMP JUMPDEST CALLVALUE PUSH2 0x2D1 JUMPI PUSH1 0x0 CALLDATASIZE PUSH1 0x3 NOT ADD SLT PUSH2 0x2D1 JUMPI PUSH1 0xA SLOAD PUSH1 0x40 DUP1 MLOAD PUSH1 0x1 PUSH1 0x1 PUSH1 0xA0 SHL SUB DUP4 AND DUP2 MSTORE PUSH1 0xA0 SWAP3 SWAP1 SWAP3 SHR PUSH2 0xFFFF AND PUSH1 0x20 DUP4 ADD MSTORE SWAP1 RETURN JUMPDEST CALLVALUE PUSH2 0x2D1 JUMPI PUSH1 0x80 CALLDATASIZE PUSH1 0x3 NOT ADD SLT PUSH2 0x2D1 JUMPI PUSH2 0x1CD3 PUSH2 0x2BB JUMP JUMPDEST PUSH2 0x1CDB PUSH2 0x2D6 JUMP JUMPDEST PUSH1 0x64 CALLDATALOAD SWAP2 PUSH1 0x1 PUSH1 0x1 PUSH1 0x40 SHL SUB DUP4 GT PUSH2 0x2D1 JUMPI PUSH2 0x1CFE PUSH2 0x7F8 SWAP4 CALLDATASIZE SWAP1 PUSH1 0x4 ADD PUSH2 0x3FC JUMP JUMPDEST SWAP2 PUSH1 0x44 CALLDATALOAD SWAP2 PUSH2 0x2302 JUMP JUMPDEST CALLVALUE PUSH2 0x2D1 JUMPI PUSH1 0x20 CALLDATASIZE PUSH1 0x3 NOT ADD SLT PUSH2 0x2D1 JUMPI PUSH1 0x60 PUSH2 0x1D26 PUSH1 0x4 CALLDATALOAD PUSH2 0x2AE5 JUMP JUMPDEST PUSH1 0x40 DUP1 MLOAD DUP3 MLOAD PUSH1 0x1 PUSH1 0x1 PUSH1 0xA0 SHL SUB AND DUP2 MSTORE PUSH1 0x20 DUP1 DUP5 ADD MLOAD PUSH1 0x1 PUSH1 0x1 PUSH1 0x40 SHL SUB AND SWAP1 DUP3 ADD MSTORE SWAP2 DUP2 ADD MLOAD ISZERO ISZERO SWAP1 DUP3 ADD MSTORE RETURN JUMPDEST CALLVALUE PUSH2 0x2D1 JUMPI PUSH1 0x20 CALLDATASIZE PUSH1 0x3 NOT ADD SLT PUSH2 0x2D1 JUMPI PUSH2 0x6F2 PUSH2 0x1D75 PUSH1 0x4 CALLDATALOAD PUSH2 0x1F0C JUMP JUMPDEST PUSH1 0x40 MLOAD SWAP2 DUP3 SWAP2 PUSH1 0x20 DUP4 MSTORE PUSH1 0x20 DUP4 ADD SWAP1 PUSH2 0x663 JUMP JUMPDEST CALLVALUE PUSH2 0x2D1 JUMPI PUSH1 0x80 CALLDATASIZE PUSH1 0x3 NOT ADD SLT PUSH2 0x2D1 JUMPI PUSH1 0x1 PUSH1 0x1 PUSH1 0x40 SHL SUB PUSH1 0x4 CALLDATALOAD PUSH1 0x24 CALLDATALOAD DUP3 DUP2 GT PUSH2 0x2D1 JUMPI PUSH2 0x1DBD SWAP1 CALLDATASIZE SWAP1 PUSH1 0x4 ADD PUSH2 0x3FC JUMP JUMPDEST SWAP1 PUSH2 0x1DC6 PUSH2 0x2EC JUMP JUMPDEST SWAP3 PUSH1 0x64 CALLDATALOAD SWAP1 DUP2 GT PUSH2 0x2D1 JUMPI PUSH2 0x1E85 PUSH2 0x1E03 PUSH32 0xA7CFDD00229A0D68229C8182F3E3970F755E7622CB61CCCED1F2FDBA49761633 SWAP3 CALLDATASIZE SWAP1 PUSH1 0x4 ADD PUSH2 0x3FC JUMP JUMPDEST SWAP5 PUSH1 0x11 SLOAD DUP5 GT PUSH2 0x1E8A JUMPI JUMPDEST PUSH2 0x1E28 PUSH1 0x40 MLOAD PUSH2 0x1E1D DUP2 PUSH2 0x36E JUMP JUMPDEST PUSH1 0x0 DUP2 MSTORE DUP6 CALLER PUSH2 0x2555 JUMP JUMPDEST PUSH2 0x1E6E PUSH1 0x40 MLOAD PUSH2 0x1E37 DUP2 PUSH2 0x318 JUMP JUMPDEST DUP7 DUP2 MSTORE CALLER PUSH1 0x20 DUP3 ADD MSTORE PUSH1 0x1 PUSH1 0x1 PUSH1 0xA0 SHL SUB DUP4 AND PUSH1 0x40 DUP3 ADD MSTORE DUP8 PUSH1 0x60 DUP3 ADD MSTORE PUSH2 0x1E69 DUP7 PUSH1 0x0 MSTORE PUSH1 0x10 PUSH1 0x20 MSTORE PUSH1 0x40 PUSH1 0x0 KECCAK256 SWAP1 JUMP JUMPDEST PUSH2 0x31E9 JUMP JUMPDEST PUSH1 0x40 MLOAD SWAP2 DUP3 SWAP2 PUSH1 0x1 DUP1 PUSH1 0xA0 SHL SUB AND SWAP7 CALLER SWAP7 DUP4 PUSH2 0x2ECC JUMP JUMPDEST SUB SWAP1 LOG4 STOP JUMPDEST DUP4 PUSH1 0x11 SSTORE PUSH2 0x1E0E JUMP JUMPDEST CALLVALUE PUSH2 0x2D1 JUMPI PUSH1 0x0 CALLDATASIZE PUSH1 0x3 NOT ADD SLT PUSH2 0x2D1 JUMPI PUSH2 0x6F2 PUSH2 0x1D75 PUSH2 0xA3E JUMP JUMPDEST CALLVALUE PUSH2 0x2D1 JUMPI PUSH1 0x40 CALLDATASIZE PUSH1 0x3 NOT ADD SLT PUSH2 0x2D1 JUMPI PUSH1 0x20 PUSH1 0xFF PUSH2 0x1F00 PUSH2 0x1ECF PUSH2 0x2BB JUMP JUMPDEST PUSH2 0x1ED7 PUSH2 0x2D6 JUMP JUMPDEST PUSH1 0x1 PUSH1 0x1 PUSH1 0xA0 SHL SUB SWAP2 DUP3 AND PUSH1 0x0 SWAP1 DUP2 MSTORE PUSH1 0x7 DUP7 MSTORE PUSH1 0x40 DUP1 DUP3 KECCAK256 SWAP3 SWAP1 SWAP4 AND DUP2 MSTORE PUSH1 0x20 SWAP2 SWAP1 SWAP2 MSTORE KECCAK256 SWAP1 JUMP JUMPDEST SLOAD AND PUSH1 0x40 MLOAD SWAP1 ISZERO ISZERO DUP2 MSTORE RETURN JUMPDEST DUP1 PUSH1 0x0 MSTORE PUSH1 0x20 PUSH1 0xF DUP2 MSTORE PUSH2 0x1F23 PUSH1 0x40 PUSH1 0x0 KECCAK256 PUSH2 0xAFC JUMP JUMPDEST DUP1 MLOAD PUSH2 0x1F79 JUMPI POP PUSH2 0x417 SWAP1 PUSH2 0x1F40 PUSH2 0x1F3A DUP5 PUSH2 0x2DF7 JUMP JUMPDEST SWAP4 PUSH2 0x311E JUMP JUMPDEST SWAP3 PUSH1 0x40 MLOAD SWAP4 DUP2 PUSH2 0x1F59 DUP7 SWAP4 MLOAD DUP1 SWAP3 DUP7 DUP1 DUP8 ADD SWAP2 ADD PUSH2 0x640 JUMP JUMPDEST DUP3 ADD PUSH2 0x1F6D DUP3 MLOAD DUP1 SWAP4 DUP7 DUP1 DUP6 ADD SWAP2 ADD PUSH2 0x640 JUMP JUMPDEST ADD SUB DUP1 DUP5 MSTORE ADD DUP3 PUSH2 0x389 JUMP JUMPDEST SWAP2 POP POP SWAP1 JUMP JUMPDEST ISZERO PUSH2 0x1F86 JUMPI JUMP JUMPDEST PUSH1 0x40 MLOAD PUSH3 0x461BCD PUSH1 0xE5 SHL DUP2 MSTORE PUSH1 0x20 PUSH1 0x4 DUP3 ADD MSTORE PUSH1 0x17 PUSH1 0x24 DUP3 ADD MSTORE PUSH32 0x4E6F7420617574686F72697A656420746F206D696E742E000000000000000000 PUSH1 0x44 DUP3 ADD MSTORE PUSH1 0x64 SWAP1 REVERT JUMPDEST PUSH1 0x40 MLOAD SWAP1 PUSH2 0x1FD8 DUP3 PUSH2 0x36E JUMP JUMPDEST PUSH1 0x0 DUP3 MSTORE JUMP JUMPDEST PUSH1 0x1F DUP2 GT PUSH2 0x1FEA JUMPI POP POP JUMP JUMPDEST PUSH1 0x0 SWAP1 PUSH1 0x8 DUP3 MSTORE PUSH32 0xF3F7A9FE364FAAB93B216DA50A3214154F22A0A2B415B23A84C8169E8B636EE3 SWAP1 PUSH1 0x20 PUSH1 0x1F DUP6 ADD PUSH1 0x5 SHR DUP4 ADD SWAP5 LT PUSH2 0x2045 JUMPI JUMPDEST PUSH1 0x1F ADD PUSH1 0x5 SHR ADD SWAP2 JUMPDEST DUP3 DUP2 LT PUSH2 0x203A JUMPI POP POP POP JUMP JUMPDEST DUP2 DUP2 SSTORE PUSH1 0x1 ADD PUSH2 0x202E JUMP JUMPDEST SWAP1 SWAP3 POP DUP3 SWAP1 PUSH2 0x2025 JUMP JUMPDEST SWAP1 PUSH1 0x1F DUP2 GT PUSH2 0x205D JUMPI POP POP POP JUMP JUMPDEST PUSH1 0x0 SWAP2 DUP3 MSTORE PUSH1 0x20 DUP3 KECCAK256 SWAP1 PUSH1 0x20 PUSH1 0x1F DUP6 ADD PUSH1 0x5 SHR DUP4 ADD SWAP5 LT PUSH2 0x2099 JUMPI JUMPDEST PUSH1 0x1F ADD PUSH1 0x5 SHR ADD SWAP2 JUMPDEST DUP3 DUP2 LT PUSH2 0x208E JUMPI POP POP POP JUMP JUMPDEST DUP2 DUP2 SSTORE PUSH1 0x1 ADD PUSH2 0x2082 JUMP JUMPDEST SWAP1 SWAP3 POP DUP3 SWAP1 PUSH2 0x2079 JUMP JUMPDEST SWAP2 SWAP1 SWAP2 DUP3 MLOAD PUSH1 0x1 PUSH1 0x1 PUSH1 0x40 SHL SUB DUP2 GT PUSH2 0x333 JUMPI PUSH2 0x20CA DUP2 PUSH2 0x20C4 DUP5 SLOAD PUSH2 0xA04 JUMP JUMPDEST DUP5 PUSH2 0x204F JUMP JUMPDEST PUSH1 0x20 DUP1 PUSH1 0x1F DUP4 GT PUSH1 0x1 EQ PUSH2 0x2106 JUMPI POP DUP2 SWAP3 SWAP4 SWAP5 PUSH1 0x0 SWAP3 PUSH2 0x20FB JUMPI JUMPDEST POP POP DUP2 PUSH1 0x1 SHL SWAP2 PUSH1 0x0 NOT SWAP1 PUSH1 0x3 SHL SHR NOT AND OR SWAP1 SSTORE JUMP JUMPDEST ADD MLOAD SWAP1 POP CODESIZE DUP1 PUSH2 0x20E5 JUMP JUMPDEST SWAP1 PUSH1 0x1F NOT DUP4 AND SWAP6 PUSH2 0x211C DUP6 PUSH1 0x0 MSTORE PUSH1 0x20 PUSH1 0x0 KECCAK256 SWAP1 JUMP JUMPDEST SWAP3 PUSH1 0x0 SWAP1 JUMPDEST DUP9 DUP3 LT PUSH2 0x2159 JUMPI POP POP DUP4 PUSH1 0x1 SWAP6 SWAP7 SWAP8 LT PUSH2 0x2140 JUMPI JUMPDEST POP POP POP DUP2 SHL ADD SWAP1 SSTORE JUMP JUMPDEST ADD MLOAD PUSH1 0x0 NOT PUSH1 0xF8 DUP5 PUSH1 0x3 SHL AND SHR NOT AND SWAP1 SSTORE CODESIZE DUP1 DUP1 PUSH2 0x2136 JUMP JUMPDEST DUP1 PUSH1 0x1 DUP6 SWAP7 DUP3 SWAP5 SWAP7 DUP7 ADD MLOAD DUP2 SSTORE ADD SWAP6 ADD SWAP4 ADD SWAP1 PUSH2 0x2121 JUMP JUMPDEST PUSH1 0x1 PUSH1 0x1 PUSH1 0xA0 SHL SUB AND DUP1 ISZERO PUSH2 0x219A JUMPI PUSH1 0x0 MSTORE PUSH1 0x5 PUSH1 0x20 MSTORE PUSH1 0x1 PUSH1 0x1 PUSH1 0x40 SHL SUB PUSH1 0x40 PUSH1 0x0 KECCAK256 SLOAD AND SWAP1 JUMP JUMPDEST PUSH1 0x40 MLOAD PUSH4 0x23D3AD81 PUSH1 0xE2 SHL DUP2 MSTORE PUSH1 0x4 SWAP1 REVERT JUMPDEST PUSH1 0x40 MLOAD SWAP1 PUSH2 0x21B9 DUP3 PUSH2 0x353 JUMP JUMPDEST PUSH1 0x0 PUSH1 0x40 DUP4 DUP3 DUP2 MSTORE DUP3 PUSH1 0x20 DUP3 ADD MSTORE ADD MSTORE JUMP JUMPDEST SWAP1 PUSH1 0x40 MLOAD PUSH2 0x21D8 DUP2 PUSH2 0x353 JUMP JUMPDEST SWAP2 SLOAD PUSH1 0x1 PUSH1 0x1 PUSH1 0xA0 SHL SUB DUP2 AND DUP4 MSTORE PUSH1 0xA0 DUP2 SWAP1 SHR PUSH1 0x1 PUSH1 0x1 PUSH1 0x40 SHL SUB AND PUSH1 0x20 DUP5 ADD MSTORE PUSH1 0xE0 SHR PUSH1 0xFF AND ISZERO ISZERO PUSH1 0x40 DUP4 ADD MSTORE JUMP JUMPDEST PUSH2 0x2210 PUSH2 0x21AC JUMP JUMPDEST POP DUP1 PUSH1 0x0 SLOAD DUP2 LT PUSH2 0x222E JUMPI JUMPDEST PUSH1 0x40 MLOAD PUSH4 0x6F96CDA1 PUSH1 0xE1 SHL DUP2 MSTORE PUSH1 0x4 SWAP1 REVERT JUMPDEST PUSH2 0x1719 PUSH2 0x2245 SWAP2 PUSH1 0x0 MSTORE PUSH1 0x4 PUSH1 0x20 MSTORE PUSH1 0x40 PUSH1 0x0 KECCAK256 SWAP1 JUMP JUMPDEST PUSH2 0x2255 PUSH2 0x823 PUSH1 0x40 DUP4 ADD MLOAD ISZERO ISZERO SWAP1 JUMP JUMPDEST ISZERO PUSH2 0x221C JUMPI DUP1 MLOAD PUSH1 0x1 PUSH1 0x1 PUSH1 0xA0 SHL SUB AND PUSH2 0x22A4 JUMPI POP JUMPDEST PUSH1 0x0 NOT ADD PUSH2 0x2286 PUSH2 0x1719 DUP3 PUSH1 0x0 MSTORE PUSH1 0x4 PUSH1 0x20 MSTORE PUSH1 0x40 PUSH1 0x0 KECCAK256 SWAP1 JUMP JUMPDEST DUP1 MLOAD PUSH2 0x229A SWAP1 PUSH1 0x1 PUSH1 0x1 PUSH1 0xA0 SHL SUB AND PUSH2 0xE98 JUMP JUMPDEST PUSH2 0x22A4 JUMPI POP PUSH2 0x226B JUMP JUMPDEST SWAP1 POP SWAP1 JUMP JUMPDEST PUSH1 0x0 SLOAD DUP2 LT DUP1 PUSH2 0x22E6 JUMPI JUMPDEST ISZERO PUSH2 0x22D4 JUMPI PUSH1 0x0 SWAP1 DUP2 MSTORE PUSH1 0x6 PUSH1 0x20 MSTORE PUSH1 0x40 SWAP1 KECCAK256 SLOAD PUSH1 0x1 PUSH1 0x1 PUSH1 0xA0 SHL SUB AND SWAP1 JUMP JUMPDEST PUSH1 0x40 MLOAD PUSH4 0x33D1C039 PUSH1 0xE2 SHL DUP2 MSTORE PUSH1 0x4 SWAP1 REVERT JUMPDEST POP DUP1 PUSH1 0x0 MSTORE PUSH1 0x4 PUSH1 0x20 MSTORE PUSH1 0xFF PUSH1 0x40 PUSH1 0x0 KECCAK256 SLOAD PUSH1 0xE0 SHR AND ISZERO PUSH2 0x22B4 JUMP JUMPDEST SWAP3 SWAP2 SWAP1 PUSH2 0x2310 DUP3 DUP3 DUP7 PUSH2 0x26EE JUMP JUMPDEST DUP1 EXTCODESIZE PUSH2 0x231D JUMPI JUMPDEST POP POP POP POP JUMP JUMPDEST PUSH2 0x2326 SWAP4 PUSH2 0x2ABC JUMP JUMPDEST ISZERO PUSH2 0x2334 JUMPI CODESIZE DUP1 DUP1 DUP1 PUSH2 0x2317 JUMP JUMPDEST PUSH1 0x40 MLOAD PUSH4 0x68D2BF6B PUSH1 0xE1 SHL DUP2 MSTORE PUSH1 0x4 SWAP1 REVERT JUMPDEST DUP1 SLOAD PUSH8 0xFFFFFFFFFFFFFFFF PUSH1 0xA0 SHL NOT AND PUSH1 0xA0 SWAP3 SWAP1 SWAP3 SHL PUSH8 0xFFFFFFFFFFFFFFFF PUSH1 0xA0 SHL AND SWAP2 SWAP1 SWAP2 OR SWAP1 SSTORE JUMP JUMPDEST PUSH1 0x0 DUP1 SLOAD PUSH1 0x1 PUSH1 0x1 PUSH1 0xA0 SHL SUB DUP4 AND SWAP4 SWAP2 SWAP3 SWAP1 SWAP2 SWAP1 DUP5 ISZERO PUSH2 0x2544 JUMPI PUSH1 0x1 PUSH1 0x1 PUSH1 0xA0 SHL SUB DUP2 AND PUSH1 0x0 SWAP1 DUP2 MSTORE PUSH1 0x5 PUSH1 0x20 MSTORE PUSH1 0x40 SWAP1 KECCAK256 PUSH2 0x23D6 SWAP1 JUMPDEST PUSH2 0x23BC PUSH2 0xD42 DUP3 SLOAD PUSH1 0x1 PUSH1 0x1 PUSH1 0x40 SHL SUB AND SWAP1 JUMP JUMPDEST PUSH1 0x1 PUSH1 0x1 PUSH1 0x40 SHL SUB AND PUSH1 0x1 PUSH1 0x1 PUSH1 0x40 SHL SUB NOT DUP3 SLOAD AND OR SWAP1 SSTORE JUMP JUMPDEST PUSH1 0x1 PUSH1 0x1 PUSH1 0xA0 SHL SUB DUP2 AND PUSH1 0x0 SWAP1 DUP2 MSTORE PUSH1 0x5 PUSH1 0x20 MSTORE PUSH1 0x40 SWAP1 KECCAK256 PUSH2 0x2430 SWAP1 DUP1 SLOAD PUSH2 0x2409 SWAP1 PUSH1 0x40 SHR PUSH1 0x1 PUSH1 0x1 PUSH1 0x40 SHL SUB AND PUSH2 0xD42 JUMP JUMPDEST PUSH8 0xFFFFFFFFFFFFFFFF PUSH1 0x40 SHL DUP3 SLOAD SWAP2 PUSH1 0x40 SHL AND SWAP1 PUSH8 0xFFFFFFFFFFFFFFFF PUSH1 0x40 SHL NOT AND OR SWAP1 SSTORE JUMP JUMPDEST PUSH2 0x2467 DUP2 PUSH2 0x2448 DUP6 PUSH1 0x0 MSTORE PUSH1 0x4 PUSH1 0x20 MSTORE PUSH1 0x40 PUSH1 0x0 KECCAK256 SWAP1 JUMP JUMPDEST DUP1 SLOAD PUSH1 0x1 PUSH1 0x1 PUSH1 0xA0 SHL SUB NOT AND PUSH1 0x1 PUSH1 0x1 PUSH1 0xA0 SHL SUB SWAP1 SWAP3 AND SWAP2 SWAP1 SWAP2 OR SWAP1 SSTORE JUMP JUMPDEST PUSH2 0x248D PUSH1 0x1 PUSH1 0x1 PUSH1 0x40 SHL SUB TIMESTAMP AND PUSH2 0x2488 DUP6 PUSH1 0x0 MSTORE PUSH1 0x4 PUSH1 0x20 MSTORE PUSH1 0x40 PUSH1 0x0 KECCAK256 SWAP1 JUMP JUMPDEST PUSH2 0x2346 JUMP JUMPDEST DUP3 SWAP5 PUSH1 0x1 SWAP1 DUP2 DUP6 ADD DUP4 EXTCODESIZE ISZERO ISZERO PUSH1 0x0 EQ PUSH2 0x24FC JUMPI DUP3 DUP1 JUMPDEST PUSH2 0x24B8 JUMPI JUMPDEST POP POP POP POP POP POP DUP2 SLOAD SUB PUSH2 0x77B JUMPI SSTORE JUMP JUMPDEST ISZERO PUSH2 0x24EF JUMPI JUMPDEST DUP7 DUP9 DUP4 DUP10 PUSH1 0x0 DUP1 MLOAD PUSH1 0x20 PUSH2 0x3336 DUP4 CODECOPY DUP2 MLOAD SWAP2 MSTORE DUP2 DUP1 LOG4 PUSH2 0x24E5 PUSH2 0x823 DUP8 DUP7 DUP13 ADD SWAP12 DUP9 PUSH2 0x2A13 JUMP JUMPDEST PUSH2 0x2334 JUMPI DUP4 PUSH2 0x24A3 JUMP JUMPDEST DUP1 DUP9 LT PUSH2 0x24BE JUMPI DUP1 PUSH2 0x24A8 JUMP JUMPDEST SWAP3 POP SWAP4 POP DUP1 DUP1 SWAP4 POP SWAP1 JUMPDEST PUSH2 0x2512 JUMPI JUMPDEST POP POP POP POP SSTORE JUMP JUMPDEST ISZERO PUSH2 0x2537 JUMPI JUMPDEST DUP4 DUP3 DUP1 DUP8 ADD SWAP7 DUP6 DUP8 PUSH1 0x0 DUP1 MLOAD PUSH1 0x20 PUSH2 0x3336 DUP4 CODECOPY DUP2 MLOAD SWAP2 MSTORE DUP2 DUP1 LOG4 PUSH2 0x2506 JUMP JUMPDEST DUP1 DUP6 LT PUSH2 0x2518 JUMPI DUP1 PUSH2 0x250B JUMP JUMPDEST PUSH1 0x40 MLOAD PUSH3 0x2E0763 PUSH1 0xE8 SHL DUP2 MSTORE PUSH1 0x4 SWAP1 REVERT JUMPDEST PUSH1 0x0 DUP1 SLOAD SWAP3 SWAP4 SWAP1 SWAP3 SWAP2 PUSH1 0x1 PUSH1 0x1 PUSH1 0xA0 SHL SUB DUP2 AND DUP1 ISZERO PUSH2 0x2544 JUMPI DUP6 ISZERO PUSH2 0x26DC JUMPI PUSH2 0x2626 PUSH1 0x1 PUSH1 0x1 PUSH1 0x40 SHL SUB PUSH2 0x25F8 DUP2 DUP10 AND PUSH2 0x25C6 PUSH2 0x25A4 DUP8 PUSH1 0x1 DUP1 PUSH1 0xA0 SHL SUB AND PUSH1 0x0 MSTORE PUSH1 0x5 PUSH1 0x20 MSTORE PUSH1 0x40 PUSH1 0x0 KECCAK256 SWAP1 JUMP JUMPDEST PUSH2 0x23BC DUP4 PUSH2 0x25B9 DUP4 SLOAD PUSH1 0x1 PUSH1 0x1 PUSH1 0x40 SHL SUB AND SWAP1 JUMP JUMPDEST ADD PUSH1 0x1 PUSH1 0x1 PUSH1 0x40 SHL SUB AND SWAP1 JUMP JUMPDEST PUSH1 0x1 PUSH1 0x1 PUSH1 0xA0 SHL SUB DUP7 AND PUSH1 0x0 SWAP1 DUP2 MSTORE PUSH1 0x5 PUSH1 0x20 MSTORE PUSH1 0x40 SWAP1 KECCAK256 PUSH2 0x2409 SWAP1 SWAP2 PUSH2 0x25B9 DUP4 SLOAD PUSH1 0x1 PUSH1 0x1 PUSH1 0x40 SHL SUB SWAP1 PUSH1 0x40 SHR AND SWAP1 JUMP JUMPDEST PUSH2 0x2610 DUP5 PUSH2 0x2448 DUP9 PUSH1 0x0 MSTORE PUSH1 0x4 PUSH1 0x20 MSTORE PUSH1 0x40 PUSH1 0x0 KECCAK256 SWAP1 JUMP JUMPDEST TIMESTAMP AND PUSH2 0x2488 DUP7 PUSH1 0x0 MSTORE PUSH1 0x4 PUSH1 0x20 MSTORE PUSH1 0x40 PUSH1 0x0 KECCAK256 SWAP1 JUMP JUMPDEST DUP4 SWAP6 DUP5 ADD SWAP1 DUP3 EXTCODESIZE ISZERO ISZERO PUSH1 0x0 EQ PUSH2 0x2694 JUMPI PUSH1 0x1 SWAP2 DUP3 DUP1 JUMPDEST PUSH2 0x2650 JUMPI POP POP POP POP POP POP DUP2 SLOAD SUB PUSH2 0x77B JUMPI SSTORE JUMP JUMPDEST ISZERO PUSH2 0x2687 JUMPI JUMPDEST DUP7 DUP9 DUP4 DUP10 PUSH1 0x0 DUP1 MLOAD PUSH1 0x20 PUSH2 0x3336 DUP4 CODECOPY DUP2 MLOAD SWAP2 MSTORE DUP2 DUP1 LOG4 PUSH2 0x267D PUSH2 0x823 DUP8 DUP7 DUP13 ADD SWAP12 DUP9 PUSH2 0x2A13 JUMP JUMPDEST PUSH2 0x2334 JUMPI DUP4 PUSH2 0x263C JUMP JUMPDEST DUP1 DUP9 LT PUSH2 0x2656 JUMPI DUP1 PUSH2 0x24A8 JUMP JUMPDEST SWAP4 POP SWAP2 POP POP PUSH1 0x1 SWAP1 DUP2 DUP1 JUMPDEST PUSH2 0x26AA JUMPI POP POP POP POP SSTORE JUMP JUMPDEST ISZERO PUSH2 0x26CF JUMPI JUMPDEST DUP4 DUP3 DUP1 DUP8 ADD SWAP7 DUP6 DUP8 PUSH1 0x0 DUP1 MLOAD PUSH1 0x20 PUSH2 0x3336 DUP4 CODECOPY DUP2 MLOAD SWAP2 MSTORE DUP2 DUP1 LOG4 PUSH2 0x269F JUMP JUMPDEST DUP1 DUP6 LT PUSH2 0x26B0 JUMPI DUP1 PUSH2 0x250B JUMP JUMPDEST PUSH1 0x40 MLOAD PUSH4 0xB562E8DD PUSH1 0xE0 SHL DUP2 MSTORE PUSH1 0x4 SWAP1 REVERT JUMPDEST PUSH2 0x26F7 DUP4 PUSH2 0x2208 JUMP JUMPDEST DUP1 MLOAD PUSH1 0x1 PUSH1 0x1 PUSH1 0xA0 SHL SUB DUP1 DUP5 AND SWAP4 SWAP3 SWAP2 DUP2 AND DUP5 SWAP1 SUB PUSH2 0x28B6 JUMPI DUP4 CALLER EQ DUP1 ISZERO PUSH2 0x288D JUMPI JUMPDEST DUP1 ISZERO PUSH2 0x2879 JUMPI JUMPDEST ISZERO PUSH2 0xE78 JUMPI DUP5 AND SWAP4 DUP5 ISZERO PUSH2 0x2867 JUMPI PUSH2 0x27D4 SWAP1 PUSH2 0x273D DUP5 DUP9 PUSH2 0x28C7 JUMP JUMPDEST PUSH1 0x1 PUSH1 0x1 PUSH1 0xA0 SHL SUB DUP5 AND PUSH1 0x0 SWAP1 DUP2 MSTORE PUSH1 0x5 PUSH1 0x20 MSTORE PUSH1 0x40 SWAP1 KECCAK256 PUSH2 0x276D SWAP1 PUSH2 0x23BC PUSH2 0xD02 DUP3 SLOAD PUSH1 0x1 PUSH1 0x1 PUSH1 0x40 SHL SUB AND SWAP1 JUMP JUMPDEST PUSH1 0x1 PUSH1 0x1 PUSH1 0xA0 SHL SUB DUP2 AND PUSH1 0x0 SWAP1 DUP2 MSTORE PUSH1 0x5 PUSH1 0x20 MSTORE PUSH1 0x40 SWAP1 KECCAK256 PUSH2 0x278E SWAP1 PUSH2 0x23A8 JUMP JUMPDEST PUSH2 0x27C4 PUSH2 0x27A5 DUP9 PUSH1 0x0 MSTORE PUSH1 0x4 PUSH1 0x20 MSTORE PUSH1 0x40 PUSH1 0x0 KECCAK256 SWAP1 JUMP JUMPDEST DUP1 SLOAD PUSH1 0x1 PUSH1 0x1 PUSH1 0xA0 SHL SUB NOT AND PUSH1 0x1 PUSH1 0x1 PUSH1 0xA0 SHL SUB SWAP1 SWAP4 AND SWAP3 SWAP1 SWAP3 OR DUP3 SSTORE JUMP JUMPDEST PUSH1 0x1 PUSH1 0x1 PUSH1 0x40 SHL SUB TIMESTAMP AND SWAP1 PUSH2 0x2346 JUMP JUMPDEST PUSH1 0x1 DUP6 ADD SWAP1 PUSH2 0x27ED DUP3 PUSH1 0x0 MSTORE PUSH1 0x4 PUSH1 0x20 MSTORE PUSH1 0x40 PUSH1 0x0 KECCAK256 SWAP1 JUMP JUMPDEST DUP1 SLOAD SWAP1 SWAP3 SWAP1 PUSH2 0x2804 SWAP1 PUSH1 0x1 PUSH1 0x1 PUSH1 0xA0 SHL SUB AND PUSH2 0xE98 JUMP JUMPDEST ISZERO PUSH2 0x2823 JUMPI JUMPDEST POP POP POP POP PUSH1 0x0 DUP1 MLOAD PUSH1 0x20 PUSH2 0x3336 DUP4 CODECOPY DUP2 MLOAD SWAP2 MSTORE PUSH1 0x0 DUP1 LOG4 JUMP JUMPDEST PUSH1 0x0 SLOAD SUB PUSH2 0x2832 JUMPI JUMPDEST DUP1 PUSH2 0x280A JUMP JUMPDEST DUP2 SLOAD PUSH1 0x1 PUSH1 0x1 PUSH1 0xA0 SHL SUB NOT AND PUSH1 0x1 PUSH1 0x1 PUSH1 0xA0 SHL SUB SWAP1 SWAP4 AND SWAP3 SWAP1 SWAP3 OR DUP2 SSTORE PUSH2 0x285F SWAP2 PUSH2 0xE6A SWAP1 PUSH1 0x20 SWAP1 PUSH2 0xE5C JUMP JUMPDEST CODESIZE DUP1 DUP1 PUSH2 0x282C JUMP JUMPDEST PUSH1 0x40 MLOAD PUSH4 0x3A954ECD PUSH1 0xE2 SHL DUP2 MSTORE PUSH1 0x4 SWAP1 REVERT JUMPDEST POP CALLER PUSH2 0x2887 PUSH2 0xE98 DUP9 PUSH2 0x22A9 JUMP JUMPDEST EQ PUSH2 0x2721 JUMP JUMPDEST POP PUSH2 0x28B1 PUSH2 0x81C CALLER PUSH2 0xECE DUP7 PUSH1 0x1 DUP1 PUSH1 0xA0 SHL SUB AND PUSH1 0x0 MSTORE PUSH1 0x7 PUSH1 0x20 MSTORE PUSH1 0x40 PUSH1 0x0 KECCAK256 SWAP1 JUMP JUMPDEST PUSH2 0x271A JUMP JUMPDEST PUSH1 0x40 MLOAD PUSH3 0xA11481 PUSH1 0xE8 SHL DUP2 MSTORE PUSH1 0x4 SWAP1 REVERT JUMPDEST PUSH1 0x0 DUP2 DUP2 MSTORE PUSH1 0x6 PUSH1 0x20 MSTORE PUSH1 0x40 DUP2 KECCAK256 DUP1 SLOAD PUSH1 0x1 PUSH1 0x1 PUSH1 0xA0 SHL SUB NOT AND SWAP1 SSTORE SWAP1 SWAP2 PUSH1 0x1 PUSH1 0x1 PUSH1 0xA0 SHL SUB AND PUSH32 0x8C5BE1E5EBEC7D5BD14F71427D1E84F3DD0314C0F7B2291E5B200AC8C7C3B925 DUP3 DUP1 LOG4 JUMP JUMPDEST PUSH1 0x0 DUP3 DUP2 MSTORE PUSH1 0x6 PUSH1 0x20 MSTORE PUSH1 0x40 SWAP1 KECCAK256 DUP1 SLOAD PUSH1 0x1 PUSH1 0x1 PUSH1 0xA0 SHL SUB NOT AND PUSH1 0x1 PUSH1 0x1 PUSH1 0xA0 SHL SUB DUP4 AND OR SWAP1 SSTORE SWAP1 SWAP2 SWAP1 PUSH1 0x1 PUSH1 0x1 PUSH1 0xA0 SHL SUB SWAP1 DUP2 AND SWAP2 AND PUSH32 0x8C5BE1E5EBEC7D5BD14F71427D1E84F3DD0314C0F7B2291E5B200AC8C7C3B925 PUSH1 0x0 DUP1 LOG4 JUMP JUMPDEST SWAP1 DUP2 PUSH1 0x20 SWAP2 SUB SLT PUSH2 0x2D1 JUMPI MLOAD PUSH2 0x417 DUP2 PUSH2 0x5A8 JUMP JUMPDEST PUSH2 0x417 SWAP4 SWAP3 PUSH1 0x80 SWAP3 PUSH1 0x1 DUP1 PUSH1 0xA0 SHL SUB AND DUP3 MSTORE PUSH1 0x0 PUSH1 0x20 DUP4 ADD MSTORE PUSH1 0x40 DUP3 ADD MSTORE DUP2 PUSH1 0x60 DUP3 ADD MSTORE ADD SWAP1 PUSH2 0x663 JUMP JUMPDEST PUSH1 0x1 PUSH1 0x1 PUSH1 0xA0 SHL SUB SWAP2 DUP3 AND DUP2 MSTORE SWAP2 AND PUSH1 0x20 DUP3 ADD MSTORE PUSH1 0x40 DUP2 ADD SWAP2 SWAP1 SWAP2 MSTORE PUSH1 0x80 PUSH1 0x60 DUP3 ADD DUP2 SWAP1 MSTORE PUSH2 0x417 SWAP3 SWAP2 ADD SWAP1 PUSH2 0x663 JUMP JUMPDEST RETURNDATASIZE ISZERO PUSH2 0x2A0E JUMPI RETURNDATASIZE SWAP1 PUSH2 0x29F4 DUP3 PUSH2 0x3AA JUMP JUMPDEST SWAP2 PUSH2 0x2A02 PUSH1 0x40 MLOAD SWAP4 DUP5 PUSH2 0x389 JUMP JUMPDEST DUP3 MSTORE RETURNDATASIZE PUSH1 0x0 PUSH1 0x20 DUP5 ADD RETURNDATACOPY JUMP JUMPDEST PUSH1 0x60 SWAP1 JUMP JUMPDEST PUSH2 0x2A3C PUSH1 0x20 SWAP2 PUSH1 0x0 SWAP4 SWAP5 PUSH1 0x40 MLOAD SWAP5 DUP6 DUP1 SWAP5 DUP2 SWAP4 PUSH4 0xA85BD01 PUSH1 0xE1 SHL SWAP10 DUP11 DUP5 MSTORE CALLER PUSH1 0x4 DUP6 ADD PUSH2 0x2987 JUMP JUMPDEST SUB SWAP3 PUSH1 0x1 PUSH1 0x1 PUSH1 0xA0 SHL SUB AND GAS CALL PUSH1 0x0 SWAP2 DUP2 PUSH2 0x2A8C JUMPI JUMPDEST POP PUSH2 0x2A7E JUMPI PUSH2 0x2A5F PUSH2 0x29E3 JUMP JUMPDEST DUP1 MLOAD SWAP1 DUP2 PUSH2 0x2A79 JUMPI PUSH1 0x40 MLOAD PUSH4 0x68D2BF6B PUSH1 0xE1 SHL DUP2 MSTORE PUSH1 0x4 SWAP1 REVERT JUMPDEST PUSH1 0x20 ADD REVERT JUMPDEST PUSH1 0x1 PUSH1 0x1 PUSH1 0xE0 SHL SUB NOT AND EQ SWAP1 JUMP JUMPDEST PUSH2 0x2AAE SWAP2 SWAP3 POP PUSH1 0x20 RETURNDATASIZE DUP2 GT PUSH2 0x2AB5 JUMPI JUMPDEST PUSH2 0x2AA6 DUP2 DUP4 PUSH2 0x389 JUMP JUMPDEST DUP2 ADD SWAP1 PUSH2 0x2972 JUMP JUMPDEST SWAP1 CODESIZE PUSH2 0x2A52 JUMP JUMPDEST POP RETURNDATASIZE PUSH2 0x2A9C JUMP JUMPDEST SWAP3 PUSH1 0x20 SWAP2 PUSH2 0x2A3C SWAP4 PUSH1 0x0 PUSH1 0x40 MLOAD DUP1 SWAP7 DUP2 SWAP6 DUP3 SWAP5 PUSH4 0xA85BD01 PUSH1 0xE1 SHL SWAP11 DUP12 DUP6 MSTORE CALLER PUSH1 0x4 DUP7 ADD PUSH2 0x29B2 JUMP JUMPDEST PUSH2 0x2AED PUSH2 0x21AC JUMP JUMPDEST POP PUSH2 0x2AF6 PUSH2 0x21AC JUMP JUMPDEST PUSH1 0x0 SLOAD DUP3 LT ISZERO PUSH2 0x22A4 JUMPI POP DUP1 PUSH1 0x0 MSTORE PUSH1 0x4 PUSH1 0x20 MSTORE PUSH1 0x40 PUSH1 0x0 KECCAK256 SWAP1 PUSH1 0xFF PUSH1 0x40 MLOAD SWAP3 PUSH2 0x2B1F DUP5 PUSH2 0x353 JUMP JUMPDEST SLOAD PUSH1 0x1 PUSH1 0x1 PUSH1 0xA0 SHL SUB DUP2 AND DUP5 MSTORE PUSH1 0xA0 DUP2 SWAP1 SHR PUSH1 0x1 PUSH1 0x1 PUSH1 0x40 SHL SUB AND PUSH1 0x20 DUP6 ADD MSTORE PUSH1 0xE0 SHR AND ISZERO ISZERO PUSH1 0x40 DUP4 ADD DUP2 SWAP1 MSTORE PUSH2 0x2B5A JUMPI PUSH2 0x417 SWAP2 POP PUSH2 0x2208 JUMP JUMPDEST POP SWAP1 JUMP JUMPDEST PUSH4 0x4E487B71 PUSH1 0xE0 SHL PUSH1 0x0 MSTORE PUSH1 0x32 PUSH1 0x4 MSTORE PUSH1 0x24 PUSH1 0x0 REVERT JUMPDEST DUP1 MLOAD DUP3 LT ISZERO PUSH2 0x2B88 JUMPI PUSH1 0x20 SWAP2 PUSH1 0x5 SHL ADD ADD SWAP1 JUMP JUMPDEST PUSH2 0x2B5E JUMP JUMPDEST DUP1 MLOAD PUSH2 0x2B98 DUP2 PUSH2 0xFC6 JUMP JUMPDEST SWAP2 PUSH2 0x2BA6 PUSH1 0x40 MLOAD SWAP4 DUP5 PUSH2 0x389 JUMP JUMPDEST DUP2 DUP4 MSTORE PUSH1 0x1F NOT PUSH2 0x2BB5 DUP4 PUSH2 0xFC6 JUMP JUMPDEST ADD PUSH1 0x0 JUMPDEST DUP2 DUP2 LT PUSH2 0x2C04 JUMPI POP POP PUSH1 0x0 JUMPDEST DUP3 DUP2 SUB PUSH2 0x2BD2 JUMPI POP POP POP SWAP1 JUMP JUMPDEST DUP1 PUSH2 0x2BE8 PUSH2 0x2BE2 PUSH1 0x1 SWAP4 DUP6 PUSH2 0x2B74 JUMP JUMPDEST MLOAD PUSH2 0x2AE5 JUMP JUMPDEST PUSH2 0x2BF2 DUP3 DUP8 PUSH2 0x2B74 JUMP JUMPDEST MSTORE PUSH2 0x2BFD DUP2 DUP7 PUSH2 0x2B74 JUMP JUMPDEST POP ADD PUSH2 0x2BC5 JUMP JUMPDEST PUSH1 0x20 SWAP1 PUSH2 0x2C0F PUSH2 0x21AC JUMP JUMPDEST DUP3 DUP3 DUP9 ADD ADD MSTORE ADD PUSH2 0x2BB9 JUMP JUMPDEST SWAP1 PUSH2 0x2C25 DUP3 PUSH2 0xFC6 JUMP JUMPDEST PUSH2 0x2C32 PUSH1 0x40 MLOAD SWAP2 DUP3 PUSH2 0x389 JUMP JUMPDEST DUP3 DUP2 MSTORE DUP1 SWAP3 PUSH2 0x2C43 PUSH1 0x1F NOT SWAP2 PUSH2 0xFC6 JUMP JUMPDEST ADD SWAP1 PUSH1 0x20 CALLDATASIZE SWAP2 ADD CALLDATACOPY JUMP JUMPDEST SWAP1 DUP3 DUP2 LT ISZERO PUSH2 0x2D7C JUMPI PUSH1 0x0 SWAP2 DUP3 SLOAD DUP1 DUP6 GT PUSH2 0x2D74 JUMPI JUMPDEST POP PUSH2 0x2C6D DUP2 PUSH2 0x2171 JUMP JUMPDEST DUP5 DUP4 LT ISZERO PUSH2 0x2D6D JUMPI DUP3 DUP6 SUB DUP2 DUP2 LT PUSH2 0x2D65 JUMPI JUMPDEST POP JUMPDEST PUSH2 0x2C8B DUP2 PUSH2 0x2C1B JUMP JUMPDEST SWAP6 DUP2 ISZERO PUSH2 0x2D5D JUMPI PUSH2 0x2C9B DUP5 PUSH2 0x2AE5 JUMP JUMPDEST SWAP2 DUP6 SWAP5 PUSH1 0x40 SWAP4 PUSH2 0x2CB0 PUSH2 0x823 DUP7 DUP4 ADD MLOAD ISZERO ISZERO SWAP1 JUMP JUMPDEST PUSH2 0x2D4B JUMPI JUMPDEST POP JUMPDEST DUP8 DUP2 EQ ISZERO DUP1 PUSH2 0x2D41 JUMPI JUMPDEST ISZERO PUSH2 0x2D34 JUMPI PUSH2 0x2CDD PUSH2 0x1719 DUP3 PUSH1 0x0 MSTORE PUSH1 0x4 PUSH1 0x20 MSTORE PUSH1 0x40 PUSH1 0x0 KECCAK256 SWAP1 JUMP JUMPDEST DUP1 DUP6 ADD MLOAD PUSH2 0x2D2B JUMPI MLOAD PUSH1 0x1 PUSH1 0x1 PUSH1 0xA0 SHL SUB SWAP1 DUP2 AND DUP1 PUSH2 0x2D22 JUMPI JUMPDEST POP SWAP1 DUP2 PUSH1 0x1 SWAP3 DUP8 AND SWAP1 DUP9 AND EQ PUSH2 0x2D0E JUMPI JUMPDEST ADD PUSH2 0x2CB7 JUMP JUMPDEST DUP1 PUSH2 0x2D1C DUP4 DUP11 ADD SWAP10 DUP13 PUSH2 0x2B74 JUMP JUMPDEST MSTORE PUSH2 0x2D08 JUMP JUMPDEST SWAP7 POP PUSH1 0x1 PUSH2 0x2CF7 JUMP JUMPDEST POP PUSH1 0x1 SWAP1 PUSH2 0x2D08 JUMP JUMPDEST POP POP SWAP6 SWAP5 POP POP POP POP DUP2 MSTORE SWAP1 JUMP JUMPDEST POP DUP2 DUP8 EQ ISZERO PUSH2 0x2CC1 JUMP JUMPDEST MLOAD PUSH1 0x1 PUSH1 0x1 PUSH1 0xA0 SHL SUB AND SWAP6 POP CODESIZE PUSH2 0x2CB5 JUMP JUMPDEST SWAP5 POP POP POP POP POP JUMP JUMPDEST SWAP1 POP CODESIZE PUSH2 0x2C80 JUMP JUMPDEST POP DUP3 PUSH2 0x2C82 JUMP JUMPDEST SWAP4 POP CODESIZE PUSH2 0x2C63 JUMP JUMPDEST PUSH1 0x40 MLOAD PUSH4 0x1960CCAD PUSH1 0xE1 SHL DUP2 MSTORE PUSH1 0x4 SWAP1 REVERT JUMPDEST PUSH1 0xC SLOAD DUP2 LT ISZERO PUSH2 0x2B88 JUMPI PUSH1 0xC PUSH1 0x0 MSTORE PUSH32 0xDF6966C971051C3D54EC59162606531493A51404A002842F56009D7E5CF4A8C7 ADD SWAP1 PUSH1 0x0 SWAP1 JUMP JUMPDEST PUSH4 0x4E487B71 PUSH1 0xE0 SHL PUSH1 0x0 MSTORE PUSH1 0x11 PUSH1 0x4 MSTORE PUSH1 0x24 PUSH1 0x0 REVERT JUMPDEST SWAP1 PUSH1 0x1 DUP3 ADD DUP1 SWAP3 GT PUSH2 0x9FF JUMPI JUMP JUMPDEST PUSH1 0x30 ADD SWAP1 DUP2 PUSH1 0x30 GT PUSH2 0x9FF JUMPI JUMP JUMPDEST PUSH1 0xC SLOAD PUSH1 0x40 MLOAD DUP1 DUP3 DUP2 MSTORE DUP2 PUSH1 0x20 DUP1 SWAP3 ADD PUSH1 0xC PUSH1 0x0 MSTORE PUSH32 0xDF6966C971051C3D54EC59162606531493A51404A002842F56009D7E5CF4A8C7 SWAP3 PUSH1 0x0 JUMPDEST DUP7 DUP2 LT PUSH2 0x2EB5 JUMPI POP POP PUSH2 0x2E46 SWAP3 POP SUB DUP3 PUSH2 0x389 JUMP JUMPDEST PUSH1 0x0 JUMPDEST DUP3 DUP2 LT PUSH2 0x2E6D JUMPI PUSH1 0x40 MLOAD PUSH4 0x9797F69 PUSH1 0xE2 SHL DUP2 MSTORE PUSH1 0x4 DUP2 ADD DUP6 SWAP1 MSTORE PUSH1 0x24 SWAP1 REVERT JUMPDEST SUB SWAP1 REVERT JUMPDEST PUSH2 0x2E77 DUP2 DUP4 PUSH2 0x2B74 JUMP JUMPDEST MLOAD DUP5 LT PUSH2 0x2E8C JUMPI PUSH2 0x2E87 SWAP1 PUSH2 0x2DDB JUMP JUMPDEST PUSH2 0x2E49 JUMP JUMPDEST PUSH2 0x417 SWAP4 POP PUSH2 0x2EB0 SWAP3 POP PUSH2 0x2E9F SWAP2 PUSH2 0x2B74 JUMP JUMPDEST MLOAD PUSH1 0x0 MSTORE PUSH1 0xD PUSH1 0x20 MSTORE PUSH1 0x40 PUSH1 0x0 KECCAK256 SWAP1 JUMP JUMPDEST PUSH2 0xAFC JUMP JUMPDEST DUP5 SLOAD DUP4 MSTORE PUSH1 0x1 SWAP5 DUP6 ADD SWAP5 DUP7 SWAP5 POP SWAP3 DUP3 ADD SWAP3 ADD PUSH2 0x2E31 JUMP JUMPDEST SWAP1 SWAP2 PUSH2 0x2EE3 PUSH2 0x417 SWAP4 PUSH1 0x40 DUP5 MSTORE PUSH1 0x40 DUP5 ADD SWAP1 PUSH2 0x663 JUMP JUMPDEST SWAP2 PUSH1 0x20 DUP2 DUP5 SUB SWAP2 ADD MSTORE PUSH2 0x663 JUMP JUMPDEST PUSH1 0x0 NOT DUP2 EQ PUSH2 0x9FF JUMPI PUSH1 0x1 ADD SWAP1 JUMP JUMPDEST SWAP1 PUSH2 0x2F0A DUP2 PUSH2 0xFC6 JUMP JUMPDEST SWAP2 PUSH2 0x2F18 PUSH1 0x40 MLOAD SWAP4 DUP5 PUSH2 0x389 JUMP JUMPDEST DUP2 DUP4 MSTORE PUSH1 0x1F NOT PUSH2 0x2F27 DUP4 PUSH2 0xFC6 JUMP JUMPDEST ADD PUSH1 0x0 JUMPDEST DUP2 DUP2 LT PUSH2 0x2FB1 JUMPI POP POP PUSH1 0x0 JUMPDEST DUP3 DUP2 LT PUSH2 0x2F44 JUMPI POP POP POP SWAP1 JUMP JUMPDEST DUP1 PUSH1 0x5 SHL DUP3 ADD CALLDATALOAD PUSH1 0x1E NOT DUP4 CALLDATASIZE SUB ADD DUP2 SLT ISZERO PUSH2 0x2D1 JUMPI DUP3 ADD SWAP1 DUP2 CALLDATALOAD SWAP2 PUSH1 0x1 PUSH1 0x1 PUSH1 0x40 SHL SUB DUP4 GT PUSH2 0x2D1 JUMPI PUSH1 0x20 ADD DUP3 CALLDATASIZE SUB DUP2 SGT PUSH2 0x2D1 JUMPI PUSH2 0x2F8B PUSH2 0x2F91 SWAP2 PUSH2 0x2FAC SWAP5 CALLDATASIZE SWAP2 PUSH2 0x3C5 JUMP JUMPDEST ADDRESS PUSH2 0x301D JUMP JUMPDEST PUSH2 0x2F9B DUP3 DUP8 PUSH2 0x2B74 JUMP JUMPDEST MSTORE PUSH2 0x2FA6 DUP2 DUP7 PUSH2 0x2B74 JUMP JUMPDEST POP PUSH2 0x2EF1 JUMP JUMPDEST PUSH2 0x2F37 JUMP JUMPDEST DUP1 PUSH1 0x60 PUSH1 0x20 DUP1 SWAP4 DUP9 ADD ADD MSTORE ADD PUSH2 0x2F2B JUMP JUMPDEST PUSH1 0x0 MSTORE PUSH1 0xB PUSH1 0x20 MSTORE PUSH1 0x40 PUSH1 0x0 KECCAK256 SWAP1 PUSH1 0x20 PUSH1 0x40 MLOAD SWAP3 PUSH2 0x2FDF DUP5 PUSH2 0x338 JUMP JUMPDEST DUP1 SLOAD PUSH1 0x1 PUSH1 0x1 PUSH1 0xA0 SHL SUB SWAP1 DUP2 AND DUP1 DUP7 MSTORE PUSH1 0x1 SWAP1 SWAP3 ADD SLOAD SWAP3 SWAP1 SWAP5 ADD DUP3 SWAP1 MSTORE DUP1 PUSH2 0x3014 JUMPI POP POP PUSH2 0xFFFF PUSH1 0xA SLOAD SWAP3 DUP4 AND SWAP3 PUSH1 0xA0 SHR AND SWAP1 JUMP JUMPDEST SWAP3 POP PUSH2 0xFFFF AND SWAP1 JUMP JUMPDEST SWAP1 PUSH2 0x417 SWAP2 PUSH1 0x0 DUP1 PUSH1 0x40 MLOAD SWAP4 PUSH2 0x3032 DUP6 PUSH2 0x353 JUMP JUMPDEST PUSH1 0x27 DUP6 MSTORE PUSH32 0x416464726573733A206C6F772D6C6576656C2064656C65676174652063616C6C PUSH1 0x20 DUP7 ADD MSTORE PUSH7 0x819985A5B1959 PUSH1 0xCA SHL PUSH1 0x40 DUP7 ADD MSTORE PUSH1 0x20 DUP2 MLOAD SWAP2 ADD DUP5 GAS DELEGATECALL PUSH2 0x307D PUSH2 0x29E3 JUMP JUMPDEST SWAP3 SWAP1 ISZERO PUSH2 0x30DE JUMPI POP DUP2 MLOAD ISZERO PUSH2 0x3090 JUMPI POP SWAP1 JUMP JUMPDEST EXTCODESIZE ISZERO PUSH2 0x3099 JUMPI SWAP1 JUMP JUMPDEST PUSH1 0x40 MLOAD PUSH3 0x461BCD PUSH1 0xE5 SHL DUP2 MSTORE PUSH1 0x20 PUSH1 0x4 DUP3 ADD MSTORE PUSH1 0x1D PUSH1 0x24 DUP3 ADD MSTORE PUSH32 0x416464726573733A2063616C6C20746F206E6F6E2D636F6E7472616374000000 PUSH1 0x44 DUP3 ADD MSTORE PUSH1 0x64 SWAP1 REVERT JUMPDEST DUP3 MLOAD SWAP1 SWAP2 POP ISZERO PUSH2 0x30F1 JUMPI POP DUP1 MLOAD SWAP1 PUSH1 0x20 ADD REVERT JUMPDEST PUSH1 0x40 MLOAD PUSH3 0x461BCD PUSH1 0xE5 SHL DUP2 MSTORE SWAP1 DUP2 SWAP1 PUSH2 0x2E69 SWAP1 PUSH1 0x4 DUP4 ADD PUSH2 0x688 JUMP JUMPDEST SWAP1 DUP2 MLOAD DUP2 LT ISZERO PUSH2 0x2B88 JUMPI ADD PUSH1 0x20 ADD SWAP1 JUMP JUMPDEST DUP1 ISZERO PUSH2 0x31CB JUMPI DUP1 PUSH1 0x0 SWAP1 DUP3 DUP3 SWAP4 JUMPDEST PUSH2 0x31B7 JUMPI POP PUSH2 0x313A DUP4 PUSH2 0x3AA JUMP JUMPDEST SWAP3 PUSH2 0x3148 PUSH1 0x40 MLOAD SWAP5 DUP6 PUSH2 0x389 JUMP JUMPDEST DUP1 DUP5 MSTORE DUP2 PUSH1 0x1F NOT PUSH2 0x3158 DUP4 PUSH2 0x3AA JUMP JUMPDEST ADD CALLDATASIZE PUSH1 0x20 DUP8 ADD CALLDATACOPY JUMPDEST PUSH2 0x316A JUMPI POP POP POP SWAP1 JUMP JUMPDEST PUSH1 0x0 NOT DUP2 ADD SWAP1 DUP2 GT PUSH2 0x9FF JUMPI DUP1 SWAP2 PUSH1 0xA SWAP2 PUSH2 0x31AE PUSH2 0x31A5 PUSH2 0x3195 PUSH2 0x318F DUP7 DUP7 MOD PUSH2 0x2DE9 JUMP JUMPDEST PUSH1 0xFF AND SWAP1 JUMP JUMPDEST PUSH1 0xF8 SHL PUSH1 0x1 PUSH1 0x1 PUSH1 0xF8 SHL SUB NOT AND SWAP1 JUMP JUMPDEST DUP7 BYTE SWAP2 DUP8 PUSH2 0x310D JUMP JUMPDEST MSTORE8 DIV SWAP1 DUP2 PUSH2 0x3160 JUMP JUMPDEST SWAP3 PUSH2 0x31C3 PUSH1 0xA SWAP2 PUSH2 0x2EF1 JUMP JUMPDEST SWAP4 DIV DUP1 PUSH2 0x312C JUMP JUMPDEST POP PUSH1 0x40 MLOAD PUSH2 0x31D8 DUP2 PUSH2 0x338 JUMP JUMPDEST PUSH1 0x1 DUP2 MSTORE PUSH1 0x3 PUSH1 0xFC SHL PUSH1 0x20 DUP3 ADD MSTORE SWAP1 JUMP JUMPDEST SWAP2 SWAP1 SWAP2 DUP3 MLOAD SWAP3 DUP4 MLOAD PUSH1 0x1 PUSH1 0x1 PUSH1 0x40 SHL SUB DUP2 GT PUSH2 0x333 JUMPI PUSH2 0x320D DUP2 PUSH2 0x4AC DUP6 SLOAD PUSH2 0xA04 JUMP JUMPDEST PUSH1 0x20 SWAP5 DUP6 SWAP1 PUSH1 0x1F DUP4 GT PUSH1 0x1 EQ PUSH2 0x32B9 JUMPI PUSH2 0x325C PUSH2 0xA79 SWAP7 SWAP8 DUP5 PUSH1 0x60 SWAP6 PUSH1 0x3 SWAP8 SWAP6 PUSH2 0x327F SWAP6 PUSH1 0x0 SWAP3 PUSH2 0x32AE JUMPI JUMPDEST POP POP DUP2 PUSH1 0x1 SHL SWAP2 PUSH1 0x0 NOT SWAP1 DUP10 SHL SHR NOT AND OR DUP8 SSTORE JUMPDEST DUP4 ADD MLOAD PUSH1 0x1 PUSH1 0x1 PUSH1 0xA0 SHL SUB AND SWAP1 JUMP JUMPDEST PUSH1 0x1 DUP7 ADD DUP1 SLOAD PUSH1 0x1 PUSH1 0x1 PUSH1 0xA0 SHL SUB NOT AND PUSH1 0x1 PUSH1 0x1 PUSH1 0xA0 SHL SUB SWAP1 SWAP3 AND SWAP2 SWAP1 SWAP2 OR SWAP1 SSTORE JUMP JUMPDEST PUSH1 0x40 DUP2 ADD MLOAD PUSH1 0x2 DUP6 ADD DUP1 SLOAD PUSH1 0x1 PUSH1 0x1 PUSH1 0xA0 SHL SUB NOT AND PUSH1 0x1 PUSH1 0x1 PUSH1 0xA0 SHL SUB SWAP1 SWAP3 AND SWAP2 SWAP1 SWAP2 OR SWAP1 SSTORE ADD MLOAD SWAP2 ADD PUSH2 0x20A3 JUMP JUMPDEST ADD MLOAD SWAP1 POP CODESIZE DUP1 PUSH2 0x3239 JUMP JUMPDEST SWAP1 PUSH1 0x1F NOT DUP4 AND SWAP2 PUSH2 0x32CF DUP7 PUSH1 0x0 MSTORE PUSH1 0x20 PUSH1 0x0 KECCAK256 SWAP1 JUMP JUMPDEST SWAP3 PUSH1 0x0 JUMPDEST DUP2 DUP2 LT PUSH2 0x331E JUMPI POP SWAP8 PUSH1 0x1 DUP6 PUSH1 0x3 SWAP8 SWAP6 PUSH2 0x327F SWAP6 PUSH2 0x325C SWAP6 PUSH1 0x60 SWAP10 PUSH2 0xA79 SWAP14 SWAP15 LT PUSH2 0x3306 JUMPI JUMPDEST POP POP POP DUP2 SHL ADD DUP8 SSTORE PUSH2 0x324D JUMP JUMPDEST ADD MLOAD PUSH1 0x0 NOT DUP4 DUP12 SHL PUSH1 0xF8 AND SHR NOT AND SWAP1 SSTORE CODESIZE DUP1 DUP1 PUSH2 0x32F9 JUMP JUMPDEST SWAP3 SWAP4 DUP10 PUSH1 0x1 DUP2 SWAP3 DUP8 DUP7 ADD MLOAD DUP2 SSTORE ADD SWAP6 ADD SWAP4 ADD PUSH2 0x32D3 JUMP INVALID 0xDD CALLCODE MSTORE 0xAD SHL 0xE2 0xC8 SWAP12 PUSH10 0xC2B068FC378DAA952BA7 CALL PUSH4 0xC4A11628 CREATE2 GAS 0x4D CREATE2 0x23 0xB3 0xEF LOG2 PUSH5 0x6970667358 0x22 SLT KECCAK256 0x2C SWAP5 DELEGATECALL 0xAF 0xAA 0x26 0xC8 CALLCODE SWAP7 MSTORE SELFDESTRUCT SWAP16 0xB4 0x23 0xAD 0xD0 CALLCODE 0xC5 0x21 0xCE 0xB0 0xFB 0xB6 SWAP3 DUP13 0x27 0xF8 PUSH31 0x14FC460D64736F6C6343000814003300000000000000000000000000000000 "},"methodIdentifiers":{"approve(address,uint256)":"095ea7b3","balanceOf(address)":"70a08231","batchFrozen(uint256)":"83040532","batchMintTo(address,uint256,string,bytes)":"754a81d9","burn(uint256)":"42966c68","contractURI()":"e8a3d485","createShipment(uint256,string,address,string)":"d2d78cdc","explicitOwnershipOf(uint256)":"c23dc68f","explicitOwnershipsOf(uint256[])":"5bbb2177","getApproved(uint256)":"081812fc","getBaseURICount()":"63b45e2d","getBatchIdAtIndex(uint256)":"2419f51b","getDefaultRoyaltyInfo()":"b24f2d39","getRoyaltyInfoForToken(uint256)":"4cc157df","getShipmentDetails(uint256)":"693d70aa","isApprovedForAll(address,address)":"e985e9c5","isApprovedOrOwner(address,uint256)":"430c2081","mintTo(address,string)":"0075a317","multicall(bytes[])":"ac9650d8","name()":"06fdde03","nextTokenIdToMint()":"3b1475a7","owner()":"8da5cb5b","ownerOf(uint256)":"6352211e","royaltyInfo(uint256,uint256)":"2a55205a","safeTransferFrom(address,address,uint256)":"42842e0e","safeTransferFrom(address,address,uint256,bytes)":"b88d4fde","setApprovalForAll(address,bool)":"a22cb465","setContractURI(string)":"938e3d7b","setDefaultRoyaltyInfo(address,uint256)":"600dd5ea","setOwner(address)":"13af4035","setRoyaltyInfoForToken(uint256,address,uint256)":"9bcf7a15","shipmentCount()":"aace20b7","shipments(uint256)":"2ac08a93","supportsInterface(bytes4)":"01ffc9a7","symbol()":"95d89b41","tokenURI(uint256)":"c87b56dd","tokensOfOwner(address)":"8462151c","tokensOfOwnerIn(address,uint256,uint256)":"99a2557a","totalSupply()":"18160ddd","transferFrom(address,address,uint256)":"23b872dd","transferShipment(uint256)":"5fbd4e90","uploadDocument(uint256,string)":"79cda772"}}}}}