{
  "_format": "hh-sol-artifact-1",
  "contractName": "ERC721Base",
  "sourceName": "@thirdweb-dev/contracts/base/ERC721Base.sol",
  "abi": [
    {
      "inputs": [
        {
          "internalType": "address",
          "name": "_defaultAdmin",
          "type": "address"
        },
        {
          "internalType": "string",
          "name": "_name",
          "type": "string"
        },
        {
          "internalType": "string",
          "name": "_symbol",
          "type": "string"
        },
        {
          "internalType": "address",
          "name": "_royaltyRecipient",
          "type": "address"
        },
        {
          "internalType": "uint128",
          "name": "_royaltyBps",
          "type": "uint128"
        }
      ],
      "stateMutability": "nonpayable",
      "type": "constructor"
    },
    {
      "inputs": [],
      "name": "ApprovalCallerNotOwnerNorApproved",
      "type": "error"
    },
    {
      "inputs": [],
      "name": "ApprovalQueryForNonexistentToken",
      "type": "error"
    },
    {
      "inputs": [],
      "name": "ApprovalToCurrentOwner",
      "type": "error"
    },
    {
      "inputs": [],
      "name": "ApproveToCaller",
      "type": "error"
    },
    {
      "inputs": [],
      "name": "BalanceQueryForZeroAddress",
      "type": "error"
    },
    {
      "inputs": [
        {
          "internalType": "uint256",
          "name": "index",
          "type": "uint256"
        }
      ],
      "name": "BatchMintInvalidBatchId",
      "type": "error"
    },
    {
      "inputs": [
        {
          "internalType": "uint256",
          "name": "tokenId",
          "type": "uint256"
        }
      ],
      "name": "BatchMintInvalidTokenId",
      "type": "error"
    },
    {
      "inputs": [
        {
          "internalType": "uint256",
          "name": "batchId",
          "type": "uint256"
        }
      ],
      "name": "BatchMintMetadataFrozen",
      "type": "error"
    },
    {
      "inputs": [],
      "name": "ContractMetadataUnauthorized",
      "type": "error"
    },
    {
      "inputs": [],
      "name": "InvalidQueryRange",
      "type": "error"
    },
    {
      "inputs": [],
      "name": "MintToZeroAddress",
      "type": "error"
    },
    {
      "inputs": [],
      "name": "MintZeroQuantity",
      "type": "error"
    },
    {
      "inputs": [],
      "name": "OwnableUnauthorized",
      "type": "error"
    },
    {
      "inputs": [],
      "name": "OwnerQueryForNonexistentToken",
      "type": "error"
    },
    {
      "inputs": [
        {
          "internalType": "uint256",
          "name": "max",
          "type": "uint256"
        },
        {
          "internalType": "uint256",
          "name": "actual",
          "type": "uint256"
        }
      ],
      "name": "RoyaltyExceededMaxFeeBps",
      "type": "error"
    },
    {
      "inputs": [
        {
          "internalType": "address",
          "name": "recipient",
          "type": "address"
        }
      ],
      "name": "RoyaltyInvalidRecipient",
      "type": "error"
    },
    {
      "inputs": [],
      "name": "RoyaltyUnauthorized",
      "type": "error"
    },
    {
      "inputs": [],
      "name": "TransferCallerNotOwnerNorApproved",
      "type": "error"
    },
    {
      "inputs": [],
      "name": "TransferFromIncorrectOwner",
      "type": "error"
    },
    {
      "inputs": [],
      "name": "TransferToNonERC721ReceiverImplementer",
      "type": "error"
    },
    {
      "inputs": [],
      "name": "TransferToZeroAddress",
      "type": "error"
    },
    {
      "inputs": [],
      "name": "URIQueryForNonexistentToken",
      "type": "error"
    },
    {
      "anonymous": false,
      "inputs": [
        {
          "indexed": true,
          "internalType": "address",
          "name": "owner",
          "type": "address"
        },
        {
          "indexed": true,
          "internalType": "address",
          "name": "approved",
          "type": "address"
        },
        {
          "indexed": true,
          "internalType": "uint256",
          "name": "tokenId",
          "type": "uint256"
        }
      ],
      "name": "Approval",
      "type": "event"
    },
    {
      "anonymous": false,
      "inputs": [
        {
          "indexed": true,
          "internalType": "address",
          "name": "owner",
          "type": "address"
        },
        {
          "indexed": true,
          "internalType": "address",
          "name": "operator",
          "type": "address"
        },
        {
          "indexed": false,
          "internalType": "bool",
          "name": "approved",
          "type": "bool"
        }
      ],
      "name": "ApprovalForAll",
      "type": "event"
    },
    {
      "anonymous": false,
      "inputs": [
        {
          "indexed": false,
          "internalType": "uint256",
          "name": "_fromTokenId",
          "type": "uint256"
        },
        {
          "indexed": false,
          "internalType": "uint256",
          "name": "_toTokenId",
          "type": "uint256"
        }
      ],
      "name": "BatchMetadataUpdate",
      "type": "event"
    },
    {
      "anonymous": false,
      "inputs": [
        {
          "indexed": false,
          "internalType": "string",
          "name": "prevURI",
          "type": "string"
        },
        {
          "indexed": false,
          "internalType": "string",
          "name": "newURI",
          "type": "string"
        }
      ],
      "name": "ContractURIUpdated",
      "type": "event"
    },
    {
      "anonymous": false,
      "inputs": [
        {
          "indexed": true,
          "internalType": "address",
          "name": "newRoyaltyRecipient",
          "type": "address"
        },
        {
          "indexed": false,
          "internalType": "uint256",
          "name": "newRoyaltyBps",
          "type": "uint256"
        }
      ],
      "name": "DefaultRoyalty",
      "type": "event"
    },
    {
      "anonymous": false,
      "inputs": [],
      "name": "MetadataFrozen",
      "type": "event"
    },
    {
      "anonymous": false,
      "inputs": [
        {
          "indexed": true,
          "internalType": "address",
          "name": "prevOwner",
          "type": "address"
        },
        {
          "indexed": true,
          "internalType": "address",
          "name": "newOwner",
          "type": "address"
        }
      ],
      "name": "OwnerUpdated",
      "type": "event"
    },
    {
      "anonymous": false,
      "inputs": [
        {
          "indexed": true,
          "internalType": "uint256",
          "name": "tokenId",
          "type": "uint256"
        },
        {
          "indexed": true,
          "internalType": "address",
          "name": "royaltyRecipient",
          "type": "address"
        },
        {
          "indexed": false,
          "internalType": "uint256",
          "name": "royaltyBps",
          "type": "uint256"
        }
      ],
      "name": "RoyaltyForToken",
      "type": "event"
    },
    {
      "anonymous": false,
      "inputs": [
        {
          "indexed": true,
          "internalType": "address",
          "name": "from",
          "type": "address"
        },
        {
          "indexed": true,
          "internalType": "address",
          "name": "to",
          "type": "address"
        },
        {
          "indexed": true,
          "internalType": "uint256",
          "name": "tokenId",
          "type": "uint256"
        }
      ],
      "name": "Transfer",
      "type": "event"
    },
    {
      "inputs": [
        {
          "internalType": "address",
          "name": "to",
          "type": "address"
        },
        {
          "internalType": "uint256",
          "name": "tokenId",
          "type": "uint256"
        }
      ],
      "name": "approve",
      "outputs": [],
      "stateMutability": "nonpayable",
      "type": "function"
    },
    {
      "inputs": [
        {
          "internalType": "address",
          "name": "owner",
          "type": "address"
        }
      ],
      "name": "balanceOf",
      "outputs": [
        {
          "internalType": "uint256",
          "name": "",
          "type": "uint256"
        }
      ],
      "stateMutability": "view",
      "type": "function"
    },
    {
      "inputs": [
        {
          "internalType": "uint256",
          "name": "",
          "type": "uint256"
        }
      ],
      "name": "batchFrozen",
      "outputs": [
        {
          "internalType": "bool",
          "name": "",
          "type": "bool"
        }
      ],
      "stateMutability": "view",
      "type": "function"
    },
    {
      "inputs": [
        {
          "internalType": "address",
          "name": "_to",
          "type": "address"
        },
        {
          "internalType": "uint256",
          "name": "_quantity",
          "type": "uint256"
        },
        {
          "internalType": "string",
          "name": "_baseURI",
          "type": "string"
        },
        {
          "internalType": "bytes",
          "name": "_data",
          "type": "bytes"
        }
      ],
      "name": "batchMintTo",
      "outputs": [],
      "stateMutability": "nonpayable",
      "type": "function"
    },
    {
      "inputs": [
        {
          "internalType": "uint256",
          "name": "_tokenId",
          "type": "uint256"
        }
      ],
      "name": "burn",
      "outputs": [],
      "stateMutability": "nonpayable",
      "type": "function"
    },
    {
      "inputs": [],
      "name": "contractURI",
      "outputs": [
        {
          "internalType": "string",
          "name": "",
          "type": "string"
        }
      ],
      "stateMutability": "view",
      "type": "function"
    },
    {
      "inputs": [
        {
          "internalType": "uint256",
          "name": "tokenId",
          "type": "uint256"
        }
      ],
      "name": "explicitOwnershipOf",
      "outputs": [
        {
          "components": [
            {
              "internalType": "address",
              "name": "addr",
              "type": "address"
            },
            {
              "internalType": "uint64",
              "name": "startTimestamp",
              "type": "uint64"
            },
            {
              "internalType": "bool",
              "name": "burned",
              "type": "bool"
            }
          ],
          "internalType": "struct IERC721A.TokenOwnership",
          "name": "",
          "type": "tuple"
        }
      ],
      "stateMutability": "view",
      "type": "function"
    },
    {
      "inputs": [
        {
          "internalType": "uint256[]",
          "name": "tokenIds",
          "type": "uint256[]"
        }
      ],
      "name": "explicitOwnershipsOf",
      "outputs": [
        {
          "components": [
            {
              "internalType": "address",
              "name": "addr",
              "type": "address"
            },
            {
              "internalType": "uint64",
              "name": "startTimestamp",
              "type": "uint64"
            },
            {
              "internalType": "bool",
              "name": "burned",
              "type": "bool"
            }
          ],
          "internalType": "struct IERC721A.TokenOwnership[]",
          "name": "",
          "type": "tuple[]"
        }
      ],
      "stateMutability": "view",
      "type": "function"
    },
    {
      "inputs": [
        {
          "internalType": "uint256",
          "name": "tokenId",
          "type": "uint256"
        }
      ],
      "name": "getApproved",
      "outputs": [
        {
          "internalType": "address",
          "name": "",
          "type": "address"
        }
      ],
      "stateMutability": "view",
      "type": "function"
    },
    {
      "inputs": [],
      "name": "getBaseURICount",
      "outputs": [
        {
          "internalType": "uint256",
          "name": "",
          "type": "uint256"
        }
      ],
      "stateMutability": "view",
      "type": "function"
    },
    {
      "inputs": [
        {
          "internalType": "uint256",
          "name": "_index",
          "type": "uint256"
        }
      ],
      "name": "getBatchIdAtIndex",
      "outputs": [
        {
          "internalType": "uint256",
          "name": "",
          "type": "uint256"
        }
      ],
      "stateMutability": "view",
      "type": "function"
    },
    {
      "inputs": [],
      "name": "getDefaultRoyaltyInfo",
      "outputs": [
        {
          "internalType": "address",
          "name": "",
          "type": "address"
        },
        {
          "internalType": "uint16",
          "name": "",
          "type": "uint16"
        }
      ],
      "stateMutability": "view",
      "type": "function"
    },
    {
      "inputs": [
        {
          "internalType": "uint256",
          "name": "_tokenId",
          "type": "uint256"
        }
      ],
      "name": "getRoyaltyInfoForToken",
      "outputs": [
        {
          "internalType": "address",
          "name": "",
          "type": "address"
        },
        {
          "internalType": "uint16",
          "name": "",
          "type": "uint16"
        }
      ],
      "stateMutability": "view",
      "type": "function"
    },
    {
      "inputs": [
        {
          "internalType": "address",
          "name": "owner",
          "type": "address"
        },
        {
          "internalType": "address",
          "name": "operator",
          "type": "address"
        }
      ],
      "name": "isApprovedForAll",
      "outputs": [
        {
          "internalType": "bool",
          "name": "",
          "type": "bool"
        }
      ],
      "stateMutability": "view",
      "type": "function"
    },
    {
      "inputs": [
        {
          "internalType": "address",
          "name": "_operator",
          "type": "address"
        },
        {
          "internalType": "uint256",
          "name": "_tokenId",
          "type": "uint256"
        }
      ],
      "name": "isApprovedOrOwner",
      "outputs": [
        {
          "internalType": "bool",
          "name": "isApprovedOrOwnerOf",
          "type": "bool"
        }
      ],
      "stateMutability": "view",
      "type": "function"
    },
    {
      "inputs": [
        {
          "internalType": "address",
          "name": "_to",
          "type": "address"
        },
        {
          "internalType": "string",
          "name": "_tokenURI",
          "type": "string"
        }
      ],
      "name": "mintTo",
      "outputs": [],
      "stateMutability": "nonpayable",
      "type": "function"
    },
    {
      "inputs": [
        {
          "internalType": "bytes[]",
          "name": "data",
          "type": "bytes[]"
        }
      ],
      "name": "multicall",
      "outputs": [
        {
          "internalType": "bytes[]",
          "name": "results",
          "type": "bytes[]"
        }
      ],
      "stateMutability": "nonpayable",
      "type": "function"
    },
    {
      "inputs": [],
      "name": "name",
      "outputs": [
        {
          "internalType": "string",
          "name": "",
          "type": "string"
        }
      ],
      "stateMutability": "view",
      "type": "function"
    },
    {
      "inputs": [],
      "name": "nextTokenIdToMint",
      "outputs": [
        {
          "internalType": "uint256",
          "name": "",
          "type": "uint256"
        }
      ],
      "stateMutability": "view",
      "type": "function"
    },
    {
      "inputs": [],
      "name": "owner",
      "outputs": [
        {
          "internalType": "address",
          "name": "",
          "type": "address"
        }
      ],
      "stateMutability": "view",
      "type": "function"
    },
    {
      "inputs": [
        {
          "internalType": "uint256",
          "name": "tokenId",
          "type": "uint256"
        }
      ],
      "name": "ownerOf",
      "outputs": [
        {
          "internalType": "address",
          "name": "",
          "type": "address"
        }
      ],
      "stateMutability": "view",
      "type": "function"
    },
    {
      "inputs": [
        {
          "internalType": "uint256",
          "name": "tokenId",
          "type": "uint256"
        },
        {
          "internalType": "uint256",
          "name": "salePrice",
          "type": "uint256"
        }
      ],
      "name": "royaltyInfo",
      "outputs": [
        {
          "internalType": "address",
          "name": "receiver",
          "type": "address"
        },
        {
          "internalType": "uint256",
          "name": "royaltyAmount",
          "type": "uint256"
        }
      ],
      "stateMutability": "view",
      "type": "function"
    },
    {
      "inputs": [
        {
          "internalType": "address",
          "name": "from",
          "type": "address"
        },
        {
          "internalType": "address",
          "name": "to",
          "type": "address"
        },
        {
          "internalType": "uint256",
          "name": "tokenId",
          "type": "uint256"
        }
      ],
      "name": "safeTransferFrom",
      "outputs": [],
      "stateMutability": "nonpayable",
      "type": "function"
    },
    {
      "inputs": [
        {
          "internalType": "address",
          "name": "from",
          "type": "address"
        },
        {
          "internalType": "address",
          "name": "to",
          "type": "address"
        },
        {
          "internalType": "uint256",
          "name": "tokenId",
          "type": "uint256"
        },
        {
          "internalType": "bytes",
          "name": "_data",
          "type": "bytes"
        }
      ],
      "name": "safeTransferFrom",
      "outputs": [],
      "stateMutability": "nonpayable",
      "type": "function"
    },
    {
      "inputs": [
        {
          "internalType": "address",
          "name": "operator",
          "type": "address"
        },
        {
          "internalType": "bool",
          "name": "approved",
          "type": "bool"
        }
      ],
      "name": "setApprovalForAll",
      "outputs": [],
      "stateMutability": "nonpayable",
      "type": "function"
    },
    {
      "inputs": [
        {
          "internalType": "string",
          "name": "_uri",
          "type": "string"
        }
      ],
      "name": "setContractURI",
      "outputs": [],
      "stateMutability": "nonpayable",
      "type": "function"
    },
    {
      "inputs": [
        {
          "internalType": "address",
          "name": "_royaltyRecipient",
          "type": "address"
        },
        {
          "internalType": "uint256",
          "name": "_royaltyBps",
          "type": "uint256"
        }
      ],
      "name": "setDefaultRoyaltyInfo",
      "outputs": [],
      "stateMutability": "nonpayable",
      "type": "function"
    },
    {
      "inputs": [
        {
          "internalType": "address",
          "name": "_newOwner",
          "type": "address"
        }
      ],
      "name": "setOwner",
      "outputs": [],
      "stateMutability": "nonpayable",
      "type": "function"
    },
    {
      "inputs": [
        {
          "internalType": "uint256",
          "name": "_tokenId",
          "type": "uint256"
        },
        {
          "internalType": "address",
          "name": "_recipient",
          "type": "address"
        },
        {
          "internalType": "uint256",
          "name": "_bps",
          "type": "uint256"
        }
      ],
      "name": "setRoyaltyInfoForToken",
      "outputs": [],
      "stateMutability": "nonpayable",
      "type": "function"
    },
    {
      "inputs": [
        {
          "internalType": "bytes4",
          "name": "interfaceId",
          "type": "bytes4"
        }
      ],
      "name": "supportsInterface",
      "outputs": [
        {
          "internalType": "bool",
          "name": "",
          "type": "bool"
        }
      ],
      "stateMutability": "view",
      "type": "function"
    },
    {
      "inputs": [],
      "name": "symbol",
      "outputs": [
        {
          "internalType": "string",
          "name": "",
          "type": "string"
        }
      ],
      "stateMutability": "view",
      "type": "function"
    },
    {
      "inputs": [
        {
          "internalType": "uint256",
          "name": "_tokenId",
          "type": "uint256"
        }
      ],
      "name": "tokenURI",
      "outputs": [
        {
          "internalType": "string",
          "name": "",
          "type": "string"
        }
      ],
      "stateMutability": "view",
      "type": "function"
    },
    {
      "inputs": [
        {
          "internalType": "address",
          "name": "owner",
          "type": "address"
        }
      ],
      "name": "tokensOfOwner",
      "outputs": [
        {
          "internalType": "uint256[]",
          "name": "",
          "type": "uint256[]"
        }
      ],
      "stateMutability": "view",
      "type": "function"
    },
    {
      "inputs": [
        {
          "internalType": "address",
          "name": "owner",
          "type": "address"
        },
        {
          "internalType": "uint256",
          "name": "start",
          "type": "uint256"
        },
        {
          "internalType": "uint256",
          "name": "stop",
          "type": "uint256"
        }
      ],
      "name": "tokensOfOwnerIn",
      "outputs": [
        {
          "internalType": "uint256[]",
          "name": "",
          "type": "uint256[]"
        }
      ],
      "stateMutability": "view",
      "type": "function"
    },
    {
      "inputs": [],
      "name": "totalSupply",
      "outputs": [
        {
          "internalType": "uint256",
          "name": "",
          "type": "uint256"
        }
      ],
      "stateMutability": "view",
      "type": "function"
    },
    {
      "inputs": [
        {
          "internalType": "address",
          "name": "from",
          "type": "address"
        },
        {
          "internalType": "address",
          "name": "to",
          "type": "address"
        },
        {
          "internalType": "uint256",
          "name": "tokenId",
          "type": "uint256"
        }
      ],
      "name": "transferFrom",
      "outputs": [],
      "stateMutability": "nonpayable",
      "type": "function"
    }
  ],
  "bytecode": "0x60806040523480156200001157600080fd5b5060405162005aff38038062005aff8339818101604052810190620000379190620004c5565b838381600290816200004a9190620007d6565b5080600390816200005c9190620007d6565b506200006d620000b560201b60201c565b60008190555050506200008685620000ba60201b60201c565b620000aa82826fffffffffffffffffffffffffffffffff166200018060201b60201c565b50505050506200095b565b600090565b6000600960009054906101000a900473ffffffffffffffffffffffffffffffffffffffff16905081600960006101000a81548173ffffffffffffffffffffffffffffffffffffffff021916908373ffffffffffffffffffffffffffffffffffffffff1602179055508173ffffffffffffffffffffffffffffffffffffffff168173ffffffffffffffffffffffffffffffffffffffff167f8292fce18fa69edf4db7b94ea2e58241df0ae57f97e0a6c9b29067028bf92d7660405160405180910390a35050565b612710811115620001ce57612710816040517f52498568000000000000000000000000000000000000000000000000000000008152600401620001c592919062000911565b60405180910390fd5b81600a60006101000a81548173ffffffffffffffffffffffffffffffffffffffff021916908373ffffffffffffffffffffffffffffffffffffffff16021790555080600a60146101000a81548161ffff021916908361ffff1602179055508173ffffffffffffffffffffffffffffffffffffffff167f90d7ec04bcb8978719414f82e52e4cb651db41d0e6f8cea6118c2191e6183adb826040516200027491906200093e565b60405180910390a25050565b6000604051905090565b600080fd5b600080fd5b600073ffffffffffffffffffffffffffffffffffffffff82169050919050565b6000620002c18262000294565b9050919050565b620002d381620002b4565b8114620002df57600080fd5b50565b600081519050620002f381620002c8565b92915050565b600080fd5b600080fd5b6000601f19601f8301169050919050565b7f4e487b7100000000000000000000000000000000000000000000000000000000600052604160045260246000fd5b6200034e8262000303565b810181811067ffffffffffffffff8211171562000370576200036f62000314565b5b80604052505050565b60006200038562000280565b905062000393828262000343565b919050565b600067ffffffffffffffff821115620003b657620003b562000314565b5b620003c18262000303565b9050602081019050919050565b60005b83811015620003ee578082015181840152602081019050620003d1565b60008484015250505050565b6000620004116200040b8462000398565b62000379565b90508281526020810184848401111562000430576200042f620002fe565b5b6200043d848285620003ce565b509392505050565b600082601f8301126200045d576200045c620002f9565b5b81516200046f848260208601620003fa565b91505092915050565b60006fffffffffffffffffffffffffffffffff82169050919050565b6200049f8162000478565b8114620004ab57600080fd5b50565b600081519050620004bf8162000494565b92915050565b600080600080600060a08688031215620004e457620004e36200028a565b5b6000620004f488828901620002e2565b955050602086015167ffffffffffffffff8111156200051857620005176200028f565b5b620005268882890162000445565b945050604086015167ffffffffffffffff8111156200054a57620005496200028f565b5b620005588882890162000445565b93505060606200056b88828901620002e2565b92505060806200057e88828901620004ae565b9150509295509295909350565b600081519050919050565b7f4e487b7100000000000000000000000000000000000000000000000000000000600052602260045260246000fd5b60006002820490506001821680620005de57607f821691505b602082108103620005f457620005f362000596565b5b50919050565b60008190508160005260206000209050919050565b60006020601f8301049050919050565b600082821b905092915050565b6000600883026200065e7fffffffffffffffffffffffffffffffffffffffffffffffffffffffffffffffff826200061f565b6200066a86836200061f565b95508019841693508086168417925050509392505050565b6000819050919050565b6000819050919050565b6000620006b7620006b1620006ab8462000682565b6200068c565b62000682565b9050919050565b6000819050919050565b620006d38362000696565b620006eb620006e282620006be565b8484546200062c565b825550505050565b600090565b62000702620006f3565b6200070f818484620006c8565b505050565b5b8181101562000737576200072b600082620006f8565b60018101905062000715565b5050565b601f82111562000786576200075081620005fa565b6200075b846200060f565b810160208510156200076b578190505b620007836200077a856200060f565b83018262000714565b50505b505050565b600082821c905092915050565b6000620007ab600019846008026200078b565b1980831691505092915050565b6000620007c6838362000798565b9150826002028217905092915050565b620007e1826200058b565b67ffffffffffffffff811115620007fd57620007fc62000314565b5b620008098254620005c5565b620008168282856200073b565b600060209050601f8311600181146200084e576000841562000839578287015190505b620008458582620007b8565b865550620008b5565b601f1984166200085e86620005fa565b60005b82811015620008885784890151825560018201915060208501945060208101905062000861565b86831015620008a85784890151620008a4601f89168262000798565b8355505b6001600288020188555050505b505050505050565b6000819050919050565b6000620008e8620008e2620008dc84620008bd565b6200068c565b62000682565b9050919050565b620008fa81620008c7565b82525050565b6200090b8162000682565b82525050565b6000604082019050620009286000830185620008ef565b62000937602083018462000900565b9392505050565b600060208201905062000955600083018462000900565b92915050565b615194806200096b6000396000f3fe608060405234801561001057600080fd5b506004361061021b5760003560e01c806363b45e2d116101255780639bcf7a15116100ad578063b88d4fde1161007c578063b88d4fde14610699578063c23dc68f146106b5578063c87b56dd146106e5578063e8a3d48514610715578063e985e9c5146107335761021b565b80639bcf7a1514610612578063a22cb4651461062e578063ac9650d81461064a578063b24f2d391461067a5761021b565b80638462151c116100f45780638462151c1461055a5780638da5cb5b1461058a578063938e3d7b146105a857806395d89b41146105c457806399a2557a146105e25761021b565b806363b45e2d146104c057806370a08231146104de578063754a81d91461050e578063830405321461052a5761021b565b80632a55205a116101a8578063430c208111610177578063430c2081146103e35780634cc157df146104135780635bbb217714610444578063600dd5ea146104745780636352211e146104905761021b565b80632a55205a1461035c5780633b1475a71461038d57806342842e0e146103ab57806342966c68146103c75761021b565b8063095ea7b3116101ef578063095ea7b3146102ba57806313af4035146102d657806318160ddd146102f257806323b872dd146103105780632419f51b1461032c5761021b565b806275a3171461022057806301ffc9a71461023c57806306fdde031461026c578063081812fc1461028a575b600080fd5b61023a60048036038101906102359190613b46565b610763565b005b61025660048036038101906102519190613bfa565b6107da565b6040516102639190613c42565b60405180910390f35b6102746108d4565b6040516102819190613cdc565b60405180910390f35b6102a4600480360381019061029f9190613d34565b610966565b6040516102b19190613d70565b60405180910390f35b6102d460048036038101906102cf9190613d8b565b6109e2565b005b6102f060048036038101906102eb9190613dcb565b610ae6565b005b6102fa610b30565b6040516103079190613e07565b60405180910390f35b61032a60048036038101906103259190613e22565b610b47565b005b61034660048036038101906103419190613d34565b610b57565b6040516103539190613e07565b60405180910390f35b61037660048036038101906103719190613e75565b610bca565b604051610384929190613eb5565b60405180910390f35b610395610c08565b6040516103a29190613e07565b60405180910390f35b6103c560048036038101906103c09190613e22565b610c11565b005b6103e160048036038101906103dc9190613d34565b610c31565b005b6103fd60048036038101906103f89190613d8b565b610c3f565b60405161040a9190613c42565b60405180910390f35b61042d60048036038101906104289190613d34565b610cd4565b60405161043b929190613efb565b60405180910390f35b61045e60048036038101906104599190613fec565b610ddf565b60405161046b9190614167565b60405180910390f35b61048e60048036038101906104899190613d8b565b610ea0565b005b6104aa60048036038101906104a59190613d34565b610eec565b6040516104b79190613d70565b60405180910390f35b6104c8610f02565b6040516104d59190613e07565b60405180910390f35b6104f860048036038101906104f39190613dcb565b610f0f565b6040516105059190613e07565b60405180910390f35b6105286004803603810190610523919061422a565b610fde565b005b610544600480360381019061053f9190613d34565b61104a565b6040516105519190613c42565b60405180910390f35b610574600480360381019061056f9190613dcb565b61106a565b6040516105819190614387565b60405180910390f35b610592611265565b60405161059f9190613d70565b60405180910390f35b6105c260048036038101906105bd91906143a9565b61128f565b005b6105cc6112d9565b6040516105d99190613cdc565b60405180910390f35b6105fc60048036038101906105f791906143f2565b61136b565b6040516106099190614387565b60405180910390f35b61062c60048036038101906106279190614445565b61162a565b005b610648600480360381019061064391906144c4565b611678565b005b610664600480360381019061065f919061455f565b6117ef565b60405161067191906146c3565b60405180910390f35b6106826119b7565b604051610690929190613efb565b60405180910390f35b6106b360048036038101906106ae91906146e5565b6119f6565b005b6106cf60048036038101906106ca9190613d34565b611a6e565b6040516106dc91906147aa565b60405180910390f35b6106ff60048036038101906106fa9190613d34565b611b8b565b60405161070c9190613cdc565b60405180910390f35b61071d611c81565b60405161072a9190613cdc565b60405180910390f35b61074d600480360381019061074891906147c5565b611d0f565b60405161075a9190613c42565b60405180910390f35b61076b611da3565b6107aa576040517f08c379a00000000000000000000000000000000000000000000000000000000081526004016107a190614851565b60405180910390fd5b6107bb6107b5610c08565b82611de0565b6107d682600160405180602001604052806000815250611e67565b5050565b60006301ffc9a760e01b827bffffffffffffffffffffffffffffffffffffffffffffffffffffffff1916148061083557506380ac58cd60e01b827bffffffffffffffffffffffffffffffffffffffffffffffffffffffff1916145b806108655750635b5e139f60e01b827bffffffffffffffffffffffffffffffffffffffffffffffffffffffff1916145b806108cd57507f2a55205a000000000000000000000000000000000000000000000000000000007bffffffffffffffffffffffffffffffffffffffffffffffffffffffff1916827bffffffffffffffffffffffffffffffffffffffffffffffffffffffff1916145b9050919050565b6060600280546108e3906148a0565b80601f016020809104026020016040519081016040528092919081815260200182805461090f906148a0565b801561095c5780601f106109315761010080835404028352916020019161095c565b820191906000526020600020905b81548152906001019060200180831161093f57829003601f168201915b5050505050905090565b600061097182612227565b6109a7576040517fcf4700e400000000000000000000000000000000000000000000000000000000815260040160405180910390fd5b6006600083815260200190815260200160002060009054906101000a900473ffffffffffffffffffffffffffffffffffffffff169050919050565b60006109ed82610eec565b90508073ffffffffffffffffffffffffffffffffffffffff168373ffffffffffffffffffffffffffffffffffffffff1603610a54576040517f943f7b8c00000000000000000000000000000000000000000000000000000000815260040160405180910390fd5b8073ffffffffffffffffffffffffffffffffffffffff16610a73612275565b73ffffffffffffffffffffffffffffffffffffffff1614610ad657610a9f81610a9a612275565b611d0f565b610ad5576040517fcfb3b94200000000000000000000000000000000000000000000000000000000815260040160405180910390fd5b5b610ae183838361227d565b505050565b610aee61232f565b610b24576040517f2d99739600000000000000000000000000000000000000000000000000000000815260040160405180910390fd5b610b2d8161236c565b50565b6000610b3a612432565b6001546000540303905090565b610b52838383612437565b505050565b6000610b61610f02565b8210610ba457816040517f0f2624ee000000000000000000000000000000000000000000000000000000008152600401610b9b9190613e07565b60405180910390fd5b600c8281548110610bb857610bb76148d1565b5b90600052602060002001549050919050565b600080600080610bd986610cd4565b61ffff16915091508193506127108186610bf3919061492f565b610bfd91906149a0565b925050509250929050565b60008054905090565b610c2c838383604051806020016040528060008152506119f6565b505050565b610c3c8160016128eb565b50565b600080610c4b83610eec565b90508073ffffffffffffffffffffffffffffffffffffffff168473ffffffffffffffffffffffffffffffffffffffff161480610c8d5750610c8c8185611d0f565b5b80610ccb57508373ffffffffffffffffffffffffffffffffffffffff16610cb384610966565b73ffffffffffffffffffffffffffffffffffffffff16145b91505092915050565b6000806000600b60008581526020019081526020016000206040518060400160405290816000820160009054906101000a900473ffffffffffffffffffffffffffffffffffffffff1673ffffffffffffffffffffffffffffffffffffffff1673ffffffffffffffffffffffffffffffffffffffff1681526020016001820154815250509050600073ffffffffffffffffffffffffffffffffffffffff16816000015173ffffffffffffffffffffffffffffffffffffffff1614610da05780600001518160200151610dd5565b600a60009054906101000a900473ffffffffffffffffffffffffffffffffffffffff16600a60149054906101000a900461ffff165b9250925050915091565b606060008251905060008167ffffffffffffffff811115610e0357610e02613a1b565b5b604051908082528060200260200182016040528015610e3c57816020015b610e2961394b565b815260200190600190039081610e215790505b50905060005b828114610e9557610e6c858281518110610e5f57610e5e6148d1565b5b6020026020010151611a6e565b828281518110610e7f57610e7e6148d1565b5b6020026020010181905250806001019050610e42565b508092505050919050565b610ea8612cda565b610ede576040517fdf5c6b0200000000000000000000000000000000000000000000000000000000815260040160405180910390fd5b610ee88282612d17565b5050565b6000610ef782612e12565b600001519050919050565b6000600c80549050905090565b60008073ffffffffffffffffffffffffffffffffffffffff168273ffffffffffffffffffffffffffffffffffffffff1603610f76576040517f8f4eb60400000000000000000000000000000000000000000000000000000000815260040160405180910390fd5b600560008373ffffffffffffffffffffffffffffffffffffffff1673ffffffffffffffffffffffffffffffffffffffff16815260200190815260200160002060000160009054906101000a900467ffffffffffffffff1667ffffffffffffffff169050919050565b610fe6611da3565b611025576040517f08c379a000000000000000000000000000000000000000000000000000000000815260040161101c90614851565b60405180910390fd5b611037611030610c08565b848461309d565b5050611044848483611e67565b50505050565b600e6020528060005260406000206000915054906101000a900460ff1681565b6060600080600061107a85610f0f565b905060008167ffffffffffffffff81111561109857611097613a1b565b5b6040519080825280602002602001820160405280156110c65781602001602082028036833780820191505090505b5090506110d161394b565b60006110db612432565b90505b83861461125757600460008281526020019081526020016000206040518060600160405290816000820160009054906101000a900473ffffffffffffffffffffffffffffffffffffffff1673ffffffffffffffffffffffffffffffffffffffff1673ffffffffffffffffffffffffffffffffffffffff1681526020016000820160149054906101000a900467ffffffffffffffff1667ffffffffffffffff1667ffffffffffffffff16815260200160008201601c9054906101000a900460ff1615151515815250509150816040015161124c57600073ffffffffffffffffffffffffffffffffffffffff16826000015173ffffffffffffffffffffffffffffffffffffffff16146111f157816000015194505b8773ffffffffffffffffffffffffffffffffffffffff168573ffffffffffffffffffffffffffffffffffffffff160361124b578083878060010198508151811061123e5761123d6148d1565b5b6020026020010181815250505b5b8060010190506110de565b508195505050505050919050565b6000600960009054906101000a900473ffffffffffffffffffffffffffffffffffffffff16905090565b611297613103565b6112cd576040517f9f7f092500000000000000000000000000000000000000000000000000000000815260040160405180910390fd5b6112d681613140565b50565b6060600380546112e8906148a0565b80601f0160208091040260200160405190810160405280929190818152602001828054611314906148a0565b80156113615780601f1061133657610100808354040283529160200191611361565b820191906000526020600020905b81548152906001019060200180831161134457829003601f168201915b5050505050905090565b60608183106113a6576040517f32c1995a00000000000000000000000000000000000000000000000000000000815260040160405180910390fd5b60008060005490506113b6612432565b8510156113c8576113c5612432565b94505b808411156113d4578093505b60006113df87610f0f565b9050848610156114025760008686039050818110156113fc578091505b50611407565b600090505b60008167ffffffffffffffff81111561142357611422613a1b565b5b6040519080825280602002602001820160405280156114515781602001602082028036833780820191505090505b509050600082036114685780945050505050611623565b600061147388611a6e565b90506000816040015161148857816000015190505b60008990505b88811415801561149e5750848714155b1561161557600460008281526020019081526020016000206040518060600160405290816000820160009054906101000a900473ffffffffffffffffffffffffffffffffffffffff1673ffffffffffffffffffffffffffffffffffffffff1673ffffffffffffffffffffffffffffffffffffffff1681526020016000820160149054906101000a900467ffffffffffffffff1667ffffffffffffffff1667ffffffffffffffff16815260200160008201601c9054906101000a900460ff1615151515815250509250826040015161160a57600073ffffffffffffffffffffffffffffffffffffffff16836000015173ffffffffffffffffffffffffffffffffffffffff16146115af57826000015191505b8a73ffffffffffffffffffffffffffffffffffffffff168273ffffffffffffffffffffffffffffffffffffffff160361160957808488806001019950815181106115fc576115fb6148d1565b5b6020026020010181815250505b5b80600101905061148e565b508583528296505050505050505b9392505050565b611632612cda565b611668576040517fdf5c6b0200000000000000000000000000000000000000000000000000000000815260040160405180910390fd5b61167383838361321c565b505050565b611680612275565b73ffffffffffffffffffffffffffffffffffffffff168273ffffffffffffffffffffffffffffffffffffffff16036116e4576040517fb06307db00000000000000000000000000000000000000000000000000000000815260040160405180910390fd5b80600760006116f1612275565b73ffffffffffffffffffffffffffffffffffffffff1673ffffffffffffffffffffffffffffffffffffffff16815260200190815260200160002060008473ffffffffffffffffffffffffffffffffffffffff1673ffffffffffffffffffffffffffffffffffffffff16815260200190815260200160002060006101000a81548160ff0219169083151502179055508173ffffffffffffffffffffffffffffffffffffffff1661179e612275565b73ffffffffffffffffffffffffffffffffffffffff167f17307eab39ab6107e8899845ad3d59bd9653f200f220920489ca2b5937696c31836040516117e39190613c42565b60405180910390a35050565b60608282905067ffffffffffffffff81111561180e5761180d613a1b565b5b60405190808252806020026020018201604052801561184157816020015b606081526020019060019003908161182c5790505b509050600061184e612275565b905060008173ffffffffffffffffffffffffffffffffffffffff163373ffffffffffffffffffffffffffffffffffffffff161415905060005b858590508110156119ae57811561190b576118e8308787848181106118af576118ae6148d1565b5b90506020028101906118c191906149e0565b866040516020016118d493929190614abb565b60405160208183030381529060405261334d565b8482815181106118fb576118fa6148d1565b5b602002602001018190525061199b565b61197c30878784818110611922576119216148d1565b5b905060200281019061193491906149e0565b8080601f016020809104026020016040519081016040528093929190818152602001838380828437600081840152601f19601f8201169050808301925050505050505061334d565b84828151811061198f5761198e6148d1565b5b60200260200101819052505b80806119a690614ae5565b915050611887565b50505092915050565b600080600a60009054906101000a900473ffffffffffffffffffffffffffffffffffffffff16600a60149054906101000a900461ffff16915091509091565b611a01848484612437565b611a208373ffffffffffffffffffffffffffffffffffffffff1661337a565b15611a6857611a318484848461339d565b611a67576040517fd1a57ed600000000000000000000000000000000000000000000000000000000815260040160405180910390fd5b5b50505050565b611a7661394b565b611a7e61394b565b611a86612432565b831080611a9557506000548310155b15611aa35780915050611b86565b600460008481526020019081526020016000206040518060600160405290816000820160009054906101000a900473ffffffffffffffffffffffffffffffffffffffff1673ffffffffffffffffffffffffffffffffffffffff1673ffffffffffffffffffffffffffffffffffffffff1681526020016000820160149054906101000a900467ffffffffffffffff1667ffffffffffffffff1667ffffffffffffffff16815260200160008201601c9054906101000a900460ff1615151515815250509050806040015115611b795780915050611b86565b611b8283612e12565b9150505b919050565b60606000600f60008481526020019081526020016000208054611bad906148a0565b80601f0160208091040260200160405190810160405280929190818152602001828054611bd9906148a0565b8015611c265780601f10611bfb57610100808354040283529160200191611c26565b820191906000526020600020905b815481529060010190602001808311611c0957829003601f168201915b50505050509050600081511115611c405780915050611c7c565b6000611c4b846134ed565b905080611c5785613694565b604051602001611c68929190614b69565b604051602081830303815290604052925050505b919050565b60088054611c8e906148a0565b80601f0160208091040260200160405190810160405280929190818152602001828054611cba906148a0565b8015611d075780601f10611cdc57610100808354040283529160200191611d07565b820191906000526020600020905b815481529060010190602001808311611cea57829003601f168201915b505050505081565b6000600760008473ffffffffffffffffffffffffffffffffffffffff1673ffffffffffffffffffffffffffffffffffffffff16815260200190815260200160002060008373ffffffffffffffffffffffffffffffffffffffff1673ffffffffffffffffffffffffffffffffffffffff16815260200190815260200160002060009054906101000a900460ff16905092915050565b6000611dad611265565b73ffffffffffffffffffffffffffffffffffffffff163373ffffffffffffffffffffffffffffffffffffffff1614905090565b6000600f60008481526020019081526020016000208054611e00906148a0565b905014611e42576040517f08c379a0000000000000000000000000000000000000000000000000000000008152600401611e3990614bd9565b60405180910390fd5b80600f60008481526020019081526020016000209081611e629190614da5565b505050565b600080549050600073ffffffffffffffffffffffffffffffffffffffff168473ffffffffffffffffffffffffffffffffffffffff1603611ed3576040517f2e07630000000000000000000000000000000000000000000000000000000000815260040160405180910390fd5b60008303611f0d576040517fb562e8dd00000000000000000000000000000000000000000000000000000000815260040160405180910390fd5b611f1a60008583866137f4565b82600560008673ffffffffffffffffffffffffffffffffffffffff1673ffffffffffffffffffffffffffffffffffffffff16815260200190815260200160002060000160008282829054906101000a900467ffffffffffffffff160192506101000a81548167ffffffffffffffff021916908367ffffffffffffffff16021790555082600560008673ffffffffffffffffffffffffffffffffffffffff1673ffffffffffffffffffffffffffffffffffffffff16815260200190815260200160002060000160088282829054906101000a900467ffffffffffffffff160192506101000a81548167ffffffffffffffff021916908367ffffffffffffffff160217905550836004600083815260200190815260200160002060000160006101000a81548173ffffffffffffffffffffffffffffffffffffffff021916908373ffffffffffffffffffffffffffffffffffffffff160217905550426004600083815260200190815260200160002060000160146101000a81548167ffffffffffffffff021916908367ffffffffffffffff1602179055506000819050600084820190506120db8673ffffffffffffffffffffffffffffffffffffffff1661337a565b156121a0575b818673ffffffffffffffffffffffffffffffffffffffff16600073ffffffffffffffffffffffffffffffffffffffff167fddf252ad1be2c89b69c2b068fc378daa952ba7f163c4a11628f55a4df523b3ef60405160405180910390a4612150600087848060010195508761339d565b612186576040517fd1a57ed600000000000000000000000000000000000000000000000000000000815260040160405180910390fd5b8082106120e157826000541461219b57600080fd5b61220b565b5b818060010192508673ffffffffffffffffffffffffffffffffffffffff16600073ffffffffffffffffffffffffffffffffffffffff167fddf252ad1be2c89b69c2b068fc378daa952ba7f163c4a11628f55a4df523b3ef60405160405180910390a48082106121a1575b81600081905550505061222160008583866137fa565b50505050565b600081612232612432565b11158015612241575060005482105b801561226e575060046000838152602001908152602001600020600001601c9054906101000a900460ff16155b9050919050565b600033905090565b826006600084815260200190815260200160002060006101000a81548173ffffffffffffffffffffffffffffffffffffffff021916908373ffffffffffffffffffffffffffffffffffffffff160217905550818373ffffffffffffffffffffffffffffffffffffffff168273ffffffffffffffffffffffffffffffffffffffff167f8c5be1e5ebec7d5bd14f71427d1e84f3dd0314c0f7b2291e5b200ac8c7c3b92560405160405180910390a4505050565b6000612339611265565b73ffffffffffffffffffffffffffffffffffffffff163373ffffffffffffffffffffffffffffffffffffffff1614905090565b6000600960009054906101000a900473ffffffffffffffffffffffffffffffffffffffff16905081600960006101000a81548173ffffffffffffffffffffffffffffffffffffffff021916908373ffffffffffffffffffffffffffffffffffffffff1602179055508173ffffffffffffffffffffffffffffffffffffffff168173ffffffffffffffffffffffffffffffffffffffff167f8292fce18fa69edf4db7b94ea2e58241df0ae57f97e0a6c9b29067028bf92d7660405160405180910390a35050565b600090565b600061244282612e12565b90508373ffffffffffffffffffffffffffffffffffffffff16816000015173ffffffffffffffffffffffffffffffffffffffff16146124ad576040517fa114810000000000000000000000000000000000000000000000000000000000815260040160405180910390fd5b60008473ffffffffffffffffffffffffffffffffffffffff166124ce612275565b73ffffffffffffffffffffffffffffffffffffffff1614806124fd57506124fc856124f7612275565b611d0f565b5b80612542575061250b612275565b73ffffffffffffffffffffffffffffffffffffffff1661252a84610966565b73ffffffffffffffffffffffffffffffffffffffff16145b90508061257b576040517f59c896be00000000000000000000000000000000000000000000000000000000815260040160405180910390fd5b600073ffffffffffffffffffffffffffffffffffffffff168473ffffffffffffffffffffffffffffffffffffffff16036125e1576040517fea553b3400000000000000000000000000000000000000000000000000000000815260040160405180910390fd5b6125ee85858560016137f4565b6125fa6000848761227d565b6001600560008773ffffffffffffffffffffffffffffffffffffffff1673ffffffffffffffffffffffffffffffffffffffff16815260200190815260200160002060000160008282829054906101000a900467ffffffffffffffff160392506101000a81548167ffffffffffffffff021916908367ffffffffffffffff1602179055506001600560008673ffffffffffffffffffffffffffffffffffffffff1673ffffffffffffffffffffffffffffffffffffffff16815260200190815260200160002060000160008282829054906101000a900467ffffffffffffffff160192506101000a81548167ffffffffffffffff021916908367ffffffffffffffff1602179055506000600460008581526020019081526020016000209050848160000160006101000a81548173ffffffffffffffffffffffffffffffffffffffff021916908373ffffffffffffffffffffffffffffffffffffffff160217905550428160000160146101000a81548167ffffffffffffffff021916908367ffffffffffffffff16021790555060006001850190506000600460008381526020019081526020016000209050600073ffffffffffffffffffffffffffffffffffffffff168160000160009054906101000a900473ffffffffffffffffffffffffffffffffffffffff1673ffffffffffffffffffffffffffffffffffffffff160361287957600054821461287857878160000160006101000a81548173ffffffffffffffffffffffffffffffffffffffff021916908373ffffffffffffffffffffffffffffffffffffffff16021790555084602001518160000160146101000a81548167ffffffffffffffff021916908367ffffffffffffffff1602179055505b5b505050828473ffffffffffffffffffffffffffffffffffffffff168673ffffffffffffffffffffffffffffffffffffffff167fddf252ad1be2c89b69c2b068fc378daa952ba7f163c4a11628f55a4df523b3ef60405160405180910390a46128e485858560016137fa565b5050505050565b60006128f683612e12565b905060008160000151905082156129d75760008173ffffffffffffffffffffffffffffffffffffffff16612928612275565b73ffffffffffffffffffffffffffffffffffffffff161480612957575061295682612951612275565b611d0f565b5b8061299c5750612965612275565b73ffffffffffffffffffffffffffffffffffffffff1661298486610966565b73ffffffffffffffffffffffffffffffffffffffff16145b9050806129d5576040517f59c896be00000000000000000000000000000000000000000000000000000000815260040160405180910390fd5b505b6129e58160008660016137f4565b6129f16000858361227d565b6000600560008373ffffffffffffffffffffffffffffffffffffffff1673ffffffffffffffffffffffffffffffffffffffff168152602001908152602001600020905060018160000160008282829054906101000a900467ffffffffffffffff160392506101000a81548167ffffffffffffffff021916908367ffffffffffffffff16021790555060018160000160108282829054906101000a900467ffffffffffffffff160192506101000a81548167ffffffffffffffff021916908367ffffffffffffffff1602179055506000600460008781526020019081526020016000209050828160000160006101000a81548173ffffffffffffffffffffffffffffffffffffffff021916908373ffffffffffffffffffffffffffffffffffffffff160217905550428160000160146101000a81548167ffffffffffffffff021916908367ffffffffffffffff160217905550600181600001601c6101000a81548160ff02191690831515021790555060006001870190506000600460008381526020019081526020016000209050600073ffffffffffffffffffffffffffffffffffffffff168160000160009054906101000a900473ffffffffffffffffffffffffffffffffffffffff1673ffffffffffffffffffffffffffffffffffffffff1603612c54576000548214612c5357848160000160006101000a81548173ffffffffffffffffffffffffffffffffffffffff021916908373ffffffffffffffffffffffffffffffffffffffff16021790555085602001518160000160146101000a81548167ffffffffffffffff021916908367ffffffffffffffff1602179055505b5b5050505083600073ffffffffffffffffffffffffffffffffffffffff168273ffffffffffffffffffffffffffffffffffffffff167fddf252ad1be2c89b69c2b068fc378daa952ba7f163c4a11628f55a4df523b3ef60405160405180910390a4612cc28160008660016137fa565b60016000815480929190600101919050555050505050565b6000612ce4611265565b73ffffffffffffffffffffffffffffffffffffffff163373ffffffffffffffffffffffffffffffffffffffff1614905090565b612710811115612d6257612710816040517f52498568000000000000000000000000000000000000000000000000000000008152600401612d59929190614eb2565b60405180910390fd5b81600a60006101000a81548173ffffffffffffffffffffffffffffffffffffffff021916908373ffffffffffffffffffffffffffffffffffffffff16021790555080600a60146101000a81548161ffff021916908361ffff1602179055508173ffffffffffffffffffffffffffffffffffffffff167f90d7ec04bcb8978719414f82e52e4cb651db41d0e6f8cea6118c2191e6183adb82604051612e069190613e07565b60405180910390a25050565b612e1a61394b565b600082905080612e28612432565b1161306657600054811015613065576000600460008381526020019081526020016000206040518060600160405290816000820160009054906101000a900473ffffffffffffffffffffffffffffffffffffffff1673ffffffffffffffffffffffffffffffffffffffff1673ffffffffffffffffffffffffffffffffffffffff1681526020016000820160149054906101000a900467ffffffffffffffff1667ffffffffffffffff1667ffffffffffffffff16815260200160008201601c9054906101000a900460ff1615151515815250509050806040015161306357600073ffffffffffffffffffffffffffffffffffffffff16816000015173ffffffffffffffffffffffffffffffffffffffff1614612f47578092505050613098565b5b60011561306257818060019003925050600460008381526020019081526020016000206040518060600160405290816000820160009054906101000a900473ffffffffffffffffffffffffffffffffffffffff1673ffffffffffffffffffffffffffffffffffffffff1673ffffffffffffffffffffffffffffffffffffffff1681526020016000820160149054906101000a900467ffffffffffffffff1667ffffffffffffffff1667ffffffffffffffff16815260200160008201601c9054906101000a900460ff1615151515815250509050600073ffffffffffffffffffffffffffffffffffffffff16816000015173ffffffffffffffffffffffffffffffffffffffff161461305d578092505050613098565b612f48565b5b505b5b6040517fdf2d9b4200000000000000000000000000000000000000000000000000000000815260040160405180910390fd5b919050565b60008083856130ac9190614edb565b9050809150600c81908060018154018082558091505060019003906000526020600020016000909190919091505582600d600083815260200190815260200160002090816130fa9190614da5565b50935093915050565b600061310d611265565b73ffffffffffffffffffffffffffffffffffffffff163373ffffffffffffffffffffffffffffffffffffffff1614905090565b60006008805461314f906148a0565b80601f016020809104026020016040519081016040528092919081815260200182805461317b906148a0565b80156131c85780601f1061319d576101008083540402835291602001916131c8565b820191906000526020600020905b8154815290600101906020018083116131ab57829003601f168201915b5050505050905081600890816131de9190614da5565b507fc9c7c3fe08b88b4df9d4d47ef47d2c43d55c025a0ba88ca442580ed9e7348a168183604051613210929190614f0f565b60405180910390a15050565b61271081111561326757612710816040517f5249856800000000000000000000000000000000000000000000000000000000815260040161325e929190614eb2565b60405180910390fd5b60405180604001604052808373ffffffffffffffffffffffffffffffffffffffff16815260200182815250600b600085815260200190815260200160002060008201518160000160006101000a81548173ffffffffffffffffffffffffffffffffffffffff021916908373ffffffffffffffffffffffffffffffffffffffff160217905550602082015181600101559050508173ffffffffffffffffffffffffffffffffffffffff16837f7365cf4122f072a3365c20d54eff9b38d73c096c28e1892ec8f5b0e403a0f12d836040516133409190613e07565b60405180910390a3505050565b6060613372838360405180606001604052806027815260200161513860279139613800565b905092915050565b6000808273ffffffffffffffffffffffffffffffffffffffff163b119050919050565b60008373ffffffffffffffffffffffffffffffffffffffff1663150b7a026133c3612275565b8786866040518563ffffffff1660e01b81526004016133e59493929190614f90565b6020604051808303816000875af192505050801561342157506040513d601f19601f8201168201806040525081019061341e9190614ff1565b60015b61349a573d8060008114613451576040519150601f19603f3d011682016040523d82523d6000602084013e613456565b606091505b506000815103613492576040517fd1a57ed600000000000000000000000000000000000000000000000000000000815260040160405180910390fd5b805181602001fd5b63150b7a0260e01b7bffffffffffffffffffffffffffffffffffffffffffffffffffffffff1916817bffffffffffffffffffffffffffffffffffffffffffffffffffffffff191614915050949350505050565b606060006134f9610f02565b90506000600c80548060200260200160405190810160405280929190818152602001828054801561354957602002820191906000526020600020905b815481526020019060010190808311613535575b5050505050905060005b828110156136515781818151811061356e5761356d6148d1565b5b602002602001015185101561363d57600d6000838381518110613594576135936148d1565b5b6020026020010151815260200190815260200160002080546135b5906148a0565b80601f01602080910402602001604051908101604052809291908181526020018280546135e1906148a0565b801561362e5780601f106136035761010080835404028352916020019161362e565b820191906000526020600020905b81548152906001019060200180831161361157829003601f168201915b5050505050935050505061368f565b60018161364a9190614edb565b9050613553565b50836040517f25e5fda40000000000000000000000000000000000000000000000000000000081526004016136869190613e07565b60405180910390fd5b919050565b6060600082036136db576040518060400160405280600181526020017f300000000000000000000000000000000000000000000000000000000000000081525090506137ef565b600082905060005b6000821461370d5780806136f690614ae5565b915050600a8261370691906149a0565b91506136e3565b60008167ffffffffffffffff81111561372957613728613a1b565b5b6040519080825280601f01601f19166020018201604052801561375b5781602001600182028036833780820191505090505b5090505b600085146137e857600182613774919061501e565b9150600a856137839190615052565b603061378f9190614edb565b60f81b8183815181106137a5576137a46148d1565b5b60200101907effffffffffffffffffffffffffffffffffffffffffffffffffffffffffffff1916908160001a905350600a856137e191906149a0565b945061375f565b8093505050505b919050565b50505050565b50505050565b60606000808573ffffffffffffffffffffffffffffffffffffffff168560405161382a91906150b4565b600060405180830381855af49150503d8060008114613865576040519150601f19603f3d011682016040523d82523d6000602084013e61386a565b606091505b509150915061387b86838387613886565b925050509392505050565b606083156138e85760008351036138e0576138a08561337a565b6138df576040517f08c379a00000000000000000000000000000000000000000000000000000000081526004016138d690615117565b60405180910390fd5b5b8290506138f3565b6138f283836138fb565b5b949350505050565b60008251111561390e5781518083602001fd5b806040517f08c379a00000000000000000000000000000000000000000000000000000000081526004016139429190613cdc565b60405180910390fd5b6040518060600160405280600073ffffffffffffffffffffffffffffffffffffffff168152602001600067ffffffffffffffff1681526020016000151581525090565b6000604051905090565b600080fd5b600080fd5b600073ffffffffffffffffffffffffffffffffffffffff82169050919050565b60006139cd826139a2565b9050919050565b6139dd816139c2565b81146139e857600080fd5b50565b6000813590506139fa816139d4565b92915050565b600080fd5b600080fd5b6000601f19601f8301169050919050565b7f4e487b7100000000000000000000000000000000000000000000000000000000600052604160045260246000fd5b613a5382613a0a565b810181811067ffffffffffffffff82111715613a7257613a71613a1b565b5b80604052505050565b6000613a8561398e565b9050613a918282613a4a565b919050565b600067ffffffffffffffff821115613ab157613ab0613a1b565b5b613aba82613a0a565b9050602081019050919050565b82818337600083830152505050565b6000613ae9613ae484613a96565b613a7b565b905082815260208101848484011115613b0557613b04613a05565b5b613b10848285613ac7565b509392505050565b600082601f830112613b2d57613b2c613a00565b5b8135613b3d848260208601613ad6565b91505092915050565b60008060408385031215613b5d57613b5c613998565b5b6000613b6b858286016139eb565b925050602083013567ffffffffffffffff811115613b8c57613b8b61399d565b5b613b9885828601613b18565b9150509250929050565b60007fffffffff0000000000000000000000000000000000000000000000000000000082169050919050565b613bd781613ba2565b8114613be257600080fd5b50565b600081359050613bf481613bce565b92915050565b600060208284031215613c1057613c0f613998565b5b6000613c1e84828501613be5565b91505092915050565b60008115159050919050565b613c3c81613c27565b82525050565b6000602082019050613c576000830184613c33565b92915050565b600081519050919050565b600082825260208201905092915050565b60005b83811015613c97578082015181840152602081019050613c7c565b60008484015250505050565b6000613cae82613c5d565b613cb88185613c68565b9350613cc8818560208601613c79565b613cd181613a0a565b840191505092915050565b60006020820190508181036000830152613cf68184613ca3565b905092915050565b6000819050919050565b613d1181613cfe565b8114613d1c57600080fd5b50565b600081359050613d2e81613d08565b92915050565b600060208284031215613d4a57613d49613998565b5b6000613d5884828501613d1f565b91505092915050565b613d6a816139c2565b82525050565b6000602082019050613d856000830184613d61565b92915050565b60008060408385031215613da257613da1613998565b5b6000613db0858286016139eb565b9250506020613dc185828601613d1f565b9150509250929050565b600060208284031215613de157613de0613998565b5b6000613def848285016139eb565b91505092915050565b613e0181613cfe565b82525050565b6000602082019050613e1c6000830184613df8565b92915050565b600080600060608486031215613e3b57613e3a613998565b5b6000613e49868287016139eb565b9350506020613e5a868287016139eb565b9250506040613e6b86828701613d1f565b9150509250925092565b60008060408385031215613e8c57613e8b613998565b5b6000613e9a85828601613d1f565b9250506020613eab85828601613d1f565b9150509250929050565b6000604082019050613eca6000830185613d61565b613ed76020830184613df8565b9392505050565b600061ffff82169050919050565b613ef581613ede565b82525050565b6000604082019050613f106000830185613d61565b613f1d6020830184613eec565b9392505050565b600067ffffffffffffffff821115613f3f57613f3e613a1b565b5b602082029050602081019050919050565b600080fd5b6000613f68613f6384613f24565b613a7b565b90508083825260208201905060208402830185811115613f8b57613f8a613f50565b5b835b81811015613fb45780613fa08882613d1f565b845260208401935050602081019050613f8d565b5050509392505050565b600082601f830112613fd357613fd2613a00565b5b8135613fe3848260208601613f55565b91505092915050565b60006020828403121561400257614001613998565b5b600082013567ffffffffffffffff8111156140205761401f61399d565b5b61402c84828501613fbe565b91505092915050565b600081519050919050565b600082825260208201905092915050565b6000819050602082019050919050565b61406a816139c2565b82525050565b600067ffffffffffffffff82169050919050565b61408d81614070565b82525050565b61409c81613c27565b82525050565b6060820160008201516140b86000850182614061565b5060208201516140cb6020850182614084565b5060408201516140de6040850182614093565b50505050565b60006140f083836140a2565b60608301905092915050565b6000602082019050919050565b600061411482614035565b61411e8185614040565b935061412983614051565b8060005b8381101561415a57815161414188826140e4565b975061414c836140fc565b92505060018101905061412d565b5085935050505092915050565b600060208201905081810360008301526141818184614109565b905092915050565b600067ffffffffffffffff8211156141a4576141a3613a1b565b5b6141ad82613a0a565b9050602081019050919050565b60006141cd6141c884614189565b613a7b565b9050828152602081018484840111156141e9576141e8613a05565b5b6141f4848285613ac7565b509392505050565b600082601f83011261421157614210613a00565b5b81356142218482602086016141ba565b91505092915050565b6000806000806080858703121561424457614243613998565b5b6000614252878288016139eb565b945050602061426387828801613d1f565b935050604085013567ffffffffffffffff8111156142845761428361399d565b5b61429087828801613b18565b925050606085013567ffffffffffffffff8111156142b1576142b061399d565b5b6142bd878288016141fc565b91505092959194509250565b600081519050919050565b600082825260208201905092915050565b6000819050602082019050919050565b6142fe81613cfe565b82525050565b600061431083836142f5565b60208301905092915050565b6000602082019050919050565b6000614334826142c9565b61433e81856142d4565b9350614349836142e5565b8060005b8381101561437a5781516143618882614304565b975061436c8361431c565b92505060018101905061434d565b5085935050505092915050565b600060208201905081810360008301526143a18184614329565b905092915050565b6000602082840312156143bf576143be613998565b5b600082013567ffffffffffffffff8111156143dd576143dc61399d565b5b6143e984828501613b18565b91505092915050565b60008060006060848603121561440b5761440a613998565b5b6000614419868287016139eb565b935050602061442a86828701613d1f565b925050604061443b86828701613d1f565b9150509250925092565b60008060006060848603121561445e5761445d613998565b5b600061446c86828701613d1f565b935050602061447d868287016139eb565b925050604061448e86828701613d1f565b9150509250925092565b6144a181613c27565b81146144ac57600080fd5b50565b6000813590506144be81614498565b92915050565b600080604083850312156144db576144da613998565b5b60006144e9858286016139eb565b92505060206144fa858286016144af565b9150509250929050565b600080fd5b60008083601f84011261451f5761451e613a00565b5b8235905067ffffffffffffffff81111561453c5761453b614504565b5b60208301915083602082028301111561455857614557613f50565b5b9250929050565b6000806020838503121561457657614575613998565b5b600083013567ffffffffffffffff8111156145945761459361399d565b5b6145a085828601614509565b92509250509250929050565b600081519050919050565b600082825260208201905092915050565b6000819050602082019050919050565b600081519050919050565b600082825260208201905092915050565b60006145ff826145d8565b61460981856145e3565b9350614619818560208601613c79565b61462281613a0a565b840191505092915050565b600061463983836145f4565b905092915050565b6000602082019050919050565b6000614659826145ac565b61466381856145b7565b935083602082028501614675856145c8565b8060005b858110156146b15784840389528151614692858261462d565b945061469d83614641565b925060208a01995050600181019050614679565b50829750879550505050505092915050565b600060208201905081810360008301526146dd818461464e565b905092915050565b600080600080608085870312156146ff576146fe613998565b5b600061470d878288016139eb565b945050602061471e878288016139eb565b935050604061472f87828801613d1f565b925050606085013567ffffffffffffffff8111156147505761474f61399d565b5b61475c878288016141fc565b91505092959194509250565b60608201600082015161477e6000850182614061565b5060208201516147916020850182614084565b5060408201516147a46040850182614093565b50505050565b60006060820190506147bf6000830184614768565b92915050565b600080604083850312156147dc576147db613998565b5b60006147ea858286016139eb565b92505060206147fb858286016139eb565b9150509250929050565b7f4e6f7420617574686f72697a656420746f206d696e742e000000000000000000600082015250565b600061483b601783613c68565b915061484682614805565b602082019050919050565b6000602082019050818103600083015261486a8161482e565b9050919050565b7f4e487b7100000000000000000000000000000000000000000000000000000000600052602260045260246000fd5b600060028204905060018216806148b857607f821691505b6020821081036148cb576148ca614871565b5b50919050565b7f4e487b7100000000000000000000000000000000000000000000000000000000600052603260045260246000fd5b7f4e487b7100000000000000000000000000000000000000000000000000000000600052601160045260246000fd5b600061493a82613cfe565b915061494583613cfe565b925082820261495381613cfe565b9150828204841483151761496a57614969614900565b5b5092915050565b7f4e487b7100000000000000000000000000000000000000000000000000000000600052601260045260246000fd5b60006149ab82613cfe565b91506149b683613cfe565b9250826149c6576149c5614971565b5b828204905092915050565b600080fd5b600080fd5b600080fd5b600080833560016020038436030381126149fd576149fc6149d1565b5b80840192508235915067ffffffffffffffff821115614a1f57614a1e6149d6565b5b602083019250600182023603831315614a3b57614a3a6149db565b5b509250929050565b600081905092915050565b6000614a5a8385614a43565b9350614a67838584613ac7565b82840190509392505050565b60008160601b9050919050565b6000614a8b82614a73565b9050919050565b6000614a9d82614a80565b9050919050565b614ab5614ab0826139c2565b614a92565b82525050565b6000614ac8828587614a4e565b9150614ad48284614aa4565b601482019150819050949350505050565b6000614af082613cfe565b91507fffffffffffffffffffffffffffffffffffffffffffffffffffffffffffffffff8203614b2257614b21614900565b5b600182019050919050565b600081905092915050565b6000614b4382613c5d565b614b4d8185614b2d565b9350614b5d818560208601613c79565b80840191505092915050565b6000614b758285614b38565b9150614b818284614b38565b91508190509392505050565b7f55524920616c7265616479207365740000000000000000000000000000000000600082015250565b6000614bc3600f83613c68565b9150614bce82614b8d565b602082019050919050565b60006020820190508181036000830152614bf281614bb6565b9050919050565b60008190508160005260206000209050919050565b60006020601f8301049050919050565b600082821b905092915050565b600060088302614c5b7fffffffffffffffffffffffffffffffffffffffffffffffffffffffffffffffff82614c1e565b614c658683614c1e565b95508019841693508086168417925050509392505050565b6000819050919050565b6000614ca2614c9d614c9884613cfe565b614c7d565b613cfe565b9050919050565b6000819050919050565b614cbc83614c87565b614cd0614cc882614ca9565b848454614c2b565b825550505050565b600090565b614ce5614cd8565b614cf0818484614cb3565b505050565b5b81811015614d1457614d09600082614cdd565b600181019050614cf6565b5050565b601f821115614d5957614d2a81614bf9565b614d3384614c0e565b81016020851015614d42578190505b614d56614d4e85614c0e565b830182614cf5565b50505b505050565b600082821c905092915050565b6000614d7c60001984600802614d5e565b1980831691505092915050565b6000614d958383614d6b565b9150826002028217905092915050565b614dae82613c5d565b67ffffffffffffffff811115614dc757614dc6613a1b565b5b614dd182546148a0565b614ddc828285614d18565b600060209050601f831160018114614e0f5760008415614dfd578287015190505b614e078582614d89565b865550614e6f565b601f198416614e1d86614bf9565b60005b82811015614e4557848901518255600182019150602085019450602081019050614e20565b86831015614e625784890151614e5e601f891682614d6b565b8355505b6001600288020188555050505b505050505050565b6000819050919050565b6000614e9c614e97614e9284614e77565b614c7d565b613cfe565b9050919050565b614eac81614e81565b82525050565b6000604082019050614ec76000830185614ea3565b614ed46020830184613df8565b9392505050565b6000614ee682613cfe565b9150614ef183613cfe565b9250828201905080821115614f0957614f08614900565b5b92915050565b60006040820190508181036000830152614f298185613ca3565b90508181036020830152614f3d8184613ca3565b90509392505050565b600082825260208201905092915050565b6000614f62826145d8565b614f6c8185614f46565b9350614f7c818560208601613c79565b614f8581613a0a565b840191505092915050565b6000608082019050614fa56000830187613d61565b614fb26020830186613d61565b614fbf6040830185613df8565b8181036060830152614fd18184614f57565b905095945050505050565b600081519050614feb81613bce565b92915050565b60006020828403121561500757615006613998565b5b600061501584828501614fdc565b91505092915050565b600061502982613cfe565b915061503483613cfe565b925082820390508181111561504c5761504b614900565b5b92915050565b600061505d82613cfe565b915061506883613cfe565b92508261507857615077614971565b5b828206905092915050565b600061508e826145d8565b6150988185614a43565b93506150a8818560208601613c79565b80840191505092915050565b60006150c08284615083565b915081905092915050565b7f416464726573733a2063616c6c20746f206e6f6e2d636f6e7472616374000000600082015250565b6000615101601d83613c68565b915061510c826150cb565b602082019050919050565b60006020820190508181036000830152615130816150f4565b905091905056fe416464726573733a206c6f772d6c6576656c2064656c65676174652063616c6c206661696c6564a26469706673582212204f0b782d14b3ce1b452329af8d379ba6b36203d668ce14b5c06d92c2f36b5e3464736f6c63430008130033",
  "linkReferences": {},
  "deployedLinkReferences": {}
}