{
  "_format": "hh-sol-artifact-1",
  "contractName": "ERC721Base",
  "sourceName": "@thirdweb-dev/contracts/base/ERC721Base.sol",
  "abi": [
    {
      "inputs": [
        {
          "internalType": "address",
          "name": "_defaultAdmin",
          "type": "address"
        },
        {
          "internalType": "string",
          "name": "_name",
          "type": "string"
        },
        {
          "internalType": "string",
          "name": "_symbol",
          "type": "string"
        },
        {
          "internalType": "address",
          "name": "_royaltyRecipient",
          "type": "address"
        },
        {
          "internalType": "uint128",
          "name": "_royaltyBps",
          "type": "uint128"
        }
      ],
      "stateMutability": "nonpayable",
      "type": "constructor"
    },
    {
      "inputs": [],
      "name": "ApprovalCallerNotOwnerNorApproved",
      "type": "error"
    },
    {
      "inputs": [],
      "name": "ApprovalQueryForNonexistentToken",
      "type": "error"
    },
    {
      "inputs": [],
      "name": "ApprovalToCurrentOwner",
      "type": "error"
    },
    {
      "inputs": [],
      "name": "ApproveToCaller",
      "type": "error"
    },
    {
      "inputs": [],
      "name": "BalanceQueryForZeroAddress",
      "type": "error"
    },
    {
      "inputs": [
        {
          "internalType": "uint256",
          "name": "index",
          "type": "uint256"
        }
      ],
      "name": "BatchMintInvalidBatchId",
      "type": "error"
    },
    {
      "inputs": [
        {
          "internalType": "uint256",
          "name": "tokenId",
          "type": "uint256"
        }
      ],
      "name": "BatchMintInvalidTokenId",
      "type": "error"
    },
    {
      "inputs": [
        {
          "internalType": "uint256",
          "name": "batchId",
          "type": "uint256"
        }
      ],
      "name": "BatchMintMetadataFrozen",
      "type": "error"
    },
    {
      "inputs": [],
      "name": "ContractMetadataUnauthorized",
      "type": "error"
    },
    {
      "inputs": [],
      "name": "InvalidQueryRange",
      "type": "error"
    },
    {
      "inputs": [],
      "name": "MintToZeroAddress",
      "type": "error"
    },
    {
      "inputs": [],
      "name": "MintZeroQuantity",
      "type": "error"
    },
    {
      "inputs": [],
      "name": "OwnableUnauthorized",
      "type": "error"
    },
    {
      "inputs": [],
      "name": "OwnerQueryForNonexistentToken",
      "type": "error"
    },
    {
      "inputs": [
        {
          "internalType": "uint256",
          "name": "max",
          "type": "uint256"
        },
        {
          "internalType": "uint256",
          "name": "actual",
          "type": "uint256"
        }
      ],
      "name": "RoyaltyExceededMaxFeeBps",
      "type": "error"
    },
    {
      "inputs": [
        {
          "internalType": "address",
          "name": "recipient",
          "type": "address"
        }
      ],
      "name": "RoyaltyInvalidRecipient",
      "type": "error"
    },
    {
      "inputs": [],
      "name": "RoyaltyUnauthorized",
      "type": "error"
    },
    {
      "inputs": [],
      "name": "TransferCallerNotOwnerNorApproved",
      "type": "error"
    },
    {
      "inputs": [],
      "name": "TransferFromIncorrectOwner",
      "type": "error"
    },
    {
      "inputs": [],
      "name": "TransferToNonERC721ReceiverImplementer",
      "type": "error"
    },
    {
      "inputs": [],
      "name": "TransferToZeroAddress",
      "type": "error"
    },
    {
      "inputs": [],
      "name": "URIQueryForNonexistentToken",
      "type": "error"
    },
    {
      "anonymous": false,
      "inputs": [
        {
          "indexed": true,
          "internalType": "address",
          "name": "owner",
          "type": "address"
        },
        {
          "indexed": true,
          "internalType": "address",
          "name": "approved",
          "type": "address"
        },
        {
          "indexed": true,
          "internalType": "uint256",
          "name": "tokenId",
          "type": "uint256"
        }
      ],
      "name": "Approval",
      "type": "event"
    },
    {
      "anonymous": false,
      "inputs": [
        {
          "indexed": true,
          "internalType": "address",
          "name": "owner",
          "type": "address"
        },
        {
          "indexed": true,
          "internalType": "address",
          "name": "operator",
          "type": "address"
        },
        {
          "indexed": false,
          "internalType": "bool",
          "name": "approved",
          "type": "bool"
        }
      ],
      "name": "ApprovalForAll",
      "type": "event"
    },
    {
      "anonymous": false,
      "inputs": [
        {
          "indexed": false,
          "internalType": "uint256",
          "name": "_fromTokenId",
          "type": "uint256"
        },
        {
          "indexed": false,
          "internalType": "uint256",
          "name": "_toTokenId",
          "type": "uint256"
        }
      ],
      "name": "BatchMetadataUpdate",
      "type": "event"
    },
    {
      "anonymous": false,
      "inputs": [
        {
          "indexed": false,
          "internalType": "string",
          "name": "prevURI",
          "type": "string"
        },
        {
          "indexed": false,
          "internalType": "string",
          "name": "newURI",
          "type": "string"
        }
      ],
      "name": "ContractURIUpdated",
      "type": "event"
    },
    {
      "anonymous": false,
      "inputs": [
        {
          "indexed": true,
          "internalType": "address",
          "name": "newRoyaltyRecipient",
          "type": "address"
        },
        {
          "indexed": false,
          "internalType": "uint256",
          "name": "newRoyaltyBps",
          "type": "uint256"
        }
      ],
      "name": "DefaultRoyalty",
      "type": "event"
    },
    {
      "anonymous": false,
      "inputs": [],
      "name": "MetadataFrozen",
      "type": "event"
    },
    {
      "anonymous": false,
      "inputs": [
        {
          "indexed": true,
          "internalType": "address",
          "name": "prevOwner",
          "type": "address"
        },
        {
          "indexed": true,
          "internalType": "address",
          "name": "newOwner",
          "type": "address"
        }
      ],
      "name": "OwnerUpdated",
      "type": "event"
    },
    {
      "anonymous": false,
      "inputs": [
        {
          "indexed": true,
          "internalType": "uint256",
          "name": "tokenId",
          "type": "uint256"
        },
        {
          "indexed": true,
          "internalType": "address",
          "name": "royaltyRecipient",
          "type": "address"
        },
        {
          "indexed": false,
          "internalType": "uint256",
          "name": "royaltyBps",
          "type": "uint256"
        }
      ],
      "name": "RoyaltyForToken",
      "type": "event"
    },
    {
      "anonymous": false,
      "inputs": [
        {
          "indexed": true,
          "internalType": "address",
          "name": "from",
          "type": "address"
        },
        {
          "indexed": true,
          "internalType": "address",
          "name": "to",
          "type": "address"
        },
        {
          "indexed": true,
          "internalType": "uint256",
          "name": "tokenId",
          "type": "uint256"
        }
      ],
      "name": "Transfer",
      "type": "event"
    },
    {
      "inputs": [
        {
          "internalType": "address",
          "name": "to",
          "type": "address"
        },
        {
          "internalType": "uint256",
          "name": "tokenId",
          "type": "uint256"
        }
      ],
      "name": "approve",
      "outputs": [],
      "stateMutability": "nonpayable",
      "type": "function"
    },
    {
      "inputs": [
        {
          "internalType": "address",
          "name": "owner",
          "type": "address"
        }
      ],
      "name": "balanceOf",
      "outputs": [
        {
          "internalType": "uint256",
          "name": "",
          "type": "uint256"
        }
      ],
      "stateMutability": "view",
      "type": "function"
    },
    {
      "inputs": [
        {
          "internalType": "uint256",
          "name": "",
          "type": "uint256"
        }
      ],
      "name": "batchFrozen",
      "outputs": [
        {
          "internalType": "bool",
          "name": "",
          "type": "bool"
        }
      ],
      "stateMutability": "view",
      "type": "function"
    },
    {
      "inputs": [
        {
          "internalType": "address",
          "name": "_to",
          "type": "address"
        },
        {
          "internalType": "uint256",
          "name": "_quantity",
          "type": "uint256"
        },
        {
          "internalType": "string",
          "name": "_baseURI",
          "type": "string"
        },
        {
          "internalType": "bytes",
          "name": "_data",
          "type": "bytes"
        }
      ],
      "name": "batchMintTo",
      "outputs": [],
      "stateMutability": "nonpayable",
      "type": "function"
    },
    {
      "inputs": [
        {
          "internalType": "uint256",
          "name": "_tokenId",
          "type": "uint256"
        }
      ],
      "name": "burn",
      "outputs": [],
      "stateMutability": "nonpayable",
      "type": "function"
    },
    {
      "inputs": [],
      "name": "contractURI",
      "outputs": [
        {
          "internalType": "string",
          "name": "",
          "type": "string"
        }
      ],
      "stateMutability": "view",
      "type": "function"
    },
    {
      "inputs": [
        {
          "internalType": "uint256",
          "name": "tokenId",
          "type": "uint256"
        }
      ],
      "name": "explicitOwnershipOf",
      "outputs": [
        {
          "components": [
            {
              "internalType": "address",
              "name": "addr",
              "type": "address"
            },
            {
              "internalType": "uint64",
              "name": "startTimestamp",
              "type": "uint64"
            },
            {
              "internalType": "bool",
              "name": "burned",
              "type": "bool"
            }
          ],
          "internalType": "struct IERC721A.TokenOwnership",
          "name": "",
          "type": "tuple"
        }
      ],
      "stateMutability": "view",
      "type": "function"
    },
    {
      "inputs": [
        {
          "internalType": "uint256[]",
          "name": "tokenIds",
          "type": "uint256[]"
        }
      ],
      "name": "explicitOwnershipsOf",
      "outputs": [
        {
          "components": [
            {
              "internalType": "address",
              "name": "addr",
              "type": "address"
            },
            {
              "internalType": "uint64",
              "name": "startTimestamp",
              "type": "uint64"
            },
            {
              "internalType": "bool",
              "name": "burned",
              "type": "bool"
            }
          ],
          "internalType": "struct IERC721A.TokenOwnership[]",
          "name": "",
          "type": "tuple[]"
        }
      ],
      "stateMutability": "view",
      "type": "function"
    },
    {
      "inputs": [
        {
          "internalType": "uint256",
          "name": "tokenId",
          "type": "uint256"
        }
      ],
      "name": "getApproved",
      "outputs": [
        {
          "internalType": "address",
          "name": "",
          "type": "address"
        }
      ],
      "stateMutability": "view",
      "type": "function"
    },
    {
      "inputs": [],
      "name": "getBaseURICount",
      "outputs": [
        {
          "internalType": "uint256",
          "name": "",
          "type": "uint256"
        }
      ],
      "stateMutability": "view",
      "type": "function"
    },
    {
      "inputs": [
        {
          "internalType": "uint256",
          "name": "_index",
          "type": "uint256"
        }
      ],
      "name": "getBatchIdAtIndex",
      "outputs": [
        {
          "internalType": "uint256",
          "name": "",
          "type": "uint256"
        }
      ],
      "stateMutability": "view",
      "type": "function"
    },
    {
      "inputs": [],
      "name": "getDefaultRoyaltyInfo",
      "outputs": [
        {
          "internalType": "address",
          "name": "",
          "type": "address"
        },
        {
          "internalType": "uint16",
          "name": "",
          "type": "uint16"
        }
      ],
      "stateMutability": "view",
      "type": "function"
    },
    {
      "inputs": [
        {
          "internalType": "uint256",
          "name": "_tokenId",
          "type": "uint256"
        }
      ],
      "name": "getRoyaltyInfoForToken",
      "outputs": [
        {
          "internalType": "address",
          "name": "",
          "type": "address"
        },
        {
          "internalType": "uint16",
          "name": "",
          "type": "uint16"
        }
      ],
      "stateMutability": "view",
      "type": "function"
    },
    {
      "inputs": [
        {
          "internalType": "address",
          "name": "owner",
          "type": "address"
        },
        {
          "internalType": "address",
          "name": "operator",
          "type": "address"
        }
      ],
      "name": "isApprovedForAll",
      "outputs": [
        {
          "internalType": "bool",
          "name": "",
          "type": "bool"
        }
      ],
      "stateMutability": "view",
      "type": "function"
    },
    {
      "inputs": [
        {
          "internalType": "address",
          "name": "_operator",
          "type": "address"
        },
        {
          "internalType": "uint256",
          "name": "_tokenId",
          "type": "uint256"
        }
      ],
      "name": "isApprovedOrOwner",
      "outputs": [
        {
          "internalType": "bool",
          "name": "isApprovedOrOwnerOf",
          "type": "bool"
        }
      ],
      "stateMutability": "view",
      "type": "function"
    },
    {
      "inputs": [
        {
          "internalType": "address",
          "name": "_to",
          "type": "address"
        },
        {
          "internalType": "string",
          "name": "_tokenURI",
          "type": "string"
        }
      ],
      "name": "mintTo",
      "outputs": [],
      "stateMutability": "nonpayable",
      "type": "function"
    },
    {
      "inputs": [
        {
          "internalType": "bytes[]",
          "name": "data",
          "type": "bytes[]"
        }
      ],
      "name": "multicall",
      "outputs": [
        {
          "internalType": "bytes[]",
          "name": "results",
          "type": "bytes[]"
        }
      ],
      "stateMutability": "nonpayable",
      "type": "function"
    },
    {
      "inputs": [],
      "name": "name",
      "outputs": [
        {
          "internalType": "string",
          "name": "",
          "type": "string"
        }
      ],
      "stateMutability": "view",
      "type": "function"
    },
    {
      "inputs": [],
      "name": "nextTokenIdToMint",
      "outputs": [
        {
          "internalType": "uint256",
          "name": "",
          "type": "uint256"
        }
      ],
      "stateMutability": "view",
      "type": "function"
    },
    {
      "inputs": [],
      "name": "owner",
      "outputs": [
        {
          "internalType": "address",
          "name": "",
          "type": "address"
        }
      ],
      "stateMutability": "view",
      "type": "function"
    },
    {
      "inputs": [
        {
          "internalType": "uint256",
          "name": "tokenId",
          "type": "uint256"
        }
      ],
      "name": "ownerOf",
      "outputs": [
        {
          "internalType": "address",
          "name": "",
          "type": "address"
        }
      ],
      "stateMutability": "view",
      "type": "function"
    },
    {
      "inputs": [
        {
          "internalType": "uint256",
          "name": "tokenId",
          "type": "uint256"
        },
        {
          "internalType": "uint256",
          "name": "salePrice",
          "type": "uint256"
        }
      ],
      "name": "royaltyInfo",
      "outputs": [
        {
          "internalType": "address",
          "name": "receiver",
          "type": "address"
        },
        {
          "internalType": "uint256",
          "name": "royaltyAmount",
          "type": "uint256"
        }
      ],
      "stateMutability": "view",
      "type": "function"
    },
    {
      "inputs": [
        {
          "internalType": "address",
          "name": "from",
          "type": "address"
        },
        {
          "internalType": "address",
          "name": "to",
          "type": "address"
        },
        {
          "internalType": "uint256",
          "name": "tokenId",
          "type": "uint256"
        }
      ],
      "name": "safeTransferFrom",
      "outputs": [],
      "stateMutability": "nonpayable",
      "type": "function"
    },
    {
      "inputs": [
        {
          "internalType": "address",
          "name": "from",
          "type": "address"
        },
        {
          "internalType": "address",
          "name": "to",
          "type": "address"
        },
        {
          "internalType": "uint256",
          "name": "tokenId",
          "type": "uint256"
        },
        {
          "internalType": "bytes",
          "name": "_data",
          "type": "bytes"
        }
      ],
      "name": "safeTransferFrom",
      "outputs": [],
      "stateMutability": "nonpayable",
      "type": "function"
    },
    {
      "inputs": [
        {
          "internalType": "address",
          "name": "operator",
          "type": "address"
        },
        {
          "internalType": "bool",
          "name": "approved",
          "type": "bool"
        }
      ],
      "name": "setApprovalForAll",
      "outputs": [],
      "stateMutability": "nonpayable",
      "type": "function"
    },
    {
      "inputs": [
        {
          "internalType": "string",
          "name": "_uri",
          "type": "string"
        }
      ],
      "name": "setContractURI",
      "outputs": [],
      "stateMutability": "nonpayable",
      "type": "function"
    },
    {
      "inputs": [
        {
          "internalType": "address",
          "name": "_royaltyRecipient",
          "type": "address"
        },
        {
          "internalType": "uint256",
          "name": "_royaltyBps",
          "type": "uint256"
        }
      ],
      "name": "setDefaultRoyaltyInfo",
      "outputs": [],
      "stateMutability": "nonpayable",
      "type": "function"
    },
    {
      "inputs": [
        {
          "internalType": "address",
          "name": "_newOwner",
          "type": "address"
        }
      ],
      "name": "setOwner",
      "outputs": [],
      "stateMutability": "nonpayable",
      "type": "function"
    },
    {
      "inputs": [
        {
          "internalType": "uint256",
          "name": "_tokenId",
          "type": "uint256"
        },
        {
          "internalType": "address",
          "name": "_recipient",
          "type": "address"
        },
        {
          "internalType": "uint256",
          "name": "_bps",
          "type": "uint256"
        }
      ],
      "name": "setRoyaltyInfoForToken",
      "outputs": [],
      "stateMutability": "nonpayable",
      "type": "function"
    },
    {
      "inputs": [
        {
          "internalType": "bytes4",
          "name": "interfaceId",
          "type": "bytes4"
        }
      ],
      "name": "supportsInterface",
      "outputs": [
        {
          "internalType": "bool",
          "name": "",
          "type": "bool"
        }
      ],
      "stateMutability": "view",
      "type": "function"
    },
    {
      "inputs": [],
      "name": "symbol",
      "outputs": [
        {
          "internalType": "string",
          "name": "",
          "type": "string"
        }
      ],
      "stateMutability": "view",
      "type": "function"
    },
    {
      "inputs": [
        {
          "internalType": "uint256",
          "name": "_tokenId",
          "type": "uint256"
        }
      ],
      "name": "tokenURI",
      "outputs": [
        {
          "internalType": "string",
          "name": "",
          "type": "string"
        }
      ],
      "stateMutability": "view",
      "type": "function"
    },
    {
      "inputs": [
        {
          "internalType": "address",
          "name": "owner",
          "type": "address"
        }
      ],
      "name": "tokensOfOwner",
      "outputs": [
        {
          "internalType": "uint256[]",
          "name": "",
          "type": "uint256[]"
        }
      ],
      "stateMutability": "view",
      "type": "function"
    },
    {
      "inputs": [
        {
          "internalType": "address",
          "name": "owner",
          "type": "address"
        },
        {
          "internalType": "uint256",
          "name": "start",
          "type": "uint256"
        },
        {
          "internalType": "uint256",
          "name": "stop",
          "type": "uint256"
        }
      ],
      "name": "tokensOfOwnerIn",
      "outputs": [
        {
          "internalType": "uint256[]",
          "name": "",
          "type": "uint256[]"
        }
      ],
      "stateMutability": "view",
      "type": "function"
    },
    {
      "inputs": [],
      "name": "totalSupply",
      "outputs": [
        {
          "internalType": "uint256",
          "name": "",
          "type": "uint256"
        }
      ],
      "stateMutability": "view",
      "type": "function"
    },
    {
      "inputs": [
        {
          "internalType": "address",
          "name": "from",
          "type": "address"
        },
        {
          "internalType": "address",
          "name": "to",
          "type": "address"
        },
        {
          "internalType": "uint256",
          "name": "tokenId",
          "type": "uint256"
        }
      ],
      "name": "transferFrom",
      "outputs": [],
      "stateMutability": "nonpayable",
      "type": "function"
    }
  ],
  "bytecode": "0x60806040523462000402576200314e803803806200001d8162000407565b928339810160a082820312620004025762000038826200042d565b60208381015190916001600160401b03918281116200040257846200005f91870162000442565b9360408601519083821162000402576200007b91870162000442565b60806200008b606088016200042d565b960151946001600160801b03861693848703620004025781518181116200031457600254906001938483811c93168015620003f7575b89841014620002f3578190601f93848111620003a0575b50899084831160011462000336576000926200032a575b5050600019600383901b1c191690841b176002555b8351918211620003145760039384548481811c9116801562000309575b89821014620002f357828111620002a8575b5087918311600114620002415792829391839260009462000235575b50501b9160001990841b1c19161790555b6000808055600980546001600160a01b039384166001600160a01b0319821681179092556040519792908416907f8292fce18fa69edf4db7b94ea2e58241df0ae57f97e0a6c9b29067028bf92d769080a3612710958684116200021a57507f90d7ec04bcb8978719414f82e52e4cb651db41d0e6f8cea6118c2191e6183adb949550169384600a549161ffff60a01b9060a01b169160018060b01b0319161717600a55604051908152a2604051612c999081620004b58239f35b6044908488630a4930ad60e31b835260048301526024820152fd5b0151925038806200014f565b90601f198316918560005283896000209360005b8b8883831062000290575050501062000277575b505050811b01905562000160565b015160001983861b60f8161c1916905538808062000269565b86860151885590960195948501948793500162000255565b85600052886000208380860160051c8201928b8710620002e9575b0160051c019085905b828110620002dc57505062000133565b60008155018590620002cc565b92508192620002c3565b634e487b7160e01b600052602260045260246000fd5b90607f169062000121565b634e487b7160e01b600052604160045260246000fd5b015190503880620000ef565b90869350601f1983169160026000528b6000209260005b8d8282106200038957505084116200036f575b505050811b0160025562000104565b015160001960f88460031b161c1916905538808062000360565b8385015186558a979095019493840193016200034d565b9091506002600052896000208480850160051c8201928c8610620003ed575b918891869594930160051c01915b828110620003dd575050620000d8565b60008155859450889101620003cd565b92508192620003bf565b92607f1692620000c1565b600080fd5b6040519190601f01601f191682016001600160401b038111838210176200031457604052565b51906001600160a01b03821682036200040257565b919080601f84011215620004025782516001600160401b038111620003145760209062000478601f8201601f1916830162000407565b92818452828287010111620004025760005b818110620004a057508260009394955001015290565b85810183015184820184015282016200048a56fe6080604052600436101561001257600080fd5b60003560e01c806275a3171461025657806301ffc9a71461025157806306fdde031461024c578063081812fc14610247578063095ea7b31461024257806313af40351461023d57806318160ddd1461023857806323b872dd146102335780632419f51b1461022e5780632a55205a146102295780633b1475a71461022457806342842e0e1461021f57806342966c681461021a578063430c2081146102155780634cc157df146102105780635bbb21771461020b578063600dd5ea146102065780636352211e1461020157806363b45e2d146101fc57806370a08231146101f7578063754a81d9146101f257806383040532146101ed5780638462151c146101e85780638da5cb5b146101e3578063938e3d7b146101de57806395d89b41146101d957806399a2557a146101d45780639bcf7a15146101cf578063a22cb465146101ca578063ac9650d8146101c5578063b24f2d39146101c0578063b88d4fde146101bb578063c23dc68f146101b6578063c87b56dd146101b1578063e8a3d485146101ac5763e985e9c5146101a757600080fd5b6119d7565b6119bb565b6117ec565b61179e565b611750565b61171a565b6116b5565b6115ab565b6114c2565b61148a565b6113e3565b611250565b611227565b61115a565b6110ee565b610f58565b610f2d565b610f0f565b610edf565b610e1b565b610d86565b610cc3565b610c24565b6109b9565b610991565b610973565b610919565b6108b0565b610899565b610841565b6107bf565b61071d565b6106ed565b610608565b610529565b610389565b600435906001600160a01b038216820361027157565b600080fd5b602435906001600160a01b038216820361027157565b634e487b7160e01b600052604160045260246000fd5b604081019081106001600160401b038211176102bd57604052565b61028c565b606081019081106001600160401b038211176102bd57604052565b602081019081106001600160401b038211176102bd57604052565b90601f801991011681019081106001600160401b038211176102bd57604052565b6001600160401b0381116102bd57601f01601f191660200190565b92919261034082610319565b9161034e60405193846102f8565b829481845281830111610271578281602093846000960137010152565b9080601f830112156102715781602061038693359101610334565b90565b34610271576040366003190112610271576103a261025b565b6001600160401b03602435818111610271576103c290369060040161036b565b916103d860018060a01b03600954163314611aa7565b600091825490818452602091600f83526103f5604086205461181f565b6104e0578452600f8252604084209185519182116102bd576104218261041b855461181f565b85611b77565b80601f831160011461046d57508190859661045f9692610462575b50508160011b916000199060031b1c19161790555b610459611af3565b90611dcb565b80f35b01519050388061043c565b90601f1983169661048385600052602060002090565b9287905b8982106104c85750509083929160019461045f9899106104af575b505050811b019055610451565b015160001960f88460031b161c191690553880806104a2565b80600185968294968601518155019501930190610487565b60405162461bcd60e51b815260048101849052600f60248201526e15549248185b1c9958591e481cd95d608a1b6044820152606490fd5b6001600160e01b031981160361027157565b3461027157602036600319011261027157602060043561054881610517565b63ffffffff60e01b166301ffc9a760e01b811490811561059e575b811561058d575b811561057c575b506040519015158152f35b63152a902d60e11b14905038610571565b635b5e139f60e01b8114915061056a565b6380ac58cd60e01b81149150610563565b60005b8381106105c25750506000910152565b81810151838201526020016105b2565b906020916105eb815180928185528580860191016105af565b601f01601f1916010190565b9060206103869281815201906105d2565b34610271576000806003193601126106ea57604051908060025461062b8161181f565b808552916001918083169081156106c05750600114610665575b61066185610655818703826102f8565b604051918291826105f7565b0390f35b9250600283527f405787fa12a823e0f2b7631cc41b3ba8828b3321ca811111fa75cd3aa3bb5ace5b8284106106a857505050810160200161065582610661610645565b8054602085870181019190915290930192810161068d565b8695506106619693506020925061065594915060ff191682840152151560051b8201019293610645565b80fd5b3461027157602036600319011261027157602061070b600435611d03565b6040516001600160a01b039091168152f35b346102715760403660031901126102715761073661025b565b6001600160a01b036024358161074b82611c62565b511680928416146107ad57813303610769575b6107679261236e565b005b6000828152600760209081526040808320338452909152902061079690610792905b5460ff1690565b1590565b1561075e576040516367d9dca160e11b8152600490fd5b60405163250fdee360e21b8152600490fd5b34610271576020366003190112610271576107d861025b565b600954906001600160a01b03808316913383900361082f571680926bffffffffffffffffffffffff60a01b16176009557f8292fce18fa69edf4db7b94ea2e58241df0ae57f97e0a6c9b29067028bf92d76600080a3005b6040516316ccb9cb60e11b8152600490fd5b346102715760003660031901126102715760206000546001549003604051908152f35b6060906003190112610271576001600160a01b0390600435828116810361027157916024359081168103610271579060443590565b34610271576107676108aa36610864565b91612148565b3461027157602036600319011261027157600435600c5481101561090157602090600c6000527fdf6966c971051c3d54ec59162606531493a51404a002842f56009d7e5cf4a8c70154604051908152f35b60249060405190630793127760e11b82526004820152fd5b346102715760403660031901126102715760243561ffff61093b600435612a1c565b919091169182810292818404149015171561096e57604080516001600160a01b0390921682526127109092046020820152f35b61281f565b34610271576000366003190112610271576020600054604051908152f35b34610271576107676109a236610864565b90604051926109b0846102dd565b60008452611d5c565b34610271576020366003190112610271576004356109d681611c62565b80516001600160a01b039081169081903382148015610be4575b8015610bc4575b15610bb257600093610a098387612321565b6001600160a01b0383166000908152600560205260409020610ab390610a69610a4c610a3c83546001600160401b031690565b600019016001600160401b031690565b825467ffffffffffffffff19166001600160401b03909116178255565b8054610a8b9060801c6001600160401b03165b6001016001600160401b031690565b815467ffffffffffffffff60801b191660809190911b67ffffffffffffffff60801b16179055565b610b09610aca876000526004602052604060002090565b80546001600160a01b0319166001600160a01b038616178155610af66001600160401b03421682611da0565b805460ff60e01b1916600160e01b179055565b60018601610b21816000526004602052604060002090565b80549093166001600160a01b031615610b5f575b50505050600080516020612c448339815191528280a4610767610b5a60015460010190565b600155565b855403610b6d575b80610b35565b81546001600160a01b0319166001600160a01b03909316929092178155610baa91610ba4906020905b01516001600160401b031690565b90611da0565b388080610b67565b604051632ce44b5f60e11b8152600490fd5b5033610bde610bd287611d03565b6001600160a01b031690565b146109f7565b50610c1f61078b33610c088560018060a01b03166000526007602052604060002090565b9060018060a01b0316600052602052604060002090565b6109f0565b34610271576040366003190112610271576020610c3f61025b565b602435906001600160a01b0380610c5584611c62565b51169281831692848414948515610c93575b50508315610c7d575b5050506040519015158152f35b610c8991929350611d03565b1614388080610c70565b60009081526007875260408082206001600160a01b03939093168252602092909252205460ff1693503880610c67565b3461027157602036600319011261027157610cdf600435612a1c565b604080516001600160a01b0393909316835261ffff91909116602083015290f35b6001600160401b0381116102bd5760051b60200190565b6020908160408183019282815285518094520193019160005b828110610d3e575050505090565b9091929382606082610d7a60019489516040809160018060a01b0381511684526001600160401b03602082015116602085015201511515910152565b01950193929101610d30565b3461027157602080600319360112610271576004356001600160401b038111610271573660238201121561027157806004013590610dc382610d00565b91610dd160405193846102f8565b80835260248484019160051b8301019136831161027157602401905b828210610e0c57610661610e00856125e7565b60405191829182610d17565b81358152908401908401610ded565b3461027157604036600319011261027157610e3461025b565b600954602435916001600160a01b039182163303610ecd57612710808411610eaf5750600a80546001600160b01b0319169190921690811760a084901b61ffff60a01b1617909155604051918252907f90d7ec04bcb8978719414f82e52e4cb651db41d0e6f8cea6118c2191e6183adb9080602081010390a2005b6044908460405191630a4930ad60e31b835260048301526024820152fd5b604051636fae358160e11b8152600490fd5b346102715760203660031901126102715760206001600160a01b03610f05600435611c62565b5116604051908152f35b34610271576000366003190112610271576020600c54604051908152f35b34610271576020366003190112610271576020610f50610f4b61025b565b611bcb565b604051908152f35b3461027157608036600319011261027157610f7161025b565b602435604435916001600160401b039283811161027157610f9690369060040161036b565b9160643584811161027157610faf90369060040161036b565b91610fc560018060a01b03600954163314611aa7565b600093845483810180911161096e57600c5490680100000000000000008210156102bd5761101781610ffe600194858101600c556127e8565b90919082549060031b91821b91600019901b1916179055565b86526020600d8152604087209280519889116102bd576110418961103b865461181f565b86611b77565b81601f8a1160011461108057509780928192899a61045f9a94611075575b50501b916000199060031b1c1916179055611faf565b01519250388061105f565b909891601f1983169961109886600052602060002090565b928a905b8c82106110d75750508361045f9a9b106110be575b505050811b019055611faf565b015160001960f88460031b161c191690553880806110b1565b80878596829496860151815501950193019061109c565b3461027157602036600319011261027157600435600052600e602052602060ff604060002054166040519015158152f35b6020908160408183019282815285518094520193019160005b828110611146575050505090565b835185529381019392810192600101611138565b346102715760203660031901126102715761117361025b565b60008061117f83611bcb565b9161118983612675565b93611192611c06565b506001600160a01b0390811691835b8585036111b65760405180610661898261111f565b6111d26111cd826000526004602052604060002090565b611c25565b604081015161121e57516001600160a01b0316838116611215575b506001908484841614611201575b016111a1565b8061120f838801978a6125ce565b526111fb565b915060016111ed565b506001906111fb565b34610271576000366003190112610271576009546040516001600160a01b039091168152602090f35b3461027157602080600319360112610271576001600160401b03906004358281116102715761128390369060040161036b565b6009549091906001600160a01b031633036113d1576112a0611859565b9082519384116102bd576112be846112b960085461181f565b611b06565b80601f851160011461132b575092807fc9c7c3fe08b88b4df9d4d47ef47d2c43d55c025a0ba88ca442580ed9e7348a1694600091611320575b508160011b916000199060031b1c1916176008555b61131b60405192839283612926565b0390a1005b9050830151386112f7565b600860005290601f1985167ff3f7a9fe364faab93b216da50a3214154f22a0a2b415b23a84c8169e8b636ee3926000905b8282106113b95750509185917fc9c7c3fe08b88b4df9d4d47ef47d2c43d55c025a0ba88ca442580ed9e7348a1696600194106113a0575b5050811b0160085561130c565b85015160001960f88460031b161c191690553880611393565b80600185968294968a0151815501950193019061135c565b604051639f7f092560e01b8152600490fd5b34610271576000806003193601126106ea5760405190806003546114068161181f565b808552916001918083169081156106c0575060011461142f5761066185610655818703826102f8565b9250600383527fc2575a0e9e593c00f959f8c92f12db2869c3395a3b0502d05e2516446f71f85b5b82841061147257505050810160200161065582610661610645565b80546020858701810191909152909301928101611457565b34610271576060366003190112610271576106616114b66114a961025b565b60443590602435906126a7565b6040519182918261111f565b34610271576060366003190112610271576004356114de610276565b9060443560018060a01b0380600954163303610ecd5761271080831161158d57507f7365cf4122f072a3365c20d54eff9b38d73c096c28e1892ec8f5b0e403a0f12d916115786115889260405196611535886102a2565b169586815282602082015285600052600b6020526040600020815181546001600160a01b0319166001600160a01b03919091161781559060019060200151910155565b6040519081529081906020820190565b0390a3005b6044908360405191630a4930ad60e31b835260048301526024820152fd5b34610271576040366003190112610271576115c461025b565b602435801515809103610271576001600160a01b03821691338314611641573360009081526007602090815260408083206001600160a01b0390941683529290522060ff1981541660ff83161790556040519081527f17307eab39ab6107e8899845ad3d59bd9653f200f220920489ca2b5937696c3160203392a3005b60405163b06307db60e01b8152600490fd5b602080820190808352835180925260408301928160408460051b8301019501936000915b8483106116875750505050505090565b90919293949584806116a5600193603f198682030187528a516105d2565b9801930193019194939290611677565b34610271576020366003190112610271576001600160401b036004358181116102715736602382011215610271578060040135918211610271573660248360051b830101116102715761066191602461170e920161295a565b60405191829182611653565b3461027157600036600319011261027157600a54604080516001600160a01b038316815260a09290921c61ffff16602083015290f35b346102715760803660031901126102715761176961025b565b611771610276565b606435916001600160401b0383116102715761179461076793369060040161036b565b9160443591611d5c565b346102715760203660031901126102715760606117bc60043561253f565b6040805182516001600160a01b031681526020808401516001600160401b03169082015291810151151590820152f35b346102715760203660031901126102715761066161180b600435611a34565b6040519182916020835260208301906105d2565b90600182811c9216801561184f575b602083101461183957565b634e487b7160e01b600052602260045260246000fd5b91607f169161182e565b604051906000826008549161186d8361181f565b808352926001908181169081156118f55750600114611896575b50611894925003836102f8565b565b6008600090815291507ff3f7a9fe364faab93b216da50a3214154f22a0a2b415b23a84c8169e8b636ee35b8483106118da5750611894935050810160200138611887565b81935090816020925483858a010152019101909185926118c1565b90506020925061189494915060ff191682840152151560051b82010138611887565b906040519182600082549261192b8461181f565b9081845260019485811690816000146119985750600114611955575b5050611894925003836102f8565b9093915060005260209081600020936000915b81831061198057505061189493508201013880611947565b85548884018501529485019487945091830191611968565b91505061189494506020925060ff191682840152151560051b8201013880611947565b346102715760003660031901126102715761066161180b611859565b3461027157604036600319011261027157602060ff611a286119f761025b565b6119ff610276565b6001600160a01b0391821660009081526007865260408082209290931681526020919091522090565b54166040519015158152f35b806000526020600f8152611a4b6040600020611917565b8051611aa1575061038690611a68611a6284612851565b93612b78565b926040519381611a8186935180928680870191016105af565b8201611a95825180938680850191016105af565b010380845201826102f8565b91505090565b15611aae57565b60405162461bcd60e51b815260206004820152601760248201527f4e6f7420617574686f72697a656420746f206d696e742e0000000000000000006044820152606490fd5b60405190611b00826102dd565b60008252565b601f8111611b12575050565b600090600882527ff3f7a9fe364faab93b216da50a3214154f22a0a2b415b23a84c8169e8b636ee3906020601f850160051c83019410611b6d575b601f0160051c01915b828110611b6257505050565b818155600101611b56565b9092508290611b4d565b90601f8111611b8557505050565b600091825260208220906020601f850160051c83019410611bc1575b601f0160051c01915b828110611bb657505050565b818155600101611baa565b9092508290611ba1565b6001600160a01b03168015611bf45760005260056020526001600160401b036040600020541690565b6040516323d3ad8160e21b8152600490fd5b60405190611c13826102c2565b60006040838281528260208201520152565b90604051611c32816102c2565b91546001600160a01b038116835260a081901c6001600160401b0316602084015260e01c60ff1615156040830152565b611c6a611c06565b50806000548110611c88575b604051636f96cda160e11b8152600490fd5b6111cd611c9f916000526004602052604060002090565b611caf6107926040830151151590565b15611c765780516001600160a01b0316611cfe57505b60001901611ce06111cd826000526004602052604060002090565b8051611cf4906001600160a01b0316610bd2565b611cfe5750611cc5565b905090565b600054811080611d40575b15611d2e576000908152600660205260409020546001600160a01b031690565b6040516333d1c03960e21b8152600490fd5b5080600052600460205260ff60406000205460e01c1615611d0e565b929190611d6a828286612148565b803b611d77575b50505050565b611d8093612516565b15611d8e5738808080611d71565b6040516368d2bf6b60e11b8152600490fd5b805467ffffffffffffffff60a01b191660a09290921b67ffffffffffffffff60a01b16919091179055565b600080546001600160a01b0383169391929091908415611f9e576001600160a01b0381166000908152600560205260409020611e30905b611e16610a7c82546001600160401b031690565b6001600160401b03166001600160401b0319825416179055565b6001600160a01b0381166000908152600560205260409020611e8a908054611e639060401c6001600160401b0316610a7c565b67ffffffffffffffff60401b82549160401b169067ffffffffffffffff60401b1916179055565b611ec181611ea2856000526004602052604060002090565b80546001600160a01b0319166001600160a01b03909216919091179055565b611ee76001600160401b034216611ee2856000526004602052604060002090565b611da0565b8294600190818501833b1515600014611f565782805b611f12575b5050505050508154036106ea5755565b15611f49575b86888389600080516020612c448339815191528180a4611f3f61079287868c019b8861246d565b611d8e5783611efd565b808810611f185780611f02565b9250935080809350905b611f6c575b5050505055565b15611f91575b8382808701968587600080516020612c448339815191528180a4611f60565b808510611f725780611f65565b604051622e076360e81b8152600490fd5b6000805492939092916001600160a01b0381168015611f9e578515612136576120806001600160401b03612052818916612020611ffe8760018060a01b03166000526005602052604060002090565b611e168361201383546001600160401b031690565b016001600160401b031690565b6001600160a01b0386166000908152600560205260409020611e63909161201383546001600160401b039060401c1690565b61206a84611ea2886000526004602052604060002090565b4216611ee2866000526004602052604060002090565b8395840190823b15156000146120ee5760019182805b6120aa575050505050508154036106ea5755565b156120e1575b86888389600080516020612c448339815191528180a46120d761079287868c019b8861246d565b611d8e5783612096565b8088106120b05780611f02565b935091505060019081805b612104575050505055565b15612129575b8382808701968587600080516020612c448339815191528180a46120f9565b80851061210a5780611f65565b60405163b562e8dd60e01b8152600490fd5b61215183611c62565b80516001600160a01b0380841693929181168490036123105783331480156122e7575b80156122d3575b15610bb25784169384156122c15761222e906121978488612321565b6001600160a01b03841660009081526005602052604090206121c790611e16610a3c82546001600160401b031690565b6001600160a01b03811660009081526005602052604090206121e890611e02565b61221e6121ff886000526004602052604060002090565b80546001600160a01b0319166001600160a01b03909316929092178255565b6001600160401b03421690611da0565b6001850190612247826000526004602052604060002090565b805490929061225e906001600160a01b0316610bd2565b1561227d575b50505050600080516020612c44833981519152600080a4565b6000540361228c575b80612264565b81546001600160a01b0319166001600160a01b039093169290921781556122b991610ba490602090610b96565b388080612286565b604051633a954ecd60e21b8152600490fd5b50336122e1610bd288611d03565b1461217b565b5061230b61078b33610c088660018060a01b03166000526007602052604060002090565b612174565b60405162a1148160e81b8152600490fd5b600081815260066020526040812080546001600160a01b031916905590916001600160a01b03167f8c5be1e5ebec7d5bd14f71427d1e84f3dd0314c0f7b2291e5b200ac8c7c3b9258280a4565b600082815260066020526040902080546001600160a01b0319166001600160a01b0383161790559091906001600160a01b0390811691167f8c5be1e5ebec7d5bd14f71427d1e84f3dd0314c0f7b2291e5b200ac8c7c3b925600080a4565b90816020910312610271575161038681610517565b610386939260809260018060a01b0316825260006020830152604082015281606082015201906105d2565b6001600160a01b039182168152911660208201526040810191909152608060608201819052610386929101906105d2565b3d15612468573d9061244e82610319565b9161245c60405193846102f8565b82523d6000602084013e565b606090565b61249660209160009394604051948580948193630a85bd0160e11b998a845233600485016123e1565b03926001600160a01b03165af1600091816124e6575b506124d8576124b961243d565b805190816124d3576040516368d2bf6b60e11b8152600490fd5b602001fd5b6001600160e01b0319161490565b61250891925060203d811161250f575b61250081836102f8565b8101906123cc565b90386124ac565b503d6124f6565b92602091612496936000604051809681958294630a85bd0160e11b9a8b8552336004860161240c565b612547611c06565b50612550611c06565b600054821015611cfe575080600052600460205260406000209060ff60405192612579846102c2565b546001600160a01b038116845260a081901c6001600160401b0316602085015260e01c161515604083018190526125b4576103869150611c62565b5090565b634e487b7160e01b600052603260045260246000fd5b80518210156125e25760209160051b010190565b6125b8565b80516125f281610d00565b9161260060405193846102f8565b818352601f1961260f83610d00565b0160005b81811061265e57505060005b82810361262c5750505090565b8061264261263c600193856125ce565b5161253f565b61264c82876125ce565b5261265781866125ce565b500161261f565b602090612669611c06565b82828801015201612613565b9061267f82610d00565b61268c60405191826102f8565b828152809261269d601f1991610d00565b0190602036910137565b90828110156127d65760009182548085116127ce575b506126c781611bcb565b848310156127c7578285038181106127bf575b505b6126e581612675565b9581156127b7576126f58461253f565b91859460409361270a61079286830151151590565b6127a5575b505b878114158061279b575b1561278e576127376111cd826000526004602052604060002090565b8085015161278557516001600160a01b039081168061277c575b509081600192871690881614612768575b01612711565b80612776838a01998c6125ce565b52612762565b96506001612751565b50600190612762565b5050959450505050815290565b508187141561271b565b516001600160a01b031695503861270f565b945050505050565b9050386126da565b50826126dc565b9350386126bd565b604051631960ccad60e11b8152600490fd5b600c548110156125e257600c6000527fdf6966c971051c3d54ec59162606531493a51404a002842f56009d7e5cf4a8c70190600090565b634e487b7160e01b600052601160045260246000fd5b906001820180921161096e57565b603001908160301161096e57565b600c5460405180828152816020809201600c6000527fdf6966c971051c3d54ec59162606531493a51404a002842f56009d7e5cf4a8c79260005b86811061290f5750506128a0925003826102f8565b60005b8281106128c7576040516309797f6960e21b815260048101859052602490fd5b0390fd5b6128d181836125ce565b5184106128e6576128e190612835565b6128a3565b610386935061290a92506128f9916125ce565b51600052600d602052604060002090565b611917565b84548352600194850194869450928201920161288b565b909161293d610386936040845260408401906105d2565b9160208184039101526105d2565b600019811461096e5760010190565b9061296481610d00565b9161297260405193846102f8565b818352601f1961298183610d00565b0160005b818110612a0b57505060005b82811061299e5750505090565b8060051b820135601e1983360301811215610271578201908135916001600160401b038311610271576020018236038113610271576129e56129eb91612a06943691610334565b30612a77565b6129f582876125ce565b52612a0081866125ce565b5061294b565b612991565b806060602080938801015201612985565b600052600b602052604060002090602060405192612a39846102a2565b80546001600160a01b039081168086526001909201549290940182905280612a6e57505061ffff600a549283169260a01c1690565b925061ffff1690565b906103869160008060405193612a8c856102c2565b602785527f416464726573733a206c6f772d6c6576656c2064656c65676174652063616c6c6020860152660819985a5b195960ca1b6040860152602081519101845af4612ad761243d565b929015612b385750815115612aea575090565b3b15612af35790565b60405162461bcd60e51b815260206004820152601d60248201527f416464726573733a2063616c6c20746f206e6f6e2d636f6e74726163740000006044820152606490fd5b825190915015612b4b5750805190602001fd5b60405162461bcd60e51b81529081906128c390600483016105f7565b9081518110156125e2570160200190565b8015612c2557806000908282935b612c115750612b9483610319565b92612ba260405194856102f8565b80845281601f19612bb283610319565b013660208701375b612bc45750505090565b600019810190811161096e578091600a91612c08612bff612bef612be9868606612843565b60ff1690565b60f81b6001600160f81b03191690565b861a9187612b67565b53049081612bba565b92612c1d600a9161294b565b930480612b86565b50604051612c32816102a2565b60018152600360fc1b60208201529056feddf252ad1be2c89b69c2b068fc378daa952ba7f163c4a11628f55a4df523b3efa2646970667358221220a81b60a9573eaa9abade2165bae3087a0f5e2969beda116a5074e7e2c0740c2364736f6c63430008140033",
  "linkReferences": {},
  "deployedLinkReferences": {}
}